{
	"data": {
		"bytecode": {
			"linkReferences": {},
			"object": "60806040523480156200001157600080fd5b5060405162003622380380620036228339810160408190526200003491620001f8565b6200004862000042620000da565b620000de565b6200006157620000616200005b620000da565b62000101565b600180546001600160a01b03199081166001600160a01b039889161790915560028054821696881696909617909555600580548616948716949094179093556006805485169286169290921790915560048054841691851691909117905560038054909216921691909117905561012c6007556200031d565b3390565b6000620000fb8260006200015360201b6200067f1790919060201c565b92915050565b6200011c816000620001a760201b620006c71790919060201c565b6040516001600160a01b038216907fac89bb7b3d0c5a763a97f31bc75f8faee00426e7b235f02ca76897d55caf7b6190600090a250565b60006001600160a01b038216620001875760405162461bcd60e51b81526004016200017e90620002c2565b60405180910390fd5b506001600160a01b03166000908152602091909152604090205460ff1690565b620001b3828262000153565b15620001d35760405162461bcd60e51b81526004016200017e906200028b565b6001600160a01b0316600090815260209190915260409020805460ff19166001179055565b60008060008060008060c0878903121562000211578182fd5b86516200021e8162000304565b6020880151909650620002318162000304565b6040880151909550620002448162000304565b6060880151909450620002578162000304565b60808801519093506200026a8162000304565b60a08801519092506200027d8162000304565b809150509295509295509295565b6020808252601f908201527f526f6c65733a206163636f756e7420616c72656164792068617320726f6c6500604082015260600190565b60208082526022908201527f526f6c65733a206163636f756e7420697320746865207a65726f206164647265604082015261737360f01b606082015260800190565b6001600160a01b03811681146200031a57600080fd5b50565b6132f5806200032d6000396000f3fe608060405234801561001057600080fd5b50600436106101005760003560e01c8063b6c3ef2711610097578063d53b245b11610066578063d53b245b146101d9578063e281cc7e146101ec578063e8153c93146101f4578063f897a22b146101fc57610100565b8063b6c3ef27146101a3578063bc8a0669146101b6578063c31c9c07146101be578063ceba6f8d146101c657610100565b806349a84429116100d357806349a84429146101555780636b036f45146101685780638c2d741c146101705780639a94775d1461018357610100565b80630f4ef8a61461010557806329575f6a14610123578063412736571461012b578063441f5c6514610140575b600080fd5b61010d610204565b60405161011a9190610bc5565b60405180910390f35b61010d610213565b61013e6101393660046109d8565b610222565b005b61014861029a565b60405161011a9190610ee6565b61013e6101633660046109d8565b6102a0565b61014861033c565b61013e61017e3660046109d8565b610342565b6101966101913660046109d8565b610375565b60405161011a9190610bd9565b61013e6101b13660046109d8565b610389565b61010d6103f7565b61010d610406565b61010d6101d43660046109f9565b610415565b61013e6101e7366004610b10565b610602565b61013e61064f565b61010d610661565b61010d610670565b6002546001600160a01b031681565b6003546001600160a01b031681565b61022d610191610713565b6102525760405162461bcd60e51b815260040161024990610da9565b60405180910390fd5b6001600160a01b0381166102785760405162461bcd60e51b815260040161024990610d8b565b600580546001600160a01b0319166001600160a01b0392909216919091179055565b60075481565b6102ab610191610713565b6102c75760405162461bcd60e51b815260040161024990610da9565b6004546001600160a01b03828116911614156102f55760405162461bcd60e51b815260040161024990610e06565b600480546001600160a01b0319166001600160a01b0383161790556040517f3199ab49607559567913d4714288fee1e692c31829ed4722a6fd064adbdc5b5490600090a150565b60085481565b61034d610191610713565b6103695760405162461bcd60e51b815260040161024990610da9565b61037281610717565b50565b6000610381818361067f565b90505b919050565b610394610191610713565b6103b05760405162461bcd60e51b815260040161024990610da9565b600380546001600160a01b0319166001600160a01b0383161790556040517fb25686d5de2544aa0f0235ea99dd20e962286bc9cec2fb371b226a637be461f790600090a150565b6004546001600160a01b031681565b6005546001600160a01b031681565b6000610422610191610713565b61043e5760405162461bcd60e51b815260040161024990610da9565b610120850151610452576007546101208601525b6000604051610460906108c2565b604051809103906000f08015801561047c573d6000803e3d6000fd5b5060048054604051631b2ce7f360e11b815292935083926001600160a01b0380851693633659cfe6936104b29392169101610bc5565b600060405180830381600087803b1580156104cc57600080fd5b505af11580156104e0573d6000803e3d6000fd5b5050604080516080810182526005546001600160a01b039081168252600654811660208301528f811692820192909252908d166060820152915061052c9050818b8b8b8b8b8b8a610759565b60035460405163f2fde38b60e01b81526001600160a01b038581169263f2fde38b9261055e9290911690600401610bc5565b600060405180830381600087803b15801561057857600080fd5b505af115801561058c573d6000803e3d6000fd5b505060025460405163d914cd4b60e01b81526001600160a01b03909116925063d914cd4b91506105c0908590600401610bc5565b600060405180830381600087803b1580156105da57600080fd5b505af11580156105ee573d6000803e3d6000fd5b50939e9d5050505050505050505050505050565b61060d610191610713565b6106295760405162461bcd60e51b815260040161024990610da9565b612710811061064a5760405162461bcd60e51b815260040161024990610d44565b600755565b61065f61065a610713565b610838565b565b6001546001600160a01b031681565b6006546001600160a01b031681565b60006001600160a01b0382166106a75760405162461bcd60e51b815260040161024990610ea4565b506001600160a01b03166000908152602091909152604090205460ff1690565b6106d1828261067f565b156106ee5760405162461bcd60e51b815260040161024990610d0d565b6001600160a01b0316600090815260209190915260409020805460ff19166001179055565b3390565b6107226000826106c7565b6040516001600160a01b038216907fac89bb7b3d0c5a763a97f31bc75f8faee00426e7b235f02ca76897d55caf7b6190600090a250565b6001546002546001600160a01b038084169263869eb310928b928b9281169116610781610713565b8e8c8c8c8c6040518b63ffffffff1660e01b81526004016107ab9a99989796959493929190610c4c565b600060405180830381600087803b1580156107c557600080fd5b505af11580156107d9573d6000803e3d6000fd5b505050506000819050806001600160a01b03167fd69cf3c5f6280df773a744806dc6920bc09109ef4a352c0846f5ef35965dca1289898989898960405161082596959493929190610be4565b60405180910390a2505050505050505050565b61084360008261087a565b6040516001600160a01b038216907f2bc71cc60b543df5fdd80ef5a45e1cdb344843769b649e9d901de3be24aeb24e90600090a250565b610884828261067f565b6108a05760405162461bcd60e51b815260040161024990610e63565b6001600160a01b0316600090815260209190915260409020805460ff19169055565b61236f80610f5183390190565b80356001600160a01b038116811461038457600080fd5b600082601f8301126108f6578081fd5b60405161010080820182811067ffffffffffffffff8211171561091b5761091b610f3a565b604052818482810187101561092e578485fd5b8492505b600883101561095257803582526001929092019160209182019101610932565b509195945050505050565b8035801515811461038457600080fd5b600082601f83011261097d578081fd5b813567ffffffffffffffff81111561099757610997610f3a565b6109aa601f8201601f1916602001610eef565b8181528460208386010111156109be578283fd5b816020850160208301379081016020019190915292915050565b6000602082840312156109e9578081fd5b6109f2826108cf565b9392505050565b600080600080600080600080610420898b031215610a15578384fd5b610a1e896108cf565b97506020610a2d818b016108cf565b975060408a013567ffffffffffffffff80821115610a49578687fd5b610a558d838e0161096d565b985060608c0135915080821115610a6a578687fd5b50610a778c828d0161096d565b9650508a609f8b0112610a88578485fd5b610a9a610a95600c610f19565b610eef565b8060808c016102008d018e811115610ab0578889fd5b885b600c811015610acf57823585529385019391850191600101610ab2565b50829850610add8f826108e6565b97505050505050610af28a6103008b016108e6565b9150610b016104008a0161095d565b90509295985092959890939650565b600060208284031215610b21578081fd5b5035919050565b8060005b600c811015610b4b578151845260209384019390910190600101610b2c565b50505050565b8060005b6008811015610b4b578151845260209384019390910190600101610b55565b15159052565b60008151808452815b81811015610b9f57602081850181015186830182015201610b83565b81811115610bb05782602083870101525b50601f01601f19169290920160200192915050565b6001600160a01b0391909116815260200190565b901515815260200190565b60006103e0808352610bf88184018a610b7a565b90508281036020840152610c0c8189610b7a565b915050610c1c6040830187610b28565b610c2a6101c0830186610b51565b610c386102c0830185610b51565b8215156103c0830152979650505050505050565b60006104c0808352610c608184018e610b7a565b9050602083820381850152610c75828e610b7a565b6001600160a01b038d811660408701528c811660608701528b81166080870152909350915060a084018960005b6004811015610cc1578151851683529183019190830190600101610ca2565b5050505050610cd4610120830187610b28565b610ce26102a0830186610b51565b610cf06103a0830185610b51565b610cfe6104a0830184610b74565b9b9a5050505050505050505050565b6020808252601f908201527f526f6c65733a206163636f756e7420616c72656164792068617320726f6c6500604082015260600190565b60208082526027908201527f303432302054617820636f6e6e6f74206265206f7665722031303025202831306040820152663030302042502960c81b606082015260800190565b6020808252600490820152630303431360e41b604082015260600190565b6020808252603a908201527f506f6f6c43726561746f72526f6c653a2063616c6c657220646f6573206e6f7460408201527f20686176652074686520506f6f6c43726561746f7220726f6c65000000000000606082015260800190565b6020808252603d908201527f5468697320616464726573732069732074686520696d706c656d656e7461746960408201527f6f6e207468617420697320616c7265616479206265696e672075736564000000606082015260800190565b60208082526021908201527f526f6c65733a206163636f756e7420646f6573206e6f74206861766520726f6c6040820152606560f81b606082015260800190565b60208082526022908201527f526f6c65733a206163636f756e7420697320746865207a65726f206164647265604082015261737360f01b606082015260800190565b90815260200190565b60405181810167ffffffffffffffff81118282101715610f1157610f11610f3a565b604052919050565b600067ffffffffffffffff821115610f3357610f33610f3a565b5060200290565b634e487b7160e01b600052604160045260246000fdfe608060405234801561001057600080fd5b50607a80546001600160a01b03191633179055607b805460ff60d01b1916600160d01b17905561232a806100456000396000f3fe6080604052600436106102cd5760003560e01c806395c2ba4711610175578063d7efb6b7116100dc578063eb850ae111610095578063f3d9dc0d1161006f578063f3d9dc0d146107c0578063f5e96fc9146107d5578063f8eeed62146107ea578063fd5e6dd1146107ff576102d4565b8063eb850ae11461075d578063f1b17a8b14610772578063f2fde38b146107a0576102d4565b8063d7efb6b7146106af578063de09ee20146106c4578063e0818669146106f2578063e425df8c1461071e578063e68b52e714610733578063e8153c9314610748576102d4565b8063aa7bcb571161012e578063aa7bcb5714610631578063b1dd61b614610646578063bece75321461065b578063c120105414610670578063c6c1decd14610685578063d025188b1461069a576102d4565b806395c2ba471461059b578063996c6cc3146105b0578063a08b2c79146105c5578063a35ef3a7146105da578063a4e2d634146105fc578063a8f7b34614610611576102d4565b80636847d0c511610234578063785fa627116101ed578063850fa7cb116101c7578063850fa7cb1461051c578063869eb310146105515780638cf0e21e146105715780638da5cb5b14610586576102d4565b8063785fa627146104dd5780637f2b6a0d146104f2578063817b1cd214610507576102d4565b80636847d0c51461045f5780636b036f4514610474578063715018a614610489578063725c9c491461049e57806373f31703146104b3578063785df1f8146104c8576102d4565b80633659cfe6116102865780633659cfe6146103cb5780633fcdd82c146103eb5780634bc4eeb21461040b5780634e8bfdaa1461042057806351eacbf01461043557806367fc91381461044a576102d4565b80630d6680871461030e5780630f4ef8a61461033957806322f3e2d41461035b578063238a6c741461037d57806328016f9a1461039f5780632aa8195e146103b6576102d4565b366102d457005b6079546001600160a01b0316806102ea57600080fd5b3660008037600080366000845af43d6000803e808015610309573d6000f35b3d6000fd5b34801561031a57600080fd5b5061032361081f565b6040516103309190612120565b60405180910390f35b34801561034557600080fd5b5061034e610825565b6040516103309190611ddb565b34801561036757600080fd5b50610370610834565b6040516103309190611e1b565b34801561038957600080fd5b50610392610844565b6040516103309190611e26565b3480156103ab57600080fd5b506103b46108d2565b005b3480156103c257600080fd5b5061034e61092f565b3480156103d757600080fd5b506103b46103e6366004611b21565b61093e565b3480156103f757600080fd5b50610323610406366004611d47565b6109d8565b34801561041757600080fd5b50610370610a9c565b34801561042c57600080fd5b50610323610aac565b34801561044157600080fd5b50610323610ab2565b34801561045657600080fd5b506103b4610ab8565b34801561046b57600080fd5b50610323610b06565b34801561048057600080fd5b50610323610b0c565b34801561049557600080fd5b506103b4610b12565b3480156104aa57600080fd5b5061034e610b5d565b3480156104bf57600080fd5b50610323610b6c565b3480156104d457600080fd5b50610323610b72565b3480156104e957600080fd5b50610323610b78565b3480156104fe57600080fd5b50610370610b7e565b34801561051357600080fd5b50610323610b8e565b34801561052857600080fd5b5061053c610537366004611b87565b610b94565b60405161033099989796959493929190612150565b34801561055d57600080fd5b506103b461056c366004611c59565b610c02565b34801561057d57600080fd5b5061037061119f565b34801561059257600080fd5b5061034e6111af565b3480156105a757600080fd5b506103236111be565b3480156105bc57600080fd5b5061034e6111c3565b3480156105d157600080fd5b506103706111d2565b3480156105e657600080fd5b506105ef6111e2565b6040516103309190611e08565b34801561060857600080fd5b50610370611291565b34801561061d57600080fd5b506103b461062c366004611b3d565b6112a1565b34801561063d57600080fd5b50610323611356565b34801561065257600080fd5b5061039261135c565b34801561066757600080fd5b5061034e611369565b34801561067c57600080fd5b50610323611378565b34801561069157600080fd5b5061034e6113fe565b3480156106a657600080fd5b5061032361140d565b3480156106bb57600080fd5b50610370611413565b3480156106d057600080fd5b506106e46106df366004611d47565b611423565b604051610330929190611def565b3480156106fe57600080fd5b5061070761145b565b6040516103309b9a99989796959493929190612193565b34801561072a57600080fd5b50610323611488565b34801561073f57600080fd5b5061032361148e565b34801561075457600080fd5b5061034e611494565b34801561076957600080fd5b506103236114a3565b34801561077e57600080fd5b5061079261078d366004611d47565b6114a9565b604051610330929190612142565b3480156107ac57600080fd5b506103b46107bb366004611b21565b6114d7565b3480156107cc57600080fd5b50610323611548565b3480156107e157600080fd5b5061034e61154e565b3480156107f657600080fd5b5061032361155d565b34801561080b57600080fd5b506106e461081a366004611d47565b611563565b606a5481565b608d546001600160a01b031681565b607b54600160b01b900460ff1681565b607c80546108519061225d565b80601f016020809104026020016040519081016040528092919081815260200182805461087d9061225d565b80156108ca5780601f1061089f576101008083540402835291602001916108ca565b820191906000526020600020905b8154815290600101906020018083116108ad57829003601f168201915b505050505081565b6108da611573565b6001600160a01b03166108eb6111af565b6001600160a01b03161461091a5760405162461bcd60e51b815260040161091190611ff3565b60405180910390fd5b607b805460ff60d01b1916600160d01b179055565b6079546001600160a01b031681565b607a546001600160a01b031633146109685760405162461bcd60e51b8152600401610911906120e9565b607b54600160d01b900460ff166109915760405162461bcd60e51b815260040161091190611e79565b6079546001600160a01b03828116911614156109bf5760405162461bcd60e51b815260040161091190611f6e565b6109c881611577565b50607b805460ff60d01b19169055565b60665460009081906001600160a01b031663d06ca61f846109f76111e2565b6040518363ffffffff1660e01b8152600401610a14929190612129565b60006040518083038186803b158015610a2c57600080fd5b505afa158015610a40573d6000803e3d6000fd5b505050506040513d6000823e601f3d908101601f19168201604052610a689190810190611bb2565b905080600181518110610a8b57634e487b7160e01b600052603260045260246000fd5b60200260200101519150505b919050565b607b54600160a81b900460ff1681565b606b5481565b606c5481565b610ac0611573565b6001600160a01b0316610ad16111af565b6001600160a01b031614610af75760405162461bcd60e51b815260040161091190611ff3565b607b805460ff60d01b19169055565b60705481565b60715481565b610b1a611573565b6001600160a01b0316610b2b6111af565b6001600160a01b031614610b515760405162461bcd60e51b815260040161091190611ff3565b610b5b60006115be565b565b6066546001600160a01b031690565b606f5481565b60785481565b606e5481565b607b54600160c01b900460ff1681565b60725481565b608b6020528160005260406000208181548110610bb057600080fd5b6000918252602090912060089091020180546001820154600283015460038401546004850154600586015460068701546007909701549598509396509194909391929160ff8082169161010090041689565b600054610100900460ff1680610c1b575060005460ff16155b610c375760405162461bcd60e51b815260040161091190611fa5565b600054610100900460ff16158015610c62576000805460ff1961ff0019909116610100171660011790555b607a546001600160a01b03163314610c8c5760405162461bcd60e51b8152600401610911906120e9565b610c94611610565b610c9c611694565b855160208701516060880151610cb39291906112a1565b84514210610cd35760405162461bcd60e51b815260040161091190612028565b8a51610ce690607c9060208e01906118ad565b508951610cfa90607d9060208d01906118ad565b50608c80546001600160a01b03808c166001600160a01b031992831617909255608d80548b8416908316179055607a8054928a1692909116919091179055610d4886600160200201516116fc565b604086810151607b80546001600160a01b03199081166001600160a01b039384169081179092556060808b0151608e8054909316941693909317905587516069556020880151606b5591870151606a55860151606c556080860151606d5560a0860151606e5560c0860151606f5560e0860151607455610100860151607555610120860151607055610140860151607155610deb57610160850151607755610e07565b607b54610e00906001600160a01b031661171e565b60ff166077555b607b805460ff60a81b1916600160a81b8415150217905582518451600091610e2f919061179f565b905060005b600881101561104b57858160088110610e5d57634e487b7160e01b600052603260045260246000fd5b6020020151610e6b5761104b565b85610e7782600161220f565b60088110610e9557634e487b7160e01b600052603260045260246000fd5b602002015115610fb25785610eab82600161220f565b60088110610ec957634e487b7160e01b600052603260045260246000fd5b6020020151868260088110610eee57634e487b7160e01b600052603260045260246000fd5b602002015110610f105760405162461bcd60e51b815260040161091190611ef6565b610faf610fa886610f2284600161220f565b60088110610f4057634e487b7160e01b600052603260045260246000fd5b6020020151610fa2898560088110610f6857634e487b7160e01b600052603260045260246000fd5b60200201518a610f7987600161220f565b60088110610f9757634e487b7160e01b600052603260045260246000fd5b6020020151906117b2565b9061179f565b83906117be565b91505b60886040518060400160405280888460088110610fdf57634e487b7160e01b600052603260045260246000fd5b6020020151815260200187846008811061100957634e487b7160e01b600052603260045260246000fd5b6020908102919091015190915282546001818101855560009485529382902083516002909202019081559101519101558061104381612298565b915050610e34565b601986611059600184612246565b6008811061107757634e487b7160e01b600052603260045260246000fd5b6020020151111561109a5760405162461bcd60e51b815260040161091190611f24565b846110a6600183612246565b600881106110c457634e487b7160e01b600052603260045260246000fd5b6020020151158015906110f957508481600881106110f257634e487b7160e01b600052603260045260246000fd5b6020020151155b6111155760405162461bcd60e51b8152600401610911906120a4565b81612710146111365760405162461bcd60e51b81526004016109119061206d565b5050606954607e55606a54607f55606b54608055606f54608255606e54608355606d54608455607654608555607b546087805460ff1916600160a81b90920460ff1615159190911790558015611192576000805461ff00191690555b5050505050505050505050565b607b54600160d01b900460ff1681565b6033546001600160a01b031690565b600581565b608e546001600160a01b031681565b607b54600160a01b900460ff1681565b60408051600280825260608083018452926000929190602083019080368337505060675482519293506001600160a01b03169183915060009061123557634e487b7160e01b600052603260045260246000fd5b6001600160a01b03928316602091820292909201015260685482519116908290600190811061127457634e487b7160e01b600052603260045260246000fd5b6001600160a01b0390921660209283029190910190910152905090565b607b54600160b81b900460ff1681565b600054610100900460ff16806112ba575060005460ff16155b6112d65760405162461bcd60e51b815260040161091190611fa5565b600054610100900460ff16158015611301576000805460ff1961ff0019909116610100171660011790555b606680546001600160a01b038087166001600160a01b0319928316179092556067805486841690831617905560688054928516929091169190911790558015611350576000805461ff00191690555b50505050565b606d5481565b607d80546108519061225d565b607b546001600160a01b031681565b6065546040516370a0823160e01b81526000916001600160a01b0316906370a08231906113a9903090600401611ddb565b60206040518083038186803b1580156113c157600080fd5b505afa1580156113d5573d6000803e3d6000fd5b505050506040513d601f19601f820116820180604052508101906113f99190611d5f565b905090565b607a546001600160a01b031681565b60735481565b607b54600160c81b900460ff1681565b608a818154811061143357600080fd5b6000918252602090912060029091020180546001909101546001600160a01b03909116915082565b607e54607f5460805460815460825460835460845460855460865460875460ff808216916101009004168b565b60745481565b60775481565b608c546001600160a01b031681565b60755481565b608881815481106114b957600080fd5b60009182526020909120600290910201805460019091015490915082565b6114df611573565b6001600160a01b03166114f06111af565b6001600160a01b0316146115165760405162461bcd60e51b815260040161091190611ff3565b6001600160a01b03811661153c5760405162461bcd60e51b815260040161091190611eb0565b611545816115be565b50565b60765481565b6065546001600160a01b031690565b60695481565b6089818154811061143357600080fd5b3390565b607980546001600160a01b0319166001600160a01b0383161790556040517f3dab95f89f74034beeac9f9fe9bec350186cb958223e1791afb0dbb64859cabd90600090a150565b603380546001600160a01b038381166001600160a01b0319831681179093556040519116919082907f8be0079c531659141344cd1fd0a4f28419497f9722a3daafe3b4186f6b6457e090600090a35050565b600054610100900460ff1680611629575060005460ff16155b6116455760405162461bcd60e51b815260040161091190611fa5565b600054610100900460ff16158015611670576000805460ff1961ff0019909116610100171660011790555b6116786117ca565b61168061183d565b8015611545576000805461ff001916905550565b600054610100900460ff16806116ad575060005460ff16155b6116c95760405162461bcd60e51b815260040161091190611fa5565b600054610100900460ff161580156116f4576000805460ff1961ff0019909116610100171660011790555b6116806117ca565b606580546001600160a01b0319166001600160a01b0392909216919091179055565b6000808290506000816001600160a01b031663313ce5676040518163ffffffff1660e01b815260040160206040518083038186803b15801561175f57600080fd5b505afa158015611773573d6000803e3d6000fd5b505050506040513d601f19601f820116820180604052508101906117979190611d77565b949350505050565b60006117ab8284612227565b9392505050565b60006117ab8284612246565b60006117ab828461220f565b600054610100900460ff16806117e3575060005460ff16155b6117ff5760405162461bcd60e51b815260040161091190611fa5565b600054610100900460ff16158015611680576000805460ff1961ff0019909116610100171660011790558015611545576000805461ff001916905550565b600054610100900460ff1680611856575060005460ff16155b6118725760405162461bcd60e51b815260040161091190611fa5565b600054610100900460ff1615801561189d576000805460ff1961ff0019909116610100171660011790555b6116806118a8611573565b6115be565b8280546118b99061225d565b90600052602060002090601f0160209004810192826118db5760008555611921565b82601f106118f457805160ff1916838001178555611921565b82800160010185558215611921579182015b82811115611921578251825591602001919060010190611906565b5061192d929150611931565b5090565b5b8082111561192d5760008155600101611932565b8035610a97816122df565b600082601f830112611961578081fd5b6040516080810181811067ffffffffffffffff82111715611984576119846122c9565b604052808360808101861015611998578384fd5b835b60048110156119c35781356119ae816122df565b8352602092830192919091019060010161199a565b509195945050505050565b600082601f8301126119de578081fd5b60405161018080820182811067ffffffffffffffff82111715611a0357611a036122c9565b6040528184828101871015611a16578485fd5b8492505b600c8310156119c357803582526001929092019160209182019101611a1a565b600082601f830112611a4a578081fd5b60405161010080820182811067ffffffffffffffff82111715611a6f57611a6f6122c9565b6040528184828101871015611a82578485fd5b8492505b60088310156119c357803582526001929092019160209182019101611a86565b80358015158114610a9757600080fd5b600082601f830112611ac6578081fd5b813567ffffffffffffffff811115611ae057611ae06122c9565b611af3601f8201601f19166020016121e5565b818152846020838601011115611b07578283fd5b816020850160208301379081016020019190915292915050565b600060208284031215611b32578081fd5b81356117ab816122df565b600080600060608486031215611b51578182fd5b8335611b5c816122df565b92506020840135611b6c816122df565b91506040840135611b7c816122df565b809150509250925092565b60008060408385031215611b99578182fd5b8235611ba4816122df565b946020939093013593505050565b60006020808385031215611bc4578182fd5b825167ffffffffffffffff80821115611bdb578384fd5b818501915085601f830112611bee578384fd5b815181811115611c0057611c006122c9565b8381029150611c108483016121e5565b8181528481019084860184860187018a1015611c2a578788fd5b8795505b83861015611c4c578051835260019590950194918601918601611c2e565b5098975050505050505050565b6000806000806000806000806000806104c08b8d031215611c78578586fd5b8a3567ffffffffffffffff80821115611c8f578788fd5b611c9b8e838f01611ab6565b9b5060208d0135915080821115611cb0578788fd5b50611cbd8d828e01611ab6565b995050611ccc60408c01611946565b9750611cda60608c01611946565b9650611ce860808c01611946565b9550611cf78c60a08d01611951565b9450611d078c6101208d016119ce565b9350611d178c6102a08d01611a3a565b9250611d278c6103a08d01611a3a565b9150611d366104a08c01611aa6565b90509295989b9194979a5092959850565b600060208284031215611d58578081fd5b5035919050565b600060208284031215611d70578081fd5b5051919050565b600060208284031215611d88578081fd5b815160ff811681146117ab578182fd5b6000815180845260208085019450808401835b83811015611dd05781516001600160a01b031687529582019590820190600101611dab565b509495945050505050565b6001600160a01b0391909116815260200190565b6001600160a01b03929092168252602082015260400190565b6000602082526117ab6020830184611d98565b901515815260200190565b6000602080835283518082850152825b81811015611e5257858101830151858201604001528201611e36565b81811115611e635783604083870101525b50601f01601f1916929092016040019392505050565b6020808252601a908201527f55706772616465206973206e6f7420656e61626c656420796574000000000000604082015260600190565b60208082526026908201527f4f776e61626c653a206e6577206f776e657220697320746865207a65726f206160408201526564647265737360d01b606082015260800190565b60208082526014908201527377726f6e67206f72646572206f662072616e6b7360601b604082015260600190565b6020808252602a908201527f6c6173742072616e6b206d757374206265206c657373207468616e206f7220656040820152697175616c20746f20323560b01b606082015260800190565b6020808252601d908201527f497320616c72656164792074686520696d706c656d656e746174696f6e000000604082015260600190565b6020808252602e908201527f496e697469616c697a61626c653a20636f6e747261637420697320616c72656160408201526d191e481a5b9a5d1a585b1a5e995960921b606082015260800190565b6020808252818101527f4f776e61626c653a2063616c6c6572206973206e6f7420746865206f776e6572604082015260600190565b60208082526025908201527f30333031206c61756e636820646174652063616e277420626520696e20746865604082015264081c185cdd60da1b606082015260800190565b6020808252601f908201527f7265776172642070657263656e7461676573206d757374206265203130302500604082015260600190565b60208082526025908201527f72616e6b7320616e642070657263656e7461676573206c656e677468206d69736040820152640dac2e8c6d60db1b606082015260800190565b6020808252601a908201527f6d73672e73656e646572206973206e6f7420616e206f776e6572000000000000604082015260600190565b90815260200190565b6000838252604060208301526117976040830184611d98565b918252602082015260400190565b988952602089019790975260408801959095526060870193909352608086019190915260a085015260c0840152151560e083015215156101008201526101200190565b9a8b5260208b019990995260408a01979097526060890195909552608088019390935260a087019190915260c086015260e0850152610100840152151561012083015215156101408201526101600190565b60405181810167ffffffffffffffff81118282101715612207576122076122c9565b604052919050565b60008219821115612222576122226122b3565b500190565b6000816000190483118215151615612241576122416122b3565b500290565b600082821015612258576122586122b3565b500390565b60028104600182168061227157607f821691505b6020821081141561229257634e487b7160e01b600052602260045260246000fd5b50919050565b60006000198214156122ac576122ac6122b3565b5060010190565b634e487b7160e01b600052601160045260246000fd5b634e487b7160e01b600052604160045260246000fd5b6001600160a01b038116811461154557600080fdfea2646970667358221220ef87a47ded9fe92774b9a08a643f7f4d09128c4dfdd1ce4bc7af52b87561e65f64736f6c63430008000033a2646970667358221220e7e5a99ed776faf4e8aa311cd8d8ac71048730bc7495f54ad3408eb62b4b761a64736f6c63430008000033",
			"opcodes": "PUSH1 0x80 PUSH1 0x40 MSTORE CALLVALUE DUP1 ISZERO PUSH3 0x11 JUMPI PUSH1 0x0 DUP1 REVERT JUMPDEST POP PUSH1 0x40 MLOAD PUSH3 0x3622 CODESIZE SUB DUP1 PUSH3 0x3622 DUP4 CODECOPY DUP2 ADD PUSH1 0x40 DUP2 SWAP1 MSTORE PUSH3 0x34 SWAP2 PUSH3 0x1F8 JUMP JUMPDEST PUSH3 0x48 PUSH3 0x42 PUSH3 0xDA JUMP JUMPDEST PUSH3 0xDE JUMP JUMPDEST PUSH3 0x61 JUMPI PUSH3 0x61 PUSH3 0x5B PUSH3 0xDA JUMP JUMPDEST PUSH3 0x101 JUMP JUMPDEST PUSH1 0x1 DUP1 SLOAD PUSH1 0x1 PUSH1 0x1 PUSH1 0xA0 SHL SUB NOT SWAP1 DUP2 AND PUSH1 0x1 PUSH1 0x1 PUSH1 0xA0 SHL SUB SWAP9 DUP10 AND OR SWAP1 SWAP2 SSTORE PUSH1 0x2 DUP1 SLOAD DUP3 AND SWAP7 DUP9 AND SWAP7 SWAP1 SWAP7 OR SWAP1 SWAP6 SSTORE PUSH1 0x5 DUP1 SLOAD DUP7 AND SWAP5 DUP8 AND SWAP5 SWAP1 SWAP5 OR SWAP1 SWAP4 SSTORE PUSH1 0x6 DUP1 SLOAD DUP6 AND SWAP3 DUP7 AND SWAP3 SWAP1 SWAP3 OR SWAP1 SWAP2 SSTORE PUSH1 0x4 DUP1 SLOAD DUP5 AND SWAP2 DUP6 AND SWAP2 SWAP1 SWAP2 OR SWAP1 SSTORE PUSH1 0x3 DUP1 SLOAD SWAP1 SWAP3 AND SWAP3 AND SWAP2 SWAP1 SWAP2 OR SWAP1 SSTORE PUSH2 0x12C PUSH1 0x7 SSTORE PUSH3 0x31D JUMP JUMPDEST CALLER SWAP1 JUMP JUMPDEST PUSH1 0x0 PUSH3 0xFB DUP3 PUSH1 0x0 PUSH3 0x153 PUSH1 0x20 SHL PUSH3 0x67F OR SWAP1 SWAP2 SWAP1 PUSH1 0x20 SHR JUMP JUMPDEST SWAP3 SWAP2 POP POP JUMP JUMPDEST PUSH3 0x11C DUP2 PUSH1 0x0 PUSH3 0x1A7 PUSH1 0x20 SHL PUSH3 0x6C7 OR SWAP1 SWAP2 SWAP1 PUSH1 0x20 SHR JUMP JUMPDEST PUSH1 0x40 MLOAD PUSH1 0x1 PUSH1 0x1 PUSH1 0xA0 SHL SUB DUP3 AND SWAP1 PUSH32 0xAC89BB7B3D0C5A763A97F31BC75F8FAEE00426E7B235F02CA76897D55CAF7B61 SWAP1 PUSH1 0x0 SWAP1 LOG2 POP JUMP JUMPDEST PUSH1 0x0 PUSH1 0x1 PUSH1 0x1 PUSH1 0xA0 SHL SUB DUP3 AND PUSH3 0x187 JUMPI PUSH1 0x40 MLOAD PUSH3 0x461BCD PUSH1 0xE5 SHL DUP2 MSTORE PUSH1 0x4 ADD PUSH3 0x17E SWAP1 PUSH3 0x2C2 JUMP JUMPDEST PUSH1 0x40 MLOAD DUP1 SWAP2 SUB SWAP1 REVERT JUMPDEST POP PUSH1 0x1 PUSH1 0x1 PUSH1 0xA0 SHL SUB AND PUSH1 0x0 SWAP1 DUP2 MSTORE PUSH1 0x20 SWAP2 SWAP1 SWAP2 MSTORE PUSH1 0x40 SWAP1 KECCAK256 SLOAD PUSH1 0xFF AND SWAP1 JUMP JUMPDEST PUSH3 0x1B3 DUP3 DUP3 PUSH3 0x153 JUMP JUMPDEST ISZERO PUSH3 0x1D3 JUMPI PUSH1 0x40 MLOAD PUSH3 0x461BCD PUSH1 0xE5 SHL DUP2 MSTORE PUSH1 0x4 ADD PUSH3 0x17E SWAP1 PUSH3 0x28B JUMP JUMPDEST PUSH1 0x1 PUSH1 0x1 PUSH1 0xA0 SHL SUB AND PUSH1 0x0 SWAP1 DUP2 MSTORE PUSH1 0x20 SWAP2 SWAP1 SWAP2 MSTORE PUSH1 0x40 SWAP1 KECCAK256 DUP1 SLOAD PUSH1 0xFF NOT AND PUSH1 0x1 OR SWAP1 SSTORE JUMP JUMPDEST PUSH1 0x0 DUP1 PUSH1 0x0 DUP1 PUSH1 0x0 DUP1 PUSH1 0xC0 DUP8 DUP10 SUB SLT ISZERO PUSH3 0x211 JUMPI DUP2 DUP3 REVERT JUMPDEST DUP7 MLOAD PUSH3 0x21E DUP2 PUSH3 0x304 JUMP JUMPDEST PUSH1 0x20 DUP9 ADD MLOAD SWAP1 SWAP7 POP PUSH3 0x231 DUP2 PUSH3 0x304 JUMP JUMPDEST PUSH1 0x40 DUP9 ADD MLOAD SWAP1 SWAP6 POP PUSH3 0x244 DUP2 PUSH3 0x304 JUMP JUMPDEST PUSH1 0x60 DUP9 ADD MLOAD SWAP1 SWAP5 POP PUSH3 0x257 DUP2 PUSH3 0x304 JUMP JUMPDEST PUSH1 0x80 DUP9 ADD MLOAD SWAP1 SWAP4 POP PUSH3 0x26A DUP2 PUSH3 0x304 JUMP JUMPDEST PUSH1 0xA0 DUP9 ADD MLOAD SWAP1 SWAP3 POP PUSH3 0x27D DUP2 PUSH3 0x304 JUMP JUMPDEST DUP1 SWAP2 POP POP SWAP3 SWAP6 POP SWAP3 SWAP6 POP SWAP3 SWAP6 JUMP JUMPDEST PUSH1 0x20 DUP1 DUP3 MSTORE PUSH1 0x1F SWAP1 DUP3 ADD MSTORE PUSH32 0x526F6C65733A206163636F756E7420616C72656164792068617320726F6C6500 PUSH1 0x40 DUP3 ADD MSTORE PUSH1 0x60 ADD SWAP1 JUMP JUMPDEST PUSH1 0x20 DUP1 DUP3 MSTORE PUSH1 0x22 SWAP1 DUP3 ADD MSTORE PUSH32 0x526F6C65733A206163636F756E7420697320746865207A65726F206164647265 PUSH1 0x40 DUP3 ADD MSTORE PUSH2 0x7373 PUSH1 0xF0 SHL PUSH1 0x60 DUP3 ADD MSTORE PUSH1 0x80 ADD SWAP1 JUMP JUMPDEST PUSH1 0x1 PUSH1 0x1 PUSH1 0xA0 SHL SUB DUP2 AND DUP2 EQ PUSH3 0x31A JUMPI PUSH1 0x0 DUP1 REVERT JUMPDEST POP JUMP JUMPDEST PUSH2 0x32F5 DUP1 PUSH3 0x32D PUSH1 0x0 CODECOPY PUSH1 0x0 RETURN INVALID PUSH1 0x80 PUSH1 0x40 MSTORE CALLVALUE DUP1 ISZERO PUSH2 0x10 JUMPI PUSH1 0x0 DUP1 REVERT JUMPDEST POP PUSH1 0x4 CALLDATASIZE LT PUSH2 0x100 JUMPI PUSH1 0x0 CALLDATALOAD PUSH1 0xE0 SHR DUP1 PUSH4 0xB6C3EF27 GT PUSH2 0x97 JUMPI DUP1 PUSH4 0xD53B245B GT PUSH2 0x66 JUMPI DUP1 PUSH4 0xD53B245B EQ PUSH2 0x1D9 JUMPI DUP1 PUSH4 0xE281CC7E EQ PUSH2 0x1EC JUMPI DUP1 PUSH4 0xE8153C93 EQ PUSH2 0x1F4 JUMPI DUP1 PUSH4 0xF897A22B EQ PUSH2 0x1FC JUMPI PUSH2 0x100 JUMP JUMPDEST DUP1 PUSH4 0xB6C3EF27 EQ PUSH2 0x1A3 JUMPI DUP1 PUSH4 0xBC8A0669 EQ PUSH2 0x1B6 JUMPI DUP1 PUSH4 0xC31C9C07 EQ PUSH2 0x1BE JUMPI DUP1 PUSH4 0xCEBA6F8D EQ PUSH2 0x1C6 JUMPI PUSH2 0x100 JUMP JUMPDEST DUP1 PUSH4 0x49A84429 GT PUSH2 0xD3 JUMPI DUP1 PUSH4 0x49A84429 EQ PUSH2 0x155 JUMPI DUP1 PUSH4 0x6B036F45 EQ PUSH2 0x168 JUMPI DUP1 PUSH4 0x8C2D741C EQ PUSH2 0x170 JUMPI DUP1 PUSH4 0x9A94775D EQ PUSH2 0x183 JUMPI PUSH2 0x100 JUMP JUMPDEST DUP1 PUSH4 0xF4EF8A6 EQ PUSH2 0x105 JUMPI DUP1 PUSH4 0x29575F6A EQ PUSH2 0x123 JUMPI DUP1 PUSH4 0x41273657 EQ PUSH2 0x12B JUMPI DUP1 PUSH4 0x441F5C65 EQ PUSH2 0x140 JUMPI JUMPDEST PUSH1 0x0 DUP1 REVERT JUMPDEST PUSH2 0x10D PUSH2 0x204 JUMP JUMPDEST PUSH1 0x40 MLOAD PUSH2 0x11A SWAP2 SWAP1 PUSH2 0xBC5 JUMP JUMPDEST PUSH1 0x40 MLOAD DUP1 SWAP2 SUB SWAP1 RETURN JUMPDEST PUSH2 0x10D PUSH2 0x213 JUMP JUMPDEST PUSH2 0x13E PUSH2 0x139 CALLDATASIZE PUSH1 0x4 PUSH2 0x9D8 JUMP JUMPDEST PUSH2 0x222 JUMP JUMPDEST STOP JUMPDEST PUSH2 0x148 PUSH2 0x29A JUMP JUMPDEST PUSH1 0x40 MLOAD PUSH2 0x11A SWAP2 SWAP1 PUSH2 0xEE6 JUMP JUMPDEST PUSH2 0x13E PUSH2 0x163 CALLDATASIZE PUSH1 0x4 PUSH2 0x9D8 JUMP JUMPDEST PUSH2 0x2A0 JUMP JUMPDEST PUSH2 0x148 PUSH2 0x33C JUMP JUMPDEST PUSH2 0x13E PUSH2 0x17E CALLDATASIZE PUSH1 0x4 PUSH2 0x9D8 JUMP JUMPDEST PUSH2 0x342 JUMP JUMPDEST PUSH2 0x196 PUSH2 0x191 CALLDATASIZE PUSH1 0x4 PUSH2 0x9D8 JUMP JUMPDEST PUSH2 0x375 JUMP JUMPDEST PUSH1 0x40 MLOAD PUSH2 0x11A SWAP2 SWAP1 PUSH2 0xBD9 JUMP JUMPDEST PUSH2 0x13E PUSH2 0x1B1 CALLDATASIZE PUSH1 0x4 PUSH2 0x9D8 JUMP JUMPDEST PUSH2 0x389 JUMP JUMPDEST PUSH2 0x10D PUSH2 0x3F7 JUMP JUMPDEST PUSH2 0x10D PUSH2 0x406 JUMP JUMPDEST PUSH2 0x10D PUSH2 0x1D4 CALLDATASIZE PUSH1 0x4 PUSH2 0x9F9 JUMP JUMPDEST PUSH2 0x415 JUMP JUMPDEST PUSH2 0x13E PUSH2 0x1E7 CALLDATASIZE PUSH1 0x4 PUSH2 0xB10 JUMP JUMPDEST PUSH2 0x602 JUMP JUMPDEST PUSH2 0x13E PUSH2 0x64F JUMP JUMPDEST PUSH2 0x10D PUSH2 0x661 JUMP JUMPDEST PUSH2 0x10D PUSH2 0x670 JUMP JUMPDEST PUSH1 0x2 SLOAD PUSH1 0x1 PUSH1 0x1 PUSH1 0xA0 SHL SUB AND DUP2 JUMP JUMPDEST PUSH1 0x3 SLOAD PUSH1 0x1 PUSH1 0x1 PUSH1 0xA0 SHL SUB AND DUP2 JUMP JUMPDEST PUSH2 0x22D PUSH2 0x191 PUSH2 0x713 JUMP JUMPDEST PUSH2 0x252 JUMPI PUSH1 0x40 MLOAD PUSH3 0x461BCD PUSH1 0xE5 SHL DUP2 MSTORE PUSH1 0x4 ADD PUSH2 0x249 SWAP1 PUSH2 0xDA9 JUMP JUMPDEST PUSH1 0x40 MLOAD DUP1 SWAP2 SUB SWAP1 REVERT JUMPDEST PUSH1 0x1 PUSH1 0x1 PUSH1 0xA0 SHL SUB DUP2 AND PUSH2 0x278 JUMPI PUSH1 0x40 MLOAD PUSH3 0x461BCD PUSH1 0xE5 SHL DUP2 MSTORE PUSH1 0x4 ADD PUSH2 0x249 SWAP1 PUSH2 0xD8B JUMP JUMPDEST PUSH1 0x5 DUP1 SLOAD PUSH1 0x1 PUSH1 0x1 PUSH1 0xA0 SHL SUB NOT AND PUSH1 0x1 PUSH1 0x1 PUSH1 0xA0 SHL SUB SWAP3 SWAP1 SWAP3 AND SWAP2 SWAP1 SWAP2 OR SWAP1 SSTORE JUMP JUMPDEST PUSH1 0x7 SLOAD DUP2 JUMP JUMPDEST PUSH2 0x2AB PUSH2 0x191 PUSH2 0x713 JUMP JUMPDEST PUSH2 0x2C7 JUMPI PUSH1 0x40 MLOAD PUSH3 0x461BCD PUSH1 0xE5 SHL DUP2 MSTORE PUSH1 0x4 ADD PUSH2 0x249 SWAP1 PUSH2 0xDA9 JUMP JUMPDEST PUSH1 0x4 SLOAD PUSH1 0x1 PUSH1 0x1 PUSH1 0xA0 SHL SUB DUP3 DUP2 AND SWAP2 AND EQ ISZERO PUSH2 0x2F5 JUMPI PUSH1 0x40 MLOAD PUSH3 0x461BCD PUSH1 0xE5 SHL DUP2 MSTORE PUSH1 0x4 ADD PUSH2 0x249 SWAP1 PUSH2 0xE06 JUMP JUMPDEST PUSH1 0x4 DUP1 SLOAD PUSH1 0x1 PUSH1 0x1 PUSH1 0xA0 SHL SUB NOT AND PUSH1 0x1 PUSH1 0x1 PUSH1 0xA0 SHL SUB DUP4 AND OR SWAP1 SSTORE PUSH1 0x40 MLOAD PUSH32 0x3199AB49607559567913D4714288FEE1E692C31829ED4722A6FD064ADBDC5B54 SWAP1 PUSH1 0x0 SWAP1 LOG1 POP JUMP JUMPDEST PUSH1 0x8 SLOAD DUP2 JUMP JUMPDEST PUSH2 0x34D PUSH2 0x191 PUSH2 0x713 JUMP JUMPDEST PUSH2 0x369 JUMPI PUSH1 0x40 MLOAD PUSH3 0x461BCD PUSH1 0xE5 SHL DUP2 MSTORE PUSH1 0x4 ADD PUSH2 0x249 SWAP1 PUSH2 0xDA9 JUMP JUMPDEST PUSH2 0x372 DUP2 PUSH2 0x717 JUMP JUMPDEST POP JUMP JUMPDEST PUSH1 0x0 PUSH2 0x381 DUP2 DUP4 PUSH2 0x67F JUMP JUMPDEST SWAP1 POP JUMPDEST SWAP2 SWAP1 POP JUMP JUMPDEST PUSH2 0x394 PUSH2 0x191 PUSH2 0x713 JUMP JUMPDEST PUSH2 0x3B0 JUMPI PUSH1 0x40 MLOAD PUSH3 0x461BCD PUSH1 0xE5 SHL DUP2 MSTORE PUSH1 0x4 ADD PUSH2 0x249 SWAP1 PUSH2 0xDA9 JUMP JUMPDEST PUSH1 0x3 DUP1 SLOAD PUSH1 0x1 PUSH1 0x1 PUSH1 0xA0 SHL SUB NOT AND PUSH1 0x1 PUSH1 0x1 PUSH1 0xA0 SHL SUB DUP4 AND OR SWAP1 SSTORE PUSH1 0x40 MLOAD PUSH32 0xB25686D5DE2544AA0F0235EA99DD20E962286BC9CEC2FB371B226A637BE461F7 SWAP1 PUSH1 0x0 SWAP1 LOG1 POP JUMP JUMPDEST PUSH1 0x4 SLOAD PUSH1 0x1 PUSH1 0x1 PUSH1 0xA0 SHL SUB AND DUP2 JUMP JUMPDEST PUSH1 0x5 SLOAD PUSH1 0x1 PUSH1 0x1 PUSH1 0xA0 SHL SUB AND DUP2 JUMP JUMPDEST PUSH1 0x0 PUSH2 0x422 PUSH2 0x191 PUSH2 0x713 JUMP JUMPDEST PUSH2 0x43E JUMPI PUSH1 0x40 MLOAD PUSH3 0x461BCD PUSH1 0xE5 SHL DUP2 MSTORE PUSH1 0x4 ADD PUSH2 0x249 SWAP1 PUSH2 0xDA9 JUMP JUMPDEST PUSH2 0x120 DUP6 ADD MLOAD PUSH2 0x452 JUMPI PUSH1 0x7 SLOAD PUSH2 0x120 DUP7 ADD MSTORE JUMPDEST PUSH1 0x0 PUSH1 0x40 MLOAD PUSH2 0x460 SWAP1 PUSH2 0x8C2 JUMP JUMPDEST PUSH1 0x40 MLOAD DUP1 SWAP2 SUB SWAP1 PUSH1 0x0 CREATE DUP1 ISZERO DUP1 ISZERO PUSH2 0x47C JUMPI RETURNDATASIZE PUSH1 0x0 DUP1 RETURNDATACOPY RETURNDATASIZE PUSH1 0x0 REVERT JUMPDEST POP PUSH1 0x4 DUP1 SLOAD PUSH1 0x40 MLOAD PUSH4 0x1B2CE7F3 PUSH1 0xE1 SHL DUP2 MSTORE SWAP3 SWAP4 POP DUP4 SWAP3 PUSH1 0x1 PUSH1 0x1 PUSH1 0xA0 SHL SUB DUP1 DUP6 AND SWAP4 PUSH4 0x3659CFE6 SWAP4 PUSH2 0x4B2 SWAP4 SWAP3 AND SWAP2 ADD PUSH2 0xBC5 JUMP JUMPDEST PUSH1 0x0 PUSH1 0x40 MLOAD DUP1 DUP4 SUB DUP2 PUSH1 0x0 DUP8 DUP1 EXTCODESIZE ISZERO DUP1 ISZERO PUSH2 0x4CC JUMPI PUSH1 0x0 DUP1 REVERT JUMPDEST POP GAS CALL ISZERO DUP1 ISZERO PUSH2 0x4E0 JUMPI RETURNDATASIZE PUSH1 0x0 DUP1 RETURNDATACOPY RETURNDATASIZE PUSH1 0x0 REVERT JUMPDEST POP POP PUSH1 0x40 DUP1 MLOAD PUSH1 0x80 DUP2 ADD DUP3 MSTORE PUSH1 0x5 SLOAD PUSH1 0x1 PUSH1 0x1 PUSH1 0xA0 SHL SUB SWAP1 DUP2 AND DUP3 MSTORE PUSH1 0x6 SLOAD DUP2 AND PUSH1 0x20 DUP4 ADD MSTORE DUP16 DUP2 AND SWAP3 DUP3 ADD SWAP3 SWAP1 SWAP3 MSTORE SWAP1 DUP14 AND PUSH1 0x60 DUP3 ADD MSTORE SWAP2 POP PUSH2 0x52C SWAP1 POP DUP2 DUP12 DUP12 DUP12 DUP12 DUP12 DUP12 DUP11 PUSH2 0x759 JUMP JUMPDEST PUSH1 0x3 SLOAD PUSH1 0x40 MLOAD PUSH4 0xF2FDE38B PUSH1 0xE0 SHL DUP2 MSTORE PUSH1 0x1 PUSH1 0x1 PUSH1 0xA0 SHL SUB DUP6 DUP2 AND SWAP3 PUSH4 0xF2FDE38B SWAP3 PUSH2 0x55E SWAP3 SWAP1 SWAP2 AND SWAP1 PUSH1 0x4 ADD PUSH2 0xBC5 JUMP JUMPDEST PUSH1 0x0 PUSH1 0x40 MLOAD DUP1 DUP4 SUB DUP2 PUSH1 0x0 DUP8 DUP1 EXTCODESIZE ISZERO DUP1 ISZERO PUSH2 0x578 JUMPI PUSH1 0x0 DUP1 REVERT JUMPDEST POP GAS CALL ISZERO DUP1 ISZERO PUSH2 0x58C JUMPI RETURNDATASIZE PUSH1 0x0 DUP1 RETURNDATACOPY RETURNDATASIZE PUSH1 0x0 REVERT JUMPDEST POP POP PUSH1 0x2 SLOAD PUSH1 0x40 MLOAD PUSH4 0xD914CD4B PUSH1 0xE0 SHL DUP2 MSTORE PUSH1 0x1 PUSH1 0x1 PUSH1 0xA0 SHL SUB SWAP1 SWAP2 AND SWAP3 POP PUSH4 0xD914CD4B SWAP2 POP PUSH2 0x5C0 SWAP1 DUP6 SWAP1 PUSH1 0x4 ADD PUSH2 0xBC5 JUMP JUMPDEST PUSH1 0x0 PUSH1 0x40 MLOAD DUP1 DUP4 SUB DUP2 PUSH1 0x0 DUP8 DUP1 EXTCODESIZE ISZERO DUP1 ISZERO PUSH2 0x5DA JUMPI PUSH1 0x0 DUP1 REVERT JUMPDEST POP GAS CALL ISZERO DUP1 ISZERO PUSH2 0x5EE JUMPI RETURNDATASIZE PUSH1 0x0 DUP1 RETURNDATACOPY RETURNDATASIZE PUSH1 0x0 REVERT JUMPDEST POP SWAP4 SWAP15 SWAP14 POP POP POP POP POP POP POP POP POP POP POP POP POP POP JUMP JUMPDEST PUSH2 0x60D PUSH2 0x191 PUSH2 0x713 JUMP JUMPDEST PUSH2 0x629 JUMPI PUSH1 0x40 MLOAD PUSH3 0x461BCD PUSH1 0xE5 SHL DUP2 MSTORE PUSH1 0x4 ADD PUSH2 0x249 SWAP1 PUSH2 0xDA9 JUMP JUMPDEST PUSH2 0x2710 DUP2 LT PUSH2 0x64A JUMPI PUSH1 0x40 MLOAD PUSH3 0x461BCD PUSH1 0xE5 SHL DUP2 MSTORE PUSH1 0x4 ADD PUSH2 0x249 SWAP1 PUSH2 0xD44 JUMP JUMPDEST PUSH1 0x7 SSTORE JUMP JUMPDEST PUSH2 0x65F PUSH2 0x65A PUSH2 0x713 JUMP JUMPDEST PUSH2 0x838 JUMP JUMPDEST JUMP JUMPDEST PUSH1 0x1 SLOAD PUSH1 0x1 PUSH1 0x1 PUSH1 0xA0 SHL SUB AND DUP2 JUMP JUMPDEST PUSH1 0x6 SLOAD PUSH1 0x1 PUSH1 0x1 PUSH1 0xA0 SHL SUB AND DUP2 JUMP JUMPDEST PUSH1 0x0 PUSH1 0x1 PUSH1 0x1 PUSH1 0xA0 SHL SUB DUP3 AND PUSH2 0x6A7 JUMPI PUSH1 0x40 MLOAD PUSH3 0x461BCD PUSH1 0xE5 SHL DUP2 MSTORE PUSH1 0x4 ADD PUSH2 0x249 SWAP1 PUSH2 0xEA4 JUMP JUMPDEST POP PUSH1 0x1 PUSH1 0x1 PUSH1 0xA0 SHL SUB AND PUSH1 0x0 SWAP1 DUP2 MSTORE PUSH1 0x20 SWAP2 SWAP1 SWAP2 MSTORE PUSH1 0x40 SWAP1 KECCAK256 SLOAD PUSH1 0xFF AND SWAP1 JUMP JUMPDEST PUSH2 0x6D1 DUP3 DUP3 PUSH2 0x67F JUMP JUMPDEST ISZERO PUSH2 0x6EE JUMPI PUSH1 0x40 MLOAD PUSH3 0x461BCD PUSH1 0xE5 SHL DUP2 MSTORE PUSH1 0x4 ADD PUSH2 0x249 SWAP1 PUSH2 0xD0D JUMP JUMPDEST PUSH1 0x1 PUSH1 0x1 PUSH1 0xA0 SHL SUB AND PUSH1 0x0 SWAP1 DUP2 MSTORE PUSH1 0x20 SWAP2 SWAP1 SWAP2 MSTORE PUSH1 0x40 SWAP1 KECCAK256 DUP1 SLOAD PUSH1 0xFF NOT AND PUSH1 0x1 OR SWAP1 SSTORE JUMP JUMPDEST CALLER SWAP1 JUMP JUMPDEST PUSH2 0x722 PUSH1 0x0 DUP3 PUSH2 0x6C7 JUMP JUMPDEST PUSH1 0x40 MLOAD PUSH1 0x1 PUSH1 0x1 PUSH1 0xA0 SHL SUB DUP3 AND SWAP1 PUSH32 0xAC89BB7B3D0C5A763A97F31BC75F8FAEE00426E7B235F02CA76897D55CAF7B61 SWAP1 PUSH1 0x0 SWAP1 LOG2 POP JUMP JUMPDEST PUSH1 0x1 SLOAD PUSH1 0x2 SLOAD PUSH1 0x1 PUSH1 0x1 PUSH1 0xA0 SHL SUB DUP1 DUP5 AND SWAP3 PUSH4 0x869EB310 SWAP3 DUP12 SWAP3 DUP12 SWAP3 DUP2 AND SWAP2 AND PUSH2 0x781 PUSH2 0x713 JUMP JUMPDEST DUP15 DUP13 DUP13 DUP13 DUP13 PUSH1 0x40 MLOAD DUP12 PUSH4 0xFFFFFFFF AND PUSH1 0xE0 SHL DUP2 MSTORE PUSH1 0x4 ADD PUSH2 0x7AB SWAP11 SWAP10 SWAP9 SWAP8 SWAP7 SWAP6 SWAP5 SWAP4 SWAP3 SWAP2 SWAP1 PUSH2 0xC4C JUMP JUMPDEST PUSH1 0x0 PUSH1 0x40 MLOAD DUP1 DUP4 SUB DUP2 PUSH1 0x0 DUP8 DUP1 EXTCODESIZE ISZERO DUP1 ISZERO PUSH2 0x7C5 JUMPI PUSH1 0x0 DUP1 REVERT JUMPDEST POP GAS CALL ISZERO DUP1 ISZERO PUSH2 0x7D9 JUMPI RETURNDATASIZE PUSH1 0x0 DUP1 RETURNDATACOPY RETURNDATASIZE PUSH1 0x0 REVERT JUMPDEST POP POP POP POP PUSH1 0x0 DUP2 SWAP1 POP DUP1 PUSH1 0x1 PUSH1 0x1 PUSH1 0xA0 SHL SUB AND PUSH32 0xD69CF3C5F6280DF773A744806DC6920BC09109EF4A352C0846F5EF35965DCA12 DUP10 DUP10 DUP10 DUP10 DUP10 DUP10 PUSH1 0x40 MLOAD PUSH2 0x825 SWAP7 SWAP6 SWAP5 SWAP4 SWAP3 SWAP2 SWAP1 PUSH2 0xBE4 JUMP JUMPDEST PUSH1 0x40 MLOAD DUP1 SWAP2 SUB SWAP1 LOG2 POP POP POP POP POP POP POP POP POP JUMP JUMPDEST PUSH2 0x843 PUSH1 0x0 DUP3 PUSH2 0x87A JUMP JUMPDEST PUSH1 0x40 MLOAD PUSH1 0x1 PUSH1 0x1 PUSH1 0xA0 SHL SUB DUP3 AND SWAP1 PUSH32 0x2BC71CC60B543DF5FDD80EF5A45E1CDB344843769B649E9D901DE3BE24AEB24E SWAP1 PUSH1 0x0 SWAP1 LOG2 POP JUMP JUMPDEST PUSH2 0x884 DUP3 DUP3 PUSH2 0x67F JUMP JUMPDEST PUSH2 0x8A0 JUMPI PUSH1 0x40 MLOAD PUSH3 0x461BCD PUSH1 0xE5 SHL DUP2 MSTORE PUSH1 0x4 ADD PUSH2 0x249 SWAP1 PUSH2 0xE63 JUMP JUMPDEST PUSH1 0x1 PUSH1 0x1 PUSH1 0xA0 SHL SUB AND PUSH1 0x0 SWAP1 DUP2 MSTORE PUSH1 0x20 SWAP2 SWAP1 SWAP2 MSTORE PUSH1 0x40 SWAP1 KECCAK256 DUP1 SLOAD PUSH1 0xFF NOT AND SWAP1 SSTORE JUMP JUMPDEST PUSH2 0x236F DUP1 PUSH2 0xF51 DUP4 CODECOPY ADD SWAP1 JUMP JUMPDEST DUP1 CALLDATALOAD PUSH1 0x1 PUSH1 0x1 PUSH1 0xA0 SHL SUB DUP2 AND DUP2 EQ PUSH2 0x384 JUMPI PUSH1 0x0 DUP1 REVERT JUMPDEST PUSH1 0x0 DUP3 PUSH1 0x1F DUP4 ADD SLT PUSH2 0x8F6 JUMPI DUP1 DUP2 REVERT JUMPDEST PUSH1 0x40 MLOAD PUSH2 0x100 DUP1 DUP3 ADD DUP3 DUP2 LT PUSH8 0xFFFFFFFFFFFFFFFF DUP3 GT OR ISZERO PUSH2 0x91B JUMPI PUSH2 0x91B PUSH2 0xF3A JUMP JUMPDEST PUSH1 0x40 MSTORE DUP2 DUP5 DUP3 DUP2 ADD DUP8 LT ISZERO PUSH2 0x92E JUMPI DUP5 DUP6 REVERT JUMPDEST DUP5 SWAP3 POP JUMPDEST PUSH1 0x8 DUP4 LT ISZERO PUSH2 0x952 JUMPI DUP1 CALLDATALOAD DUP3 MSTORE PUSH1 0x1 SWAP3 SWAP1 SWAP3 ADD SWAP2 PUSH1 0x20 SWAP2 DUP3 ADD SWAP2 ADD PUSH2 0x932 JUMP JUMPDEST POP SWAP2 SWAP6 SWAP5 POP POP POP POP POP JUMP JUMPDEST DUP1 CALLDATALOAD DUP1 ISZERO ISZERO DUP2 EQ PUSH2 0x384 JUMPI PUSH1 0x0 DUP1 REVERT JUMPDEST PUSH1 0x0 DUP3 PUSH1 0x1F DUP4 ADD SLT PUSH2 0x97D JUMPI DUP1 DUP2 REVERT JUMPDEST DUP2 CALLDATALOAD PUSH8 0xFFFFFFFFFFFFFFFF DUP2 GT ISZERO PUSH2 0x997 JUMPI PUSH2 0x997 PUSH2 0xF3A JUMP JUMPDEST PUSH2 0x9AA PUSH1 0x1F DUP3 ADD PUSH1 0x1F NOT AND PUSH1 0x20 ADD PUSH2 0xEEF JUMP JUMPDEST DUP2 DUP2 MSTORE DUP5 PUSH1 0x20 DUP4 DUP7 ADD ADD GT ISZERO PUSH2 0x9BE JUMPI DUP3 DUP4 REVERT JUMPDEST DUP2 PUSH1 0x20 DUP6 ADD PUSH1 0x20 DUP4 ADD CALLDATACOPY SWAP1 DUP2 ADD PUSH1 0x20 ADD SWAP2 SWAP1 SWAP2 MSTORE SWAP3 SWAP2 POP POP JUMP JUMPDEST PUSH1 0x0 PUSH1 0x20 DUP3 DUP5 SUB SLT ISZERO PUSH2 0x9E9 JUMPI DUP1 DUP2 REVERT JUMPDEST PUSH2 0x9F2 DUP3 PUSH2 0x8CF JUMP JUMPDEST SWAP4 SWAP3 POP POP POP JUMP JUMPDEST PUSH1 0x0 DUP1 PUSH1 0x0 DUP1 PUSH1 0x0 DUP1 PUSH1 0x0 DUP1 PUSH2 0x420 DUP10 DUP12 SUB SLT ISZERO PUSH2 0xA15 JUMPI DUP4 DUP5 REVERT JUMPDEST PUSH2 0xA1E DUP10 PUSH2 0x8CF JUMP JUMPDEST SWAP8 POP PUSH1 0x20 PUSH2 0xA2D DUP2 DUP12 ADD PUSH2 0x8CF JUMP JUMPDEST SWAP8 POP PUSH1 0x40 DUP11 ADD CALLDATALOAD PUSH8 0xFFFFFFFFFFFFFFFF DUP1 DUP3 GT ISZERO PUSH2 0xA49 JUMPI DUP7 DUP8 REVERT JUMPDEST PUSH2 0xA55 DUP14 DUP4 DUP15 ADD PUSH2 0x96D JUMP JUMPDEST SWAP9 POP PUSH1 0x60 DUP13 ADD CALLDATALOAD SWAP2 POP DUP1 DUP3 GT ISZERO PUSH2 0xA6A JUMPI DUP7 DUP8 REVERT JUMPDEST POP PUSH2 0xA77 DUP13 DUP3 DUP14 ADD PUSH2 0x96D JUMP JUMPDEST SWAP7 POP POP DUP11 PUSH1 0x9F DUP12 ADD SLT PUSH2 0xA88 JUMPI DUP5 DUP6 REVERT JUMPDEST PUSH2 0xA9A PUSH2 0xA95 PUSH1 0xC PUSH2 0xF19 JUMP JUMPDEST PUSH2 0xEEF JUMP JUMPDEST DUP1 PUSH1 0x80 DUP13 ADD PUSH2 0x200 DUP14 ADD DUP15 DUP2 GT ISZERO PUSH2 0xAB0 JUMPI DUP9 DUP10 REVERT JUMPDEST DUP9 JUMPDEST PUSH1 0xC DUP2 LT ISZERO PUSH2 0xACF JUMPI DUP3 CALLDATALOAD DUP6 MSTORE SWAP4 DUP6 ADD SWAP4 SWAP2 DUP6 ADD SWAP2 PUSH1 0x1 ADD PUSH2 0xAB2 JUMP JUMPDEST POP DUP3 SWAP9 POP PUSH2 0xADD DUP16 DUP3 PUSH2 0x8E6 JUMP JUMPDEST SWAP8 POP POP POP POP POP POP PUSH2 0xAF2 DUP11 PUSH2 0x300 DUP12 ADD PUSH2 0x8E6 JUMP JUMPDEST SWAP2 POP PUSH2 0xB01 PUSH2 0x400 DUP11 ADD PUSH2 0x95D JUMP JUMPDEST SWAP1 POP SWAP3 SWAP6 SWAP9 POP SWAP3 SWAP6 SWAP9 SWAP1 SWAP4 SWAP7 POP JUMP JUMPDEST PUSH1 0x0 PUSH1 0x20 DUP3 DUP5 SUB SLT ISZERO PUSH2 0xB21 JUMPI DUP1 DUP2 REVERT JUMPDEST POP CALLDATALOAD SWAP2 SWAP1 POP JUMP JUMPDEST DUP1 PUSH1 0x0 JUMPDEST PUSH1 0xC DUP2 LT ISZERO PUSH2 0xB4B JUMPI DUP2 MLOAD DUP5 MSTORE PUSH1 0x20 SWAP4 DUP5 ADD SWAP4 SWAP1 SWAP2 ADD SWAP1 PUSH1 0x1 ADD PUSH2 0xB2C JUMP JUMPDEST POP POP POP POP JUMP JUMPDEST DUP1 PUSH1 0x0 JUMPDEST PUSH1 0x8 DUP2 LT ISZERO PUSH2 0xB4B JUMPI DUP2 MLOAD DUP5 MSTORE PUSH1 0x20 SWAP4 DUP5 ADD SWAP4 SWAP1 SWAP2 ADD SWAP1 PUSH1 0x1 ADD PUSH2 0xB55 JUMP JUMPDEST ISZERO ISZERO SWAP1 MSTORE JUMP JUMPDEST PUSH1 0x0 DUP2 MLOAD DUP1 DUP5 MSTORE DUP2 JUMPDEST DUP2 DUP2 LT ISZERO PUSH2 0xB9F JUMPI PUSH1 0x20 DUP2 DUP6 ADD DUP2 ADD MLOAD DUP7 DUP4 ADD DUP3 ADD MSTORE ADD PUSH2 0xB83 JUMP JUMPDEST DUP2 DUP2 GT ISZERO PUSH2 0xBB0 JUMPI DUP3 PUSH1 0x20 DUP4 DUP8 ADD ADD MSTORE JUMPDEST POP PUSH1 0x1F ADD PUSH1 0x1F NOT AND SWAP3 SWAP1 SWAP3 ADD PUSH1 0x20 ADD SWAP3 SWAP2 POP POP JUMP JUMPDEST PUSH1 0x1 PUSH1 0x1 PUSH1 0xA0 SHL SUB SWAP2 SWAP1 SWAP2 AND DUP2 MSTORE PUSH1 0x20 ADD SWAP1 JUMP JUMPDEST SWAP1 ISZERO ISZERO DUP2 MSTORE PUSH1 0x20 ADD SWAP1 JUMP JUMPDEST PUSH1 0x0 PUSH2 0x3E0 DUP1 DUP4 MSTORE PUSH2 0xBF8 DUP2 DUP5 ADD DUP11 PUSH2 0xB7A JUMP JUMPDEST SWAP1 POP DUP3 DUP2 SUB PUSH1 0x20 DUP5 ADD MSTORE PUSH2 0xC0C DUP2 DUP10 PUSH2 0xB7A JUMP JUMPDEST SWAP2 POP POP PUSH2 0xC1C PUSH1 0x40 DUP4 ADD DUP8 PUSH2 0xB28 JUMP JUMPDEST PUSH2 0xC2A PUSH2 0x1C0 DUP4 ADD DUP7 PUSH2 0xB51 JUMP JUMPDEST PUSH2 0xC38 PUSH2 0x2C0 DUP4 ADD DUP6 PUSH2 0xB51 JUMP JUMPDEST DUP3 ISZERO ISZERO PUSH2 0x3C0 DUP4 ADD MSTORE SWAP8 SWAP7 POP POP POP POP POP POP POP JUMP JUMPDEST PUSH1 0x0 PUSH2 0x4C0 DUP1 DUP4 MSTORE PUSH2 0xC60 DUP2 DUP5 ADD DUP15 PUSH2 0xB7A JUMP JUMPDEST SWAP1 POP PUSH1 0x20 DUP4 DUP3 SUB DUP2 DUP6 ADD MSTORE PUSH2 0xC75 DUP3 DUP15 PUSH2 0xB7A JUMP JUMPDEST PUSH1 0x1 PUSH1 0x1 PUSH1 0xA0 SHL SUB DUP14 DUP2 AND PUSH1 0x40 DUP8 ADD MSTORE DUP13 DUP2 AND PUSH1 0x60 DUP8 ADD MSTORE DUP12 DUP2 AND PUSH1 0x80 DUP8 ADD MSTORE SWAP1 SWAP4 POP SWAP2 POP PUSH1 0xA0 DUP5 ADD DUP10 PUSH1 0x0 JUMPDEST PUSH1 0x4 DUP2 LT ISZERO PUSH2 0xCC1 JUMPI DUP2 MLOAD DUP6 AND DUP4 MSTORE SWAP2 DUP4 ADD SWAP2 SWAP1 DUP4 ADD SWAP1 PUSH1 0x1 ADD PUSH2 0xCA2 JUMP JUMPDEST POP POP POP POP POP PUSH2 0xCD4 PUSH2 0x120 DUP4 ADD DUP8 PUSH2 0xB28 JUMP JUMPDEST PUSH2 0xCE2 PUSH2 0x2A0 DUP4 ADD DUP7 PUSH2 0xB51 JUMP JUMPDEST PUSH2 0xCF0 PUSH2 0x3A0 DUP4 ADD DUP6 PUSH2 0xB51 JUMP JUMPDEST PUSH2 0xCFE PUSH2 0x4A0 DUP4 ADD DUP5 PUSH2 0xB74 JUMP JUMPDEST SWAP12 SWAP11 POP POP POP POP POP POP POP POP POP POP POP JUMP JUMPDEST PUSH1 0x20 DUP1 DUP3 MSTORE PUSH1 0x1F SWAP1 DUP3 ADD MSTORE PUSH32 0x526F6C65733A206163636F756E7420616C72656164792068617320726F6C6500 PUSH1 0x40 DUP3 ADD MSTORE PUSH1 0x60 ADD SWAP1 JUMP JUMPDEST PUSH1 0x20 DUP1 DUP3 MSTORE PUSH1 0x27 SWAP1 DUP3 ADD MSTORE PUSH32 0x303432302054617820636F6E6E6F74206265206F766572203130302520283130 PUSH1 0x40 DUP3 ADD MSTORE PUSH7 0x30303020425029 PUSH1 0xC8 SHL PUSH1 0x60 DUP3 ADD MSTORE PUSH1 0x80 ADD SWAP1 JUMP JUMPDEST PUSH1 0x20 DUP1 DUP3 MSTORE PUSH1 0x4 SWAP1 DUP3 ADD MSTORE PUSH4 0x3034313 PUSH1 0xE4 SHL PUSH1 0x40 DUP3 ADD MSTORE PUSH1 0x60 ADD SWAP1 JUMP JUMPDEST PUSH1 0x20 DUP1 DUP3 MSTORE PUSH1 0x3A SWAP1 DUP3 ADD MSTORE PUSH32 0x506F6F6C43726561746F72526F6C653A2063616C6C657220646F6573206E6F74 PUSH1 0x40 DUP3 ADD MSTORE PUSH32 0x20686176652074686520506F6F6C43726561746F7220726F6C65000000000000 PUSH1 0x60 DUP3 ADD MSTORE PUSH1 0x80 ADD SWAP1 JUMP JUMPDEST PUSH1 0x20 DUP1 DUP3 MSTORE PUSH1 0x3D SWAP1 DUP3 ADD MSTORE PUSH32 0x5468697320616464726573732069732074686520696D706C656D656E74617469 PUSH1 0x40 DUP3 ADD MSTORE PUSH32 0x6F6E207468617420697320616C7265616479206265696E672075736564000000 PUSH1 0x60 DUP3 ADD MSTORE PUSH1 0x80 ADD SWAP1 JUMP JUMPDEST PUSH1 0x20 DUP1 DUP3 MSTORE PUSH1 0x21 SWAP1 DUP3 ADD MSTORE PUSH32 0x526F6C65733A206163636F756E7420646F6573206E6F74206861766520726F6C PUSH1 0x40 DUP3 ADD MSTORE PUSH1 0x65 PUSH1 0xF8 SHL PUSH1 0x60 DUP3 ADD MSTORE PUSH1 0x80 ADD SWAP1 JUMP JUMPDEST PUSH1 0x20 DUP1 DUP3 MSTORE PUSH1 0x22 SWAP1 DUP3 ADD MSTORE PUSH32 0x526F6C65733A206163636F756E7420697320746865207A65726F206164647265 PUSH1 0x40 DUP3 ADD MSTORE PUSH2 0x7373 PUSH1 0xF0 SHL PUSH1 0x60 DUP3 ADD MSTORE PUSH1 0x80 ADD SWAP1 JUMP JUMPDEST SWAP1 DUP2 MSTORE PUSH1 0x20 ADD SWAP1 JUMP JUMPDEST PUSH1 0x40 MLOAD DUP2 DUP2 ADD PUSH8 0xFFFFFFFFFFFFFFFF DUP2 GT DUP3 DUP3 LT OR ISZERO PUSH2 0xF11 JUMPI PUSH2 0xF11 PUSH2 0xF3A JUMP JUMPDEST PUSH1 0x40 MSTORE SWAP2 SWAP1 POP JUMP JUMPDEST PUSH1 0x0 PUSH8 0xFFFFFFFFFFFFFFFF DUP3 GT ISZERO PUSH2 0xF33 JUMPI PUSH2 0xF33 PUSH2 0xF3A JUMP JUMPDEST POP PUSH1 0x20 MUL SWAP1 JUMP JUMPDEST PUSH4 0x4E487B71 PUSH1 0xE0 SHL PUSH1 0x0 MSTORE PUSH1 0x41 PUSH1 0x4 MSTORE PUSH1 0x24 PUSH1 0x0 REVERT INVALID PUSH1 0x80 PUSH1 0x40 MSTORE CALLVALUE DUP1 ISZERO PUSH2 0x10 JUMPI PUSH1 0x0 DUP1 REVERT JUMPDEST POP PUSH1 0x7A DUP1 SLOAD PUSH1 0x1 PUSH1 0x1 PUSH1 0xA0 SHL SUB NOT AND CALLER OR SWAP1 SSTORE PUSH1 0x7B DUP1 SLOAD PUSH1 0xFF PUSH1 0xD0 SHL NOT AND PUSH1 0x1 PUSH1 0xD0 SHL OR SWAP1 SSTORE PUSH2 0x232A DUP1 PUSH2 0x45 PUSH1 0x0 CODECOPY PUSH1 0x0 RETURN INVALID PUSH1 0x80 PUSH1 0x40 MSTORE PUSH1 0x4 CALLDATASIZE LT PUSH2 0x2CD JUMPI PUSH1 0x0 CALLDATALOAD PUSH1 0xE0 SHR DUP1 PUSH4 0x95C2BA47 GT PUSH2 0x175 JUMPI DUP1 PUSH4 0xD7EFB6B7 GT PUSH2 0xDC JUMPI DUP1 PUSH4 0xEB850AE1 GT PUSH2 0x95 JUMPI DUP1 PUSH4 0xF3D9DC0D GT PUSH2 0x6F JUMPI DUP1 PUSH4 0xF3D9DC0D EQ PUSH2 0x7C0 JUMPI DUP1 PUSH4 0xF5E96FC9 EQ PUSH2 0x7D5 JUMPI DUP1 PUSH4 0xF8EEED62 EQ PUSH2 0x7EA JUMPI DUP1 PUSH4 0xFD5E6DD1 EQ PUSH2 0x7FF JUMPI PUSH2 0x2D4 JUMP JUMPDEST DUP1 PUSH4 0xEB850AE1 EQ PUSH2 0x75D JUMPI DUP1 PUSH4 0xF1B17A8B EQ PUSH2 0x772 JUMPI DUP1 PUSH4 0xF2FDE38B EQ PUSH2 0x7A0 JUMPI PUSH2 0x2D4 JUMP JUMPDEST DUP1 PUSH4 0xD7EFB6B7 EQ PUSH2 0x6AF JUMPI DUP1 PUSH4 0xDE09EE20 EQ PUSH2 0x6C4 JUMPI DUP1 PUSH4 0xE0818669 EQ PUSH2 0x6F2 JUMPI DUP1 PUSH4 0xE425DF8C EQ PUSH2 0x71E JUMPI DUP1 PUSH4 0xE68B52E7 EQ PUSH2 0x733 JUMPI DUP1 PUSH4 0xE8153C93 EQ PUSH2 0x748 JUMPI PUSH2 0x2D4 JUMP JUMPDEST DUP1 PUSH4 0xAA7BCB57 GT PUSH2 0x12E JUMPI DUP1 PUSH4 0xAA7BCB57 EQ PUSH2 0x631 JUMPI DUP1 PUSH4 0xB1DD61B6 EQ PUSH2 0x646 JUMPI DUP1 PUSH4 0xBECE7532 EQ PUSH2 0x65B JUMPI DUP1 PUSH4 0xC1201054 EQ PUSH2 0x670 JUMPI DUP1 PUSH4 0xC6C1DECD EQ PUSH2 0x685 JUMPI DUP1 PUSH4 0xD025188B EQ PUSH2 0x69A JUMPI PUSH2 0x2D4 JUMP JUMPDEST DUP1 PUSH4 0x95C2BA47 EQ PUSH2 0x59B JUMPI DUP1 PUSH4 0x996C6CC3 EQ PUSH2 0x5B0 JUMPI DUP1 PUSH4 0xA08B2C79 EQ PUSH2 0x5C5 JUMPI DUP1 PUSH4 0xA35EF3A7 EQ PUSH2 0x5DA JUMPI DUP1 PUSH4 0xA4E2D634 EQ PUSH2 0x5FC JUMPI DUP1 PUSH4 0xA8F7B346 EQ PUSH2 0x611 JUMPI PUSH2 0x2D4 JUMP JUMPDEST DUP1 PUSH4 0x6847D0C5 GT PUSH2 0x234 JUMPI DUP1 PUSH4 0x785FA627 GT PUSH2 0x1ED JUMPI DUP1 PUSH4 0x850FA7CB GT PUSH2 0x1C7 JUMPI DUP1 PUSH4 0x850FA7CB EQ PUSH2 0x51C JUMPI DUP1 PUSH4 0x869EB310 EQ PUSH2 0x551 JUMPI DUP1 PUSH4 0x8CF0E21E EQ PUSH2 0x571 JUMPI DUP1 PUSH4 0x8DA5CB5B EQ PUSH2 0x586 JUMPI PUSH2 0x2D4 JUMP JUMPDEST DUP1 PUSH4 0x785FA627 EQ PUSH2 0x4DD JUMPI DUP1 PUSH4 0x7F2B6A0D EQ PUSH2 0x4F2 JUMPI DUP1 PUSH4 0x817B1CD2 EQ PUSH2 0x507 JUMPI PUSH2 0x2D4 JUMP JUMPDEST DUP1 PUSH4 0x6847D0C5 EQ PUSH2 0x45F JUMPI DUP1 PUSH4 0x6B036F45 EQ PUSH2 0x474 JUMPI DUP1 PUSH4 0x715018A6 EQ PUSH2 0x489 JUMPI DUP1 PUSH4 0x725C9C49 EQ PUSH2 0x49E JUMPI DUP1 PUSH4 0x73F31703 EQ PUSH2 0x4B3 JUMPI DUP1 PUSH4 0x785DF1F8 EQ PUSH2 0x4C8 JUMPI PUSH2 0x2D4 JUMP JUMPDEST DUP1 PUSH4 0x3659CFE6 GT PUSH2 0x286 JUMPI DUP1 PUSH4 0x3659CFE6 EQ PUSH2 0x3CB JUMPI DUP1 PUSH4 0x3FCDD82C EQ PUSH2 0x3EB JUMPI DUP1 PUSH4 0x4BC4EEB2 EQ PUSH2 0x40B JUMPI DUP1 PUSH4 0x4E8BFDAA EQ PUSH2 0x420 JUMPI DUP1 PUSH4 0x51EACBF0 EQ PUSH2 0x435 JUMPI DUP1 PUSH4 0x67FC9138 EQ PUSH2 0x44A JUMPI PUSH2 0x2D4 JUMP JUMPDEST DUP1 PUSH4 0xD668087 EQ PUSH2 0x30E JUMPI DUP1 PUSH4 0xF4EF8A6 EQ PUSH2 0x339 JUMPI DUP1 PUSH4 0x22F3E2D4 EQ PUSH2 0x35B JUMPI DUP1 PUSH4 0x238A6C74 EQ PUSH2 0x37D JUMPI DUP1 PUSH4 0x28016F9A EQ PUSH2 0x39F JUMPI DUP1 PUSH4 0x2AA8195E EQ PUSH2 0x3B6 JUMPI PUSH2 0x2D4 JUMP JUMPDEST CALLDATASIZE PUSH2 0x2D4 JUMPI STOP JUMPDEST PUSH1 0x79 SLOAD PUSH1 0x1 PUSH1 0x1 PUSH1 0xA0 SHL SUB AND DUP1 PUSH2 0x2EA JUMPI PUSH1 0x0 DUP1 REVERT JUMPDEST CALLDATASIZE PUSH1 0x0 DUP1 CALLDATACOPY PUSH1 0x0 DUP1 CALLDATASIZE PUSH1 0x0 DUP5 GAS DELEGATECALL RETURNDATASIZE PUSH1 0x0 DUP1 RETURNDATACOPY DUP1 DUP1 ISZERO PUSH2 0x309 JUMPI RETURNDATASIZE PUSH1 0x0 RETURN JUMPDEST RETURNDATASIZE PUSH1 0x0 REVERT JUMPDEST CALLVALUE DUP1 ISZERO PUSH2 0x31A JUMPI PUSH1 0x0 DUP1 REVERT JUMPDEST POP PUSH2 0x323 PUSH2 0x81F JUMP JUMPDEST PUSH1 0x40 MLOAD PUSH2 0x330 SWAP2 SWAP1 PUSH2 0x2120 JUMP JUMPDEST PUSH1 0x40 MLOAD DUP1 SWAP2 SUB SWAP1 RETURN JUMPDEST CALLVALUE DUP1 ISZERO PUSH2 0x345 JUMPI PUSH1 0x0 DUP1 REVERT JUMPDEST POP PUSH2 0x34E PUSH2 0x825 JUMP JUMPDEST PUSH1 0x40 MLOAD PUSH2 0x330 SWAP2 SWAP1 PUSH2 0x1DDB JUMP JUMPDEST CALLVALUE DUP1 ISZERO PUSH2 0x367 JUMPI PUSH1 0x0 DUP1 REVERT JUMPDEST POP PUSH2 0x370 PUSH2 0x834 JUMP JUMPDEST PUSH1 0x40 MLOAD PUSH2 0x330 SWAP2 SWAP1 PUSH2 0x1E1B JUMP JUMPDEST CALLVALUE DUP1 ISZERO PUSH2 0x389 JUMPI PUSH1 0x0 DUP1 REVERT JUMPDEST POP PUSH2 0x392 PUSH2 0x844 JUMP JUMPDEST PUSH1 0x40 MLOAD PUSH2 0x330 SWAP2 SWAP1 PUSH2 0x1E26 JUMP JUMPDEST CALLVALUE DUP1 ISZERO PUSH2 0x3AB JUMPI PUSH1 0x0 DUP1 REVERT JUMPDEST POP PUSH2 0x3B4 PUSH2 0x8D2 JUMP JUMPDEST STOP JUMPDEST CALLVALUE DUP1 ISZERO PUSH2 0x3C2 JUMPI PUSH1 0x0 DUP1 REVERT JUMPDEST POP PUSH2 0x34E PUSH2 0x92F JUMP JUMPDEST CALLVALUE DUP1 ISZERO PUSH2 0x3D7 JUMPI PUSH1 0x0 DUP1 REVERT JUMPDEST POP PUSH2 0x3B4 PUSH2 0x3E6 CALLDATASIZE PUSH1 0x4 PUSH2 0x1B21 JUMP JUMPDEST PUSH2 0x93E JUMP JUMPDEST CALLVALUE DUP1 ISZERO PUSH2 0x3F7 JUMPI PUSH1 0x0 DUP1 REVERT JUMPDEST POP PUSH2 0x323 PUSH2 0x406 CALLDATASIZE PUSH1 0x4 PUSH2 0x1D47 JUMP JUMPDEST PUSH2 0x9D8 JUMP JUMPDEST CALLVALUE DUP1 ISZERO PUSH2 0x417 JUMPI PUSH1 0x0 DUP1 REVERT JUMPDEST POP PUSH2 0x370 PUSH2 0xA9C JUMP JUMPDEST CALLVALUE DUP1 ISZERO PUSH2 0x42C JUMPI PUSH1 0x0 DUP1 REVERT JUMPDEST POP PUSH2 0x323 PUSH2 0xAAC JUMP JUMPDEST CALLVALUE DUP1 ISZERO PUSH2 0x441 JUMPI PUSH1 0x0 DUP1 REVERT JUMPDEST POP PUSH2 0x323 PUSH2 0xAB2 JUMP JUMPDEST CALLVALUE DUP1 ISZERO PUSH2 0x456 JUMPI PUSH1 0x0 DUP1 REVERT JUMPDEST POP PUSH2 0x3B4 PUSH2 0xAB8 JUMP JUMPDEST CALLVALUE DUP1 ISZERO PUSH2 0x46B JUMPI PUSH1 0x0 DUP1 REVERT JUMPDEST POP PUSH2 0x323 PUSH2 0xB06 JUMP JUMPDEST CALLVALUE DUP1 ISZERO PUSH2 0x480 JUMPI PUSH1 0x0 DUP1 REVERT JUMPDEST POP PUSH2 0x323 PUSH2 0xB0C JUMP JUMPDEST CALLVALUE DUP1 ISZERO PUSH2 0x495 JUMPI PUSH1 0x0 DUP1 REVERT JUMPDEST POP PUSH2 0x3B4 PUSH2 0xB12 JUMP JUMPDEST CALLVALUE DUP1 ISZERO PUSH2 0x4AA JUMPI PUSH1 0x0 DUP1 REVERT JUMPDEST POP PUSH2 0x34E PUSH2 0xB5D JUMP JUMPDEST CALLVALUE DUP1 ISZERO PUSH2 0x4BF JUMPI PUSH1 0x0 DUP1 REVERT JUMPDEST POP PUSH2 0x323 PUSH2 0xB6C JUMP JUMPDEST CALLVALUE DUP1 ISZERO PUSH2 0x4D4 JUMPI PUSH1 0x0 DUP1 REVERT JUMPDEST POP PUSH2 0x323 PUSH2 0xB72 JUMP JUMPDEST CALLVALUE DUP1 ISZERO PUSH2 0x4E9 JUMPI PUSH1 0x0 DUP1 REVERT JUMPDEST POP PUSH2 0x323 PUSH2 0xB78 JUMP JUMPDEST CALLVALUE DUP1 ISZERO PUSH2 0x4FE JUMPI PUSH1 0x0 DUP1 REVERT JUMPDEST POP PUSH2 0x370 PUSH2 0xB7E JUMP JUMPDEST CALLVALUE DUP1 ISZERO PUSH2 0x513 JUMPI PUSH1 0x0 DUP1 REVERT JUMPDEST POP PUSH2 0x323 PUSH2 0xB8E JUMP JUMPDEST CALLVALUE DUP1 ISZERO PUSH2 0x528 JUMPI PUSH1 0x0 DUP1 REVERT JUMPDEST POP PUSH2 0x53C PUSH2 0x537 CALLDATASIZE PUSH1 0x4 PUSH2 0x1B87 JUMP JUMPDEST PUSH2 0xB94 JUMP JUMPDEST PUSH1 0x40 MLOAD PUSH2 0x330 SWAP10 SWAP9 SWAP8 SWAP7 SWAP6 SWAP5 SWAP4 SWAP3 SWAP2 SWAP1 PUSH2 0x2150 JUMP JUMPDEST CALLVALUE DUP1 ISZERO PUSH2 0x55D JUMPI PUSH1 0x0 DUP1 REVERT JUMPDEST POP PUSH2 0x3B4 PUSH2 0x56C CALLDATASIZE PUSH1 0x4 PUSH2 0x1C59 JUMP JUMPDEST PUSH2 0xC02 JUMP JUMPDEST CALLVALUE DUP1 ISZERO PUSH2 0x57D JUMPI PUSH1 0x0 DUP1 REVERT JUMPDEST POP PUSH2 0x370 PUSH2 0x119F JUMP JUMPDEST CALLVALUE DUP1 ISZERO PUSH2 0x592 JUMPI PUSH1 0x0 DUP1 REVERT JUMPDEST POP PUSH2 0x34E PUSH2 0x11AF JUMP JUMPDEST CALLVALUE DUP1 ISZERO PUSH2 0x5A7 JUMPI PUSH1 0x0 DUP1 REVERT JUMPDEST POP PUSH2 0x323 PUSH2 0x11BE JUMP JUMPDEST CALLVALUE DUP1 ISZERO PUSH2 0x5BC JUMPI PUSH1 0x0 DUP1 REVERT JUMPDEST POP PUSH2 0x34E PUSH2 0x11C3 JUMP JUMPDEST CALLVALUE DUP1 ISZERO PUSH2 0x5D1 JUMPI PUSH1 0x0 DUP1 REVERT JUMPDEST POP PUSH2 0x370 PUSH2 0x11D2 JUMP JUMPDEST CALLVALUE DUP1 ISZERO PUSH2 0x5E6 JUMPI PUSH1 0x0 DUP1 REVERT JUMPDEST POP PUSH2 0x5EF PUSH2 0x11E2 JUMP JUMPDEST PUSH1 0x40 MLOAD PUSH2 0x330 SWAP2 SWAP1 PUSH2 0x1E08 JUMP JUMPDEST CALLVALUE DUP1 ISZERO PUSH2 0x608 JUMPI PUSH1 0x0 DUP1 REVERT JUMPDEST POP PUSH2 0x370 PUSH2 0x1291 JUMP JUMPDEST CALLVALUE DUP1 ISZERO PUSH2 0x61D JUMPI PUSH1 0x0 DUP1 REVERT JUMPDEST POP PUSH2 0x3B4 PUSH2 0x62C CALLDATASIZE PUSH1 0x4 PUSH2 0x1B3D JUMP JUMPDEST PUSH2 0x12A1 JUMP JUMPDEST CALLVALUE DUP1 ISZERO PUSH2 0x63D JUMPI PUSH1 0x0 DUP1 REVERT JUMPDEST POP PUSH2 0x323 PUSH2 0x1356 JUMP JUMPDEST CALLVALUE DUP1 ISZERO PUSH2 0x652 JUMPI PUSH1 0x0 DUP1 REVERT JUMPDEST POP PUSH2 0x392 PUSH2 0x135C JUMP JUMPDEST CALLVALUE DUP1 ISZERO PUSH2 0x667 JUMPI PUSH1 0x0 DUP1 REVERT JUMPDEST POP PUSH2 0x34E PUSH2 0x1369 JUMP JUMPDEST CALLVALUE DUP1 ISZERO PUSH2 0x67C JUMPI PUSH1 0x0 DUP1 REVERT JUMPDEST POP PUSH2 0x323 PUSH2 0x1378 JUMP JUMPDEST CALLVALUE DUP1 ISZERO PUSH2 0x691 JUMPI PUSH1 0x0 DUP1 REVERT JUMPDEST POP PUSH2 0x34E PUSH2 0x13FE JUMP JUMPDEST CALLVALUE DUP1 ISZERO PUSH2 0x6A6 JUMPI PUSH1 0x0 DUP1 REVERT JUMPDEST POP PUSH2 0x323 PUSH2 0x140D JUMP JUMPDEST CALLVALUE DUP1 ISZERO PUSH2 0x6BB JUMPI PUSH1 0x0 DUP1 REVERT JUMPDEST POP PUSH2 0x370 PUSH2 0x1413 JUMP JUMPDEST CALLVALUE DUP1 ISZERO PUSH2 0x6D0 JUMPI PUSH1 0x0 DUP1 REVERT JUMPDEST POP PUSH2 0x6E4 PUSH2 0x6DF CALLDATASIZE PUSH1 0x4 PUSH2 0x1D47 JUMP JUMPDEST PUSH2 0x1423 JUMP JUMPDEST PUSH1 0x40 MLOAD PUSH2 0x330 SWAP3 SWAP2 SWAP1 PUSH2 0x1DEF JUMP JUMPDEST CALLVALUE DUP1 ISZERO PUSH2 0x6FE JUMPI PUSH1 0x0 DUP1 REVERT JUMPDEST POP PUSH2 0x707 PUSH2 0x145B JUMP JUMPDEST PUSH1 0x40 MLOAD PUSH2 0x330 SWAP12 SWAP11 SWAP10 SWAP9 SWAP8 SWAP7 SWAP6 SWAP5 SWAP4 SWAP3 SWAP2 SWAP1 PUSH2 0x2193 JUMP JUMPDEST CALLVALUE DUP1 ISZERO PUSH2 0x72A JUMPI PUSH1 0x0 DUP1 REVERT JUMPDEST POP PUSH2 0x323 PUSH2 0x1488 JUMP JUMPDEST CALLVALUE DUP1 ISZERO PUSH2 0x73F JUMPI PUSH1 0x0 DUP1 REVERT JUMPDEST POP PUSH2 0x323 PUSH2 0x148E JUMP JUMPDEST CALLVALUE DUP1 ISZERO PUSH2 0x754 JUMPI PUSH1 0x0 DUP1 REVERT JUMPDEST POP PUSH2 0x34E PUSH2 0x1494 JUMP JUMPDEST CALLVALUE DUP1 ISZERO PUSH2 0x769 JUMPI PUSH1 0x0 DUP1 REVERT JUMPDEST POP PUSH2 0x323 PUSH2 0x14A3 JUMP JUMPDEST CALLVALUE DUP1 ISZERO PUSH2 0x77E JUMPI PUSH1 0x0 DUP1 REVERT JUMPDEST POP PUSH2 0x792 PUSH2 0x78D CALLDATASIZE PUSH1 0x4 PUSH2 0x1D47 JUMP JUMPDEST PUSH2 0x14A9 JUMP JUMPDEST PUSH1 0x40 MLOAD PUSH2 0x330 SWAP3 SWAP2 SWAP1 PUSH2 0x2142 JUMP JUMPDEST CALLVALUE DUP1 ISZERO PUSH2 0x7AC JUMPI PUSH1 0x0 DUP1 REVERT JUMPDEST POP PUSH2 0x3B4 PUSH2 0x7BB CALLDATASIZE PUSH1 0x4 PUSH2 0x1B21 JUMP JUMPDEST PUSH2 0x14D7 JUMP JUMPDEST CALLVALUE DUP1 ISZERO PUSH2 0x7CC JUMPI PUSH1 0x0 DUP1 REVERT JUMPDEST POP PUSH2 0x323 PUSH2 0x1548 JUMP JUMPDEST CALLVALUE DUP1 ISZERO PUSH2 0x7E1 JUMPI PUSH1 0x0 DUP1 REVERT JUMPDEST POP PUSH2 0x34E PUSH2 0x154E JUMP JUMPDEST CALLVALUE DUP1 ISZERO PUSH2 0x7F6 JUMPI PUSH1 0x0 DUP1 REVERT JUMPDEST POP PUSH2 0x323 PUSH2 0x155D JUMP JUMPDEST CALLVALUE DUP1 ISZERO PUSH2 0x80B JUMPI PUSH1 0x0 DUP1 REVERT JUMPDEST POP PUSH2 0x6E4 PUSH2 0x81A CALLDATASIZE PUSH1 0x4 PUSH2 0x1D47 JUMP JUMPDEST PUSH2 0x1563 JUMP JUMPDEST PUSH1 0x6A SLOAD DUP2 JUMP JUMPDEST PUSH1 0x8D SLOAD PUSH1 0x1 PUSH1 0x1 PUSH1 0xA0 SHL SUB AND DUP2 JUMP JUMPDEST PUSH1 0x7B SLOAD PUSH1 0x1 PUSH1 0xB0 SHL SWAP1 DIV PUSH1 0xFF AND DUP2 JUMP JUMPDEST PUSH1 0x7C DUP1 SLOAD PUSH2 0x851 SWAP1 PUSH2 0x225D JUMP JUMPDEST DUP1 PUSH1 0x1F ADD PUSH1 0x20 DUP1 SWAP2 DIV MUL PUSH1 0x20 ADD PUSH1 0x40 MLOAD SWAP1 DUP2 ADD PUSH1 0x40 MSTORE DUP1 SWAP3 SWAP2 SWAP1 DUP2 DUP2 MSTORE PUSH1 0x20 ADD DUP3 DUP1 SLOAD PUSH2 0x87D SWAP1 PUSH2 0x225D JUMP JUMPDEST DUP1 ISZERO PUSH2 0x8CA JUMPI DUP1 PUSH1 0x1F LT PUSH2 0x89F JUMPI PUSH2 0x100 DUP1 DUP4 SLOAD DIV MUL DUP4 MSTORE SWAP2 PUSH1 0x20 ADD SWAP2 PUSH2 0x8CA JUMP JUMPDEST DUP3 ADD SWAP2 SWAP1 PUSH1 0x0 MSTORE PUSH1 0x20 PUSH1 0x0 KECCAK256 SWAP1 JUMPDEST DUP2 SLOAD DUP2 MSTORE SWAP1 PUSH1 0x1 ADD SWAP1 PUSH1 0x20 ADD DUP1 DUP4 GT PUSH2 0x8AD JUMPI DUP3 SWAP1 SUB PUSH1 0x1F AND DUP3 ADD SWAP2 JUMPDEST POP POP POP POP POP DUP2 JUMP JUMPDEST PUSH2 0x8DA PUSH2 0x1573 JUMP JUMPDEST PUSH1 0x1 PUSH1 0x1 PUSH1 0xA0 SHL SUB AND PUSH2 0x8EB PUSH2 0x11AF JUMP JUMPDEST PUSH1 0x1 PUSH1 0x1 PUSH1 0xA0 SHL SUB AND EQ PUSH2 0x91A JUMPI PUSH1 0x40 MLOAD PUSH3 0x461BCD PUSH1 0xE5 SHL DUP2 MSTORE PUSH1 0x4 ADD PUSH2 0x911 SWAP1 PUSH2 0x1FF3 JUMP JUMPDEST PUSH1 0x40 MLOAD DUP1 SWAP2 SUB SWAP1 REVERT JUMPDEST PUSH1 0x7B DUP1 SLOAD PUSH1 0xFF PUSH1 0xD0 SHL NOT AND PUSH1 0x1 PUSH1 0xD0 SHL OR SWAP1 SSTORE JUMP JUMPDEST PUSH1 0x79 SLOAD PUSH1 0x1 PUSH1 0x1 PUSH1 0xA0 SHL SUB AND DUP2 JUMP JUMPDEST PUSH1 0x7A SLOAD PUSH1 0x1 PUSH1 0x1 PUSH1 0xA0 SHL SUB AND CALLER EQ PUSH2 0x968 JUMPI PUSH1 0x40 MLOAD PUSH3 0x461BCD PUSH1 0xE5 SHL DUP2 MSTORE PUSH1 0x4 ADD PUSH2 0x911 SWAP1 PUSH2 0x20E9 JUMP JUMPDEST PUSH1 0x7B SLOAD PUSH1 0x1 PUSH1 0xD0 SHL SWAP1 DIV PUSH1 0xFF AND PUSH2 0x991 JUMPI PUSH1 0x40 MLOAD PUSH3 0x461BCD PUSH1 0xE5 SHL DUP2 MSTORE PUSH1 0x4 ADD PUSH2 0x911 SWAP1 PUSH2 0x1E79 JUMP JUMPDEST PUSH1 0x79 SLOAD PUSH1 0x1 PUSH1 0x1 PUSH1 0xA0 SHL SUB DUP3 DUP2 AND SWAP2 AND EQ ISZERO PUSH2 0x9BF JUMPI PUSH1 0x40 MLOAD PUSH3 0x461BCD PUSH1 0xE5 SHL DUP2 MSTORE PUSH1 0x4 ADD PUSH2 0x911 SWAP1 PUSH2 0x1F6E JUMP JUMPDEST PUSH2 0x9C8 DUP2 PUSH2 0x1577 JUMP JUMPDEST POP PUSH1 0x7B DUP1 SLOAD PUSH1 0xFF PUSH1 0xD0 SHL NOT AND SWAP1 SSTORE JUMP JUMPDEST PUSH1 0x66 SLOAD PUSH1 0x0 SWAP1 DUP2 SWAP1 PUSH1 0x1 PUSH1 0x1 PUSH1 0xA0 SHL SUB AND PUSH4 0xD06CA61F DUP5 PUSH2 0x9F7 PUSH2 0x11E2 JUMP JUMPDEST PUSH1 0x40 MLOAD DUP4 PUSH4 0xFFFFFFFF AND PUSH1 0xE0 SHL DUP2 MSTORE PUSH1 0x4 ADD PUSH2 0xA14 SWAP3 SWAP2 SWAP1 PUSH2 0x2129 JUMP JUMPDEST PUSH1 0x0 PUSH1 0x40 MLOAD DUP1 DUP4 SUB DUP2 DUP7 DUP1 EXTCODESIZE ISZERO DUP1 ISZERO PUSH2 0xA2C JUMPI PUSH1 0x0 DUP1 REVERT JUMPDEST POP GAS STATICCALL ISZERO DUP1 ISZERO PUSH2 0xA40 JUMPI RETURNDATASIZE PUSH1 0x0 DUP1 RETURNDATACOPY RETURNDATASIZE PUSH1 0x0 REVERT JUMPDEST POP POP POP POP PUSH1 0x40 MLOAD RETURNDATASIZE PUSH1 0x0 DUP3 RETURNDATACOPY PUSH1 0x1F RETURNDATASIZE SWAP1 DUP2 ADD PUSH1 0x1F NOT AND DUP3 ADD PUSH1 0x40 MSTORE PUSH2 0xA68 SWAP2 SWAP1 DUP2 ADD SWAP1 PUSH2 0x1BB2 JUMP JUMPDEST SWAP1 POP DUP1 PUSH1 0x1 DUP2 MLOAD DUP2 LT PUSH2 0xA8B JUMPI PUSH4 0x4E487B71 PUSH1 0xE0 SHL PUSH1 0x0 MSTORE PUSH1 0x32 PUSH1 0x4 MSTORE PUSH1 0x24 PUSH1 0x0 REVERT JUMPDEST PUSH1 0x20 MUL PUSH1 0x20 ADD ADD MLOAD SWAP2 POP POP JUMPDEST SWAP2 SWAP1 POP JUMP JUMPDEST PUSH1 0x7B SLOAD PUSH1 0x1 PUSH1 0xA8 SHL SWAP1 DIV PUSH1 0xFF AND DUP2 JUMP JUMPDEST PUSH1 0x6B SLOAD DUP2 JUMP JUMPDEST PUSH1 0x6C SLOAD DUP2 JUMP JUMPDEST PUSH2 0xAC0 PUSH2 0x1573 JUMP JUMPDEST PUSH1 0x1 PUSH1 0x1 PUSH1 0xA0 SHL SUB AND PUSH2 0xAD1 PUSH2 0x11AF JUMP JUMPDEST PUSH1 0x1 PUSH1 0x1 PUSH1 0xA0 SHL SUB AND EQ PUSH2 0xAF7 JUMPI PUSH1 0x40 MLOAD PUSH3 0x461BCD PUSH1 0xE5 SHL DUP2 MSTORE PUSH1 0x4 ADD PUSH2 0x911 SWAP1 PUSH2 0x1FF3 JUMP JUMPDEST PUSH1 0x7B DUP1 SLOAD PUSH1 0xFF PUSH1 0xD0 SHL NOT AND SWAP1 SSTORE JUMP JUMPDEST PUSH1 0x70 SLOAD DUP2 JUMP JUMPDEST PUSH1 0x71 SLOAD DUP2 JUMP JUMPDEST PUSH2 0xB1A PUSH2 0x1573 JUMP JUMPDEST PUSH1 0x1 PUSH1 0x1 PUSH1 0xA0 SHL SUB AND PUSH2 0xB2B PUSH2 0x11AF JUMP JUMPDEST PUSH1 0x1 PUSH1 0x1 PUSH1 0xA0 SHL SUB AND EQ PUSH2 0xB51 JUMPI PUSH1 0x40 MLOAD PUSH3 0x461BCD PUSH1 0xE5 SHL DUP2 MSTORE PUSH1 0x4 ADD PUSH2 0x911 SWAP1 PUSH2 0x1FF3 JUMP JUMPDEST PUSH2 0xB5B PUSH1 0x0 PUSH2 0x15BE JUMP JUMPDEST JUMP JUMPDEST PUSH1 0x66 SLOAD PUSH1 0x1 PUSH1 0x1 PUSH1 0xA0 SHL SUB AND SWAP1 JUMP JUMPDEST PUSH1 0x6F SLOAD DUP2 JUMP JUMPDEST PUSH1 0x78 SLOAD DUP2 JUMP JUMPDEST PUSH1 0x6E SLOAD DUP2 JUMP JUMPDEST PUSH1 0x7B SLOAD PUSH1 0x1 PUSH1 0xC0 SHL SWAP1 DIV PUSH1 0xFF AND DUP2 JUMP JUMPDEST PUSH1 0x72 SLOAD DUP2 JUMP JUMPDEST PUSH1 0x8B PUSH1 0x20 MSTORE DUP2 PUSH1 0x0 MSTORE PUSH1 0x40 PUSH1 0x0 KECCAK256 DUP2 DUP2 SLOAD DUP2 LT PUSH2 0xBB0 JUMPI PUSH1 0x0 DUP1 REVERT JUMPDEST PUSH1 0x0 SWAP2 DUP3 MSTORE PUSH1 0x20 SWAP1 SWAP2 KECCAK256 PUSH1 0x8 SWAP1 SWAP2 MUL ADD DUP1 SLOAD PUSH1 0x1 DUP3 ADD SLOAD PUSH1 0x2 DUP4 ADD SLOAD PUSH1 0x3 DUP5 ADD SLOAD PUSH1 0x4 DUP6 ADD SLOAD PUSH1 0x5 DUP7 ADD SLOAD PUSH1 0x6 DUP8 ADD SLOAD PUSH1 0x7 SWAP1 SWAP8 ADD SLOAD SWAP6 SWAP9 POP SWAP4 SWAP7 POP SWAP2 SWAP5 SWAP1 SWAP4 SWAP2 SWAP3 SWAP2 PUSH1 0xFF DUP1 DUP3 AND SWAP2 PUSH2 0x100 SWAP1 DIV AND DUP10 JUMP JUMPDEST PUSH1 0x0 SLOAD PUSH2 0x100 SWAP1 DIV PUSH1 0xFF AND DUP1 PUSH2 0xC1B JUMPI POP PUSH1 0x0 SLOAD PUSH1 0xFF AND ISZERO JUMPDEST PUSH2 0xC37 JUMPI PUSH1 0x40 MLOAD PUSH3 0x461BCD PUSH1 0xE5 SHL DUP2 MSTORE PUSH1 0x4 ADD PUSH2 0x911 SWAP1 PUSH2 0x1FA5 JUMP JUMPDEST PUSH1 0x0 SLOAD PUSH2 0x100 SWAP1 DIV PUSH1 0xFF AND ISZERO DUP1 ISZERO PUSH2 0xC62 JUMPI PUSH1 0x0 DUP1 SLOAD PUSH1 0xFF NOT PUSH2 0xFF00 NOT SWAP1 SWAP2 AND PUSH2 0x100 OR AND PUSH1 0x1 OR SWAP1 SSTORE JUMPDEST PUSH1 0x7A SLOAD PUSH1 0x1 PUSH1 0x1 PUSH1 0xA0 SHL SUB AND CALLER EQ PUSH2 0xC8C JUMPI PUSH1 0x40 MLOAD PUSH3 0x461BCD PUSH1 0xE5 SHL DUP2 MSTORE PUSH1 0x4 ADD PUSH2 0x911 SWAP1 PUSH2 0x20E9 JUMP JUMPDEST PUSH2 0xC94 PUSH2 0x1610 JUMP JUMPDEST PUSH2 0xC9C PUSH2 0x1694 JUMP JUMPDEST DUP6 MLOAD PUSH1 0x20 DUP8 ADD MLOAD PUSH1 0x60 DUP9 ADD MLOAD PUSH2 0xCB3 SWAP3 SWAP2 SWAP1 PUSH2 0x12A1 JUMP JUMPDEST DUP5 MLOAD TIMESTAMP LT PUSH2 0xCD3 JUMPI PUSH1 0x40 MLOAD PUSH3 0x461BCD PUSH1 0xE5 SHL DUP2 MSTORE PUSH1 0x4 ADD PUSH2 0x911 SWAP1 PUSH2 0x2028 JUMP JUMPDEST DUP11 MLOAD PUSH2 0xCE6 SWAP1 PUSH1 0x7C SWAP1 PUSH1 0x20 DUP15 ADD SWAP1 PUSH2 0x18AD JUMP JUMPDEST POP DUP10 MLOAD PUSH2 0xCFA SWAP1 PUSH1 0x7D SWAP1 PUSH1 0x20 DUP14 ADD SWAP1 PUSH2 0x18AD JUMP JUMPDEST POP PUSH1 0x8C DUP1 SLOAD PUSH1 0x1 PUSH1 0x1 PUSH1 0xA0 SHL SUB DUP1 DUP13 AND PUSH1 0x1 PUSH1 0x1 PUSH1 0xA0 SHL SUB NOT SWAP3 DUP4 AND OR SWAP1 SWAP3 SSTORE PUSH1 0x8D DUP1 SLOAD DUP12 DUP5 AND SWAP1 DUP4 AND OR SWAP1 SSTORE PUSH1 0x7A DUP1 SLOAD SWAP3 DUP11 AND SWAP3 SWAP1 SWAP2 AND SWAP2 SWAP1 SWAP2 OR SWAP1 SSTORE PUSH2 0xD48 DUP7 PUSH1 0x1 PUSH1 0x20 MUL ADD MLOAD PUSH2 0x16FC JUMP JUMPDEST PUSH1 0x40 DUP7 DUP2 ADD MLOAD PUSH1 0x7B DUP1 SLOAD PUSH1 0x1 PUSH1 0x1 PUSH1 0xA0 SHL SUB NOT SWAP1 DUP2 AND PUSH1 0x1 PUSH1 0x1 PUSH1 0xA0 SHL SUB SWAP4 DUP5 AND SWAP1 DUP2 OR SWAP1 SWAP3 SSTORE PUSH1 0x60 DUP1 DUP12 ADD MLOAD PUSH1 0x8E DUP1 SLOAD SWAP1 SWAP4 AND SWAP5 AND SWAP4 SWAP1 SWAP4 OR SWAP1 SSTORE DUP8 MLOAD PUSH1 0x69 SSTORE PUSH1 0x20 DUP9 ADD MLOAD PUSH1 0x6B SSTORE SWAP2 DUP8 ADD MLOAD PUSH1 0x6A SSTORE DUP7 ADD MLOAD PUSH1 0x6C SSTORE PUSH1 0x80 DUP7 ADD MLOAD PUSH1 0x6D SSTORE PUSH1 0xA0 DUP7 ADD MLOAD PUSH1 0x6E SSTORE PUSH1 0xC0 DUP7 ADD MLOAD PUSH1 0x6F SSTORE PUSH1 0xE0 DUP7 ADD MLOAD PUSH1 0x74 SSTORE PUSH2 0x100 DUP7 ADD MLOAD PUSH1 0x75 SSTORE PUSH2 0x120 DUP7 ADD MLOAD PUSH1 0x70 SSTORE PUSH2 0x140 DUP7 ADD MLOAD PUSH1 0x71 SSTORE PUSH2 0xDEB JUMPI PUSH2 0x160 DUP6 ADD MLOAD PUSH1 0x77 SSTORE PUSH2 0xE07 JUMP JUMPDEST PUSH1 0x7B SLOAD PUSH2 0xE00 SWAP1 PUSH1 0x1 PUSH1 0x1 PUSH1 0xA0 SHL SUB AND PUSH2 0x171E JUMP JUMPDEST PUSH1 0xFF AND PUSH1 0x77 SSTORE JUMPDEST PUSH1 0x7B DUP1 SLOAD PUSH1 0xFF PUSH1 0xA8 SHL NOT AND PUSH1 0x1 PUSH1 0xA8 SHL DUP5 ISZERO ISZERO MUL OR SWAP1 SSTORE DUP3 MLOAD DUP5 MLOAD PUSH1 0x0 SWAP2 PUSH2 0xE2F SWAP2 SWAP1 PUSH2 0x179F JUMP JUMPDEST SWAP1 POP PUSH1 0x0 JUMPDEST PUSH1 0x8 DUP2 LT ISZERO PUSH2 0x104B JUMPI DUP6 DUP2 PUSH1 0x8 DUP2 LT PUSH2 0xE5D JUMPI PUSH4 0x4E487B71 PUSH1 0xE0 SHL PUSH1 0x0 MSTORE PUSH1 0x32 PUSH1 0x4 MSTORE PUSH1 0x24 PUSH1 0x0 REVERT JUMPDEST PUSH1 0x20 MUL ADD MLOAD PUSH2 0xE6B JUMPI PUSH2 0x104B JUMP JUMPDEST DUP6 PUSH2 0xE77 DUP3 PUSH1 0x1 PUSH2 0x220F JUMP JUMPDEST PUSH1 0x8 DUP2 LT PUSH2 0xE95 JUMPI PUSH4 0x4E487B71 PUSH1 0xE0 SHL PUSH1 0x0 MSTORE PUSH1 0x32 PUSH1 0x4 MSTORE PUSH1 0x24 PUSH1 0x0 REVERT JUMPDEST PUSH1 0x20 MUL ADD MLOAD ISZERO PUSH2 0xFB2 JUMPI DUP6 PUSH2 0xEAB DUP3 PUSH1 0x1 PUSH2 0x220F JUMP JUMPDEST PUSH1 0x8 DUP2 LT PUSH2 0xEC9 JUMPI PUSH4 0x4E487B71 PUSH1 0xE0 SHL PUSH1 0x0 MSTORE PUSH1 0x32 PUSH1 0x4 MSTORE PUSH1 0x24 PUSH1 0x0 REVERT JUMPDEST PUSH1 0x20 MUL ADD MLOAD DUP7 DUP3 PUSH1 0x8 DUP2 LT PUSH2 0xEEE JUMPI PUSH4 0x4E487B71 PUSH1 0xE0 SHL PUSH1 0x0 MSTORE PUSH1 0x32 PUSH1 0x4 MSTORE PUSH1 0x24 PUSH1 0x0 REVERT JUMPDEST PUSH1 0x20 MUL ADD MLOAD LT PUSH2 0xF10 JUMPI PUSH1 0x40 MLOAD PUSH3 0x461BCD PUSH1 0xE5 SHL DUP2 MSTORE PUSH1 0x4 ADD PUSH2 0x911 SWAP1 PUSH2 0x1EF6 JUMP JUMPDEST PUSH2 0xFAF PUSH2 0xFA8 DUP7 PUSH2 0xF22 DUP5 PUSH1 0x1 PUSH2 0x220F JUMP JUMPDEST PUSH1 0x8 DUP2 LT PUSH2 0xF40 JUMPI PUSH4 0x4E487B71 PUSH1 0xE0 SHL PUSH1 0x0 MSTORE PUSH1 0x32 PUSH1 0x4 MSTORE PUSH1 0x24 PUSH1 0x0 REVERT JUMPDEST PUSH1 0x20 MUL ADD MLOAD PUSH2 0xFA2 DUP10 DUP6 PUSH1 0x8 DUP2 LT PUSH2 0xF68 JUMPI PUSH4 0x4E487B71 PUSH1 0xE0 SHL PUSH1 0x0 MSTORE PUSH1 0x32 PUSH1 0x4 MSTORE PUSH1 0x24 PUSH1 0x0 REVERT JUMPDEST PUSH1 0x20 MUL ADD MLOAD DUP11 PUSH2 0xF79 DUP8 PUSH1 0x1 PUSH2 0x220F JUMP JUMPDEST PUSH1 0x8 DUP2 LT PUSH2 0xF97 JUMPI PUSH4 0x4E487B71 PUSH1 0xE0 SHL PUSH1 0x0 MSTORE PUSH1 0x32 PUSH1 0x4 MSTORE PUSH1 0x24 PUSH1 0x0 REVERT JUMPDEST PUSH1 0x20 MUL ADD MLOAD SWAP1 PUSH2 0x17B2 JUMP JUMPDEST SWAP1 PUSH2 0x179F JUMP JUMPDEST DUP4 SWAP1 PUSH2 0x17BE JUMP JUMPDEST SWAP2 POP JUMPDEST PUSH1 0x88 PUSH1 0x40 MLOAD DUP1 PUSH1 0x40 ADD PUSH1 0x40 MSTORE DUP1 DUP9 DUP5 PUSH1 0x8 DUP2 LT PUSH2 0xFDF JUMPI PUSH4 0x4E487B71 PUSH1 0xE0 SHL PUSH1 0x0 MSTORE PUSH1 0x32 PUSH1 0x4 MSTORE PUSH1 0x24 PUSH1 0x0 REVERT JUMPDEST PUSH1 0x20 MUL ADD MLOAD DUP2 MSTORE PUSH1 0x20 ADD DUP8 DUP5 PUSH1 0x8 DUP2 LT PUSH2 0x1009 JUMPI PUSH4 0x4E487B71 PUSH1 0xE0 SHL PUSH1 0x0 MSTORE PUSH1 0x32 PUSH1 0x4 MSTORE PUSH1 0x24 PUSH1 0x0 REVERT JUMPDEST PUSH1 0x20 SWAP1 DUP2 MUL SWAP2 SWAP1 SWAP2 ADD MLOAD SWAP1 SWAP2 MSTORE DUP3 SLOAD PUSH1 0x1 DUP2 DUP2 ADD DUP6 SSTORE PUSH1 0x0 SWAP5 DUP6 MSTORE SWAP4 DUP3 SWAP1 KECCAK256 DUP4 MLOAD PUSH1 0x2 SWAP1 SWAP3 MUL ADD SWAP1 DUP2 SSTORE SWAP2 ADD MLOAD SWAP2 ADD SSTORE DUP1 PUSH2 0x1043 DUP2 PUSH2 0x2298 JUMP JUMPDEST SWAP2 POP POP PUSH2 0xE34 JUMP JUMPDEST PUSH1 0x19 DUP7 PUSH2 0x1059 PUSH1 0x1 DUP5 PUSH2 0x2246 JUMP JUMPDEST PUSH1 0x8 DUP2 LT PUSH2 0x1077 JUMPI PUSH4 0x4E487B71 PUSH1 0xE0 SHL PUSH1 0x0 MSTORE PUSH1 0x32 PUSH1 0x4 MSTORE PUSH1 0x24 PUSH1 0x0 REVERT JUMPDEST PUSH1 0x20 MUL ADD MLOAD GT ISZERO PUSH2 0x109A JUMPI PUSH1 0x40 MLOAD PUSH3 0x461BCD PUSH1 0xE5 SHL DUP2 MSTORE PUSH1 0x4 ADD PUSH2 0x911 SWAP1 PUSH2 0x1F24 JUMP JUMPDEST DUP5 PUSH2 0x10A6 PUSH1 0x1 DUP4 PUSH2 0x2246 JUMP JUMPDEST PUSH1 0x8 DUP2 LT PUSH2 0x10C4 JUMPI PUSH4 0x4E487B71 PUSH1 0xE0 SHL PUSH1 0x0 MSTORE PUSH1 0x32 PUSH1 0x4 MSTORE PUSH1 0x24 PUSH1 0x0 REVERT JUMPDEST PUSH1 0x20 MUL ADD MLOAD ISZERO DUP1 ISZERO SWAP1 PUSH2 0x10F9 JUMPI POP DUP5 DUP2 PUSH1 0x8 DUP2 LT PUSH2 0x10F2 JUMPI PUSH4 0x4E487B71 PUSH1 0xE0 SHL PUSH1 0x0 MSTORE PUSH1 0x32 PUSH1 0x4 MSTORE PUSH1 0x24 PUSH1 0x0 REVERT JUMPDEST PUSH1 0x20 MUL ADD MLOAD ISZERO JUMPDEST PUSH2 0x1115 JUMPI PUSH1 0x40 MLOAD PUSH3 0x461BCD PUSH1 0xE5 SHL DUP2 MSTORE PUSH1 0x4 ADD PUSH2 0x911 SWAP1 PUSH2 0x20A4 JUMP JUMPDEST DUP2 PUSH2 0x2710 EQ PUSH2 0x1136 JUMPI PUSH1 0x40 MLOAD PUSH3 0x461BCD PUSH1 0xE5 SHL DUP2 MSTORE PUSH1 0x4 ADD PUSH2 0x911 SWAP1 PUSH2 0x206D JUMP JUMPDEST POP POP PUSH1 0x69 SLOAD PUSH1 0x7E SSTORE PUSH1 0x6A SLOAD PUSH1 0x7F SSTORE PUSH1 0x6B SLOAD PUSH1 0x80 SSTORE PUSH1 0x6F SLOAD PUSH1 0x82 SSTORE PUSH1 0x6E SLOAD PUSH1 0x83 SSTORE PUSH1 0x6D SLOAD PUSH1 0x84 SSTORE PUSH1 0x76 SLOAD PUSH1 0x85 SSTORE PUSH1 0x7B SLOAD PUSH1 0x87 DUP1 SLOAD PUSH1 0xFF NOT AND PUSH1 0x1 PUSH1 0xA8 SHL SWAP1 SWAP3 DIV PUSH1 0xFF AND ISZERO ISZERO SWAP2 SWAP1 SWAP2 OR SWAP1 SSTORE DUP1 ISZERO PUSH2 0x1192 JUMPI PUSH1 0x0 DUP1 SLOAD PUSH2 0xFF00 NOT AND SWAP1 SSTORE JUMPDEST POP POP POP POP POP POP POP POP POP POP POP JUMP JUMPDEST PUSH1 0x7B SLOAD PUSH1 0x1 PUSH1 0xD0 SHL SWAP1 DIV PUSH1 0xFF AND DUP2 JUMP JUMPDEST PUSH1 0x33 SLOAD PUSH1 0x1 PUSH1 0x1 PUSH1 0xA0 SHL SUB AND SWAP1 JUMP JUMPDEST PUSH1 0x5 DUP2 JUMP JUMPDEST PUSH1 0x8E SLOAD PUSH1 0x1 PUSH1 0x1 PUSH1 0xA0 SHL SUB AND DUP2 JUMP JUMPDEST PUSH1 0x7B SLOAD PUSH1 0x1 PUSH1 0xA0 SHL SWAP1 DIV PUSH1 0xFF AND DUP2 JUMP JUMPDEST PUSH1 0x40 DUP1 MLOAD PUSH1 0x2 DUP1 DUP3 MSTORE PUSH1 0x60 DUP1 DUP4 ADD DUP5 MSTORE SWAP3 PUSH1 0x0 SWAP3 SWAP2 SWAP1 PUSH1 0x20 DUP4 ADD SWAP1 DUP1 CALLDATASIZE DUP4 CALLDATACOPY POP POP PUSH1 0x67 SLOAD DUP3 MLOAD SWAP3 SWAP4 POP PUSH1 0x1 PUSH1 0x1 PUSH1 0xA0 SHL SUB AND SWAP2 DUP4 SWAP2 POP PUSH1 0x0 SWAP1 PUSH2 0x1235 JUMPI PUSH4 0x4E487B71 PUSH1 0xE0 SHL PUSH1 0x0 MSTORE PUSH1 0x32 PUSH1 0x4 MSTORE PUSH1 0x24 PUSH1 0x0 REVERT JUMPDEST PUSH1 0x1 PUSH1 0x1 PUSH1 0xA0 SHL SUB SWAP3 DUP4 AND PUSH1 0x20 SWAP2 DUP3 MUL SWAP3 SWAP1 SWAP3 ADD ADD MSTORE PUSH1 0x68 SLOAD DUP3 MLOAD SWAP2 AND SWAP1 DUP3 SWAP1 PUSH1 0x1 SWAP1 DUP2 LT PUSH2 0x1274 JUMPI PUSH4 0x4E487B71 PUSH1 0xE0 SHL PUSH1 0x0 MSTORE PUSH1 0x32 PUSH1 0x4 MSTORE PUSH1 0x24 PUSH1 0x0 REVERT JUMPDEST PUSH1 0x1 PUSH1 0x1 PUSH1 0xA0 SHL SUB SWAP1 SWAP3 AND PUSH1 0x20 SWAP3 DUP4 MUL SWAP2 SWAP1 SWAP2 ADD SWAP1 SWAP2 ADD MSTORE SWAP1 POP SWAP1 JUMP JUMPDEST PUSH1 0x7B SLOAD PUSH1 0x1 PUSH1 0xB8 SHL SWAP1 DIV PUSH1 0xFF AND DUP2 JUMP JUMPDEST PUSH1 0x0 SLOAD PUSH2 0x100 SWAP1 DIV PUSH1 0xFF AND DUP1 PUSH2 0x12BA JUMPI POP PUSH1 0x0 SLOAD PUSH1 0xFF AND ISZERO JUMPDEST PUSH2 0x12D6 JUMPI PUSH1 0x40 MLOAD PUSH3 0x461BCD PUSH1 0xE5 SHL DUP2 MSTORE PUSH1 0x4 ADD PUSH2 0x911 SWAP1 PUSH2 0x1FA5 JUMP JUMPDEST PUSH1 0x0 SLOAD PUSH2 0x100 SWAP1 DIV PUSH1 0xFF AND ISZERO DUP1 ISZERO PUSH2 0x1301 JUMPI PUSH1 0x0 DUP1 SLOAD PUSH1 0xFF NOT PUSH2 0xFF00 NOT SWAP1 SWAP2 AND PUSH2 0x100 OR AND PUSH1 0x1 OR SWAP1 SSTORE JUMPDEST PUSH1 0x66 DUP1 SLOAD PUSH1 0x1 PUSH1 0x1 PUSH1 0xA0 SHL SUB DUP1 DUP8 AND PUSH1 0x1 PUSH1 0x1 PUSH1 0xA0 SHL SUB NOT SWAP3 DUP4 AND OR SWAP1 SWAP3 SSTORE PUSH1 0x67 DUP1 SLOAD DUP7 DUP5 AND SWAP1 DUP4 AND OR SWAP1 SSTORE PUSH1 0x68 DUP1 SLOAD SWAP3 DUP6 AND SWAP3 SWAP1 SWAP2 AND SWAP2 SWAP1 SWAP2 OR SWAP1 SSTORE DUP1 ISZERO PUSH2 0x1350 JUMPI PUSH1 0x0 DUP1 SLOAD PUSH2 0xFF00 NOT AND SWAP1 SSTORE JUMPDEST POP POP POP POP JUMP JUMPDEST PUSH1 0x6D SLOAD DUP2 JUMP JUMPDEST PUSH1 0x7D DUP1 SLOAD PUSH2 0x851 SWAP1 PUSH2 0x225D JUMP JUMPDEST PUSH1 0x7B SLOAD PUSH1 0x1 PUSH1 0x1 PUSH1 0xA0 SHL SUB AND DUP2 JUMP JUMPDEST PUSH1 0x65 SLOAD PUSH1 0x40 MLOAD PUSH4 0x70A08231 PUSH1 0xE0 SHL DUP2 MSTORE PUSH1 0x0 SWAP2 PUSH1 0x1 PUSH1 0x1 PUSH1 0xA0 SHL SUB AND SWAP1 PUSH4 0x70A08231 SWAP1 PUSH2 0x13A9 SWAP1 ADDRESS SWAP1 PUSH1 0x4 ADD PUSH2 0x1DDB JUMP JUMPDEST PUSH1 0x20 PUSH1 0x40 MLOAD DUP1 DUP4 SUB DUP2 DUP7 DUP1 EXTCODESIZE ISZERO DUP1 ISZERO PUSH2 0x13C1 JUMPI PUSH1 0x0 DUP1 REVERT JUMPDEST POP GAS STATICCALL ISZERO DUP1 ISZERO PUSH2 0x13D5 JUMPI RETURNDATASIZE PUSH1 0x0 DUP1 RETURNDATACOPY RETURNDATASIZE PUSH1 0x0 REVERT JUMPDEST POP POP POP POP PUSH1 0x40 MLOAD RETURNDATASIZE PUSH1 0x1F NOT PUSH1 0x1F DUP3 ADD AND DUP3 ADD DUP1 PUSH1 0x40 MSTORE POP DUP2 ADD SWAP1 PUSH2 0x13F9 SWAP2 SWAP1 PUSH2 0x1D5F JUMP JUMPDEST SWAP1 POP SWAP1 JUMP JUMPDEST PUSH1 0x7A SLOAD PUSH1 0x1 PUSH1 0x1 PUSH1 0xA0 SHL SUB AND DUP2 JUMP JUMPDEST PUSH1 0x73 SLOAD DUP2 JUMP JUMPDEST PUSH1 0x7B SLOAD PUSH1 0x1 PUSH1 0xC8 SHL SWAP1 DIV PUSH1 0xFF AND DUP2 JUMP JUMPDEST PUSH1 0x8A DUP2 DUP2 SLOAD DUP2 LT PUSH2 0x1433 JUMPI PUSH1 0x0 DUP1 REVERT JUMPDEST PUSH1 0x0 SWAP2 DUP3 MSTORE PUSH1 0x20 SWAP1 SWAP2 KECCAK256 PUSH1 0x2 SWAP1 SWAP2 MUL ADD DUP1 SLOAD PUSH1 0x1 SWAP1 SWAP2 ADD SLOAD PUSH1 0x1 PUSH1 0x1 PUSH1 0xA0 SHL SUB SWAP1 SWAP2 AND SWAP2 POP DUP3 JUMP JUMPDEST PUSH1 0x7E SLOAD PUSH1 0x7F SLOAD PUSH1 0x80 SLOAD PUSH1 0x81 SLOAD PUSH1 0x82 SLOAD PUSH1 0x83 SLOAD PUSH1 0x84 SLOAD PUSH1 0x85 SLOAD PUSH1 0x86 SLOAD PUSH1 0x87 SLOAD PUSH1 0xFF DUP1 DUP3 AND SWAP2 PUSH2 0x100 SWAP1 DIV AND DUP12 JUMP JUMPDEST PUSH1 0x74 SLOAD DUP2 JUMP JUMPDEST PUSH1 0x77 SLOAD DUP2 JUMP JUMPDEST PUSH1 0x8C SLOAD PUSH1 0x1 PUSH1 0x1 PUSH1 0xA0 SHL SUB AND DUP2 JUMP JUMPDEST PUSH1 0x75 SLOAD DUP2 JUMP JUMPDEST PUSH1 0x88 DUP2 DUP2 SLOAD DUP2 LT PUSH2 0x14B9 JUMPI PUSH1 0x0 DUP1 REVERT JUMPDEST PUSH1 0x0 SWAP2 DUP3 MSTORE PUSH1 0x20 SWAP1 SWAP2 KECCAK256 PUSH1 0x2 SWAP1 SWAP2 MUL ADD DUP1 SLOAD PUSH1 0x1 SWAP1 SWAP2 ADD SLOAD SWAP1 SWAP2 POP DUP3 JUMP JUMPDEST PUSH2 0x14DF PUSH2 0x1573 JUMP JUMPDEST PUSH1 0x1 PUSH1 0x1 PUSH1 0xA0 SHL SUB AND PUSH2 0x14F0 PUSH2 0x11AF JUMP JUMPDEST PUSH1 0x1 PUSH1 0x1 PUSH1 0xA0 SHL SUB AND EQ PUSH2 0x1516 JUMPI PUSH1 0x40 MLOAD PUSH3 0x461BCD PUSH1 0xE5 SHL DUP2 MSTORE PUSH1 0x4 ADD PUSH2 0x911 SWAP1 PUSH2 0x1FF3 JUMP JUMPDEST PUSH1 0x1 PUSH1 0x1 PUSH1 0xA0 SHL SUB DUP2 AND PUSH2 0x153C JUMPI PUSH1 0x40 MLOAD PUSH3 0x461BCD PUSH1 0xE5 SHL DUP2 MSTORE PUSH1 0x4 ADD PUSH2 0x911 SWAP1 PUSH2 0x1EB0 JUMP JUMPDEST PUSH2 0x1545 DUP2 PUSH2 0x15BE JUMP JUMPDEST POP JUMP JUMPDEST PUSH1 0x76 SLOAD DUP2 JUMP JUMPDEST PUSH1 0x65 SLOAD PUSH1 0x1 PUSH1 0x1 PUSH1 0xA0 SHL SUB AND SWAP1 JUMP JUMPDEST PUSH1 0x69 SLOAD DUP2 JUMP JUMPDEST PUSH1 0x89 DUP2 DUP2 SLOAD DUP2 LT PUSH2 0x1433 JUMPI PUSH1 0x0 DUP1 REVERT JUMPDEST CALLER SWAP1 JUMP JUMPDEST PUSH1 0x79 DUP1 SLOAD PUSH1 0x1 PUSH1 0x1 PUSH1 0xA0 SHL SUB NOT AND PUSH1 0x1 PUSH1 0x1 PUSH1 0xA0 SHL SUB DUP4 AND OR SWAP1 SSTORE PUSH1 0x40 MLOAD PUSH32 0x3DAB95F89F74034BEEAC9F9FE9BEC350186CB958223E1791AFB0DBB64859CABD SWAP1 PUSH1 0x0 SWAP1 LOG1 POP JUMP JUMPDEST PUSH1 0x33 DUP1 SLOAD PUSH1 0x1 PUSH1 0x1 PUSH1 0xA0 SHL SUB DUP4 DUP2 AND PUSH1 0x1 PUSH1 0x1 PUSH1 0xA0 SHL SUB NOT DUP4 AND DUP2 OR SWAP1 SWAP4 SSTORE PUSH1 0x40 MLOAD SWAP2 AND SWAP2 SWAP1 DUP3 SWAP1 PUSH32 0x8BE0079C531659141344CD1FD0A4F28419497F9722A3DAAFE3B4186F6B6457E0 SWAP1 PUSH1 0x0 SWAP1 LOG3 POP POP JUMP JUMPDEST PUSH1 0x0 SLOAD PUSH2 0x100 SWAP1 DIV PUSH1 0xFF AND DUP1 PUSH2 0x1629 JUMPI POP PUSH1 0x0 SLOAD PUSH1 0xFF AND ISZERO JUMPDEST PUSH2 0x1645 JUMPI PUSH1 0x40 MLOAD PUSH3 0x461BCD PUSH1 0xE5 SHL DUP2 MSTORE PUSH1 0x4 ADD PUSH2 0x911 SWAP1 PUSH2 0x1FA5 JUMP JUMPDEST PUSH1 0x0 SLOAD PUSH2 0x100 SWAP1 DIV PUSH1 0xFF AND ISZERO DUP1 ISZERO PUSH2 0x1670 JUMPI PUSH1 0x0 DUP1 SLOAD PUSH1 0xFF NOT PUSH2 0xFF00 NOT SWAP1 SWAP2 AND PUSH2 0x100 OR AND PUSH1 0x1 OR SWAP1 SSTORE JUMPDEST PUSH2 0x1678 PUSH2 0x17CA JUMP JUMPDEST PUSH2 0x1680 PUSH2 0x183D JUMP JUMPDEST DUP1 ISZERO PUSH2 0x1545 JUMPI PUSH1 0x0 DUP1 SLOAD PUSH2 0xFF00 NOT AND SWAP1 SSTORE POP JUMP JUMPDEST PUSH1 0x0 SLOAD PUSH2 0x100 SWAP1 DIV PUSH1 0xFF AND DUP1 PUSH2 0x16AD JUMPI POP PUSH1 0x0 SLOAD PUSH1 0xFF AND ISZERO JUMPDEST PUSH2 0x16C9 JUMPI PUSH1 0x40 MLOAD PUSH3 0x461BCD PUSH1 0xE5 SHL DUP2 MSTORE PUSH1 0x4 ADD PUSH2 0x911 SWAP1 PUSH2 0x1FA5 JUMP JUMPDEST PUSH1 0x0 SLOAD PUSH2 0x100 SWAP1 DIV PUSH1 0xFF AND ISZERO DUP1 ISZERO PUSH2 0x16F4 JUMPI PUSH1 0x0 DUP1 SLOAD PUSH1 0xFF NOT PUSH2 0xFF00 NOT SWAP1 SWAP2 AND PUSH2 0x100 OR AND PUSH1 0x1 OR SWAP1 SSTORE JUMPDEST PUSH2 0x1680 PUSH2 0x17CA JUMP JUMPDEST PUSH1 0x65 DUP1 SLOAD PUSH1 0x1 PUSH1 0x1 PUSH1 0xA0 SHL SUB NOT AND PUSH1 0x1 PUSH1 0x1 PUSH1 0xA0 SHL SUB SWAP3 SWAP1 SWAP3 AND SWAP2 SWAP1 SWAP2 OR SWAP1 SSTORE JUMP JUMPDEST PUSH1 0x0 DUP1 DUP3 SWAP1 POP PUSH1 0x0 DUP2 PUSH1 0x1 PUSH1 0x1 PUSH1 0xA0 SHL SUB AND PUSH4 0x313CE567 PUSH1 0x40 MLOAD DUP2 PUSH4 0xFFFFFFFF AND PUSH1 0xE0 SHL DUP2 MSTORE PUSH1 0x4 ADD PUSH1 0x20 PUSH1 0x40 MLOAD DUP1 DUP4 SUB DUP2 DUP7 DUP1 EXTCODESIZE ISZERO DUP1 ISZERO PUSH2 0x175F JUMPI PUSH1 0x0 DUP1 REVERT JUMPDEST POP GAS STATICCALL ISZERO DUP1 ISZERO PUSH2 0x1773 JUMPI RETURNDATASIZE PUSH1 0x0 DUP1 RETURNDATACOPY RETURNDATASIZE PUSH1 0x0 REVERT JUMPDEST POP POP POP POP PUSH1 0x40 MLOAD RETURNDATASIZE PUSH1 0x1F NOT PUSH1 0x1F DUP3 ADD AND DUP3 ADD DUP1 PUSH1 0x40 MSTORE POP DUP2 ADD SWAP1 PUSH2 0x1797 SWAP2 SWAP1 PUSH2 0x1D77 JUMP JUMPDEST SWAP5 SWAP4 POP POP POP POP JUMP JUMPDEST PUSH1 0x0 PUSH2 0x17AB DUP3 DUP5 PUSH2 0x2227 JUMP JUMPDEST SWAP4 SWAP3 POP POP POP JUMP JUMPDEST PUSH1 0x0 PUSH2 0x17AB DUP3 DUP5 PUSH2 0x2246 JUMP JUMPDEST PUSH1 0x0 PUSH2 0x17AB DUP3 DUP5 PUSH2 0x220F JUMP JUMPDEST PUSH1 0x0 SLOAD PUSH2 0x100 SWAP1 DIV PUSH1 0xFF AND DUP1 PUSH2 0x17E3 JUMPI POP PUSH1 0x0 SLOAD PUSH1 0xFF AND ISZERO JUMPDEST PUSH2 0x17FF JUMPI PUSH1 0x40 MLOAD PUSH3 0x461BCD PUSH1 0xE5 SHL DUP2 MSTORE PUSH1 0x4 ADD PUSH2 0x911 SWAP1 PUSH2 0x1FA5 JUMP JUMPDEST PUSH1 0x0 SLOAD PUSH2 0x100 SWAP1 DIV PUSH1 0xFF AND ISZERO DUP1 ISZERO PUSH2 0x1680 JUMPI PUSH1 0x0 DUP1 SLOAD PUSH1 0xFF NOT PUSH2 0xFF00 NOT SWAP1 SWAP2 AND PUSH2 0x100 OR AND PUSH1 0x1 OR SWAP1 SSTORE DUP1 ISZERO PUSH2 0x1545 JUMPI PUSH1 0x0 DUP1 SLOAD PUSH2 0xFF00 NOT AND SWAP1 SSTORE POP JUMP JUMPDEST PUSH1 0x0 SLOAD PUSH2 0x100 SWAP1 DIV PUSH1 0xFF AND DUP1 PUSH2 0x1856 JUMPI POP PUSH1 0x0 SLOAD PUSH1 0xFF AND ISZERO JUMPDEST PUSH2 0x1872 JUMPI PUSH1 0x40 MLOAD PUSH3 0x461BCD PUSH1 0xE5 SHL DUP2 MSTORE PUSH1 0x4 ADD PUSH2 0x911 SWAP1 PUSH2 0x1FA5 JUMP JUMPDEST PUSH1 0x0 SLOAD PUSH2 0x100 SWAP1 DIV PUSH1 0xFF AND ISZERO DUP1 ISZERO PUSH2 0x189D JUMPI PUSH1 0x0 DUP1 SLOAD PUSH1 0xFF NOT PUSH2 0xFF00 NOT SWAP1 SWAP2 AND PUSH2 0x100 OR AND PUSH1 0x1 OR SWAP1 SSTORE JUMPDEST PUSH2 0x1680 PUSH2 0x18A8 PUSH2 0x1573 JUMP JUMPDEST PUSH2 0x15BE JUMP JUMPDEST DUP3 DUP1 SLOAD PUSH2 0x18B9 SWAP1 PUSH2 0x225D JUMP JUMPDEST SWAP1 PUSH1 0x0 MSTORE PUSH1 0x20 PUSH1 0x0 KECCAK256 SWAP1 PUSH1 0x1F ADD PUSH1 0x20 SWAP1 DIV DUP2 ADD SWAP3 DUP3 PUSH2 0x18DB JUMPI PUSH1 0x0 DUP6 SSTORE PUSH2 0x1921 JUMP JUMPDEST DUP3 PUSH1 0x1F LT PUSH2 0x18F4 JUMPI DUP1 MLOAD PUSH1 0xFF NOT AND DUP4 DUP1 ADD OR DUP6 SSTORE PUSH2 0x1921 JUMP JUMPDEST DUP3 DUP1 ADD PUSH1 0x1 ADD DUP6 SSTORE DUP3 ISZERO PUSH2 0x1921 JUMPI SWAP2 DUP3 ADD JUMPDEST DUP3 DUP2 GT ISZERO PUSH2 0x1921 JUMPI DUP3 MLOAD DUP3 SSTORE SWAP2 PUSH1 0x20 ADD SWAP2 SWAP1 PUSH1 0x1 ADD SWAP1 PUSH2 0x1906 JUMP JUMPDEST POP PUSH2 0x192D SWAP3 SWAP2 POP PUSH2 0x1931 JUMP JUMPDEST POP SWAP1 JUMP JUMPDEST JUMPDEST DUP1 DUP3 GT ISZERO PUSH2 0x192D JUMPI PUSH1 0x0 DUP2 SSTORE PUSH1 0x1 ADD PUSH2 0x1932 JUMP JUMPDEST DUP1 CALLDATALOAD PUSH2 0xA97 DUP2 PUSH2 0x22DF JUMP JUMPDEST PUSH1 0x0 DUP3 PUSH1 0x1F DUP4 ADD SLT PUSH2 0x1961 JUMPI DUP1 DUP2 REVERT JUMPDEST PUSH1 0x40 MLOAD PUSH1 0x80 DUP2 ADD DUP2 DUP2 LT PUSH8 0xFFFFFFFFFFFFFFFF DUP3 GT OR ISZERO PUSH2 0x1984 JUMPI PUSH2 0x1984 PUSH2 0x22C9 JUMP JUMPDEST PUSH1 0x40 MSTORE DUP1 DUP4 PUSH1 0x80 DUP2 ADD DUP7 LT ISZERO PUSH2 0x1998 JUMPI DUP4 DUP5 REVERT JUMPDEST DUP4 JUMPDEST PUSH1 0x4 DUP2 LT ISZERO PUSH2 0x19C3 JUMPI DUP2 CALLDATALOAD PUSH2 0x19AE DUP2 PUSH2 0x22DF JUMP JUMPDEST DUP4 MSTORE PUSH1 0x20 SWAP3 DUP4 ADD SWAP3 SWAP2 SWAP1 SWAP2 ADD SWAP1 PUSH1 0x1 ADD PUSH2 0x199A JUMP JUMPDEST POP SWAP2 SWAP6 SWAP5 POP POP POP POP POP JUMP JUMPDEST PUSH1 0x0 DUP3 PUSH1 0x1F DUP4 ADD SLT PUSH2 0x19DE JUMPI DUP1 DUP2 REVERT JUMPDEST PUSH1 0x40 MLOAD PUSH2 0x180 DUP1 DUP3 ADD DUP3 DUP2 LT PUSH8 0xFFFFFFFFFFFFFFFF DUP3 GT OR ISZERO PUSH2 0x1A03 JUMPI PUSH2 0x1A03 PUSH2 0x22C9 JUMP JUMPDEST PUSH1 0x40 MSTORE DUP2 DUP5 DUP3 DUP2 ADD DUP8 LT ISZERO PUSH2 0x1A16 JUMPI DUP5 DUP6 REVERT JUMPDEST DUP5 SWAP3 POP JUMPDEST PUSH1 0xC DUP4 LT ISZERO PUSH2 0x19C3 JUMPI DUP1 CALLDATALOAD DUP3 MSTORE PUSH1 0x1 SWAP3 SWAP1 SWAP3 ADD SWAP2 PUSH1 0x20 SWAP2 DUP3 ADD SWAP2 ADD PUSH2 0x1A1A JUMP JUMPDEST PUSH1 0x0 DUP3 PUSH1 0x1F DUP4 ADD SLT PUSH2 0x1A4A JUMPI DUP1 DUP2 REVERT JUMPDEST PUSH1 0x40 MLOAD PUSH2 0x100 DUP1 DUP3 ADD DUP3 DUP2 LT PUSH8 0xFFFFFFFFFFFFFFFF DUP3 GT OR ISZERO PUSH2 0x1A6F JUMPI PUSH2 0x1A6F PUSH2 0x22C9 JUMP JUMPDEST PUSH1 0x40 MSTORE DUP2 DUP5 DUP3 DUP2 ADD DUP8 LT ISZERO PUSH2 0x1A82 JUMPI DUP5 DUP6 REVERT JUMPDEST DUP5 SWAP3 POP JUMPDEST PUSH1 0x8 DUP4 LT ISZERO PUSH2 0x19C3 JUMPI DUP1 CALLDATALOAD DUP3 MSTORE PUSH1 0x1 SWAP3 SWAP1 SWAP3 ADD SWAP2 PUSH1 0x20 SWAP2 DUP3 ADD SWAP2 ADD PUSH2 0x1A86 JUMP JUMPDEST DUP1 CALLDATALOAD DUP1 ISZERO ISZERO DUP2 EQ PUSH2 0xA97 JUMPI PUSH1 0x0 DUP1 REVERT JUMPDEST PUSH1 0x0 DUP3 PUSH1 0x1F DUP4 ADD SLT PUSH2 0x1AC6 JUMPI DUP1 DUP2 REVERT JUMPDEST DUP2 CALLDATALOAD PUSH8 0xFFFFFFFFFFFFFFFF DUP2 GT ISZERO PUSH2 0x1AE0 JUMPI PUSH2 0x1AE0 PUSH2 0x22C9 JUMP JUMPDEST PUSH2 0x1AF3 PUSH1 0x1F DUP3 ADD PUSH1 0x1F NOT AND PUSH1 0x20 ADD PUSH2 0x21E5 JUMP JUMPDEST DUP2 DUP2 MSTORE DUP5 PUSH1 0x20 DUP4 DUP7 ADD ADD GT ISZERO PUSH2 0x1B07 JUMPI DUP3 DUP4 REVERT JUMPDEST DUP2 PUSH1 0x20 DUP6 ADD PUSH1 0x20 DUP4 ADD CALLDATACOPY SWAP1 DUP2 ADD PUSH1 0x20 ADD SWAP2 SWAP1 SWAP2 MSTORE SWAP3 SWAP2 POP POP JUMP JUMPDEST PUSH1 0x0 PUSH1 0x20 DUP3 DUP5 SUB SLT ISZERO PUSH2 0x1B32 JUMPI DUP1 DUP2 REVERT JUMPDEST DUP2 CALLDATALOAD PUSH2 0x17AB DUP2 PUSH2 0x22DF JUMP JUMPDEST PUSH1 0x0 DUP1 PUSH1 0x0 PUSH1 0x60 DUP5 DUP7 SUB SLT ISZERO PUSH2 0x1B51 JUMPI DUP2 DUP3 REVERT JUMPDEST DUP4 CALLDATALOAD PUSH2 0x1B5C DUP2 PUSH2 0x22DF JUMP JUMPDEST SWAP3 POP PUSH1 0x20 DUP5 ADD CALLDATALOAD PUSH2 0x1B6C DUP2 PUSH2 0x22DF JUMP JUMPDEST SWAP2 POP PUSH1 0x40 DUP5 ADD CALLDATALOAD PUSH2 0x1B7C DUP2 PUSH2 0x22DF JUMP JUMPDEST DUP1 SWAP2 POP POP SWAP3 POP SWAP3 POP SWAP3 JUMP JUMPDEST PUSH1 0x0 DUP1 PUSH1 0x40 DUP4 DUP6 SUB SLT ISZERO PUSH2 0x1B99 JUMPI DUP2 DUP3 REVERT JUMPDEST DUP3 CALLDATALOAD PUSH2 0x1BA4 DUP2 PUSH2 0x22DF JUMP JUMPDEST SWAP5 PUSH1 0x20 SWAP4 SWAP1 SWAP4 ADD CALLDATALOAD SWAP4 POP POP POP JUMP JUMPDEST PUSH1 0x0 PUSH1 0x20 DUP1 DUP4 DUP6 SUB SLT ISZERO PUSH2 0x1BC4 JUMPI DUP2 DUP3 REVERT JUMPDEST DUP3 MLOAD PUSH8 0xFFFFFFFFFFFFFFFF DUP1 DUP3 GT ISZERO PUSH2 0x1BDB JUMPI DUP4 DUP5 REVERT JUMPDEST DUP2 DUP6 ADD SWAP2 POP DUP6 PUSH1 0x1F DUP4 ADD SLT PUSH2 0x1BEE JUMPI DUP4 DUP5 REVERT JUMPDEST DUP2 MLOAD DUP2 DUP2 GT ISZERO PUSH2 0x1C00 JUMPI PUSH2 0x1C00 PUSH2 0x22C9 JUMP JUMPDEST DUP4 DUP2 MUL SWAP2 POP PUSH2 0x1C10 DUP5 DUP4 ADD PUSH2 0x21E5 JUMP JUMPDEST DUP2 DUP2 MSTORE DUP5 DUP2 ADD SWAP1 DUP5 DUP7 ADD DUP5 DUP7 ADD DUP8 ADD DUP11 LT ISZERO PUSH2 0x1C2A JUMPI DUP8 DUP9 REVERT JUMPDEST DUP8 SWAP6 POP JUMPDEST DUP4 DUP7 LT ISZERO PUSH2 0x1C4C JUMPI DUP1 MLOAD DUP4 MSTORE PUSH1 0x1 SWAP6 SWAP1 SWAP6 ADD SWAP5 SWAP2 DUP7 ADD SWAP2 DUP7 ADD PUSH2 0x1C2E JUMP JUMPDEST POP SWAP9 SWAP8 POP POP POP POP POP POP POP POP JUMP JUMPDEST PUSH1 0x0 DUP1 PUSH1 0x0 DUP1 PUSH1 0x0 DUP1 PUSH1 0x0 DUP1 PUSH1 0x0 DUP1 PUSH2 0x4C0 DUP12 DUP14 SUB SLT ISZERO PUSH2 0x1C78 JUMPI DUP6 DUP7 REVERT JUMPDEST DUP11 CALLDATALOAD PUSH8 0xFFFFFFFFFFFFFFFF DUP1 DUP3 GT ISZERO PUSH2 0x1C8F JUMPI DUP8 DUP9 REVERT JUMPDEST PUSH2 0x1C9B DUP15 DUP4 DUP16 ADD PUSH2 0x1AB6 JUMP JUMPDEST SWAP12 POP PUSH1 0x20 DUP14 ADD CALLDATALOAD SWAP2 POP DUP1 DUP3 GT ISZERO PUSH2 0x1CB0 JUMPI DUP8 DUP9 REVERT JUMPDEST POP PUSH2 0x1CBD DUP14 DUP3 DUP15 ADD PUSH2 0x1AB6 JUMP JUMPDEST SWAP10 POP POP PUSH2 0x1CCC PUSH1 0x40 DUP13 ADD PUSH2 0x1946 JUMP JUMPDEST SWAP8 POP PUSH2 0x1CDA PUSH1 0x60 DUP13 ADD PUSH2 0x1946 JUMP JUMPDEST SWAP7 POP PUSH2 0x1CE8 PUSH1 0x80 DUP13 ADD PUSH2 0x1946 JUMP JUMPDEST SWAP6 POP PUSH2 0x1CF7 DUP13 PUSH1 0xA0 DUP14 ADD PUSH2 0x1951 JUMP JUMPDEST SWAP5 POP PUSH2 0x1D07 DUP13 PUSH2 0x120 DUP14 ADD PUSH2 0x19CE JUMP JUMPDEST SWAP4 POP PUSH2 0x1D17 DUP13 PUSH2 0x2A0 DUP14 ADD PUSH2 0x1A3A JUMP JUMPDEST SWAP3 POP PUSH2 0x1D27 DUP13 PUSH2 0x3A0 DUP14 ADD PUSH2 0x1A3A JUMP JUMPDEST SWAP2 POP PUSH2 0x1D36 PUSH2 0x4A0 DUP13 ADD PUSH2 0x1AA6 JUMP JUMPDEST SWAP1 POP SWAP3 SWAP6 SWAP9 SWAP12 SWAP2 SWAP5 SWAP8 SWAP11 POP SWAP3 SWAP6 SWAP9 POP JUMP JUMPDEST PUSH1 0x0 PUSH1 0x20 DUP3 DUP5 SUB SLT ISZERO PUSH2 0x1D58 JUMPI DUP1 DUP2 REVERT JUMPDEST POP CALLDATALOAD SWAP2 SWAP1 POP JUMP JUMPDEST PUSH1 0x0 PUSH1 0x20 DUP3 DUP5 SUB SLT ISZERO PUSH2 0x1D70 JUMPI DUP1 DUP2 REVERT JUMPDEST POP MLOAD SWAP2 SWAP1 POP JUMP JUMPDEST PUSH1 0x0 PUSH1 0x20 DUP3 DUP5 SUB SLT ISZERO PUSH2 0x1D88 JUMPI DUP1 DUP2 REVERT JUMPDEST DUP2 MLOAD PUSH1 0xFF DUP2 AND DUP2 EQ PUSH2 0x17AB JUMPI DUP2 DUP3 REVERT JUMPDEST PUSH1 0x0 DUP2 MLOAD DUP1 DUP5 MSTORE PUSH1 0x20 DUP1 DUP6 ADD SWAP5 POP DUP1 DUP5 ADD DUP4 JUMPDEST DUP4 DUP2 LT ISZERO PUSH2 0x1DD0 JUMPI DUP2 MLOAD PUSH1 0x1 PUSH1 0x1 PUSH1 0xA0 SHL SUB AND DUP8 MSTORE SWAP6 DUP3 ADD SWAP6 SWAP1 DUP3 ADD SWAP1 PUSH1 0x1 ADD PUSH2 0x1DAB JUMP JUMPDEST POP SWAP5 SWAP6 SWAP5 POP POP POP POP POP JUMP JUMPDEST PUSH1 0x1 PUSH1 0x1 PUSH1 0xA0 SHL SUB SWAP2 SWAP1 SWAP2 AND DUP2 MSTORE PUSH1 0x20 ADD SWAP1 JUMP JUMPDEST PUSH1 0x1 PUSH1 0x1 PUSH1 0xA0 SHL SUB SWAP3 SWAP1 SWAP3 AND DUP3 MSTORE PUSH1 0x20 DUP3 ADD MSTORE PUSH1 0x40 ADD SWAP1 JUMP JUMPDEST PUSH1 0x0 PUSH1 0x20 DUP3 MSTORE PUSH2 0x17AB PUSH1 0x20 DUP4 ADD DUP5 PUSH2 0x1D98 JUMP JUMPDEST SWAP1 ISZERO ISZERO DUP2 MSTORE PUSH1 0x20 ADD SWAP1 JUMP JUMPDEST PUSH1 0x0 PUSH1 0x20 DUP1 DUP4 MSTORE DUP4 MLOAD DUP1 DUP3 DUP6 ADD MSTORE DUP3 JUMPDEST DUP2 DUP2 LT ISZERO PUSH2 0x1E52 JUMPI DUP6 DUP2 ADD DUP4 ADD MLOAD DUP6 DUP3 ADD PUSH1 0x40 ADD MSTORE DUP3 ADD PUSH2 0x1E36 JUMP JUMPDEST DUP2 DUP2 GT ISZERO PUSH2 0x1E63 JUMPI DUP4 PUSH1 0x40 DUP4 DUP8 ADD ADD MSTORE JUMPDEST POP PUSH1 0x1F ADD PUSH1 0x1F NOT AND SWAP3 SWAP1 SWAP3 ADD PUSH1 0x40 ADD SWAP4 SWAP3 POP POP POP JUMP JUMPDEST PUSH1 0x20 DUP1 DUP3 MSTORE PUSH1 0x1A SWAP1 DUP3 ADD MSTORE PUSH32 0x55706772616465206973206E6F7420656E61626C656420796574000000000000 PUSH1 0x40 DUP3 ADD MSTORE PUSH1 0x60 ADD SWAP1 JUMP JUMPDEST PUSH1 0x20 DUP1 DUP3 MSTORE PUSH1 0x26 SWAP1 DUP3 ADD MSTORE PUSH32 0x4F776E61626C653A206E6577206F776E657220697320746865207A65726F2061 PUSH1 0x40 DUP3 ADD MSTORE PUSH6 0x646472657373 PUSH1 0xD0 SHL PUSH1 0x60 DUP3 ADD MSTORE PUSH1 0x80 ADD SWAP1 JUMP JUMPDEST PUSH1 0x20 DUP1 DUP3 MSTORE PUSH1 0x14 SWAP1 DUP3 ADD MSTORE PUSH20 0x77726F6E67206F72646572206F662072616E6B73 PUSH1 0x60 SHL PUSH1 0x40 DUP3 ADD MSTORE PUSH1 0x60 ADD SWAP1 JUMP JUMPDEST PUSH1 0x20 DUP1 DUP3 MSTORE PUSH1 0x2A SWAP1 DUP3 ADD MSTORE PUSH32 0x6C6173742072616E6B206D757374206265206C657373207468616E206F722065 PUSH1 0x40 DUP3 ADD MSTORE PUSH10 0x7175616C20746F203235 PUSH1 0xB0 SHL PUSH1 0x60 DUP3 ADD MSTORE PUSH1 0x80 ADD SWAP1 JUMP JUMPDEST PUSH1 0x20 DUP1 DUP3 MSTORE PUSH1 0x1D SWAP1 DUP3 ADD MSTORE PUSH32 0x497320616C72656164792074686520696D706C656D656E746174696F6E000000 PUSH1 0x40 DUP3 ADD MSTORE PUSH1 0x60 ADD SWAP1 JUMP JUMPDEST PUSH1 0x20 DUP1 DUP3 MSTORE PUSH1 0x2E SWAP1 DUP3 ADD MSTORE PUSH32 0x496E697469616C697A61626C653A20636F6E747261637420697320616C726561 PUSH1 0x40 DUP3 ADD MSTORE PUSH14 0x191E481A5B9A5D1A585B1A5E9959 PUSH1 0x92 SHL PUSH1 0x60 DUP3 ADD MSTORE PUSH1 0x80 ADD SWAP1 JUMP JUMPDEST PUSH1 0x20 DUP1 DUP3 MSTORE DUP2 DUP2 ADD MSTORE PUSH32 0x4F776E61626C653A2063616C6C6572206973206E6F7420746865206F776E6572 PUSH1 0x40 DUP3 ADD MSTORE PUSH1 0x60 ADD SWAP1 JUMP JUMPDEST PUSH1 0x20 DUP1 DUP3 MSTORE PUSH1 0x25 SWAP1 DUP3 ADD MSTORE PUSH32 0x30333031206C61756E636820646174652063616E277420626520696E20746865 PUSH1 0x40 DUP3 ADD MSTORE PUSH5 0x81C185CDD PUSH1 0xDA SHL PUSH1 0x60 DUP3 ADD MSTORE PUSH1 0x80 ADD SWAP1 JUMP JUMPDEST PUSH1 0x20 DUP1 DUP3 MSTORE PUSH1 0x1F SWAP1 DUP3 ADD MSTORE PUSH32 0x7265776172642070657263656E7461676573206D757374206265203130302500 PUSH1 0x40 DUP3 ADD MSTORE PUSH1 0x60 ADD SWAP1 JUMP JUMPDEST PUSH1 0x20 DUP1 DUP3 MSTORE PUSH1 0x25 SWAP1 DUP3 ADD MSTORE PUSH32 0x72616E6B7320616E642070657263656E7461676573206C656E677468206D6973 PUSH1 0x40 DUP3 ADD MSTORE PUSH5 0xDAC2E8C6D PUSH1 0xDB SHL PUSH1 0x60 DUP3 ADD MSTORE PUSH1 0x80 ADD SWAP1 JUMP JUMPDEST PUSH1 0x20 DUP1 DUP3 MSTORE PUSH1 0x1A SWAP1 DUP3 ADD MSTORE PUSH32 0x6D73672E73656E646572206973206E6F7420616E206F776E6572000000000000 PUSH1 0x40 DUP3 ADD MSTORE PUSH1 0x60 ADD SWAP1 JUMP JUMPDEST SWAP1 DUP2 MSTORE PUSH1 0x20 ADD SWAP1 JUMP JUMPDEST PUSH1 0x0 DUP4 DUP3 MSTORE PUSH1 0x40 PUSH1 0x20 DUP4 ADD MSTORE PUSH2 0x1797 PUSH1 0x40 DUP4 ADD DUP5 PUSH2 0x1D98 JUMP JUMPDEST SWAP2 DUP3 MSTORE PUSH1 0x20 DUP3 ADD MSTORE PUSH1 0x40 ADD SWAP1 JUMP JUMPDEST SWAP9 DUP10 MSTORE PUSH1 0x20 DUP10 ADD SWAP8 SWAP1 SWAP8 MSTORE PUSH1 0x40 DUP9 ADD SWAP6 SWAP1 SWAP6 MSTORE PUSH1 0x60 DUP8 ADD SWAP4 SWAP1 SWAP4 MSTORE PUSH1 0x80 DUP7 ADD SWAP2 SWAP1 SWAP2 MSTORE PUSH1 0xA0 DUP6 ADD MSTORE PUSH1 0xC0 DUP5 ADD MSTORE ISZERO ISZERO PUSH1 0xE0 DUP4 ADD MSTORE ISZERO ISZERO PUSH2 0x100 DUP3 ADD MSTORE PUSH2 0x120 ADD SWAP1 JUMP JUMPDEST SWAP11 DUP12 MSTORE PUSH1 0x20 DUP12 ADD SWAP10 SWAP1 SWAP10 MSTORE PUSH1 0x40 DUP11 ADD SWAP8 SWAP1 SWAP8 MSTORE PUSH1 0x60 DUP10 ADD SWAP6 SWAP1 SWAP6 MSTORE PUSH1 0x80 DUP9 ADD SWAP4 SWAP1 SWAP4 MSTORE PUSH1 0xA0 DUP8 ADD SWAP2 SWAP1 SWAP2 MSTORE PUSH1 0xC0 DUP7 ADD MSTORE PUSH1 0xE0 DUP6 ADD MSTORE PUSH2 0x100 DUP5 ADD MSTORE ISZERO ISZERO PUSH2 0x120 DUP4 ADD MSTORE ISZERO ISZERO PUSH2 0x140 DUP3 ADD MSTORE PUSH2 0x160 ADD SWAP1 JUMP JUMPDEST PUSH1 0x40 MLOAD DUP2 DUP2 ADD PUSH8 0xFFFFFFFFFFFFFFFF DUP2 GT DUP3 DUP3 LT OR ISZERO PUSH2 0x2207 JUMPI PUSH2 0x2207 PUSH2 0x22C9 JUMP JUMPDEST PUSH1 0x40 MSTORE SWAP2 SWAP1 POP JUMP JUMPDEST PUSH1 0x0 DUP3 NOT DUP3 GT ISZERO PUSH2 0x2222 JUMPI PUSH2 0x2222 PUSH2 0x22B3 JUMP JUMPDEST POP ADD SWAP1 JUMP JUMPDEST PUSH1 0x0 DUP2 PUSH1 0x0 NOT DIV DUP4 GT DUP3 ISZERO ISZERO AND ISZERO PUSH2 0x2241 JUMPI PUSH2 0x2241 PUSH2 0x22B3 JUMP JUMPDEST POP MUL SWAP1 JUMP JUMPDEST PUSH1 0x0 DUP3 DUP3 LT ISZERO PUSH2 0x2258 JUMPI PUSH2 0x2258 PUSH2 0x22B3 JUMP JUMPDEST POP SUB SWAP1 JUMP JUMPDEST PUSH1 0x2 DUP2 DIV PUSH1 0x1 DUP3 AND DUP1 PUSH2 0x2271 JUMPI PUSH1 0x7F DUP3 AND SWAP2 POP JUMPDEST PUSH1 0x20 DUP3 LT DUP2 EQ ISZERO PUSH2 0x2292 JUMPI PUSH4 0x4E487B71 PUSH1 0xE0 SHL PUSH1 0x0 MSTORE PUSH1 0x22 PUSH1 0x4 MSTORE PUSH1 0x24 PUSH1 0x0 REVERT JUMPDEST POP SWAP2 SWAP1 POP JUMP JUMPDEST PUSH1 0x0 PUSH1 0x0 NOT DUP3 EQ ISZERO PUSH2 0x22AC JUMPI PUSH2 0x22AC PUSH2 0x22B3 JUMP JUMPDEST POP PUSH1 0x1 ADD SWAP1 JUMP JUMPDEST PUSH4 0x4E487B71 PUSH1 0xE0 SHL PUSH1 0x0 MSTORE PUSH1 0x11 PUSH1 0x4 MSTORE PUSH1 0x24 PUSH1 0x0 REVERT JUMPDEST PUSH4 0x4E487B71 PUSH1 0xE0 SHL PUSH1 0x0 MSTORE PUSH1 0x41 PUSH1 0x4 MSTORE PUSH1 0x24 PUSH1 0x0 REVERT JUMPDEST PUSH1 0x1 PUSH1 0x1 PUSH1 0xA0 SHL SUB DUP2 AND DUP2 EQ PUSH2 0x1545 JUMPI PUSH1 0x0 DUP1 REVERT INVALID LOG2 PUSH5 0x6970667358 0x22 SLT KECCAK256 0xEF DUP8 LOG4 PUSH30 0xED9FE92774B9A08A643F7F4D09128C4DFDD1CE4BC7AF52B87561E65F6473 PUSH16 0x6C63430008000033A264697066735822 SLT KECCAK256 0xE7 0xE5 0xA9 SWAP15 0xD7 PUSH23 0xFAF4E8AA311CD8D8AC71048730BC7495F54AD3408EB62B 0x4B PUSH23 0x1A64736F6C634300080000330000000000000000000000 "
		},
		"gasEstimates": {
			"creation": {
				"codeDepositCost": "2609000",
				"executionCost": "infinite",
				"totalCost": "infinite"
			},
			"external": {
				"addPoolCreator(address)": "infinite",
				"createPoolProxy(address,address,string,string,uint256[12],uint256[8],uint256[8],bool)": "infinite",
				"isPoolCreator(address)": "infinite",
				"minimumStakeAmount()": "1073",
				"renouncePoolCreator()": "23334",
				"rewardManager()": "1094",
				"setDefaultTaxRate(uint256)": "21325",
				"setNewStakingPoolImplementationAdr(address)": "infinite",
				"setNewSuperAdmin(address)": "infinite",
				"setSwapRouter(address)": "infinite",
				"stakingPoolImplementationAdr()": "1115",
				"stakingPoolTaxRate()": "1118",
				"superAdmin()": "1116",
				"swapRouter()": "1137",
				"totemToken()": "1136",
				"usdToken()": "1158"
			},
			"internal": {
				"_createPool(address[4] memory,string memory,string memory,uint256[12] memory,uint256[8] memory,uint256[8] memory,bool,contract StakingPoolProxy)": "infinite"
			}
		},
		"methodIdentifiers": {
			"addPoolCreator(address)": "8c2d741c",
			"createPoolProxy(address,address,string,string,uint256[12],uint256[8],uint256[8],bool)": "ceba6f8d",
			"isPoolCreator(address)": "9a94775d",
			"minimumStakeAmount()": "6b036f45",
			"renouncePoolCreator()": "e281cc7e",
			"rewardManager()": "0f4ef8a6",
			"setDefaultTaxRate(uint256)": "d53b245b",
			"setNewStakingPoolImplementationAdr(address)": "49a84429",
			"setNewSuperAdmin(address)": "b6c3ef27",
			"setSwapRouter(address)": "41273657",
			"stakingPoolImplementationAdr()": "bc8a0669",
			"stakingPoolTaxRate()": "441f5c65",
			"superAdmin()": "29575f6a",
			"swapRouter()": "c31c9c07",
			"totemToken()": "e8153c93",
			"usdToken()": "f897a22b"
		}
	},
	"abi": [
		{
			"inputs": [
				{
					"internalType": "contract ITotemToken",
					"name": "_totemToken",
					"type": "address"
				},
				{
					"internalType": "contract IRewardManager",
					"name": "_rewardManager",
					"type": "address"
				},
				{
					"internalType": "address",
					"name": "_swapRouter",
					"type": "address"
				},
				{
					"internalType": "address",
					"name": "_usdToken",
					"type": "address"
				},
				{
					"internalType": "address",
					"name": "_stakingPoolImplementation",
					"type": "address"
				},
				{
					"internalType": "address",
					"name": "_superAdmin",
					"type": "address"
				}
			],
			"stateMutability": "nonpayable",
			"type": "constructor"
		},
		{
			"anonymous": false,
			"inputs": [],
			"name": "NewStakingPoolImplemnetationWasSet",
			"type": "event"
		},
		{
			"anonymous": false,
			"inputs": [],
			"name": "NewSuperAdminWasSet",
			"type": "event"
		},
		{
			"anonymous": false,
			"inputs": [
				{
					"indexed": true,
					"internalType": "address",
					"name": "pool",
					"type": "address"
				},
				{
					"indexed": false,
					"internalType": "string",
					"name": "wrappedTokenSymbol",
					"type": "string"
				},
				{
					"indexed": false,
					"internalType": "string",
					"name": "poolType",
					"type": "string"
				},
				{
					"indexed": false,
					"internalType": "uint256[12]",
					"name": "variables",
					"type": "uint256[12]"
				},
				{
					"indexed": false,
					"internalType": "uint256[8]",
					"name": "ranks",
					"type": "uint256[8]"
				},
				{
					"indexed": false,
					"internalType": "uint256[8]",
					"name": "percentages",
					"type": "uint256[8]"
				},
				{
					"indexed": false,
					"internalType": "bool",
					"name": "isEnhancedEnabled",
					"type": "bool"
				}
			],
			"name": "PoolCreated",
			"type": "event"
		},
		{
			"anonymous": false,
			"inputs": [
				{
					"indexed": true,
					"internalType": "address",
					"name": "account",
					"type": "address"
				}
			],
			"name": "PoolCreatorAdded",
			"type": "event"
		},
		{
			"anonymous": false,
			"inputs": [
				{
					"indexed": true,
					"internalType": "address",
					"name": "account",
					"type": "address"
				}
			],
			"name": "PoolCreatorRemoved",
			"type": "event"
		},
		{
			"inputs": [
				{
					"internalType": "address",
					"name": "account",
					"type": "address"
				}
			],
			"name": "addPoolCreator",
			"outputs": [],
			"stateMutability": "nonpayable",
			"type": "function"
		},
		{
			"inputs": [
				{
					"internalType": "address",
					"name": "_oracleContract",
					"type": "address"
				},
				{
					"internalType": "address",
					"name": "_wrappedTokenContract",
					"type": "address"
				},
				{
					"internalType": "string",
					"name": "_wrappedTokenSymbol",
					"type": "string"
				},
				{
					"internalType": "string",
					"name": "_poolType",
					"type": "string"
				},
				{
					"internalType": "uint256[12]",
					"name": "_variables",
					"type": "uint256[12]"
				},
				{
					"internalType": "uint256[8]",
					"name": "_ranks",
					"type": "uint256[8]"
				},
				{
					"internalType": "uint256[8]",
					"name": "_percentages",
					"type": "uint256[8]"
				},
				{
					"internalType": "bool",
					"name": "isEnhancedEnabled",
					"type": "bool"
				}
			],
			"name": "createPoolProxy",
			"outputs": [
				{
					"internalType": "address",
					"name": "",
					"type": "address"
				}
			],
			"stateMutability": "nonpayable",
			"type": "function"
		},
		{
			"inputs": [
				{
					"internalType": "address",
					"name": "account",
					"type": "address"
				}
			],
			"name": "isPoolCreator",
			"outputs": [
				{
					"internalType": "bool",
					"name": "",
					"type": "bool"
				}
			],
			"stateMutability": "view",
			"type": "function"
		},
		{
			"inputs": [],
			"name": "minimumStakeAmount",
			"outputs": [
				{
					"internalType": "uint256",
					"name": "",
					"type": "uint256"
				}
			],
			"stateMutability": "view",
			"type": "function"
		},
		{
			"inputs": [],
			"name": "renouncePoolCreator",
			"outputs": [],
			"stateMutability": "nonpayable",
			"type": "function"
		},
		{
			"inputs": [],
			"name": "rewardManager",
			"outputs": [
				{
					"internalType": "contract IRewardManager",
					"name": "",
					"type": "address"
				}
			],
			"stateMutability": "view",
			"type": "function"
		},
		{
			"inputs": [
				{
					"internalType": "uint256",
					"name": "newStakingPoolTaxRate",
					"type": "uint256"
				}
			],
			"name": "setDefaultTaxRate",
			"outputs": [],
			"stateMutability": "nonpayable",
			"type": "function"
		},
		{
			"inputs": [
				{
					"internalType": "address",
					"name": "_ImpAdr",
					"type": "address"
				}
			],
			"name": "setNewStakingPoolImplementationAdr",
			"outputs": [],
			"stateMutability": "nonpayable",
			"type": "function"
		},
		{
			"inputs": [
				{
					"internalType": "address",
					"name": "_superAdmin",
					"type": "address"
				}
			],
			"name": "setNewSuperAdmin",
			"outputs": [],
			"stateMutability": "nonpayable",
			"type": "function"
		},
		{
			"inputs": [
				{
					"internalType": "address",
					"name": "_swapRouter",
					"type": "address"
				}
			],
			"name": "setSwapRouter",
			"outputs": [],
			"stateMutability": "nonpayable",
			"type": "function"
		},
		{
			"inputs": [],
			"name": "stakingPoolImplementationAdr",
			"outputs": [
				{
					"internalType": "address",
					"name": "",
					"type": "address"
				}
			],
			"stateMutability": "view",
			"type": "function"
		},
		{
			"inputs": [],
			"name": "stakingPoolTaxRate",
			"outputs": [
				{
					"internalType": "uint256",
					"name": "",
					"type": "uint256"
				}
			],
			"stateMutability": "view",
			"type": "function"
		},
		{
			"inputs": [],
			"name": "superAdmin",
			"outputs": [
				{
					"internalType": "address",
					"name": "",
					"type": "address"
				}
			],
			"stateMutability": "view",
			"type": "function"
		},
		{
			"inputs": [],
			"name": "swapRouter",
			"outputs": [
				{
					"internalType": "address",
					"name": "",
					"type": "address"
				}
			],
			"stateMutability": "view",
			"type": "function"
		},
		{
			"inputs": [],
			"name": "totemToken",
			"outputs": [
				{
					"internalType": "contract ITotemToken",
					"name": "",
					"type": "address"
				}
			],
			"stateMutability": "view",
			"type": "function"
		},
		{
			"inputs": [],
			"name": "usdToken",
			"outputs": [
				{
					"internalType": "address",
					"name": "",
					"type": "address"
				}
			],
			"stateMutability": "view",
			"type": "function"
		}
	]
}