{
	"data": {
		"bytecode": {
			"linkReferences": {
				"contracts/libraries/CalculateRewardLib.sol": {
					"CalculateRewardLib": [
						{
							"length": 20,
							"start": 7227
						},
						{
							"length": 20,
							"start": 11984
						}
					]
				},
				"contracts/libraries/ClaimRewardLib.sol": {
					"ClaimRewardLib": [
						{
							"length": 20,
							"start": 2861
						},
						{
							"length": 20,
							"start": 5770
						},
						{
							"length": 20,
							"start": 7413
						},
						{
							"length": 20,
							"start": 11022
						},
						{
							"length": 20,
							"start": 11208
						},
						{
							"length": 20,
							"start": 11443
						},
						{
							"length": 20,
							"start": 11835
						},
						{
							"length": 20,
							"start": 12170
						},
						{
							"length": 20,
							"start": 12702
						}
					]
				},
				"contracts/libraries/IndexedClaimRewardLib.sol": {
					"IndexedClaimRewardLib": [
						{
							"length": 20,
							"start": 2170
						},
						{
							"length": 20,
							"start": 8723
						},
						{
							"length": 20,
							"start": 8911
						},
						{
							"length": 20,
							"start": 9148
						},
						{
							"length": 20,
							"start": 9542
						},
						{
							"length": 20,
							"start": 9693
						},
						{
							"length": 20,
							"start": 9881
						},
						{
							"length": 20,
							"start": 10415
						},
						{
							"length": 20,
							"start": 10880
						}
					]
				}
			},
			"object": "608060405234801561001057600080fd5b506152c0806100206000396000f3fe608060405234801561001057600080fd5b50600436106104285760003560e01c80638da5cb5b1161022b578063d025188b11610130578063e8153c93116100b8578063f3d9dc0d11610087578063f3d9dc0d146107d9578063f5e96fc9146107e1578063f8e829c3146107e9578063f8eeed62146107f1578063fd5e6dd1146107f957610428565b8063e8153c93146107a3578063eb850ae1146107ab578063f1b17a8b146107b3578063f2fde38b146107c657610428565b8063df7f92e0116100ff578063df7f92e014610759578063e081866914610761578063e113af5114610780578063e425df8c14610793578063e68b52e71461079b57610428565b8063d025188b14610715578063d49fab8a1461071d578063d7efb6b714610730578063de09ee201461073857610428565b8063aa7bcb57116101b3578063b88a802f11610182578063b88a802f146106e2578063bece7532146106ea578063c1201054146106f2578063c6c1decd146106fa578063cee0c8891461070257610428565b8063aa7bcb57146106ac578063b1b1e1c0146106b4578063b1dd61b6146106c7578063b7b30170146106cf57610428565b8063a08b2c79116101fa578063a08b2c7914610661578063a118c9a714610669578063a35ef3a71461067c578063a4e2d63414610691578063a8f7b3461461069957610428565b80638da5cb5b1461064157806395c2ba4714610649578063996c6cc3146106515780639e3dd80f1461065957610428565b80634e8bfdaa11610331578063785fa627116102b9578063817b1cd211610288578063817b1cd2146105f9578063850fa7cb146106015780638a9920b7146106295780638bfbbcbe146106315780638cf0e21e1461063957610428565b8063785fa627146105c357806378f4d413146105cb5780637b0472f0146105de5780637f2b6a0d146105f157610428565b80636b036f45116103005780636b036f451461059b578063715018a6146105a3578063725c9c49146105ab57806373f31703146105b3578063785df1f8146105bb57610428565b80634e8bfdaa1461057057806351eacbf0146105785780635d2631e2146105805780636847d0c51461059357610428565b8063395b3dac116103b4578063444a490211610383578063444a49021461051c57806345e913191461052f5780634bc4eeb2146105425780634c7c77fc1461054a5780634ddc1bdc1461055d57610428565b8063395b3dac146104d85780633fcdd82c146104eb5780634026478e146104fe57806343352d611461050657610428565b8063238a6c74116103fb578063238a6c74146104885780632aa8195e1461049d5780632d42cf7d146104a55780632d5cd1d6146104af57806331e244e5146104d057610428565b80630d6680871461042d5780630f4ef8a61461044b57806322f3e2d4146104605780632342e48014610475575b600080fd5b61043561080c565b604051610442919061487e565b60405180910390f35b610453610812565b60405161044291906147c4565b610468610821565b6040516104429190614903565b610435610483366004614426565b610831565b6104906108df565b604051610442919061490e565b61045361096d565b6104ad61097c565b005b6104c26104bd3660046143a4565b610ae0565b604051610442929190614887565b6104ad610b94565b6104c26104e6366004614699565b610bed565b6104356104f9366004614618565b610c4e565b6104ad610d12565b61050e610d54565b604051610442929190614828565b6104ad61052a366004614487565b610f11565b61046861053d366004614426565b611203565b610468611355565b610435610558366004614699565b611365565b6104ad61056b366004614699565b6113e9565b6104356114d5565b6104356114db565b6104ad61058e366004614451565b6114e1565b6104356115cb565b6104356115d1565b6104ad6115d7565b610453611620565b61043561162f565b610435611635565b61043561163b565b6104356105d93660046143a4565b611641565b6104ad6105ec366004614699565b6116ea565b610468611b6a565b610435611b7a565b61061461060f366004614426565b611b80565b604051610442999897969594939291906150e2565b6104ad611bee565b6104ad611e3d565b610468611eb5565b610453611ec5565b610435611ed4565b610453611ed9565b6104c2611ee8565b610468611ef2565b6104ad6106773660046145e0565b611f02565b610684611fee565b6040516104429190614815565b61046861209d565b6104ad6106a73660046143dc565b6120ad565b610435612162565b6104ad6106c2366004614618565b612168565b610490612a26565b6104c26106dd366004614426565b612a33565b6104ad612aea565b610453613312565b610435613321565b6104536133a7565b6104356107103660046143a4565b6133b6565b6104356133ca565b6104ad61072b3660046144bd565b6133d0565b610468613a5e565b61074b610746366004614618565b613a6e565b6040516104429291906147fc565b6104ad613aa6565b610769613af2565b6040516104429b9a99989796959493929190615125565b6104ad61078e366004614648565b613b1f565b610435613cad565b610435613cb3565b610453613cb9565b610435613cc8565b6104c26107c1366004614618565b613cce565b6104ad6107d43660046143a4565b613cfc565b610435613d6a565b610453613d70565b610435613d7f565b610435613db0565b61074b610807366004614618565b613db6565b606a5481565b608d546001600160a01b031681565b607b54600160b01b900460ff1681565b6001600160a01b0382166000908152608b60205260408082209051634f16042360e01b8152829173__$7fd944d8f8efff7c575121b9e933203c2c$__91634f16042391610885918790607e90600401614895565b60206040518083038186803b15801561089d57600080fd5b505af41580156108b1573d6000803e3d6000fd5b505050506040513d601f19601f820116820180604052508101906108d59190614630565b9150505b92915050565b607c80546108ec906151e5565b80601f0160208091040260200160405190810160405280929190818152602001828054610918906151e5565b80156109655780601f1061093a57610100808354040283529160200191610965565b820191906000526020600020905b81548152906001019060200180831161094857829003601f168201915b505050505081565b6079546001600160a01b031681565b607a546001600160a01b0316610990613dc6565b6001600160a01b0316146109bf5760405162461bcd60e51b81526004016109b690614df8565b60405180910390fd5b606b54606a546069546109d29190615177565b6109dc9190615177565b4210156109fb5760405162461bcd60e51b81526004016109b690614ae2565b606f5415610a2757610a0b613d7f565b610a275760405162461bcd60e51b81526004016109b690614fa4565b60895415610a4e57608a54610a4e5760405162461bcd60e51b81526004016109b690614b2e565b60745415610a7457610a64607854607554611365565b610a745760745460768190556085555b607b805460ff60c01b1960ff60b81b19909116600160b81b1716600160c01b90811791829055608780549190920460ff1615156101000261ff00199091161790556040517fe8ef7a17c92d025d9c1ead1c6b3ca3b44d3283d0ee954f615c5c476911f629a590600090a1565b6001600160a01b0381166000908152608b602052604080822090516332a1b32160e01b815282918291829173__$171d2da81d2a08eb52330533595f0c4998$__916332a1b32191610b3991607e90608890600401614895565b604080518083038186803b158015610b5057600080fd5b505af4158015610b64573d6000803e3d6000fd5b505050506040513d601f19601f82011682018060405250810190610b8891906146ba565b90945092505050915091565b607a546001600160a01b0316610ba8613dc6565b6001600160a01b031614610bce5760405162461bcd60e51b81526004016109b690614df8565b607b805462ff00ff60a01b1916600160a01b179055610beb613dca565b565b60008060008360705411610c02576000610c0f565b607054610c0f9085613e08565b905080610c23576000859250925050610c47565b610c2d8582613e14565b610c41610c3a8784613e14565b8790613e08565b92509250505b9250929050565b60665460009081906001600160a01b031663d06ca61f84610c6d611fee565b6040518363ffffffff1660e01b8152600401610c8a92919061508d565b60006040518083038186803b158015610ca257600080fd5b505afa158015610cb6573d6000803e3d6000fd5b505050506040513d6000823e601f3d908101601f19168201604052610cde9190810190614526565b905080600181518110610d0157634e487b7160e01b600052603260045260246000fd5b60200260200101519150505b919050565b607a546001600160a01b0316610d26613dc6565b6001600160a01b031614610d4c5760405162461bcd60e51b81526004016109b690614df8565b610beb613dca565b606080600060898054905067ffffffffffffffff811115610d8557634e487b7160e01b600052604160045260246000fd5b604051908082528060200260200182016040528015610dae578160200160208202803683370190505b5060895490915060009067ffffffffffffffff811115610dde57634e487b7160e01b600052604160045260246000fd5b604051908082528060200260200182016040528015610e07578160200160208202803683370190505b50905060005b608954811015610f075760898181548110610e3857634e487b7160e01b600052603260045260246000fd5b600091825260209091206002909102015483516001600160a01b0390911690849083908110610e7757634e487b7160e01b600052603260045260246000fd5b60200260200101906001600160a01b031690816001600160a01b03168152505060898181548110610eb857634e487b7160e01b600052603260045260246000fd5b906000526020600020906002020160010154828281518110610eea57634e487b7160e01b600052603260045260246000fd5b602090810291909101015280610eff81615220565b915050610e0d565b5090925090509091565b607a546001600160a01b0316610f25613dc6565b6001600160a01b031614610f4b5760405162461bcd60e51b81526004016109b690614df8565b606b54606a54606954610f5e9190615177565b610f689190615177565b421015610f875760405162461bcd60e51b81526004016109b690614d54565b608a5415610f9b57610f9b608a60006142f0565b60005b6019811015611174576000838260198110610fc957634e487b7160e01b600052603260045260246000fd5b602002016020810190610fdc91906143a4565b6001600160a01b03161415610ff057611174565b608a604051806040016040528085846019811061101d57634e487b7160e01b600052603260045260246000fd5b60200201602081019061103091906143a4565b6001600160a01b0316815260200184846019811061105e57634e487b7160e01b600052603260045260246000fd5b60209081029190910135909152825460018082018555600094855293829020835160029092020180546001600160a01b0319166001600160a01b03909216919091178155910151908201556110b4908290615177565b608b60008584601981106110d857634e487b7160e01b600052603260045260246000fd5b6020020160208101906110eb91906143a4565b6001600160a01b03166001600160a01b0316815260200190815260200160002083836019811061112b57634e487b7160e01b600052603260045260246000fd5b60200201358154811061114e57634e487b7160e01b600052603260045260246000fd5b60009182526020909120600660089092020101558061116c81615220565b915050610f9e565b60888054829190611187906001906151ce565b815481106111a557634e487b7160e01b600052603260045260246000fd5b90600052602060002090600202016000015410156111d55760405162461bcd60e51b81526004016109b690614f3a565b6040517f5c243cc6e4f210bf2dd86b8eca0ca891d3f8ad2eb09fbf91735eb348bc199c7e90600090a1505050565b6001600160a01b0382166000908152608b6020908152604080832080548251818502810185019093528083528493849084015b828210156112c857600084815260209081902060408051610120810182526008860290920180548352600180820154848601526002820154928401929092526003810154606084015260048101546080840152600581015460a0840152600681015460c08401526007015460ff808216151560e085015261010091829004161515908301529083529092019101611236565b50505050905060008151116112ef5760405162461bcd60e51b81526004016109b690614e6e565b8051831061130f5760405162461bcd60e51b81526004016109b690614961565b80838151811061132f57634e487b7160e01b600052603260045260246000fd5b602002602001015161010001511561134b5760019150506108d9565b5060009392505050565b607b54600160a81b900460ff1681565b600082821115611377575060006108d9565b6073548311156113b95760735461138e8484613e08565b1161139b575060006108d9565b6073546113b2906113ac8585613e08565b90613e08565b90506108d9565b6073546113c68484613e2c565b106113d3575060006108d9565b6113b26113e08484613e2c565b60735490613e08565b607a546001600160a01b03166113fd613dc6565b6001600160a01b0316146114235760405162461bcd60e51b81526004016109b690614df8565b6000606f54116114455760405162461bcd60e51b81526004016109b690614a59565b600082116114655760405162461bcd60e51b81526004016109b690614cee565b428110156114855760405162461bcd60e51b81526004016109b690614b5e565b600061148f611620565b905061149b8184613e38565b60006114a684610c4e565b905060006114c06114b98361012c613e14565b8390613e08565b90506114ce30868387613f02565b5050505050565b606b5481565b606c5481565b607a546001600160a01b03166114f5613dc6565b6001600160a01b03161461151b5760405162461bcd60e51b81526004016109b690614df8565b608c546001600160a01b03848116911614156115495760405162461bcd60e51b81526004016109b690614cad565b60405163a9059cbb60e01b815283906001600160a01b0382169063a9059cbb9061157990859087906004016147fc565b602060405180830381600087803b15801561159357600080fd5b505af11580156115a7573d6000803e3d6000fd5b505050506040513d601f19601f820116820180604052508101906114ce91906145fc565b60705481565b60715481565b6115df613dc6565b6001600160a01b03166115f0611ec5565b6001600160a01b0316146116165760405162461bcd60e51b81526004016109b690614e39565b610beb6000613fa8565b6066546001600160a01b031690565b606f5481565b60785481565b606e5481565b6001600160a01b0381166000908152608b60205260408082209051630d46757760e41b8152829173__$171d2da81d2a08eb52330533595f0c4998$__9163d46757709161169391607e90600401614887565b60206040518083038186803b1580156116ab57600080fd5b505af41580156116bf573d6000803e3d6000fd5b505050506040513d601f19601f820116820180604052508101906116e39190614630565b9392505050565b607b54600160b01b900460ff168015611704575060695442115b6117205760405162461bcd60e51b81526004016109b690614eb9565b606a546069546117309190615177565b421061174e5760405162461bcd60e51b81526004016109b6906149c5565b607b54600160b81b900460ff16156117785760405162461bcd60e51b81526004016109b690614998565b60715482101561179a5760405162461bcd60e51b81526004016109b690614ef0565b607154608c546040805163771a3a1d60e01b815290516000926001600160a01b03169163771a3a1d91600480830192602092919082900301818787803b1580156117e357600080fd5b505af11580156117f7573d6000803e3d6000fd5b505050506040513d601f19601f8201168201806040525081019061181b9190614630565b608c549091506000906001600160a01b031663d1ecfc6861183a613dc6565b6040518263ffffffff1660e01b815260040161185691906147c4565b602060405180830381600087803b15801561187057600080fd5b505af1158015611884573d6000803e3d6000fd5b505050506040513d601f19601f820116820180604052508101906118a891906145fc565b6118bb576118b68583613e14565b6118be565b60005b606c549091506118ce9084613e2c565b6118e7826113ac88607254613e2c90919063ffffffff16565b11156119055760405162461bcd60e51b81526004016109b690614c67565b60006119118684610bed565b608c549097509091506001600160a01b03166323b872dd611930613dc6565b3061193b858b615177565b6040518463ffffffff1660e01b8152600401611959939291906147d8565b602060405180830381600087803b15801561197357600080fd5b505af1158015611987573d6000803e3d6000fd5b505050506040513d601f19601f820116820180604052508101906119ab91906145fc565b506119b68683613e08565b95508015611ab757608c5460408051634a5db0a960e01b815290516001600160a01b039092169163a9059cbb918391634a5db0a9916004808201926020929091908290030181600087803b158015611a0d57600080fd5b505af1158015611a21573d6000803e3d6000fd5b505050506040513d601f19601f82011682018060405250810190611a4591906143c0565b836040518363ffffffff1660e01b8152600401611a639291906147fc565b602060405180830381600087803b158015611a7d57600080fd5b505af1158015611a91573d6000803e3d6000fd5b505050506040513d601f19601f82011682018060405250810190611ab591906145fc565b505b6000608b6000611ac5613dc6565b6001600160a01b031681526020810191909152604001600020549050611af3611aec613dc6565b8888613ffa565b607254611b009088613e2c565b6072819055606c5411611b1557611b15613dca565b611b1d613dc6565b6001600160a01b03167ff556991011e831bcfac4f406d547e5e32cdd98267efab83935230d5f8d02c446888884604051611b5993929190614895565b60405180910390a250505050505050565b607b54600160c01b900460ff1681565b60725481565b608b6020528160005260406000208181548110611b9c57600080fd5b6000918252602090912060089091020180546001820154600283015460038401546004850154600586015460068701546007909701549598509396509194909391929160ff8082169161010090041689565b607b54600160a01b900460ff16611c175760405162461bcd60e51b81526004016109b690614d25565b600073__$60b6e19b11029f04c25a43d0435d86b2be$__63066f1dee608b6000611c3f613dc6565b6001600160a01b03166001600160a01b031681526020019081526020016000206040518263ffffffff1660e01b8152600401611c7b919061487e565b60206040518083038186803b158015611c9357600080fd5b505af4158015611ca7573d6000803e3d6000fd5b505050506040513d601f19601f82011682018060405250810190611ccb9190614630565b90508015611e3a5773__$171d2da81d2a08eb52330533595f0c4998$__63f66d9a4d608b6000611cf9613dc6565b6001600160a01b03166001600160a01b031681526020019081526020016000206040518263ffffffff1660e01b8152600401611d35919061487e565b60006040518083038186803b158015611d4d57600080fd5b505af4158015611d61573d6000803e3d6000fd5b5050608c546001600160a01b0316915063a9059cbb9050611d80613dc6565b836040518363ffffffff1660e01b8152600401611d9e9291906147fc565b602060405180830381600087803b158015611db857600080fd5b505af1158015611dcc573d6000803e3d6000fd5b505050506040513d601f19601f82011682018060405250810190611df091906145fc565b50611df9613dc6565b6001600160a01b03167f85082129d87b2fe11527cb1b3b7a520aeb5aa6913f88a3d8757fe40d1db02fdd82604051611e31919061487e565b60405180910390a25b50565b607a546001600160a01b0316611e51613dc6565b6001600160a01b031614611e775760405162461bcd60e51b81526004016109b690614df8565b607b805460ff60c81b1916600160c81b1790556040517f9331b2a38c658c57a39ea19b2709d928c28a12cc8fbb838d12b85148550f937d90600090a1565b607b54600160d01b900460ff1681565b6033546001600160a01b031690565b600581565b608e546001600160a01b031681565b6081546086549091565b607b54600160a01b900460ff1681565b607a546001600160a01b0316611f16613dc6565b6001600160a01b031614611f3c5760405162461bcd60e51b81526004016109b690614df8565b607b5460ff600160b01b9091041615158115151415611f6d5760405162461bcd60e51b81526004016109b690614be1565b607b805460ff60b01b1916600160b01b8315158102919091179182905560ff91041615611fc2576040517f3d31b97eef590df350bb2cdbc390034c613c9f23ea6ae1906682628c85248b5390600090a1611e3a565b6040517f763d36bfedf6707954f8bb39c2011a58a47a54844f2b3cdcd326c71cad0aa75390600090a150565b60408051600280825260608083018452926000929190602083019080368337505060675482519293506001600160a01b03169183915060009061204157634e487b7160e01b600052603260045260246000fd5b6001600160a01b03928316602091820292909201015260685482519116908290600190811061208057634e487b7160e01b600052603260045260246000fd5b6001600160a01b0390921660209283029190910190910152905090565b607b54600160b81b900460ff1681565b600054610100900460ff16806120c6575060005460ff16155b6120e25760405162461bcd60e51b81526004016109b690614daa565b600054610100900460ff1615801561210d576000805460ff1961ff0019909116610100171660011790555b606680546001600160a01b038087166001600160a01b031992831617909255606780548684169083161790556068805492851692909116919091179055801561215c576000805461ff00191690555b50505050565b606d5481565b80608b6000612175613dc6565b6001600160a01b0316815260208101919091526040016000205410156121ad5760405162461bcd60e51b81526004016109b690614feb565b608b60006121b9613dc6565b6001600160a01b031681526020810191909152604001600020546121ef5760405162461bcd60e51b81526004016109b690614b8c565b600073__$7fd944d8f8efff7c575121b9e933203c2c$__634f160423608b6000612217613dc6565b6001600160a01b03166001600160a01b0316815260200190815260200160002084607e6040518463ffffffff1660e01b815260040161225893929190614895565b60206040518083038186803b15801561227057600080fd5b505af4158015612284573d6000803e3d6000fd5b505050506040513d601f19601f820116820180604052508101906122a89190614630565b905060008073__$7fd944d8f8efff7c575121b9e933203c2c$__63f7ac9cba608b60006122d3613dc6565b6001600160a01b03166001600160a01b0316815260200190815260200160002086607e60886040518563ffffffff1660e01b815260040161231794939291906148ab565b604080518083038186803b15801561232e57600080fd5b505af4158015612342573d6000803e3d6000fd5b505050506040513d601f19601f8201168201806040525081019061236691906146ba565b909250905060006123778484615177565b607b54909150600160c01b900460ff16156127e257606f541561251e57811561251e5773__$7fd944d8f8efff7c575121b9e933203c2c$__6393aaeaf9608b60006123c0613dc6565b6001600160a01b03166001600160a01b03168152602001908152602001600020876040518363ffffffff1660e01b81526004016123fe929190614887565b60006040518083038186803b15801561241657600080fd5b505af415801561242a573d6000803e3d6000fd5b5050608e546001600160a01b0316915063a9059cbb9050612449613dc6565b846040518363ffffffff1660e01b81526004016124679291906147fc565b602060405180830381600087803b15801561248157600080fd5b505af1158015612495573d6000803e3d6000fd5b505050506040513d601f19601f820116820180604052508101906124b991906145fc565b6124d55760405162461bcd60e51b81526004016109b69061506f565b6124dd613dc6565b6001600160a01b03167fd93fc6d1e8779271f55cdb0d5f7b6b05be64a2226a1ad050d3036f5609c1cdcf83604051612515919061487e565b60405180910390a25b82156125b95773__$7fd944d8f8efff7c575121b9e933203c2c$__6393aaeaf9608b600061254a613dc6565b6001600160a01b03166001600160a01b03168152602001908152602001600020876040518363ffffffff1660e01b8152600401612588929190614887565b60006040518083038186803b1580156125a057600080fd5b505af41580156125b4573d6000803e3d6000fd5b505050505b600073__$7fd944d8f8efff7c575121b9e933203c2c$__635eac7af3608b60006125e1613dc6565b6001600160a01b03166001600160a01b03168152602001908152602001600020886040518363ffffffff1660e01b815260040161261f929190614887565b60206040518083038186803b15801561263757600080fd5b505af415801561264b573d6000803e3d6000fd5b505050506040513d601f19601f8201168201806040525081019061266f9190614630565b905080156127e05773__$7fd944d8f8efff7c575121b9e933203c2c$__63ec8ecc02608b600061269d613dc6565b6001600160a01b03166001600160a01b03168152602001908152602001600020886040518363ffffffff1660e01b81526004016126db929190614887565b60006040518083038186803b1580156126f357600080fd5b505af4158015612707573d6000803e3d6000fd5b5050608c546001600160a01b0316915063a9059cbb9050612726613dc6565b836040518363ffffffff1660e01b81526004016127449291906147fc565b602060405180830381600087803b15801561275e57600080fd5b505af1158015612772573d6000803e3d6000fd5b505050506040513d601f19601f8201168201806040525081019061279691906145fc565b5061279f613dc6565b6001600160a01b03167f85082129d87b2fe11527cb1b3b7a520aeb5aa6913f88a3d8757fe40d1db02fdd826040516127d7919061487e565b60405180910390a25b505b80156114ce57608c54608d546040516370a0823160e01b815283926001600160a01b03908116926370a082319261281f92909116906004016147c4565b60206040518083038186803b15801561283757600080fd5b505afa15801561284b573d6000803e3d6000fd5b505050506040513d601f19601f8201168201806040525081019061286f9190614630565b101561288d5760405162461bcd60e51b81526004016109b690614c23565b73__$7fd944d8f8efff7c575121b9e933203c2c$__63eaff3050608b60006128b3613dc6565b6001600160a01b03166001600160a01b0316815260200190815260200160002087607e6040518463ffffffff1660e01b81526004016128f493929190614895565b60006040518083038186803b15801561290c57600080fd5b505af4158015612920573d6000803e3d6000fd5b5050608d546001600160a01b0316915063e4e103dc905061293f613dc6565b836040518363ffffffff1660e01b815260040161295d9291906147fc565b600060405180830381600087803b15801561297757600080fd5b505af115801561298b573d6000803e3d6000fd5b50505050612997613dc6565b6001600160a01b03167f115e2fe760f98d4fd0828d7741ae2070e7db700f892efbfe98448b53ac583886856040516129cf919061487e565b60405180910390a26129df613dc6565b6001600160a01b03167f723b06f6c3a94dc82019852e6aa01c0241fba5f84410b9003ddc3440ad499e5984604051612a17919061487e565b60405180910390a25050505050565b607d80546108ec906151e5565b6001600160a01b0382166000908152608b60205260408082209051637bd64e5d60e11b815282918291829173__$7fd944d8f8efff7c575121b9e933203c2c$__9163f7ac9cba91612a8e918990607e906088906004016148ab565b604080518083038186803b158015612aa557600080fd5b505af4158015612ab9573d6000803e3d6000fd5b505050506040513d601f19601f82011682018060405250810190612add91906146ba565b9097909650945050505050565b600073__$171d2da81d2a08eb52330533595f0c4998$__63d4675770608b6000612b12613dc6565b6001600160a01b03166001600160a01b03168152602001908152602001600020607e6040518363ffffffff1660e01b8152600401612b51929190614887565b60206040518083038186803b158015612b6957600080fd5b505af4158015612b7d573d6000803e3d6000fd5b505050506040513d601f19601f82011682018060405250810190612ba19190614630565b905060008073__$171d2da81d2a08eb52330533595f0c4998$__6332a1b321608b6000612bcc613dc6565b6001600160a01b03166001600160a01b03168152602001908152602001600020607e60886040518463ffffffff1660e01b8152600401612c0e93929190614895565b604080518083038186803b158015612c2557600080fd5b505af4158015612c39573d6000803e3d6000fd5b505050506040513d601f19601f82011682018060405250810190612c5d91906146ba565b90925090506000612c6e8484615177565b607b54909150600160c01b900460ff16156130d157606f5415612e13578115612e135773__$171d2da81d2a08eb52330533595f0c4998$__6347dc9eee608b6000612cb7613dc6565b6001600160a01b03166001600160a01b031681526020019081526020016000206040518263ffffffff1660e01b8152600401612cf3919061487e565b60006040518083038186803b158015612d0b57600080fd5b505af4158015612d1f573d6000803e3d6000fd5b5050608e546001600160a01b0316915063a9059cbb9050612d3e613dc6565b846040518363ffffffff1660e01b8152600401612d5c9291906147fc565b602060405180830381600087803b158015612d7657600080fd5b505af1158015612d8a573d6000803e3d6000fd5b505050506040513d601f19601f82011682018060405250810190612dae91906145fc565b612dca5760405162461bcd60e51b81526004016109b690614bc3565b612dd2613dc6565b6001600160a01b03167fd93fc6d1e8779271f55cdb0d5f7b6b05be64a2226a1ad050d3036f5609c1cdcf83604051612e0a919061487e565b60405180910390a25b8215612eac5773__$171d2da81d2a08eb52330533595f0c4998$__6347dc9eee608b6000612e3f613dc6565b6001600160a01b03166001600160a01b031681526020019081526020016000206040518263ffffffff1660e01b8152600401612e7b919061487e565b60006040518083038186803b158015612e9357600080fd5b505af4158015612ea7573d6000803e3d6000fd5b505050505b600073__$60b6e19b11029f04c25a43d0435d86b2be$__63066f1dee608b6000612ed4613dc6565b6001600160a01b03166001600160a01b031681526020019081526020016000206040518263ffffffff1660e01b8152600401612f10919061487e565b60206040518083038186803b158015612f2857600080fd5b505af4158015612f3c573d6000803e3d6000fd5b505050506040513d601f19601f82011682018060405250810190612f609190614630565b905080156130cf5773__$171d2da81d2a08eb52330533595f0c4998$__63f66d9a4d608b6000612f8e613dc6565b6001600160a01b03166001600160a01b031681526020019081526020016000206040518263ffffffff1660e01b8152600401612fca919061487e565b60006040518083038186803b158015612fe257600080fd5b505af4158015612ff6573d6000803e3d6000fd5b5050608c546001600160a01b0316915063a9059cbb9050613015613dc6565b836040518363ffffffff1660e01b81526004016130339291906147fc565b602060405180830381600087803b15801561304d57600080fd5b505af1158015613061573d6000803e3d6000fd5b505050506040513d601f19601f8201168201806040525081019061308591906145fc565b5061308e613dc6565b6001600160a01b03167f85082129d87b2fe11527cb1b3b7a520aeb5aa6913f88a3d8757fe40d1db02fdd826040516130c6919061487e565b60405180910390a25b505b801561215c57608c54608d546040516370a0823160e01b815283926001600160a01b03908116926370a082319261310e92909116906004016147c4565b60206040518083038186803b15801561312657600080fd5b505afa15801561313a573d6000803e3d6000fd5b505050506040513d601f19601f8201168201806040525081019061315e9190614630565b101561317c5760405162461bcd60e51b81526004016109b690614c23565b73__$171d2da81d2a08eb52330533595f0c4998$__634142c652608b60006131a2613dc6565b6001600160a01b03166001600160a01b03168152602001908152602001600020607e6040518363ffffffff1660e01b81526004016131e1929190614887565b60006040518083038186803b1580156131f957600080fd5b505af415801561320d573d6000803e3d6000fd5b5050608d546001600160a01b0316915063e4e103dc905061322c613dc6565b836040518363ffffffff1660e01b815260040161324a9291906147fc565b600060405180830381600087803b15801561326457600080fd5b505af1158015613278573d6000803e3d6000fd5b50505050613284613dc6565b6001600160a01b03167f115e2fe760f98d4fd0828d7741ae2070e7db700f892efbfe98448b53ac583886856040516132bc919061487e565b60405180910390a26132cc613dc6565b6001600160a01b03167f723b06f6c3a94dc82019852e6aa01c0241fba5f84410b9003ddc3440ad499e5984604051613304919061487e565b60405180910390a250505050565b607b546001600160a01b031681565b6065546040516370a0823160e01b81526000916001600160a01b0316906370a08231906133529030906004016147c4565b60206040518083038186803b15801561336a57600080fd5b505afa15801561337e573d6000803e3d6000fd5b505050506040513d601f19601f820116820180604052508101906133a29190614630565b905090565b607a546001600160a01b031681565b60006133c18261416e565b60ff1692915050565b60735481565b607b54600160b01b900460ff1680156133ea575060695442115b6134065760405162461bcd60e51b81526004016109b690614eb9565b606a546069546134169190615177565b42106134345760405162461bcd60e51b81526004016109b6906149c5565b607b54600160b81b900460ff161561345e5760405162461bcd60e51b81526004016109b690614998565b82811461347d5760405162461bcd60e51b81526004016109b690614a07565b6000805b8481101561351e576071548686838181106134ac57634e487b7160e01b600052603260045260246000fd5b9050602002013510156134d15760405162461bcd60e51b81526004016109b690614ef0565b61350a8686838181106134f457634e487b7160e01b600052603260045260246000fd5b9050602002013583613e2c90919063ffffffff16565b91508061351681615220565b915050613481565b50607154608c546040805163771a3a1d60e01b815290516000926001600160a01b03169163771a3a1d91600480830192602092919082900301818787803b15801561356857600080fd5b505af115801561357c573d6000803e3d6000fd5b505050506040513d601f19601f820116820180604052508101906135a09190614630565b608c549091506000906001600160a01b031663d1ecfc686135bf613dc6565b6040518263ffffffff1660e01b81526004016135db91906147c4565b602060405180830381600087803b1580156135f557600080fd5b505af1158015613609573d6000803e3d6000fd5b505050506040513d601f19601f8201168201806040525081019061362d91906145fc565b6136405761363b8483613e14565b613643565b60005b606c549091506136539084613e2c565b61366c826113ac87607254613e2c90919063ffffffff16565b111561368a5760405162461bcd60e51b81526004016109b690614c67565b60006136968584610bed565b608c549096509091506001600160a01b03166323b872dd6136b5613dc6565b306136c0858a615177565b6040518463ffffffff1660e01b81526004016136de939291906147d8565b602060405180830381600087803b1580156136f857600080fd5b505af115801561370c573d6000803e3d6000fd5b505050506040513d601f19601f8201168201806040525081019061373091906145fc565b5061373b8583613e08565b9450801561383c57608c5460408051634a5db0a960e01b815290516001600160a01b039092169163a9059cbb918391634a5db0a9916004808201926020929091908290030181600087803b15801561379257600080fd5b505af11580156137a6573d6000803e3d6000fd5b505050506040513d601f19601f820116820180604052508101906137ca91906143c0565b836040518363ffffffff1660e01b81526004016137e89291906147fc565b602060405180830381600087803b15801561380257600080fd5b505af1158015613816573d6000803e3d6000fd5b505050506040513d601f19601f8201168201806040525081019061383a91906145fc565b505b6000608b600061384a613dc6565b6001600160a01b03168152602081019190915260400160009081205491505b898110156139b55760008b8b8381811061389357634e487b7160e01b600052603260045260246000fd5b608c54602090910292909201359250506001600160a01b031663d1ecfc686138b9613dc6565b6040518263ffffffff1660e01b81526004016138d591906147c4565b602060405180830381600087803b1580156138ef57600080fd5b505af1158015613903573d6000803e3d6000fd5b505050506040513d601f19601f8201168201806040525081019061392791906145fc565b61393a576139358187613e14565b61393d565b60005b94506139498187610bed565b90945090506139588186613e08565b9050613992613965613dc6565b828c8c8681811061398657634e487b7160e01b600052603260045260246000fd5b90506020020135613ffa565b60725461399f9082613e2c565b60725550806139ad81615220565b915050613869565b5060006001608b60006139c6613dc6565b6001600160a01b031681526020810191909152604001600020546139ea91906151ce565b9050606c54607254106139ff576139ff613dca565b613a07613dc6565b6001600160a01b03167f852fe7a2ad7b2c8c0a0e9b927734feb1acc3e8bc608b8921d4c4768c6193c33b8c8c8c8c8787604051613a49969594939291906148c6565b60405180910390a25050505050505050505050565b607b54600160c81b900460ff1681565b608a8181548110613a7e57600080fd5b6000918252602090912060029091020180546001909101546001600160a01b03909116915082565b607a546001600160a01b0316613aba613dc6565b6001600160a01b031614613ae05760405162461bcd60e51b81526004016109b690614df8565b607b80546001600160a01b0319169055565b607e54607f5460805460815460825460835460845460855460865460875460ff808216916101009004168b565b607a546001600160a01b0316613b33613dc6565b6001600160a01b031614613b595760405162461bcd60e51b81526004016109b690614df8565b606b54606a54606954613b6c9190615177565b613b769190615177565b421015613b955760405162461bcd60e51b81526004016109b690615019565b8315613bea57607b546001600160a01b031615613bd457607b54613bc1906001600160a01b03166141ef565b6073819055608155607754608655613be5565b607385905560818590556077546086555b6114ce565b607b546001600160a01b031615613c69576001600160a01b03821615613c4257607b54613c1f906001600160a01b03166141ef565b607355613c2b826141ef565b608155613c378261416e565b60ff16608655613be5565b607b54613c57906001600160a01b03166141ef565b607355608183905560868190556114ce565b6001600160a01b03821615613c9d576073859055613c86826141ef565b608155613c928261416e565b60ff166086556114ce565b6073949094555060815550608655565b60745481565b60775481565b608c546001600160a01b031681565b60755481565b60888181548110613cde57600080fd5b60009182526020909120600290910201805460019091015490915082565b613d04613dc6565b6001600160a01b0316613d15611ec5565b6001600160a01b031614613d3b5760405162461bcd60e51b81526004016109b690614e39565b6001600160a01b038116613d615760405162461bcd60e51b81526004016109b690614a9c565b611e3a81613fa8565b60765481565b6065546001600160a01b031690565b608e546040516370a0823160e01b81526000916001600160a01b0316906370a08231906133529030906004016147c4565b60695481565b60898181548110613a7e57600080fd5b3390565b607b805460ff60b81b1916600160b81b1790556040517f2e136745550967f28b779ce8c395ca060a2f844edfb5b06631fe677f66f9e30590600090a1565b60006116e382846151ce565b60006116e3612710613e26858561427e565b9061428a565b60006116e38284615177565b60655460405163095ea7b360e01b81526001600160a01b039091169063095ea7b390613e6a90859085906004016147fc565b602060405180830381600087803b158015613e8457600080fd5b505af1158015613e98573d6000803e3d6000fd5b505050506040513d601f19601f82011682018060405250810190613ebc91906145fc565b50816001600160a01b03167fd77df63d9076d067d9fd7af16c3d67db48b84064c3314f5900ae919922d364a182604051613ef6919061487e565b60405180910390a25050565b6001600160a01b038416613f1557600080fd5b6066546001600160a01b03166338ed17398484613f30611fee565b88866040518663ffffffff1660e01b8152600401613f529594939291906150a6565b600060405180830381600087803b158015613f6c57600080fd5b505af1158015613f80573d6000803e3d6000fd5b505050506040513d6000823e601f3d908101601f191682016040526114ce9190810190614526565b603380546001600160a01b038381166001600160a01b0319831681179093556040519116919082907f8be0079c531659141344cd1fd0a4f28419497f9722a3daafe3b4186f6b6457e090600090a35050565b6040805180820182526001600160a01b038086168083526000908152608b602081815285832080548287019081526089805460018181018355918752975160029889027f5bfa74c743914028161ae645d300d90bbdc659f169ca1469ec86b4960f7266cb81018054929099166001600160a01b03199092169190911790975590517f5bfa74c743914028161ae645d300d90bbdc659f169ca1469ec86b4960f7266cc909601959095559181528551610120810187528881524281830181815297820185815260608301918252608083018a815260001960a0850181815260c0860191825260e086018981526101008781018b81528a54808e018c559a8c5298909a20965160089099029096019788559a51988701989098559051978501979097555160038401559451600483015594516005820155915160068301559151600790910180549351151590920261ff001991151560ff199490941693909317169190911790556141698183614296565b505050565b6000808290506000816001600160a01b031663313ce5676040518163ffffffff1660e01b815260040160206040518083038186803b1580156141af57600080fd5b505afa1580156141c3573d6000803e3d6000fd5b505050506040513d601f19601f820116820180604052508101906141e7919061472c565b949350505050565b6000808290506000816001600160a01b031663feaf968c6040518163ffffffff1660e01b815260040160a06040518083038186803b15801561423057600080fd5b505afa158015614244573d6000803e3d6000fd5b505050506040513d601f19601f8201168201806040525081019061426891906146dd565b50505091505060008112156116e35760006141e7565b60006116e382846151af565b60006116e3828461518f565b6089546000906142a8906001906151ce565b9050806142b55760788390555b6072546142e8906142c69084613e2c565b613e266142d3868661427e565b6072546078546142e29161427e565b90613e2c565b607855505050565b5080546000825560020290600052602060002090810190611e3a91905b808211156143325780546001600160a01b03191681556000600182015560020161430d565b5090565b8061032081018310156108d957600080fd5b60008083601f840112614359578182fd5b50813567ffffffffffffffff811115614370578182fd5b6020830191508360208083028501011115610c4757600080fd5b805169ffffffffffffffffffff81168114610d0d57600080fd5b6000602082840312156143b5578081fd5b81356116e381615267565b6000602082840312156143d1578081fd5b81516116e381615267565b6000806000606084860312156143f0578182fd5b83356143fb81615267565b9250602084013561440b81615267565b9150604084013561441b81615267565b809150509250925092565b60008060408385031215614438578182fd5b823561444381615267565b946020939093013593505050565b600080600060608486031215614465578283fd5b833561447081615267565b925060208401359150604084013561441b81615267565b600080610640838503121561449a578182fd5b6144a48484614336565b91506144b4846103208501614336565b90509250929050565b600080600080604085870312156144d2578081fd5b843567ffffffffffffffff808211156144e9578283fd5b6144f588838901614348565b9096509450602087013591508082111561450d578283fd5b5061451a87828801614348565b95989497509550505050565b60006020808385031215614538578182fd5b825167ffffffffffffffff8082111561454f578384fd5b818501915085601f830112614562578384fd5b81518181111561457457614574615251565b8381026040518582820101818110858211171561459357614593615251565b604052828152858101935084860182860187018a10156145b1578788fd5b8795505b838610156145d35780518552600195909501949386019386016145b5565b5098975050505050505050565b6000602082840312156145f1578081fd5b81356116e38161527c565b60006020828403121561460d578081fd5b81516116e38161527c565b600060208284031215614629578081fd5b5035919050565b600060208284031215614641578081fd5b5051919050565b600080600080600060a0868803121561465f578283fd5b8535945060208601356146718161527c565b935060408601359250606086013561468881615267565b949793965091946080013592915050565b600080604083850312156146ab578182fd5b50508035926020909101359150565b600080604083850312156146cc578182fd5b505080516020909101519092909150565b600080600080600060a086880312156146f4578283fd5b6146fd8661438a565b94506020860151935060408601519250606086015191506147206080870161438a565b90509295509295909350565b60006020828403121561473d578081fd5b815160ff811681146116e3578182fd5b6000815180845260208085019450808401835b838110156147855781516001600160a01b031687529582019590820190600101614760565b509495945050505050565b81835260006001600160fb1b038311156147a8578081fd5b6020830280836020870137939093016020019283525090919050565b6001600160a01b0391909116815260200190565b6001600160a01b039384168152919092166020820152604081019190915260600190565b6001600160a01b03929092168252602082015260400190565b6000602082526116e3602083018461474d565b60006040825261483b604083018561474d565b828103602084810191909152845180835285820192820190845b8181101561487157845183529383019391830191600101614855565b5090979650505050505050565b90815260200190565b918252602082015260400190565b9283526020830191909152604082015260600190565b93845260208401929092526040830152606082015260800190565b6000608082526148da60808301888a614790565b82810360208401526148ed818789614790565b6040840195909552505060600152949350505050565b901515815260200190565b6000602080835283518082850152825b8181101561493a5785810183015185820160400152820161491e565b8181111561494b5783604083870101525b50601f01601f1916929092016040019392505050565b60208082526017908201527f30333831207468697320696e6465782065786365656473000000000000000000604082015260600190565b6020808252601390820152720c0ccc4c08141bdbdb081a5cc81b1bd8dad959606a1b604082015260600190565b60208082526022908201527f303331362043616e206e6f74207374616b65206166746572206c6f636b206461604082015261746560f01b606082015260800190565b60208082526032908201527f30333135207374616b696e67416d6f756e7420616e642070726564696374696f6040820152710dce640d8cadccee8d040dad2e6dac2e8c6d60731b606082015260800190565b60208082526023908201527f303334302054686520706f6f6c206973206f6e6c7920544f544d2072657761726040820152623232b960e91b606082015260800190565b60208082526026908201527f4f776e61626c653a206e6577206f776e657220697320746865207a65726f206160408201526564647265737360d01b606082015260800190565b6020808252602c908201527f303336302043616e277420656e6420706f6f6c206265666f726520746865206d60408201526b617475726974792074696d6560a01b606082015260800190565b6020808252601690820152750c0ccd8c88199a5c9cdd081cda1bdd5b19081cdbdc9d60521b604082015260600190565b6020808252601490820152733033343220446561646c696e65206973206c6f7760601b604082015260600190565b6020808252601d908201527f5573657220646f6573206e6f74206861766520616e79207374616b6573000000604082015260600190565b6020808252600490820152630303332360e41b604082015260600190565b60208082526022908201527f4e6f74206368616e67696e67207468652061637469766174696f6e2073746174604082015261757360f01b606082015260800190565b60208082526024908201527f4e6f7420656e6f7567682062616c616e636520696e20726577617264206d616e60408201526330b3b2b960e11b606082015260800190565b60208082526026908201527f303331322043616e2774207374616b652061626f76652073697a6520616c6c6f60408201526531b0ba34b7b760d11b606082015260800190565b60208082526021908201527f3033373020746f74656d732063616e206e6f74206265207472616e73666572656040820152601960fa1b606082015260800190565b60208082526019908201527f3033343120416d6f756e742063616e2774206265207a65726f00000000000000604082015260600190565b60208082526015908201527469742773206e6f7420616e20656d657267656e637960581b604082015260600190565b60208082526036908201527f303339302043616e27742073657420736f72746564207374616b657273206265604082015275666f726520746865206d617475726974792074696d6560501b606082015260800190565b6020808252602e908201527f496e697469616c697a61626c653a20636f6e747261637420697320616c72656160408201526d191e481a5b9a5d1a585b1a5e995960921b606082015260800190565b60208082526021908201527f303330302063616c6c6572206973206e6f74206120706f6f6c2063726561746f6040820152603960f91b606082015260800190565b6020808252818101527f4f776e61626c653a2063616c6c6572206973206e6f7420746865206f776e6572604082015260600190565b6020808252602b908201527f3033383020746869732061646472657373206469646e2774207374616b65206960408201526a1b881d1a1a5cc81c1bdbdb60aa1b606082015260800190565b60208082526017908201527f3033313320706f6f6c206973206e6f7420616374697665000000000000000000604082015260600190565b6020808252602a908201527f3033313120416d6f756e742063616e2774206265206c657373207468616e20746040820152696865206d696e696d756d60b01b606082015260800190565b60208082526044908201527f6e756d626572206f6620736f72746564207374616b657273206d75737420626560408201527f206c657373207468616e206f7220657175616c20746f20746865206c6173742060608201526372616e6b60e01b608082015260a00190565b60208082526027908201527f303336312057726170706564546f6b656e2052657761726473206e6f7420617660408201526661696c61626c6560c81b606082015260800190565b602080825260149082015273125b99195e08191bd95cc81b9bdd08195e1a5cdd60621b604082015260600190565b60208082526036908201527f303335302043616e277420736574206d61747572696e67207072696365206265604082015275666f726520746865206d617475726974792074696d6560501b606082015260800190565b6020808252600490820152630303333360e41b604082015260600190565b6000838252604060208301526141e7604083018461474d565b600086825285602083015260a060408301526150c560a083018661474d565b6001600160a01b0394909416606083015250608001529392505050565b988952602089019790975260408801959095526060870193909352608086019190915260a085015260c0840152151560e083015215156101008201526101200190565b9a8b5260208b019990995260408a01979097526060890195909552608088019390935260a087019190915260c086015260e0850152610100840152151561012083015215156101408201526101600190565b6000821982111561518a5761518a61523b565b500190565b6000826151aa57634e487b7160e01b81526012600452602481fd5b500490565b60008160001904831182151516156151c9576151c961523b565b500290565b6000828210156151e0576151e061523b565b500390565b6002810460018216806151f957607f821691505b6020821081141561521a57634e487b7160e01b600052602260045260246000fd5b50919050565b60006000198214156152345761523461523b565b5060010190565b634e487b7160e01b600052601160045260246000fd5b634e487b7160e01b600052604160045260246000fd5b6001600160a01b0381168114611e3a57600080fd5b8015158114611e3a57600080fdfea264697066735822122063735cdc0fa2341884889ab1ed94ea61c8d2e519af3df4659cc1b6a77736712964736f6c63430008000033",
			"opcodes": "PUSH1 0x80 PUSH1 0x40 MSTORE CALLVALUE DUP1 ISZERO PUSH2 0x10 JUMPI PUSH1 0x0 DUP1 REVERT JUMPDEST POP PUSH2 0x52C0 DUP1 PUSH2 0x20 PUSH1 0x0 CODECOPY PUSH1 0x0 RETURN INVALID PUSH1 0x80 PUSH1 0x40 MSTORE CALLVALUE DUP1 ISZERO PUSH2 0x10 JUMPI PUSH1 0x0 DUP1 REVERT JUMPDEST POP PUSH1 0x4 CALLDATASIZE LT PUSH2 0x428 JUMPI PUSH1 0x0 CALLDATALOAD PUSH1 0xE0 SHR DUP1 PUSH4 0x8DA5CB5B GT PUSH2 0x22B JUMPI DUP1 PUSH4 0xD025188B GT PUSH2 0x130 JUMPI DUP1 PUSH4 0xE8153C93 GT PUSH2 0xB8 JUMPI DUP1 PUSH4 0xF3D9DC0D GT PUSH2 0x87 JUMPI DUP1 PUSH4 0xF3D9DC0D EQ PUSH2 0x7D9 JUMPI DUP1 PUSH4 0xF5E96FC9 EQ PUSH2 0x7E1 JUMPI DUP1 PUSH4 0xF8E829C3 EQ PUSH2 0x7E9 JUMPI DUP1 PUSH4 0xF8EEED62 EQ PUSH2 0x7F1 JUMPI DUP1 PUSH4 0xFD5E6DD1 EQ PUSH2 0x7F9 JUMPI PUSH2 0x428 JUMP JUMPDEST DUP1 PUSH4 0xE8153C93 EQ PUSH2 0x7A3 JUMPI DUP1 PUSH4 0xEB850AE1 EQ PUSH2 0x7AB JUMPI DUP1 PUSH4 0xF1B17A8B EQ PUSH2 0x7B3 JUMPI DUP1 PUSH4 0xF2FDE38B EQ PUSH2 0x7C6 JUMPI PUSH2 0x428 JUMP JUMPDEST DUP1 PUSH4 0xDF7F92E0 GT PUSH2 0xFF JUMPI DUP1 PUSH4 0xDF7F92E0 EQ PUSH2 0x759 JUMPI DUP1 PUSH4 0xE0818669 EQ PUSH2 0x761 JUMPI DUP1 PUSH4 0xE113AF51 EQ PUSH2 0x780 JUMPI DUP1 PUSH4 0xE425DF8C EQ PUSH2 0x793 JUMPI DUP1 PUSH4 0xE68B52E7 EQ PUSH2 0x79B JUMPI PUSH2 0x428 JUMP JUMPDEST DUP1 PUSH4 0xD025188B EQ PUSH2 0x715 JUMPI DUP1 PUSH4 0xD49FAB8A EQ PUSH2 0x71D JUMPI DUP1 PUSH4 0xD7EFB6B7 EQ PUSH2 0x730 JUMPI DUP1 PUSH4 0xDE09EE20 EQ PUSH2 0x738 JUMPI PUSH2 0x428 JUMP JUMPDEST DUP1 PUSH4 0xAA7BCB57 GT PUSH2 0x1B3 JUMPI DUP1 PUSH4 0xB88A802F GT PUSH2 0x182 JUMPI DUP1 PUSH4 0xB88A802F EQ PUSH2 0x6E2 JUMPI DUP1 PUSH4 0xBECE7532 EQ PUSH2 0x6EA JUMPI DUP1 PUSH4 0xC1201054 EQ PUSH2 0x6F2 JUMPI DUP1 PUSH4 0xC6C1DECD EQ PUSH2 0x6FA JUMPI DUP1 PUSH4 0xCEE0C889 EQ PUSH2 0x702 JUMPI PUSH2 0x428 JUMP JUMPDEST DUP1 PUSH4 0xAA7BCB57 EQ PUSH2 0x6AC JUMPI DUP1 PUSH4 0xB1B1E1C0 EQ PUSH2 0x6B4 JUMPI DUP1 PUSH4 0xB1DD61B6 EQ PUSH2 0x6C7 JUMPI DUP1 PUSH4 0xB7B30170 EQ PUSH2 0x6CF JUMPI PUSH2 0x428 JUMP JUMPDEST DUP1 PUSH4 0xA08B2C79 GT PUSH2 0x1FA JUMPI DUP1 PUSH4 0xA08B2C79 EQ PUSH2 0x661 JUMPI DUP1 PUSH4 0xA118C9A7 EQ PUSH2 0x669 JUMPI DUP1 PUSH4 0xA35EF3A7 EQ PUSH2 0x67C JUMPI DUP1 PUSH4 0xA4E2D634 EQ PUSH2 0x691 JUMPI DUP1 PUSH4 0xA8F7B346 EQ PUSH2 0x699 JUMPI PUSH2 0x428 JUMP JUMPDEST DUP1 PUSH4 0x8DA5CB5B EQ PUSH2 0x641 JUMPI DUP1 PUSH4 0x95C2BA47 EQ PUSH2 0x649 JUMPI DUP1 PUSH4 0x996C6CC3 EQ PUSH2 0x651 JUMPI DUP1 PUSH4 0x9E3DD80F EQ PUSH2 0x659 JUMPI PUSH2 0x428 JUMP JUMPDEST DUP1 PUSH4 0x4E8BFDAA GT PUSH2 0x331 JUMPI DUP1 PUSH4 0x785FA627 GT PUSH2 0x2B9 JUMPI DUP1 PUSH4 0x817B1CD2 GT PUSH2 0x288 JUMPI DUP1 PUSH4 0x817B1CD2 EQ PUSH2 0x5F9 JUMPI DUP1 PUSH4 0x850FA7CB EQ PUSH2 0x601 JUMPI DUP1 PUSH4 0x8A9920B7 EQ PUSH2 0x629 JUMPI DUP1 PUSH4 0x8BFBBCBE EQ PUSH2 0x631 JUMPI DUP1 PUSH4 0x8CF0E21E EQ PUSH2 0x639 JUMPI PUSH2 0x428 JUMP JUMPDEST DUP1 PUSH4 0x785FA627 EQ PUSH2 0x5C3 JUMPI DUP1 PUSH4 0x78F4D413 EQ PUSH2 0x5CB JUMPI DUP1 PUSH4 0x7B0472F0 EQ PUSH2 0x5DE JUMPI DUP1 PUSH4 0x7F2B6A0D EQ PUSH2 0x5F1 JUMPI PUSH2 0x428 JUMP JUMPDEST DUP1 PUSH4 0x6B036F45 GT PUSH2 0x300 JUMPI DUP1 PUSH4 0x6B036F45 EQ PUSH2 0x59B JUMPI DUP1 PUSH4 0x715018A6 EQ PUSH2 0x5A3 JUMPI DUP1 PUSH4 0x725C9C49 EQ PUSH2 0x5AB JUMPI DUP1 PUSH4 0x73F31703 EQ PUSH2 0x5B3 JUMPI DUP1 PUSH4 0x785DF1F8 EQ PUSH2 0x5BB JUMPI PUSH2 0x428 JUMP JUMPDEST DUP1 PUSH4 0x4E8BFDAA EQ PUSH2 0x570 JUMPI DUP1 PUSH4 0x51EACBF0 EQ PUSH2 0x578 JUMPI DUP1 PUSH4 0x5D2631E2 EQ PUSH2 0x580 JUMPI DUP1 PUSH4 0x6847D0C5 EQ PUSH2 0x593 JUMPI PUSH2 0x428 JUMP JUMPDEST DUP1 PUSH4 0x395B3DAC GT PUSH2 0x3B4 JUMPI DUP1 PUSH4 0x444A4902 GT PUSH2 0x383 JUMPI DUP1 PUSH4 0x444A4902 EQ PUSH2 0x51C JUMPI DUP1 PUSH4 0x45E91319 EQ PUSH2 0x52F JUMPI DUP1 PUSH4 0x4BC4EEB2 EQ PUSH2 0x542 JUMPI DUP1 PUSH4 0x4C7C77FC EQ PUSH2 0x54A JUMPI DUP1 PUSH4 0x4DDC1BDC EQ PUSH2 0x55D JUMPI PUSH2 0x428 JUMP JUMPDEST DUP1 PUSH4 0x395B3DAC EQ PUSH2 0x4D8 JUMPI DUP1 PUSH4 0x3FCDD82C EQ PUSH2 0x4EB JUMPI DUP1 PUSH4 0x4026478E EQ PUSH2 0x4FE JUMPI DUP1 PUSH4 0x43352D61 EQ PUSH2 0x506 JUMPI PUSH2 0x428 JUMP JUMPDEST DUP1 PUSH4 0x238A6C74 GT PUSH2 0x3FB JUMPI DUP1 PUSH4 0x238A6C74 EQ PUSH2 0x488 JUMPI DUP1 PUSH4 0x2AA8195E EQ PUSH2 0x49D JUMPI DUP1 PUSH4 0x2D42CF7D EQ PUSH2 0x4A5 JUMPI DUP1 PUSH4 0x2D5CD1D6 EQ PUSH2 0x4AF JUMPI DUP1 PUSH4 0x31E244E5 EQ PUSH2 0x4D0 JUMPI PUSH2 0x428 JUMP JUMPDEST DUP1 PUSH4 0xD668087 EQ PUSH2 0x42D JUMPI DUP1 PUSH4 0xF4EF8A6 EQ PUSH2 0x44B JUMPI DUP1 PUSH4 0x22F3E2D4 EQ PUSH2 0x460 JUMPI DUP1 PUSH4 0x2342E480 EQ PUSH2 0x475 JUMPI JUMPDEST PUSH1 0x0 DUP1 REVERT JUMPDEST PUSH2 0x435 PUSH2 0x80C JUMP JUMPDEST PUSH1 0x40 MLOAD PUSH2 0x442 SWAP2 SWAP1 PUSH2 0x487E JUMP JUMPDEST PUSH1 0x40 MLOAD DUP1 SWAP2 SUB SWAP1 RETURN JUMPDEST PUSH2 0x453 PUSH2 0x812 JUMP JUMPDEST PUSH1 0x40 MLOAD PUSH2 0x442 SWAP2 SWAP1 PUSH2 0x47C4 JUMP JUMPDEST PUSH2 0x468 PUSH2 0x821 JUMP JUMPDEST PUSH1 0x40 MLOAD PUSH2 0x442 SWAP2 SWAP1 PUSH2 0x4903 JUMP JUMPDEST PUSH2 0x435 PUSH2 0x483 CALLDATASIZE PUSH1 0x4 PUSH2 0x4426 JUMP JUMPDEST PUSH2 0x831 JUMP JUMPDEST PUSH2 0x490 PUSH2 0x8DF JUMP JUMPDEST PUSH1 0x40 MLOAD PUSH2 0x442 SWAP2 SWAP1 PUSH2 0x490E JUMP JUMPDEST PUSH2 0x453 PUSH2 0x96D JUMP JUMPDEST PUSH2 0x4AD PUSH2 0x97C JUMP JUMPDEST STOP JUMPDEST PUSH2 0x4C2 PUSH2 0x4BD CALLDATASIZE PUSH1 0x4 PUSH2 0x43A4 JUMP JUMPDEST PUSH2 0xAE0 JUMP JUMPDEST PUSH1 0x40 MLOAD PUSH2 0x442 SWAP3 SWAP2 SWAP1 PUSH2 0x4887 JUMP JUMPDEST PUSH2 0x4AD PUSH2 0xB94 JUMP JUMPDEST PUSH2 0x4C2 PUSH2 0x4E6 CALLDATASIZE PUSH1 0x4 PUSH2 0x4699 JUMP JUMPDEST PUSH2 0xBED JUMP JUMPDEST PUSH2 0x435 PUSH2 0x4F9 CALLDATASIZE PUSH1 0x4 PUSH2 0x4618 JUMP JUMPDEST PUSH2 0xC4E JUMP JUMPDEST PUSH2 0x4AD PUSH2 0xD12 JUMP JUMPDEST PUSH2 0x50E PUSH2 0xD54 JUMP JUMPDEST PUSH1 0x40 MLOAD PUSH2 0x442 SWAP3 SWAP2 SWAP1 PUSH2 0x4828 JUMP JUMPDEST PUSH2 0x4AD PUSH2 0x52A CALLDATASIZE PUSH1 0x4 PUSH2 0x4487 JUMP JUMPDEST PUSH2 0xF11 JUMP JUMPDEST PUSH2 0x468 PUSH2 0x53D CALLDATASIZE PUSH1 0x4 PUSH2 0x4426 JUMP JUMPDEST PUSH2 0x1203 JUMP JUMPDEST PUSH2 0x468 PUSH2 0x1355 JUMP JUMPDEST PUSH2 0x435 PUSH2 0x558 CALLDATASIZE PUSH1 0x4 PUSH2 0x4699 JUMP JUMPDEST PUSH2 0x1365 JUMP JUMPDEST PUSH2 0x4AD PUSH2 0x56B CALLDATASIZE PUSH1 0x4 PUSH2 0x4699 JUMP JUMPDEST PUSH2 0x13E9 JUMP JUMPDEST PUSH2 0x435 PUSH2 0x14D5 JUMP JUMPDEST PUSH2 0x435 PUSH2 0x14DB JUMP JUMPDEST PUSH2 0x4AD PUSH2 0x58E CALLDATASIZE PUSH1 0x4 PUSH2 0x4451 JUMP JUMPDEST PUSH2 0x14E1 JUMP JUMPDEST PUSH2 0x435 PUSH2 0x15CB JUMP JUMPDEST PUSH2 0x435 PUSH2 0x15D1 JUMP JUMPDEST PUSH2 0x4AD PUSH2 0x15D7 JUMP JUMPDEST PUSH2 0x453 PUSH2 0x1620 JUMP JUMPDEST PUSH2 0x435 PUSH2 0x162F JUMP JUMPDEST PUSH2 0x435 PUSH2 0x1635 JUMP JUMPDEST PUSH2 0x435 PUSH2 0x163B JUMP JUMPDEST PUSH2 0x435 PUSH2 0x5D9 CALLDATASIZE PUSH1 0x4 PUSH2 0x43A4 JUMP JUMPDEST PUSH2 0x1641 JUMP JUMPDEST PUSH2 0x4AD PUSH2 0x5EC CALLDATASIZE PUSH1 0x4 PUSH2 0x4699 JUMP JUMPDEST PUSH2 0x16EA JUMP JUMPDEST PUSH2 0x468 PUSH2 0x1B6A JUMP JUMPDEST PUSH2 0x435 PUSH2 0x1B7A JUMP JUMPDEST PUSH2 0x614 PUSH2 0x60F CALLDATASIZE PUSH1 0x4 PUSH2 0x4426 JUMP JUMPDEST PUSH2 0x1B80 JUMP JUMPDEST PUSH1 0x40 MLOAD PUSH2 0x442 SWAP10 SWAP9 SWAP8 SWAP7 SWAP6 SWAP5 SWAP4 SWAP3 SWAP2 SWAP1 PUSH2 0x50E2 JUMP JUMPDEST PUSH2 0x4AD PUSH2 0x1BEE JUMP JUMPDEST PUSH2 0x4AD PUSH2 0x1E3D JUMP JUMPDEST PUSH2 0x468 PUSH2 0x1EB5 JUMP JUMPDEST PUSH2 0x453 PUSH2 0x1EC5 JUMP JUMPDEST PUSH2 0x435 PUSH2 0x1ED4 JUMP JUMPDEST PUSH2 0x453 PUSH2 0x1ED9 JUMP JUMPDEST PUSH2 0x4C2 PUSH2 0x1EE8 JUMP JUMPDEST PUSH2 0x468 PUSH2 0x1EF2 JUMP JUMPDEST PUSH2 0x4AD PUSH2 0x677 CALLDATASIZE PUSH1 0x4 PUSH2 0x45E0 JUMP JUMPDEST PUSH2 0x1F02 JUMP JUMPDEST PUSH2 0x684 PUSH2 0x1FEE JUMP JUMPDEST PUSH1 0x40 MLOAD PUSH2 0x442 SWAP2 SWAP1 PUSH2 0x4815 JUMP JUMPDEST PUSH2 0x468 PUSH2 0x209D JUMP JUMPDEST PUSH2 0x4AD PUSH2 0x6A7 CALLDATASIZE PUSH1 0x4 PUSH2 0x43DC JUMP JUMPDEST PUSH2 0x20AD JUMP JUMPDEST PUSH2 0x435 PUSH2 0x2162 JUMP JUMPDEST PUSH2 0x4AD PUSH2 0x6C2 CALLDATASIZE PUSH1 0x4 PUSH2 0x4618 JUMP JUMPDEST PUSH2 0x2168 JUMP JUMPDEST PUSH2 0x490 PUSH2 0x2A26 JUMP JUMPDEST PUSH2 0x4C2 PUSH2 0x6DD CALLDATASIZE PUSH1 0x4 PUSH2 0x4426 JUMP JUMPDEST PUSH2 0x2A33 JUMP JUMPDEST PUSH2 0x4AD PUSH2 0x2AEA JUMP JUMPDEST PUSH2 0x453 PUSH2 0x3312 JUMP JUMPDEST PUSH2 0x435 PUSH2 0x3321 JUMP JUMPDEST PUSH2 0x453 PUSH2 0x33A7 JUMP JUMPDEST PUSH2 0x435 PUSH2 0x710 CALLDATASIZE PUSH1 0x4 PUSH2 0x43A4 JUMP JUMPDEST PUSH2 0x33B6 JUMP JUMPDEST PUSH2 0x435 PUSH2 0x33CA JUMP JUMPDEST PUSH2 0x4AD PUSH2 0x72B CALLDATASIZE PUSH1 0x4 PUSH2 0x44BD JUMP JUMPDEST PUSH2 0x33D0 JUMP JUMPDEST PUSH2 0x468 PUSH2 0x3A5E JUMP JUMPDEST PUSH2 0x74B PUSH2 0x746 CALLDATASIZE PUSH1 0x4 PUSH2 0x4618 JUMP JUMPDEST PUSH2 0x3A6E JUMP JUMPDEST PUSH1 0x40 MLOAD PUSH2 0x442 SWAP3 SWAP2 SWAP1 PUSH2 0x47FC JUMP JUMPDEST PUSH2 0x4AD PUSH2 0x3AA6 JUMP JUMPDEST PUSH2 0x769 PUSH2 0x3AF2 JUMP JUMPDEST PUSH1 0x40 MLOAD PUSH2 0x442 SWAP12 SWAP11 SWAP10 SWAP9 SWAP8 SWAP7 SWAP6 SWAP5 SWAP4 SWAP3 SWAP2 SWAP1 PUSH2 0x5125 JUMP JUMPDEST PUSH2 0x4AD PUSH2 0x78E CALLDATASIZE PUSH1 0x4 PUSH2 0x4648 JUMP JUMPDEST PUSH2 0x3B1F JUMP JUMPDEST PUSH2 0x435 PUSH2 0x3CAD JUMP JUMPDEST PUSH2 0x435 PUSH2 0x3CB3 JUMP JUMPDEST PUSH2 0x453 PUSH2 0x3CB9 JUMP JUMPDEST PUSH2 0x435 PUSH2 0x3CC8 JUMP JUMPDEST PUSH2 0x4C2 PUSH2 0x7C1 CALLDATASIZE PUSH1 0x4 PUSH2 0x4618 JUMP JUMPDEST PUSH2 0x3CCE JUMP JUMPDEST PUSH2 0x4AD PUSH2 0x7D4 CALLDATASIZE PUSH1 0x4 PUSH2 0x43A4 JUMP JUMPDEST PUSH2 0x3CFC JUMP JUMPDEST PUSH2 0x435 PUSH2 0x3D6A JUMP JUMPDEST PUSH2 0x453 PUSH2 0x3D70 JUMP JUMPDEST PUSH2 0x435 PUSH2 0x3D7F JUMP JUMPDEST PUSH2 0x435 PUSH2 0x3DB0 JUMP JUMPDEST PUSH2 0x74B PUSH2 0x807 CALLDATASIZE PUSH1 0x4 PUSH2 0x4618 JUMP JUMPDEST PUSH2 0x3DB6 JUMP JUMPDEST PUSH1 0x6A SLOAD DUP2 JUMP JUMPDEST PUSH1 0x8D SLOAD PUSH1 0x1 PUSH1 0x1 PUSH1 0xA0 SHL SUB AND DUP2 JUMP JUMPDEST PUSH1 0x7B SLOAD PUSH1 0x1 PUSH1 0xB0 SHL SWAP1 DIV PUSH1 0xFF AND DUP2 JUMP JUMPDEST PUSH1 0x1 PUSH1 0x1 PUSH1 0xA0 SHL SUB DUP3 AND PUSH1 0x0 SWAP1 DUP2 MSTORE PUSH1 0x8B PUSH1 0x20 MSTORE PUSH1 0x40 DUP1 DUP3 KECCAK256 SWAP1 MLOAD PUSH4 0x4F160423 PUSH1 0xE0 SHL DUP2 MSTORE DUP3 SWAP2 PUSH20 0x0 SWAP2 PUSH4 0x4F160423 SWAP2 PUSH2 0x885 SWAP2 DUP8 SWAP1 PUSH1 0x7E SWAP1 PUSH1 0x4 ADD PUSH2 0x4895 JUMP JUMPDEST PUSH1 0x20 PUSH1 0x40 MLOAD DUP1 DUP4 SUB DUP2 DUP7 DUP1 EXTCODESIZE ISZERO DUP1 ISZERO PUSH2 0x89D JUMPI PUSH1 0x0 DUP1 REVERT JUMPDEST POP GAS DELEGATECALL ISZERO DUP1 ISZERO PUSH2 0x8B1 JUMPI RETURNDATASIZE PUSH1 0x0 DUP1 RETURNDATACOPY RETURNDATASIZE PUSH1 0x0 REVERT JUMPDEST POP POP POP POP PUSH1 0x40 MLOAD RETURNDATASIZE PUSH1 0x1F NOT PUSH1 0x1F DUP3 ADD AND DUP3 ADD DUP1 PUSH1 0x40 MSTORE POP DUP2 ADD SWAP1 PUSH2 0x8D5 SWAP2 SWAP1 PUSH2 0x4630 JUMP JUMPDEST SWAP2 POP POP JUMPDEST SWAP3 SWAP2 POP POP JUMP JUMPDEST PUSH1 0x7C DUP1 SLOAD PUSH2 0x8EC SWAP1 PUSH2 0x51E5 JUMP JUMPDEST DUP1 PUSH1 0x1F ADD PUSH1 0x20 DUP1 SWAP2 DIV MUL PUSH1 0x20 ADD PUSH1 0x40 MLOAD SWAP1 DUP2 ADD PUSH1 0x40 MSTORE DUP1 SWAP3 SWAP2 SWAP1 DUP2 DUP2 MSTORE PUSH1 0x20 ADD DUP3 DUP1 SLOAD PUSH2 0x918 SWAP1 PUSH2 0x51E5 JUMP JUMPDEST DUP1 ISZERO PUSH2 0x965 JUMPI DUP1 PUSH1 0x1F LT PUSH2 0x93A JUMPI PUSH2 0x100 DUP1 DUP4 SLOAD DIV MUL DUP4 MSTORE SWAP2 PUSH1 0x20 ADD SWAP2 PUSH2 0x965 JUMP JUMPDEST DUP3 ADD SWAP2 SWAP1 PUSH1 0x0 MSTORE PUSH1 0x20 PUSH1 0x0 KECCAK256 SWAP1 JUMPDEST DUP2 SLOAD DUP2 MSTORE SWAP1 PUSH1 0x1 ADD SWAP1 PUSH1 0x20 ADD DUP1 DUP4 GT PUSH2 0x948 JUMPI DUP3 SWAP1 SUB PUSH1 0x1F AND DUP3 ADD SWAP2 JUMPDEST POP POP POP POP POP DUP2 JUMP JUMPDEST PUSH1 0x79 SLOAD PUSH1 0x1 PUSH1 0x1 PUSH1 0xA0 SHL SUB AND DUP2 JUMP JUMPDEST PUSH1 0x7A SLOAD PUSH1 0x1 PUSH1 0x1 PUSH1 0xA0 SHL SUB AND PUSH2 0x990 PUSH2 0x3DC6 JUMP JUMPDEST PUSH1 0x1 PUSH1 0x1 PUSH1 0xA0 SHL SUB AND EQ PUSH2 0x9BF JUMPI PUSH1 0x40 MLOAD PUSH3 0x461BCD PUSH1 0xE5 SHL DUP2 MSTORE PUSH1 0x4 ADD PUSH2 0x9B6 SWAP1 PUSH2 0x4DF8 JUMP JUMPDEST PUSH1 0x40 MLOAD DUP1 SWAP2 SUB SWAP1 REVERT JUMPDEST PUSH1 0x6B SLOAD PUSH1 0x6A SLOAD PUSH1 0x69 SLOAD PUSH2 0x9D2 SWAP2 SWAP1 PUSH2 0x5177 JUMP JUMPDEST PUSH2 0x9DC SWAP2 SWAP1 PUSH2 0x5177 JUMP JUMPDEST TIMESTAMP LT ISZERO PUSH2 0x9FB JUMPI PUSH1 0x40 MLOAD PUSH3 0x461BCD PUSH1 0xE5 SHL DUP2 MSTORE PUSH1 0x4 ADD PUSH2 0x9B6 SWAP1 PUSH2 0x4AE2 JUMP JUMPDEST PUSH1 0x6F SLOAD ISZERO PUSH2 0xA27 JUMPI PUSH2 0xA0B PUSH2 0x3D7F JUMP JUMPDEST PUSH2 0xA27 JUMPI PUSH1 0x40 MLOAD PUSH3 0x461BCD PUSH1 0xE5 SHL DUP2 MSTORE PUSH1 0x4 ADD PUSH2 0x9B6 SWAP1 PUSH2 0x4FA4 JUMP JUMPDEST PUSH1 0x89 SLOAD ISZERO PUSH2 0xA4E JUMPI PUSH1 0x8A SLOAD PUSH2 0xA4E JUMPI PUSH1 0x40 MLOAD PUSH3 0x461BCD PUSH1 0xE5 SHL DUP2 MSTORE PUSH1 0x4 ADD PUSH2 0x9B6 SWAP1 PUSH2 0x4B2E JUMP JUMPDEST PUSH1 0x74 SLOAD ISZERO PUSH2 0xA74 JUMPI PUSH2 0xA64 PUSH1 0x78 SLOAD PUSH1 0x75 SLOAD PUSH2 0x1365 JUMP JUMPDEST PUSH2 0xA74 JUMPI PUSH1 0x74 SLOAD PUSH1 0x76 DUP2 SWAP1 SSTORE PUSH1 0x85 SSTORE JUMPDEST PUSH1 0x7B DUP1 SLOAD PUSH1 0xFF PUSH1 0xC0 SHL NOT PUSH1 0xFF PUSH1 0xB8 SHL NOT SWAP1 SWAP2 AND PUSH1 0x1 PUSH1 0xB8 SHL OR AND PUSH1 0x1 PUSH1 0xC0 SHL SWAP1 DUP2 OR SWAP2 DUP3 SWAP1 SSTORE PUSH1 0x87 DUP1 SLOAD SWAP2 SWAP1 SWAP3 DIV PUSH1 0xFF AND ISZERO ISZERO PUSH2 0x100 MUL PUSH2 0xFF00 NOT SWAP1 SWAP2 AND OR SWAP1 SSTORE PUSH1 0x40 MLOAD PUSH32 0xE8EF7A17C92D025D9C1EAD1C6B3CA3B44D3283D0EE954F615C5C476911F629A5 SWAP1 PUSH1 0x0 SWAP1 LOG1 JUMP JUMPDEST PUSH1 0x1 PUSH1 0x1 PUSH1 0xA0 SHL SUB DUP2 AND PUSH1 0x0 SWAP1 DUP2 MSTORE PUSH1 0x8B PUSH1 0x20 MSTORE PUSH1 0x40 DUP1 DUP3 KECCAK256 SWAP1 MLOAD PUSH4 0x32A1B321 PUSH1 0xE0 SHL DUP2 MSTORE DUP3 SWAP2 DUP3 SWAP2 DUP3 SWAP2 PUSH20 0x0 SWAP2 PUSH4 0x32A1B321 SWAP2 PUSH2 0xB39 SWAP2 PUSH1 0x7E SWAP1 PUSH1 0x88 SWAP1 PUSH1 0x4 ADD PUSH2 0x4895 JUMP JUMPDEST PUSH1 0x40 DUP1 MLOAD DUP1 DUP4 SUB DUP2 DUP7 DUP1 EXTCODESIZE ISZERO DUP1 ISZERO PUSH2 0xB50 JUMPI PUSH1 0x0 DUP1 REVERT JUMPDEST POP GAS DELEGATECALL ISZERO DUP1 ISZERO PUSH2 0xB64 JUMPI RETURNDATASIZE PUSH1 0x0 DUP1 RETURNDATACOPY RETURNDATASIZE PUSH1 0x0 REVERT JUMPDEST POP POP POP POP PUSH1 0x40 MLOAD RETURNDATASIZE PUSH1 0x1F NOT PUSH1 0x1F DUP3 ADD AND DUP3 ADD DUP1 PUSH1 0x40 MSTORE POP DUP2 ADD SWAP1 PUSH2 0xB88 SWAP2 SWAP1 PUSH2 0x46BA JUMP JUMPDEST SWAP1 SWAP5 POP SWAP3 POP POP POP SWAP2 POP SWAP2 JUMP JUMPDEST PUSH1 0x7A SLOAD PUSH1 0x1 PUSH1 0x1 PUSH1 0xA0 SHL SUB AND PUSH2 0xBA8 PUSH2 0x3DC6 JUMP JUMPDEST PUSH1 0x1 PUSH1 0x1 PUSH1 0xA0 SHL SUB AND EQ PUSH2 0xBCE JUMPI PUSH1 0x40 MLOAD PUSH3 0x461BCD PUSH1 0xE5 SHL DUP2 MSTORE PUSH1 0x4 ADD PUSH2 0x9B6 SWAP1 PUSH2 0x4DF8 JUMP JUMPDEST PUSH1 0x7B DUP1 SLOAD PUSH3 0xFF00FF PUSH1 0xA0 SHL NOT AND PUSH1 0x1 PUSH1 0xA0 SHL OR SWAP1 SSTORE PUSH2 0xBEB PUSH2 0x3DCA JUMP JUMPDEST JUMP JUMPDEST PUSH1 0x0 DUP1 PUSH1 0x0 DUP4 PUSH1 0x70 SLOAD GT PUSH2 0xC02 JUMPI PUSH1 0x0 PUSH2 0xC0F JUMP JUMPDEST PUSH1 0x70 SLOAD PUSH2 0xC0F SWAP1 DUP6 PUSH2 0x3E08 JUMP JUMPDEST SWAP1 POP DUP1 PUSH2 0xC23 JUMPI PUSH1 0x0 DUP6 SWAP3 POP SWAP3 POP POP PUSH2 0xC47 JUMP JUMPDEST PUSH2 0xC2D DUP6 DUP3 PUSH2 0x3E14 JUMP JUMPDEST PUSH2 0xC41 PUSH2 0xC3A DUP8 DUP5 PUSH2 0x3E14 JUMP JUMPDEST DUP8 SWAP1 PUSH2 0x3E08 JUMP JUMPDEST SWAP3 POP SWAP3 POP POP JUMPDEST SWAP3 POP SWAP3 SWAP1 POP JUMP JUMPDEST PUSH1 0x66 SLOAD PUSH1 0x0 SWAP1 DUP2 SWAP1 PUSH1 0x1 PUSH1 0x1 PUSH1 0xA0 SHL SUB AND PUSH4 0xD06CA61F DUP5 PUSH2 0xC6D PUSH2 0x1FEE JUMP JUMPDEST PUSH1 0x40 MLOAD DUP4 PUSH4 0xFFFFFFFF AND PUSH1 0xE0 SHL DUP2 MSTORE PUSH1 0x4 ADD PUSH2 0xC8A SWAP3 SWAP2 SWAP1 PUSH2 0x508D JUMP JUMPDEST PUSH1 0x0 PUSH1 0x40 MLOAD DUP1 DUP4 SUB DUP2 DUP7 DUP1 EXTCODESIZE ISZERO DUP1 ISZERO PUSH2 0xCA2 JUMPI PUSH1 0x0 DUP1 REVERT JUMPDEST POP GAS STATICCALL ISZERO DUP1 ISZERO PUSH2 0xCB6 JUMPI RETURNDATASIZE PUSH1 0x0 DUP1 RETURNDATACOPY RETURNDATASIZE PUSH1 0x0 REVERT JUMPDEST POP POP POP POP PUSH1 0x40 MLOAD RETURNDATASIZE PUSH1 0x0 DUP3 RETURNDATACOPY PUSH1 0x1F RETURNDATASIZE SWAP1 DUP2 ADD PUSH1 0x1F NOT AND DUP3 ADD PUSH1 0x40 MSTORE PUSH2 0xCDE SWAP2 SWAP1 DUP2 ADD SWAP1 PUSH2 0x4526 JUMP JUMPDEST SWAP1 POP DUP1 PUSH1 0x1 DUP2 MLOAD DUP2 LT PUSH2 0xD01 JUMPI PUSH4 0x4E487B71 PUSH1 0xE0 SHL PUSH1 0x0 MSTORE PUSH1 0x32 PUSH1 0x4 MSTORE PUSH1 0x24 PUSH1 0x0 REVERT JUMPDEST PUSH1 0x20 MUL PUSH1 0x20 ADD ADD MLOAD SWAP2 POP POP JUMPDEST SWAP2 SWAP1 POP JUMP JUMPDEST PUSH1 0x7A SLOAD PUSH1 0x1 PUSH1 0x1 PUSH1 0xA0 SHL SUB AND PUSH2 0xD26 PUSH2 0x3DC6 JUMP JUMPDEST PUSH1 0x1 PUSH1 0x1 PUSH1 0xA0 SHL SUB AND EQ PUSH2 0xD4C JUMPI PUSH1 0x40 MLOAD PUSH3 0x461BCD PUSH1 0xE5 SHL DUP2 MSTORE PUSH1 0x4 ADD PUSH2 0x9B6 SWAP1 PUSH2 0x4DF8 JUMP JUMPDEST PUSH2 0xBEB PUSH2 0x3DCA JUMP JUMPDEST PUSH1 0x60 DUP1 PUSH1 0x0 PUSH1 0x89 DUP1 SLOAD SWAP1 POP PUSH8 0xFFFFFFFFFFFFFFFF DUP2 GT ISZERO PUSH2 0xD85 JUMPI PUSH4 0x4E487B71 PUSH1 0xE0 SHL PUSH1 0x0 MSTORE PUSH1 0x41 PUSH1 0x4 MSTORE PUSH1 0x24 PUSH1 0x0 REVERT JUMPDEST PUSH1 0x40 MLOAD SWAP1 DUP1 DUP3 MSTORE DUP1 PUSH1 0x20 MUL PUSH1 0x20 ADD DUP3 ADD PUSH1 0x40 MSTORE DUP1 ISZERO PUSH2 0xDAE JUMPI DUP2 PUSH1 0x20 ADD PUSH1 0x20 DUP3 MUL DUP1 CALLDATASIZE DUP4 CALLDATACOPY ADD SWAP1 POP JUMPDEST POP PUSH1 0x89 SLOAD SWAP1 SWAP2 POP PUSH1 0x0 SWAP1 PUSH8 0xFFFFFFFFFFFFFFFF DUP2 GT ISZERO PUSH2 0xDDE JUMPI PUSH4 0x4E487B71 PUSH1 0xE0 SHL PUSH1 0x0 MSTORE PUSH1 0x41 PUSH1 0x4 MSTORE PUSH1 0x24 PUSH1 0x0 REVERT JUMPDEST PUSH1 0x40 MLOAD SWAP1 DUP1 DUP3 MSTORE DUP1 PUSH1 0x20 MUL PUSH1 0x20 ADD DUP3 ADD PUSH1 0x40 MSTORE DUP1 ISZERO PUSH2 0xE07 JUMPI DUP2 PUSH1 0x20 ADD PUSH1 0x20 DUP3 MUL DUP1 CALLDATASIZE DUP4 CALLDATACOPY ADD SWAP1 POP JUMPDEST POP SWAP1 POP PUSH1 0x0 JUMPDEST PUSH1 0x89 SLOAD DUP2 LT ISZERO PUSH2 0xF07 JUMPI PUSH1 0x89 DUP2 DUP2 SLOAD DUP2 LT PUSH2 0xE38 JUMPI PUSH4 0x4E487B71 PUSH1 0xE0 SHL PUSH1 0x0 MSTORE PUSH1 0x32 PUSH1 0x4 MSTORE PUSH1 0x24 PUSH1 0x0 REVERT JUMPDEST PUSH1 0x0 SWAP2 DUP3 MSTORE PUSH1 0x20 SWAP1 SWAP2 KECCAK256 PUSH1 0x2 SWAP1 SWAP2 MUL ADD SLOAD DUP4 MLOAD PUSH1 0x1 PUSH1 0x1 PUSH1 0xA0 SHL SUB SWAP1 SWAP2 AND SWAP1 DUP5 SWAP1 DUP4 SWAP1 DUP2 LT PUSH2 0xE77 JUMPI PUSH4 0x4E487B71 PUSH1 0xE0 SHL PUSH1 0x0 MSTORE PUSH1 0x32 PUSH1 0x4 MSTORE PUSH1 0x24 PUSH1 0x0 REVERT JUMPDEST PUSH1 0x20 MUL PUSH1 0x20 ADD ADD SWAP1 PUSH1 0x1 PUSH1 0x1 PUSH1 0xA0 SHL SUB AND SWAP1 DUP2 PUSH1 0x1 PUSH1 0x1 PUSH1 0xA0 SHL SUB AND DUP2 MSTORE POP POP PUSH1 0x89 DUP2 DUP2 SLOAD DUP2 LT PUSH2 0xEB8 JUMPI PUSH4 0x4E487B71 PUSH1 0xE0 SHL PUSH1 0x0 MSTORE PUSH1 0x32 PUSH1 0x4 MSTORE PUSH1 0x24 PUSH1 0x0 REVERT JUMPDEST SWAP1 PUSH1 0x0 MSTORE PUSH1 0x20 PUSH1 0x0 KECCAK256 SWAP1 PUSH1 0x2 MUL ADD PUSH1 0x1 ADD SLOAD DUP3 DUP3 DUP2 MLOAD DUP2 LT PUSH2 0xEEA JUMPI PUSH4 0x4E487B71 PUSH1 0xE0 SHL PUSH1 0x0 MSTORE PUSH1 0x32 PUSH1 0x4 MSTORE PUSH1 0x24 PUSH1 0x0 REVERT JUMPDEST PUSH1 0x20 SWAP1 DUP2 MUL SWAP2 SWAP1 SWAP2 ADD ADD MSTORE DUP1 PUSH2 0xEFF DUP2 PUSH2 0x5220 JUMP JUMPDEST SWAP2 POP POP PUSH2 0xE0D JUMP JUMPDEST POP SWAP1 SWAP3 POP SWAP1 POP SWAP1 SWAP2 JUMP JUMPDEST PUSH1 0x7A SLOAD PUSH1 0x1 PUSH1 0x1 PUSH1 0xA0 SHL SUB AND PUSH2 0xF25 PUSH2 0x3DC6 JUMP JUMPDEST PUSH1 0x1 PUSH1 0x1 PUSH1 0xA0 SHL SUB AND EQ PUSH2 0xF4B JUMPI PUSH1 0x40 MLOAD PUSH3 0x461BCD PUSH1 0xE5 SHL DUP2 MSTORE PUSH1 0x4 ADD PUSH2 0x9B6 SWAP1 PUSH2 0x4DF8 JUMP JUMPDEST PUSH1 0x6B SLOAD PUSH1 0x6A SLOAD PUSH1 0x69 SLOAD PUSH2 0xF5E SWAP2 SWAP1 PUSH2 0x5177 JUMP JUMPDEST PUSH2 0xF68 SWAP2 SWAP1 PUSH2 0x5177 JUMP JUMPDEST TIMESTAMP LT ISZERO PUSH2 0xF87 JUMPI PUSH1 0x40 MLOAD PUSH3 0x461BCD PUSH1 0xE5 SHL DUP2 MSTORE PUSH1 0x4 ADD PUSH2 0x9B6 SWAP1 PUSH2 0x4D54 JUMP JUMPDEST PUSH1 0x8A SLOAD ISZERO PUSH2 0xF9B JUMPI PUSH2 0xF9B PUSH1 0x8A PUSH1 0x0 PUSH2 0x42F0 JUMP JUMPDEST PUSH1 0x0 JUMPDEST PUSH1 0x19 DUP2 LT ISZERO PUSH2 0x1174 JUMPI PUSH1 0x0 DUP4 DUP3 PUSH1 0x19 DUP2 LT PUSH2 0xFC9 JUMPI PUSH4 0x4E487B71 PUSH1 0xE0 SHL PUSH1 0x0 MSTORE PUSH1 0x32 PUSH1 0x4 MSTORE PUSH1 0x24 PUSH1 0x0 REVERT JUMPDEST PUSH1 0x20 MUL ADD PUSH1 0x20 DUP2 ADD SWAP1 PUSH2 0xFDC SWAP2 SWAP1 PUSH2 0x43A4 JUMP JUMPDEST PUSH1 0x1 PUSH1 0x1 PUSH1 0xA0 SHL SUB AND EQ ISZERO PUSH2 0xFF0 JUMPI PUSH2 0x1174 JUMP JUMPDEST PUSH1 0x8A PUSH1 0x40 MLOAD DUP1 PUSH1 0x40 ADD PUSH1 0x40 MSTORE DUP1 DUP6 DUP5 PUSH1 0x19 DUP2 LT PUSH2 0x101D JUMPI PUSH4 0x4E487B71 PUSH1 0xE0 SHL PUSH1 0x0 MSTORE PUSH1 0x32 PUSH1 0x4 MSTORE PUSH1 0x24 PUSH1 0x0 REVERT JUMPDEST PUSH1 0x20 MUL ADD PUSH1 0x20 DUP2 ADD SWAP1 PUSH2 0x1030 SWAP2 SWAP1 PUSH2 0x43A4 JUMP JUMPDEST PUSH1 0x1 PUSH1 0x1 PUSH1 0xA0 SHL SUB AND DUP2 MSTORE PUSH1 0x20 ADD DUP5 DUP5 PUSH1 0x19 DUP2 LT PUSH2 0x105E JUMPI PUSH4 0x4E487B71 PUSH1 0xE0 SHL PUSH1 0x0 MSTORE PUSH1 0x32 PUSH1 0x4 MSTORE PUSH1 0x24 PUSH1 0x0 REVERT JUMPDEST PUSH1 0x20 SWAP1 DUP2 MUL SWAP2 SWAP1 SWAP2 ADD CALLDATALOAD SWAP1 SWAP2 MSTORE DUP3 SLOAD PUSH1 0x1 DUP1 DUP3 ADD DUP6 SSTORE PUSH1 0x0 SWAP5 DUP6 MSTORE SWAP4 DUP3 SWAP1 KECCAK256 DUP4 MLOAD PUSH1 0x2 SWAP1 SWAP3 MUL ADD DUP1 SLOAD PUSH1 0x1 PUSH1 0x1 PUSH1 0xA0 SHL SUB NOT AND PUSH1 0x1 PUSH1 0x1 PUSH1 0xA0 SHL SUB SWAP1 SWAP3 AND SWAP2 SWAP1 SWAP2 OR DUP2 SSTORE SWAP2 ADD MLOAD SWAP1 DUP3 ADD SSTORE PUSH2 0x10B4 SWAP1 DUP3 SWAP1 PUSH2 0x5177 JUMP JUMPDEST PUSH1 0x8B PUSH1 0x0 DUP6 DUP5 PUSH1 0x19 DUP2 LT PUSH2 0x10D8 JUMPI PUSH4 0x4E487B71 PUSH1 0xE0 SHL PUSH1 0x0 MSTORE PUSH1 0x32 PUSH1 0x4 MSTORE PUSH1 0x24 PUSH1 0x0 REVERT JUMPDEST PUSH1 0x20 MUL ADD PUSH1 0x20 DUP2 ADD SWAP1 PUSH2 0x10EB SWAP2 SWAP1 PUSH2 0x43A4 JUMP JUMPDEST PUSH1 0x1 PUSH1 0x1 PUSH1 0xA0 SHL SUB AND PUSH1 0x1 PUSH1 0x1 PUSH1 0xA0 SHL SUB AND DUP2 MSTORE PUSH1 0x20 ADD SWAP1 DUP2 MSTORE PUSH1 0x20 ADD PUSH1 0x0 KECCAK256 DUP4 DUP4 PUSH1 0x19 DUP2 LT PUSH2 0x112B JUMPI PUSH4 0x4E487B71 PUSH1 0xE0 SHL PUSH1 0x0 MSTORE PUSH1 0x32 PUSH1 0x4 MSTORE PUSH1 0x24 PUSH1 0x0 REVERT JUMPDEST PUSH1 0x20 MUL ADD CALLDATALOAD DUP2 SLOAD DUP2 LT PUSH2 0x114E JUMPI PUSH4 0x4E487B71 PUSH1 0xE0 SHL PUSH1 0x0 MSTORE PUSH1 0x32 PUSH1 0x4 MSTORE PUSH1 0x24 PUSH1 0x0 REVERT JUMPDEST PUSH1 0x0 SWAP2 DUP3 MSTORE PUSH1 0x20 SWAP1 SWAP2 KECCAK256 PUSH1 0x6 PUSH1 0x8 SWAP1 SWAP3 MUL ADD ADD SSTORE DUP1 PUSH2 0x116C DUP2 PUSH2 0x5220 JUMP JUMPDEST SWAP2 POP POP PUSH2 0xF9E JUMP JUMPDEST PUSH1 0x88 DUP1 SLOAD DUP3 SWAP2 SWAP1 PUSH2 0x1187 SWAP1 PUSH1 0x1 SWAP1 PUSH2 0x51CE JUMP JUMPDEST DUP2 SLOAD DUP2 LT PUSH2 0x11A5 JUMPI PUSH4 0x4E487B71 PUSH1 0xE0 SHL PUSH1 0x0 MSTORE PUSH1 0x32 PUSH1 0x4 MSTORE PUSH1 0x24 PUSH1 0x0 REVERT JUMPDEST SWAP1 PUSH1 0x0 MSTORE PUSH1 0x20 PUSH1 0x0 KECCAK256 SWAP1 PUSH1 0x2 MUL ADD PUSH1 0x0 ADD SLOAD LT ISZERO PUSH2 0x11D5 JUMPI PUSH1 0x40 MLOAD PUSH3 0x461BCD PUSH1 0xE5 SHL DUP2 MSTORE PUSH1 0x4 ADD PUSH2 0x9B6 SWAP1 PUSH2 0x4F3A JUMP JUMPDEST PUSH1 0x40 MLOAD PUSH32 0x5C243CC6E4F210BF2DD86B8ECA0CA891D3F8AD2EB09FBF91735EB348BC199C7E SWAP1 PUSH1 0x0 SWAP1 LOG1 POP POP POP JUMP JUMPDEST PUSH1 0x1 PUSH1 0x1 PUSH1 0xA0 SHL SUB DUP3 AND PUSH1 0x0 SWAP1 DUP2 MSTORE PUSH1 0x8B PUSH1 0x20 SWAP1 DUP2 MSTORE PUSH1 0x40 DUP1 DUP4 KECCAK256 DUP1 SLOAD DUP3 MLOAD DUP2 DUP6 MUL DUP2 ADD DUP6 ADD SWAP1 SWAP4 MSTORE DUP1 DUP4 MSTORE DUP5 SWAP4 DUP5 SWAP1 DUP5 ADD JUMPDEST DUP3 DUP3 LT ISZERO PUSH2 0x12C8 JUMPI PUSH1 0x0 DUP5 DUP2 MSTORE PUSH1 0x20 SWAP1 DUP2 SWAP1 KECCAK256 PUSH1 0x40 DUP1 MLOAD PUSH2 0x120 DUP2 ADD DUP3 MSTORE PUSH1 0x8 DUP7 MUL SWAP1 SWAP3 ADD DUP1 SLOAD DUP4 MSTORE PUSH1 0x1 DUP1 DUP3 ADD SLOAD DUP5 DUP7 ADD MSTORE PUSH1 0x2 DUP3 ADD SLOAD SWAP3 DUP5 ADD SWAP3 SWAP1 SWAP3 MSTORE PUSH1 0x3 DUP2 ADD SLOAD PUSH1 0x60 DUP5 ADD MSTORE PUSH1 0x4 DUP2 ADD SLOAD PUSH1 0x80 DUP5 ADD MSTORE PUSH1 0x5 DUP2 ADD SLOAD PUSH1 0xA0 DUP5 ADD MSTORE PUSH1 0x6 DUP2 ADD SLOAD PUSH1 0xC0 DUP5 ADD MSTORE PUSH1 0x7 ADD SLOAD PUSH1 0xFF DUP1 DUP3 AND ISZERO ISZERO PUSH1 0xE0 DUP6 ADD MSTORE PUSH2 0x100 SWAP2 DUP3 SWAP1 DIV AND ISZERO ISZERO SWAP1 DUP4 ADD MSTORE SWAP1 DUP4 MSTORE SWAP1 SWAP3 ADD SWAP2 ADD PUSH2 0x1236 JUMP JUMPDEST POP POP POP POP SWAP1 POP PUSH1 0x0 DUP2 MLOAD GT PUSH2 0x12EF JUMPI PUSH1 0x40 MLOAD PUSH3 0x461BCD PUSH1 0xE5 SHL DUP2 MSTORE PUSH1 0x4 ADD PUSH2 0x9B6 SWAP1 PUSH2 0x4E6E JUMP JUMPDEST DUP1 MLOAD DUP4 LT PUSH2 0x130F JUMPI PUSH1 0x40 MLOAD PUSH3 0x461BCD PUSH1 0xE5 SHL DUP2 MSTORE PUSH1 0x4 ADD PUSH2 0x9B6 SWAP1 PUSH2 0x4961 JUMP JUMPDEST DUP1 DUP4 DUP2 MLOAD DUP2 LT PUSH2 0x132F JUMPI PUSH4 0x4E487B71 PUSH1 0xE0 SHL PUSH1 0x0 MSTORE PUSH1 0x32 PUSH1 0x4 MSTORE PUSH1 0x24 PUSH1 0x0 REVERT JUMPDEST PUSH1 0x20 MUL PUSH1 0x20 ADD ADD MLOAD PUSH2 0x100 ADD MLOAD ISZERO PUSH2 0x134B JUMPI PUSH1 0x1 SWAP2 POP POP PUSH2 0x8D9 JUMP JUMPDEST POP PUSH1 0x0 SWAP4 SWAP3 POP POP POP JUMP JUMPDEST PUSH1 0x7B SLOAD PUSH1 0x1 PUSH1 0xA8 SHL SWAP1 DIV PUSH1 0xFF AND DUP2 JUMP JUMPDEST PUSH1 0x0 DUP3 DUP3 GT ISZERO PUSH2 0x1377 JUMPI POP PUSH1 0x0 PUSH2 0x8D9 JUMP JUMPDEST PUSH1 0x73 SLOAD DUP4 GT ISZERO PUSH2 0x13B9 JUMPI PUSH1 0x73 SLOAD PUSH2 0x138E DUP5 DUP5 PUSH2 0x3E08 JUMP JUMPDEST GT PUSH2 0x139B JUMPI POP PUSH1 0x0 PUSH2 0x8D9 JUMP JUMPDEST PUSH1 0x73 SLOAD PUSH2 0x13B2 SWAP1 PUSH2 0x13AC DUP6 DUP6 PUSH2 0x3E08 JUMP JUMPDEST SWAP1 PUSH2 0x3E08 JUMP JUMPDEST SWAP1 POP PUSH2 0x8D9 JUMP JUMPDEST PUSH1 0x73 SLOAD PUSH2 0x13C6 DUP5 DUP5 PUSH2 0x3E2C JUMP JUMPDEST LT PUSH2 0x13D3 JUMPI POP PUSH1 0x0 PUSH2 0x8D9 JUMP JUMPDEST PUSH2 0x13B2 PUSH2 0x13E0 DUP5 DUP5 PUSH2 0x3E2C JUMP JUMPDEST PUSH1 0x73 SLOAD SWAP1 PUSH2 0x3E08 JUMP JUMPDEST PUSH1 0x7A SLOAD PUSH1 0x1 PUSH1 0x1 PUSH1 0xA0 SHL SUB AND PUSH2 0x13FD PUSH2 0x3DC6 JUMP JUMPDEST PUSH1 0x1 PUSH1 0x1 PUSH1 0xA0 SHL SUB AND EQ PUSH2 0x1423 JUMPI PUSH1 0x40 MLOAD PUSH3 0x461BCD PUSH1 0xE5 SHL DUP2 MSTORE PUSH1 0x4 ADD PUSH2 0x9B6 SWAP1 PUSH2 0x4DF8 JUMP JUMPDEST PUSH1 0x0 PUSH1 0x6F SLOAD GT PUSH2 0x1445 JUMPI PUSH1 0x40 MLOAD PUSH3 0x461BCD PUSH1 0xE5 SHL DUP2 MSTORE PUSH1 0x4 ADD PUSH2 0x9B6 SWAP1 PUSH2 0x4A59 JUMP JUMPDEST PUSH1 0x0 DUP3 GT PUSH2 0x1465 JUMPI PUSH1 0x40 MLOAD PUSH3 0x461BCD PUSH1 0xE5 SHL DUP2 MSTORE PUSH1 0x4 ADD PUSH2 0x9B6 SWAP1 PUSH2 0x4CEE JUMP JUMPDEST TIMESTAMP DUP2 LT ISZERO PUSH2 0x1485 JUMPI PUSH1 0x40 MLOAD PUSH3 0x461BCD PUSH1 0xE5 SHL DUP2 MSTORE PUSH1 0x4 ADD PUSH2 0x9B6 SWAP1 PUSH2 0x4B5E JUMP JUMPDEST PUSH1 0x0 PUSH2 0x148F PUSH2 0x1620 JUMP JUMPDEST SWAP1 POP PUSH2 0x149B DUP2 DUP5 PUSH2 0x3E38 JUMP JUMPDEST PUSH1 0x0 PUSH2 0x14A6 DUP5 PUSH2 0xC4E JUMP JUMPDEST SWAP1 POP PUSH1 0x0 PUSH2 0x14C0 PUSH2 0x14B9 DUP4 PUSH2 0x12C PUSH2 0x3E14 JUMP JUMPDEST DUP4 SWAP1 PUSH2 0x3E08 JUMP JUMPDEST SWAP1 POP PUSH2 0x14CE ADDRESS DUP7 DUP4 DUP8 PUSH2 0x3F02 JUMP JUMPDEST POP POP POP POP POP JUMP JUMPDEST PUSH1 0x6B SLOAD DUP2 JUMP JUMPDEST PUSH1 0x6C SLOAD DUP2 JUMP JUMPDEST PUSH1 0x7A SLOAD PUSH1 0x1 PUSH1 0x1 PUSH1 0xA0 SHL SUB AND PUSH2 0x14F5 PUSH2 0x3DC6 JUMP JUMPDEST PUSH1 0x1 PUSH1 0x1 PUSH1 0xA0 SHL SUB AND EQ PUSH2 0x151B JUMPI PUSH1 0x40 MLOAD PUSH3 0x461BCD PUSH1 0xE5 SHL DUP2 MSTORE PUSH1 0x4 ADD PUSH2 0x9B6 SWAP1 PUSH2 0x4DF8 JUMP JUMPDEST PUSH1 0x8C SLOAD PUSH1 0x1 PUSH1 0x1 PUSH1 0xA0 SHL SUB DUP5 DUP2 AND SWAP2 AND EQ ISZERO PUSH2 0x1549 JUMPI PUSH1 0x40 MLOAD PUSH3 0x461BCD PUSH1 0xE5 SHL DUP2 MSTORE PUSH1 0x4 ADD PUSH2 0x9B6 SWAP1 PUSH2 0x4CAD JUMP JUMPDEST PUSH1 0x40 MLOAD PUSH4 0xA9059CBB PUSH1 0xE0 SHL DUP2 MSTORE DUP4 SWAP1 PUSH1 0x1 PUSH1 0x1 PUSH1 0xA0 SHL SUB DUP3 AND SWAP1 PUSH4 0xA9059CBB SWAP1 PUSH2 0x1579 SWAP1 DUP6 SWAP1 DUP8 SWAP1 PUSH1 0x4 ADD PUSH2 0x47FC JUMP JUMPDEST PUSH1 0x20 PUSH1 0x40 MLOAD DUP1 DUP4 SUB DUP2 PUSH1 0x0 DUP8 DUP1 EXTCODESIZE ISZERO DUP1 ISZERO PUSH2 0x1593 JUMPI PUSH1 0x0 DUP1 REVERT JUMPDEST POP GAS CALL ISZERO DUP1 ISZERO PUSH2 0x15A7 JUMPI RETURNDATASIZE PUSH1 0x0 DUP1 RETURNDATACOPY RETURNDATASIZE PUSH1 0x0 REVERT JUMPDEST POP POP POP POP PUSH1 0x40 MLOAD RETURNDATASIZE PUSH1 0x1F NOT PUSH1 0x1F DUP3 ADD AND DUP3 ADD DUP1 PUSH1 0x40 MSTORE POP DUP2 ADD SWAP1 PUSH2 0x14CE SWAP2 SWAP1 PUSH2 0x45FC JUMP JUMPDEST PUSH1 0x70 SLOAD DUP2 JUMP JUMPDEST PUSH1 0x71 SLOAD DUP2 JUMP JUMPDEST PUSH2 0x15DF PUSH2 0x3DC6 JUMP JUMPDEST PUSH1 0x1 PUSH1 0x1 PUSH1 0xA0 SHL SUB AND PUSH2 0x15F0 PUSH2 0x1EC5 JUMP JUMPDEST PUSH1 0x1 PUSH1 0x1 PUSH1 0xA0 SHL SUB AND EQ PUSH2 0x1616 JUMPI PUSH1 0x40 MLOAD PUSH3 0x461BCD PUSH1 0xE5 SHL DUP2 MSTORE PUSH1 0x4 ADD PUSH2 0x9B6 SWAP1 PUSH2 0x4E39 JUMP JUMPDEST PUSH2 0xBEB PUSH1 0x0 PUSH2 0x3FA8 JUMP JUMPDEST PUSH1 0x66 SLOAD PUSH1 0x1 PUSH1 0x1 PUSH1 0xA0 SHL SUB AND SWAP1 JUMP JUMPDEST PUSH1 0x6F SLOAD DUP2 JUMP JUMPDEST PUSH1 0x78 SLOAD DUP2 JUMP JUMPDEST PUSH1 0x6E SLOAD DUP2 JUMP JUMPDEST PUSH1 0x1 PUSH1 0x1 PUSH1 0xA0 SHL SUB DUP2 AND PUSH1 0x0 SWAP1 DUP2 MSTORE PUSH1 0x8B PUSH1 0x20 MSTORE PUSH1 0x40 DUP1 DUP3 KECCAK256 SWAP1 MLOAD PUSH4 0xD467577 PUSH1 0xE4 SHL DUP2 MSTORE DUP3 SWAP2 PUSH20 0x0 SWAP2 PUSH4 0xD4675770 SWAP2 PUSH2 0x1693 SWAP2 PUSH1 0x7E SWAP1 PUSH1 0x4 ADD PUSH2 0x4887 JUMP JUMPDEST PUSH1 0x20 PUSH1 0x40 MLOAD DUP1 DUP4 SUB DUP2 DUP7 DUP1 EXTCODESIZE ISZERO DUP1 ISZERO PUSH2 0x16AB JUMPI PUSH1 0x0 DUP1 REVERT JUMPDEST POP GAS DELEGATECALL ISZERO DUP1 ISZERO PUSH2 0x16BF JUMPI RETURNDATASIZE PUSH1 0x0 DUP1 RETURNDATACOPY RETURNDATASIZE PUSH1 0x0 REVERT JUMPDEST POP POP POP POP PUSH1 0x40 MLOAD RETURNDATASIZE PUSH1 0x1F NOT PUSH1 0x1F DUP3 ADD AND DUP3 ADD DUP1 PUSH1 0x40 MSTORE POP DUP2 ADD SWAP1 PUSH2 0x16E3 SWAP2 SWAP1 PUSH2 0x4630 JUMP JUMPDEST SWAP4 SWAP3 POP POP POP JUMP JUMPDEST PUSH1 0x7B SLOAD PUSH1 0x1 PUSH1 0xB0 SHL SWAP1 DIV PUSH1 0xFF AND DUP1 ISZERO PUSH2 0x1704 JUMPI POP PUSH1 0x69 SLOAD TIMESTAMP GT JUMPDEST PUSH2 0x1720 JUMPI PUSH1 0x40 MLOAD PUSH3 0x461BCD PUSH1 0xE5 SHL DUP2 MSTORE PUSH1 0x4 ADD PUSH2 0x9B6 SWAP1 PUSH2 0x4EB9 JUMP JUMPDEST PUSH1 0x6A SLOAD PUSH1 0x69 SLOAD PUSH2 0x1730 SWAP2 SWAP1 PUSH2 0x5177 JUMP JUMPDEST TIMESTAMP LT PUSH2 0x174E JUMPI PUSH1 0x40 MLOAD PUSH3 0x461BCD PUSH1 0xE5 SHL DUP2 MSTORE PUSH1 0x4 ADD PUSH2 0x9B6 SWAP1 PUSH2 0x49C5 JUMP JUMPDEST PUSH1 0x7B SLOAD PUSH1 0x1 PUSH1 0xB8 SHL SWAP1 DIV PUSH1 0xFF AND ISZERO PUSH2 0x1778 JUMPI PUSH1 0x40 MLOAD PUSH3 0x461BCD PUSH1 0xE5 SHL DUP2 MSTORE PUSH1 0x4 ADD PUSH2 0x9B6 SWAP1 PUSH2 0x4998 JUMP JUMPDEST PUSH1 0x71 SLOAD DUP3 LT ISZERO PUSH2 0x179A JUMPI PUSH1 0x40 MLOAD PUSH3 0x461BCD PUSH1 0xE5 SHL DUP2 MSTORE PUSH1 0x4 ADD PUSH2 0x9B6 SWAP1 PUSH2 0x4EF0 JUMP JUMPDEST PUSH1 0x71 SLOAD PUSH1 0x8C SLOAD PUSH1 0x40 DUP1 MLOAD PUSH4 0x771A3A1D PUSH1 0xE0 SHL DUP2 MSTORE SWAP1 MLOAD PUSH1 0x0 SWAP3 PUSH1 0x1 PUSH1 0x1 PUSH1 0xA0 SHL SUB AND SWAP2 PUSH4 0x771A3A1D SWAP2 PUSH1 0x4 DUP1 DUP4 ADD SWAP3 PUSH1 0x20 SWAP3 SWAP2 SWAP1 DUP3 SWAP1 SUB ADD DUP2 DUP8 DUP8 DUP1 EXTCODESIZE ISZERO DUP1 ISZERO PUSH2 0x17E3 JUMPI PUSH1 0x0 DUP1 REVERT JUMPDEST POP GAS CALL ISZERO DUP1 ISZERO PUSH2 0x17F7 JUMPI RETURNDATASIZE PUSH1 0x0 DUP1 RETURNDATACOPY RETURNDATASIZE PUSH1 0x0 REVERT JUMPDEST POP POP POP POP PUSH1 0x40 MLOAD RETURNDATASIZE PUSH1 0x1F NOT PUSH1 0x1F DUP3 ADD AND DUP3 ADD DUP1 PUSH1 0x40 MSTORE POP DUP2 ADD SWAP1 PUSH2 0x181B SWAP2 SWAP1 PUSH2 0x4630 JUMP JUMPDEST PUSH1 0x8C SLOAD SWAP1 SWAP2 POP PUSH1 0x0 SWAP1 PUSH1 0x1 PUSH1 0x1 PUSH1 0xA0 SHL SUB AND PUSH4 0xD1ECFC68 PUSH2 0x183A PUSH2 0x3DC6 JUMP JUMPDEST PUSH1 0x40 MLOAD DUP3 PUSH4 0xFFFFFFFF AND PUSH1 0xE0 SHL DUP2 MSTORE PUSH1 0x4 ADD PUSH2 0x1856 SWAP2 SWAP1 PUSH2 0x47C4 JUMP JUMPDEST PUSH1 0x20 PUSH1 0x40 MLOAD DUP1 DUP4 SUB DUP2 PUSH1 0x0 DUP8 DUP1 EXTCODESIZE ISZERO DUP1 ISZERO PUSH2 0x1870 JUMPI PUSH1 0x0 DUP1 REVERT JUMPDEST POP GAS CALL ISZERO DUP1 ISZERO PUSH2 0x1884 JUMPI RETURNDATASIZE PUSH1 0x0 DUP1 RETURNDATACOPY RETURNDATASIZE PUSH1 0x0 REVERT JUMPDEST POP POP POP POP PUSH1 0x40 MLOAD RETURNDATASIZE PUSH1 0x1F NOT PUSH1 0x1F DUP3 ADD AND DUP3 ADD DUP1 PUSH1 0x40 MSTORE POP DUP2 ADD SWAP1 PUSH2 0x18A8 SWAP2 SWAP1 PUSH2 0x45FC JUMP JUMPDEST PUSH2 0x18BB JUMPI PUSH2 0x18B6 DUP6 DUP4 PUSH2 0x3E14 JUMP JUMPDEST PUSH2 0x18BE JUMP JUMPDEST PUSH1 0x0 JUMPDEST PUSH1 0x6C SLOAD SWAP1 SWAP2 POP PUSH2 0x18CE SWAP1 DUP5 PUSH2 0x3E2C JUMP JUMPDEST PUSH2 0x18E7 DUP3 PUSH2 0x13AC DUP9 PUSH1 0x72 SLOAD PUSH2 0x3E2C SWAP1 SWAP2 SWAP1 PUSH4 0xFFFFFFFF AND JUMP JUMPDEST GT ISZERO PUSH2 0x1905 JUMPI PUSH1 0x40 MLOAD PUSH3 0x461BCD PUSH1 0xE5 SHL DUP2 MSTORE PUSH1 0x4 ADD PUSH2 0x9B6 SWAP1 PUSH2 0x4C67 JUMP JUMPDEST PUSH1 0x0 PUSH2 0x1911 DUP7 DUP5 PUSH2 0xBED JUMP JUMPDEST PUSH1 0x8C SLOAD SWAP1 SWAP8 POP SWAP1 SWAP2 POP PUSH1 0x1 PUSH1 0x1 PUSH1 0xA0 SHL SUB AND PUSH4 0x23B872DD PUSH2 0x1930 PUSH2 0x3DC6 JUMP JUMPDEST ADDRESS PUSH2 0x193B DUP6 DUP12 PUSH2 0x5177 JUMP JUMPDEST PUSH1 0x40 MLOAD DUP5 PUSH4 0xFFFFFFFF AND PUSH1 0xE0 SHL DUP2 MSTORE PUSH1 0x4 ADD PUSH2 0x1959 SWAP4 SWAP3 SWAP2 SWAP1 PUSH2 0x47D8 JUMP JUMPDEST PUSH1 0x20 PUSH1 0x40 MLOAD DUP1 DUP4 SUB DUP2 PUSH1 0x0 DUP8 DUP1 EXTCODESIZE ISZERO DUP1 ISZERO PUSH2 0x1973 JUMPI PUSH1 0x0 DUP1 REVERT JUMPDEST POP GAS CALL ISZERO DUP1 ISZERO PUSH2 0x1987 JUMPI RETURNDATASIZE PUSH1 0x0 DUP1 RETURNDATACOPY RETURNDATASIZE PUSH1 0x0 REVERT JUMPDEST POP POP POP POP PUSH1 0x40 MLOAD RETURNDATASIZE PUSH1 0x1F NOT PUSH1 0x1F DUP3 ADD AND DUP3 ADD DUP1 PUSH1 0x40 MSTORE POP DUP2 ADD SWAP1 PUSH2 0x19AB SWAP2 SWAP1 PUSH2 0x45FC JUMP JUMPDEST POP PUSH2 0x19B6 DUP7 DUP4 PUSH2 0x3E08 JUMP JUMPDEST SWAP6 POP DUP1 ISZERO PUSH2 0x1AB7 JUMPI PUSH1 0x8C SLOAD PUSH1 0x40 DUP1 MLOAD PUSH4 0x4A5DB0A9 PUSH1 0xE0 SHL DUP2 MSTORE SWAP1 MLOAD PUSH1 0x1 PUSH1 0x1 PUSH1 0xA0 SHL SUB SWAP1 SWAP3 AND SWAP2 PUSH4 0xA9059CBB SWAP2 DUP4 SWAP2 PUSH4 0x4A5DB0A9 SWAP2 PUSH1 0x4 DUP1 DUP3 ADD SWAP3 PUSH1 0x20 SWAP3 SWAP1 SWAP2 SWAP1 DUP3 SWAP1 SUB ADD DUP2 PUSH1 0x0 DUP8 DUP1 EXTCODESIZE ISZERO DUP1 ISZERO PUSH2 0x1A0D JUMPI PUSH1 0x0 DUP1 REVERT JUMPDEST POP GAS CALL ISZERO DUP1 ISZERO PUSH2 0x1A21 JUMPI RETURNDATASIZE PUSH1 0x0 DUP1 RETURNDATACOPY RETURNDATASIZE PUSH1 0x0 REVERT JUMPDEST POP POP POP POP PUSH1 0x40 MLOAD RETURNDATASIZE PUSH1 0x1F NOT PUSH1 0x1F DUP3 ADD AND DUP3 ADD DUP1 PUSH1 0x40 MSTORE POP DUP2 ADD SWAP1 PUSH2 0x1A45 SWAP2 SWAP1 PUSH2 0x43C0 JUMP JUMPDEST DUP4 PUSH1 0x40 MLOAD DUP4 PUSH4 0xFFFFFFFF AND PUSH1 0xE0 SHL DUP2 MSTORE PUSH1 0x4 ADD PUSH2 0x1A63 SWAP3 SWAP2 SWAP1 PUSH2 0x47FC JUMP JUMPDEST PUSH1 0x20 PUSH1 0x40 MLOAD DUP1 DUP4 SUB DUP2 PUSH1 0x0 DUP8 DUP1 EXTCODESIZE ISZERO DUP1 ISZERO PUSH2 0x1A7D JUMPI PUSH1 0x0 DUP1 REVERT JUMPDEST POP GAS CALL ISZERO DUP1 ISZERO PUSH2 0x1A91 JUMPI RETURNDATASIZE PUSH1 0x0 DUP1 RETURNDATACOPY RETURNDATASIZE PUSH1 0x0 REVERT JUMPDEST POP POP POP POP PUSH1 0x40 MLOAD RETURNDATASIZE PUSH1 0x1F NOT PUSH1 0x1F DUP3 ADD AND DUP3 ADD DUP1 PUSH1 0x40 MSTORE POP DUP2 ADD SWAP1 PUSH2 0x1AB5 SWAP2 SWAP1 PUSH2 0x45FC JUMP JUMPDEST POP JUMPDEST PUSH1 0x0 PUSH1 0x8B PUSH1 0x0 PUSH2 0x1AC5 PUSH2 0x3DC6 JUMP JUMPDEST PUSH1 0x1 PUSH1 0x1 PUSH1 0xA0 SHL SUB AND DUP2 MSTORE PUSH1 0x20 DUP2 ADD SWAP2 SWAP1 SWAP2 MSTORE PUSH1 0x40 ADD PUSH1 0x0 KECCAK256 SLOAD SWAP1 POP PUSH2 0x1AF3 PUSH2 0x1AEC PUSH2 0x3DC6 JUMP JUMPDEST DUP9 DUP9 PUSH2 0x3FFA JUMP JUMPDEST PUSH1 0x72 SLOAD PUSH2 0x1B00 SWAP1 DUP9 PUSH2 0x3E2C JUMP JUMPDEST PUSH1 0x72 DUP2 SWAP1 SSTORE PUSH1 0x6C SLOAD GT PUSH2 0x1B15 JUMPI PUSH2 0x1B15 PUSH2 0x3DCA JUMP JUMPDEST PUSH2 0x1B1D PUSH2 0x3DC6 JUMP JUMPDEST PUSH1 0x1 PUSH1 0x1 PUSH1 0xA0 SHL SUB AND PUSH32 0xF556991011E831BCFAC4F406D547E5E32CDD98267EFAB83935230D5F8D02C446 DUP9 DUP9 DUP5 PUSH1 0x40 MLOAD PUSH2 0x1B59 SWAP4 SWAP3 SWAP2 SWAP1 PUSH2 0x4895 JUMP JUMPDEST PUSH1 0x40 MLOAD DUP1 SWAP2 SUB SWAP1 LOG2 POP POP POP POP POP POP POP JUMP JUMPDEST PUSH1 0x7B SLOAD PUSH1 0x1 PUSH1 0xC0 SHL SWAP1 DIV PUSH1 0xFF AND DUP2 JUMP JUMPDEST PUSH1 0x72 SLOAD DUP2 JUMP JUMPDEST PUSH1 0x8B PUSH1 0x20 MSTORE DUP2 PUSH1 0x0 MSTORE PUSH1 0x40 PUSH1 0x0 KECCAK256 DUP2 DUP2 SLOAD DUP2 LT PUSH2 0x1B9C JUMPI PUSH1 0x0 DUP1 REVERT JUMPDEST PUSH1 0x0 SWAP2 DUP3 MSTORE PUSH1 0x20 SWAP1 SWAP2 KECCAK256 PUSH1 0x8 SWAP1 SWAP2 MUL ADD DUP1 SLOAD PUSH1 0x1 DUP3 ADD SLOAD PUSH1 0x2 DUP4 ADD SLOAD PUSH1 0x3 DUP5 ADD SLOAD PUSH1 0x4 DUP6 ADD SLOAD PUSH1 0x5 DUP7 ADD SLOAD PUSH1 0x6 DUP8 ADD SLOAD PUSH1 0x7 SWAP1 SWAP8 ADD SLOAD SWAP6 SWAP9 POP SWAP4 SWAP7 POP SWAP2 SWAP5 SWAP1 SWAP4 SWAP2 SWAP3 SWAP2 PUSH1 0xFF DUP1 DUP3 AND SWAP2 PUSH2 0x100 SWAP1 DIV AND DUP10 JUMP JUMPDEST PUSH1 0x7B SLOAD PUSH1 0x1 PUSH1 0xA0 SHL SWAP1 DIV PUSH1 0xFF AND PUSH2 0x1C17 JUMPI PUSH1 0x40 MLOAD PUSH3 0x461BCD PUSH1 0xE5 SHL DUP2 MSTORE PUSH1 0x4 ADD PUSH2 0x9B6 SWAP1 PUSH2 0x4D25 JUMP JUMPDEST PUSH1 0x0 PUSH20 0x0 PUSH4 0x66F1DEE PUSH1 0x8B PUSH1 0x0 PUSH2 0x1C3F PUSH2 0x3DC6 JUMP JUMPDEST PUSH1 0x1 PUSH1 0x1 PUSH1 0xA0 SHL SUB AND PUSH1 0x1 PUSH1 0x1 PUSH1 0xA0 SHL SUB AND DUP2 MSTORE PUSH1 0x20 ADD SWAP1 DUP2 MSTORE PUSH1 0x20 ADD PUSH1 0x0 KECCAK256 PUSH1 0x40 MLOAD DUP3 PUSH4 0xFFFFFFFF AND PUSH1 0xE0 SHL DUP2 MSTORE PUSH1 0x4 ADD PUSH2 0x1C7B SWAP2 SWAP1 PUSH2 0x487E JUMP JUMPDEST PUSH1 0x20 PUSH1 0x40 MLOAD DUP1 DUP4 SUB DUP2 DUP7 DUP1 EXTCODESIZE ISZERO DUP1 ISZERO PUSH2 0x1C93 JUMPI PUSH1 0x0 DUP1 REVERT JUMPDEST POP GAS DELEGATECALL ISZERO DUP1 ISZERO PUSH2 0x1CA7 JUMPI RETURNDATASIZE PUSH1 0x0 DUP1 RETURNDATACOPY RETURNDATASIZE PUSH1 0x0 REVERT JUMPDEST POP POP POP POP PUSH1 0x40 MLOAD RETURNDATASIZE PUSH1 0x1F NOT PUSH1 0x1F DUP3 ADD AND DUP3 ADD DUP1 PUSH1 0x40 MSTORE POP DUP2 ADD SWAP1 PUSH2 0x1CCB SWAP2 SWAP1 PUSH2 0x4630 JUMP JUMPDEST SWAP1 POP DUP1 ISZERO PUSH2 0x1E3A JUMPI PUSH20 0x0 PUSH4 0xF66D9A4D PUSH1 0x8B PUSH1 0x0 PUSH2 0x1CF9 PUSH2 0x3DC6 JUMP JUMPDEST PUSH1 0x1 PUSH1 0x1 PUSH1 0xA0 SHL SUB AND PUSH1 0x1 PUSH1 0x1 PUSH1 0xA0 SHL SUB AND DUP2 MSTORE PUSH1 0x20 ADD SWAP1 DUP2 MSTORE PUSH1 0x20 ADD PUSH1 0x0 KECCAK256 PUSH1 0x40 MLOAD DUP3 PUSH4 0xFFFFFFFF AND PUSH1 0xE0 SHL DUP2 MSTORE PUSH1 0x4 ADD PUSH2 0x1D35 SWAP2 SWAP1 PUSH2 0x487E JUMP JUMPDEST PUSH1 0x0 PUSH1 0x40 MLOAD DUP1 DUP4 SUB DUP2 DUP7 DUP1 EXTCODESIZE ISZERO DUP1 ISZERO PUSH2 0x1D4D JUMPI PUSH1 0x0 DUP1 REVERT JUMPDEST POP GAS DELEGATECALL ISZERO DUP1 ISZERO PUSH2 0x1D61 JUMPI RETURNDATASIZE PUSH1 0x0 DUP1 RETURNDATACOPY RETURNDATASIZE PUSH1 0x0 REVERT JUMPDEST POP POP PUSH1 0x8C SLOAD PUSH1 0x1 PUSH1 0x1 PUSH1 0xA0 SHL SUB AND SWAP2 POP PUSH4 0xA9059CBB SWAP1 POP PUSH2 0x1D80 PUSH2 0x3DC6 JUMP JUMPDEST DUP4 PUSH1 0x40 MLOAD DUP4 PUSH4 0xFFFFFFFF AND PUSH1 0xE0 SHL DUP2 MSTORE PUSH1 0x4 ADD PUSH2 0x1D9E SWAP3 SWAP2 SWAP1 PUSH2 0x47FC JUMP JUMPDEST PUSH1 0x20 PUSH1 0x40 MLOAD DUP1 DUP4 SUB DUP2 PUSH1 0x0 DUP8 DUP1 EXTCODESIZE ISZERO DUP1 ISZERO PUSH2 0x1DB8 JUMPI PUSH1 0x0 DUP1 REVERT JUMPDEST POP GAS CALL ISZERO DUP1 ISZERO PUSH2 0x1DCC JUMPI RETURNDATASIZE PUSH1 0x0 DUP1 RETURNDATACOPY RETURNDATASIZE PUSH1 0x0 REVERT JUMPDEST POP POP POP POP PUSH1 0x40 MLOAD RETURNDATASIZE PUSH1 0x1F NOT PUSH1 0x1F DUP3 ADD AND DUP3 ADD DUP1 PUSH1 0x40 MSTORE POP DUP2 ADD SWAP1 PUSH2 0x1DF0 SWAP2 SWAP1 PUSH2 0x45FC JUMP JUMPDEST POP PUSH2 0x1DF9 PUSH2 0x3DC6 JUMP JUMPDEST PUSH1 0x1 PUSH1 0x1 PUSH1 0xA0 SHL SUB AND PUSH32 0x85082129D87B2FE11527CB1B3B7A520AEB5AA6913F88A3D8757FE40D1DB02FDD DUP3 PUSH1 0x40 MLOAD PUSH2 0x1E31 SWAP2 SWAP1 PUSH2 0x487E JUMP JUMPDEST PUSH1 0x40 MLOAD DUP1 SWAP2 SUB SWAP1 LOG2 JUMPDEST POP JUMP JUMPDEST PUSH1 0x7A SLOAD PUSH1 0x1 PUSH1 0x1 PUSH1 0xA0 SHL SUB AND PUSH2 0x1E51 PUSH2 0x3DC6 JUMP JUMPDEST PUSH1 0x1 PUSH1 0x1 PUSH1 0xA0 SHL SUB AND EQ PUSH2 0x1E77 JUMPI PUSH1 0x40 MLOAD PUSH3 0x461BCD PUSH1 0xE5 SHL DUP2 MSTORE PUSH1 0x4 ADD PUSH2 0x9B6 SWAP1 PUSH2 0x4DF8 JUMP JUMPDEST PUSH1 0x7B DUP1 SLOAD PUSH1 0xFF PUSH1 0xC8 SHL NOT AND PUSH1 0x1 PUSH1 0xC8 SHL OR SWAP1 SSTORE PUSH1 0x40 MLOAD PUSH32 0x9331B2A38C658C57A39EA19B2709D928C28A12CC8FBB838D12B85148550F937D SWAP1 PUSH1 0x0 SWAP1 LOG1 JUMP JUMPDEST PUSH1 0x7B SLOAD PUSH1 0x1 PUSH1 0xD0 SHL SWAP1 DIV PUSH1 0xFF AND DUP2 JUMP JUMPDEST PUSH1 0x33 SLOAD PUSH1 0x1 PUSH1 0x1 PUSH1 0xA0 SHL SUB AND SWAP1 JUMP JUMPDEST PUSH1 0x5 DUP2 JUMP JUMPDEST PUSH1 0x8E SLOAD PUSH1 0x1 PUSH1 0x1 PUSH1 0xA0 SHL SUB AND DUP2 JUMP JUMPDEST PUSH1 0x81 SLOAD PUSH1 0x86 SLOAD SWAP1 SWAP2 JUMP JUMPDEST PUSH1 0x7B SLOAD PUSH1 0x1 PUSH1 0xA0 SHL SWAP1 DIV PUSH1 0xFF AND DUP2 JUMP JUMPDEST PUSH1 0x7A SLOAD PUSH1 0x1 PUSH1 0x1 PUSH1 0xA0 SHL SUB AND PUSH2 0x1F16 PUSH2 0x3DC6 JUMP JUMPDEST PUSH1 0x1 PUSH1 0x1 PUSH1 0xA0 SHL SUB AND EQ PUSH2 0x1F3C JUMPI PUSH1 0x40 MLOAD PUSH3 0x461BCD PUSH1 0xE5 SHL DUP2 MSTORE PUSH1 0x4 ADD PUSH2 0x9B6 SWAP1 PUSH2 0x4DF8 JUMP JUMPDEST PUSH1 0x7B SLOAD PUSH1 0xFF PUSH1 0x1 PUSH1 0xB0 SHL SWAP1 SWAP2 DIV AND ISZERO ISZERO DUP2 ISZERO ISZERO EQ ISZERO PUSH2 0x1F6D JUMPI PUSH1 0x40 MLOAD PUSH3 0x461BCD PUSH1 0xE5 SHL DUP2 MSTORE PUSH1 0x4 ADD PUSH2 0x9B6 SWAP1 PUSH2 0x4BE1 JUMP JUMPDEST PUSH1 0x7B DUP1 SLOAD PUSH1 0xFF PUSH1 0xB0 SHL NOT AND PUSH1 0x1 PUSH1 0xB0 SHL DUP4 ISZERO ISZERO DUP2 MUL SWAP2 SWAP1 SWAP2 OR SWAP2 DUP3 SWAP1 SSTORE PUSH1 0xFF SWAP2 DIV AND ISZERO PUSH2 0x1FC2 JUMPI PUSH1 0x40 MLOAD PUSH32 0x3D31B97EEF590DF350BB2CDBC390034C613C9F23EA6AE1906682628C85248B53 SWAP1 PUSH1 0x0 SWAP1 LOG1 PUSH2 0x1E3A JUMP JUMPDEST PUSH1 0x40 MLOAD PUSH32 0x763D36BFEDF6707954F8BB39C2011A58A47A54844F2B3CDCD326C71CAD0AA753 SWAP1 PUSH1 0x0 SWAP1 LOG1 POP JUMP JUMPDEST PUSH1 0x40 DUP1 MLOAD PUSH1 0x2 DUP1 DUP3 MSTORE PUSH1 0x60 DUP1 DUP4 ADD DUP5 MSTORE SWAP3 PUSH1 0x0 SWAP3 SWAP2 SWAP1 PUSH1 0x20 DUP4 ADD SWAP1 DUP1 CALLDATASIZE DUP4 CALLDATACOPY POP POP PUSH1 0x67 SLOAD DUP3 MLOAD SWAP3 SWAP4 POP PUSH1 0x1 PUSH1 0x1 PUSH1 0xA0 SHL SUB AND SWAP2 DUP4 SWAP2 POP PUSH1 0x0 SWAP1 PUSH2 0x2041 JUMPI PUSH4 0x4E487B71 PUSH1 0xE0 SHL PUSH1 0x0 MSTORE PUSH1 0x32 PUSH1 0x4 MSTORE PUSH1 0x24 PUSH1 0x0 REVERT JUMPDEST PUSH1 0x1 PUSH1 0x1 PUSH1 0xA0 SHL SUB SWAP3 DUP4 AND PUSH1 0x20 SWAP2 DUP3 MUL SWAP3 SWAP1 SWAP3 ADD ADD MSTORE PUSH1 0x68 SLOAD DUP3 MLOAD SWAP2 AND SWAP1 DUP3 SWAP1 PUSH1 0x1 SWAP1 DUP2 LT PUSH2 0x2080 JUMPI PUSH4 0x4E487B71 PUSH1 0xE0 SHL PUSH1 0x0 MSTORE PUSH1 0x32 PUSH1 0x4 MSTORE PUSH1 0x24 PUSH1 0x0 REVERT JUMPDEST PUSH1 0x1 PUSH1 0x1 PUSH1 0xA0 SHL SUB SWAP1 SWAP3 AND PUSH1 0x20 SWAP3 DUP4 MUL SWAP2 SWAP1 SWAP2 ADD SWAP1 SWAP2 ADD MSTORE SWAP1 POP SWAP1 JUMP JUMPDEST PUSH1 0x7B SLOAD PUSH1 0x1 PUSH1 0xB8 SHL SWAP1 DIV PUSH1 0xFF AND DUP2 JUMP JUMPDEST PUSH1 0x0 SLOAD PUSH2 0x100 SWAP1 DIV PUSH1 0xFF AND DUP1 PUSH2 0x20C6 JUMPI POP PUSH1 0x0 SLOAD PUSH1 0xFF AND ISZERO JUMPDEST PUSH2 0x20E2 JUMPI PUSH1 0x40 MLOAD PUSH3 0x461BCD PUSH1 0xE5 SHL DUP2 MSTORE PUSH1 0x4 ADD PUSH2 0x9B6 SWAP1 PUSH2 0x4DAA JUMP JUMPDEST PUSH1 0x0 SLOAD PUSH2 0x100 SWAP1 DIV PUSH1 0xFF AND ISZERO DUP1 ISZERO PUSH2 0x210D JUMPI PUSH1 0x0 DUP1 SLOAD PUSH1 0xFF NOT PUSH2 0xFF00 NOT SWAP1 SWAP2 AND PUSH2 0x100 OR AND PUSH1 0x1 OR SWAP1 SSTORE JUMPDEST PUSH1 0x66 DUP1 SLOAD PUSH1 0x1 PUSH1 0x1 PUSH1 0xA0 SHL SUB DUP1 DUP8 AND PUSH1 0x1 PUSH1 0x1 PUSH1 0xA0 SHL SUB NOT SWAP3 DUP4 AND OR SWAP1 SWAP3 SSTORE PUSH1 0x67 DUP1 SLOAD DUP7 DUP5 AND SWAP1 DUP4 AND OR SWAP1 SSTORE PUSH1 0x68 DUP1 SLOAD SWAP3 DUP6 AND SWAP3 SWAP1 SWAP2 AND SWAP2 SWAP1 SWAP2 OR SWAP1 SSTORE DUP1 ISZERO PUSH2 0x215C JUMPI PUSH1 0x0 DUP1 SLOAD PUSH2 0xFF00 NOT AND SWAP1 SSTORE JUMPDEST POP POP POP POP JUMP JUMPDEST PUSH1 0x6D SLOAD DUP2 JUMP JUMPDEST DUP1 PUSH1 0x8B PUSH1 0x0 PUSH2 0x2175 PUSH2 0x3DC6 JUMP JUMPDEST PUSH1 0x1 PUSH1 0x1 PUSH1 0xA0 SHL SUB AND DUP2 MSTORE PUSH1 0x20 DUP2 ADD SWAP2 SWAP1 SWAP2 MSTORE PUSH1 0x40 ADD PUSH1 0x0 KECCAK256 SLOAD LT ISZERO PUSH2 0x21AD JUMPI PUSH1 0x40 MLOAD PUSH3 0x461BCD PUSH1 0xE5 SHL DUP2 MSTORE PUSH1 0x4 ADD PUSH2 0x9B6 SWAP1 PUSH2 0x4FEB JUMP JUMPDEST PUSH1 0x8B PUSH1 0x0 PUSH2 0x21B9 PUSH2 0x3DC6 JUMP JUMPDEST PUSH1 0x1 PUSH1 0x1 PUSH1 0xA0 SHL SUB AND DUP2 MSTORE PUSH1 0x20 DUP2 ADD SWAP2 SWAP1 SWAP2 MSTORE PUSH1 0x40 ADD PUSH1 0x0 KECCAK256 SLOAD PUSH2 0x21EF JUMPI PUSH1 0x40 MLOAD PUSH3 0x461BCD PUSH1 0xE5 SHL DUP2 MSTORE PUSH1 0x4 ADD PUSH2 0x9B6 SWAP1 PUSH2 0x4B8C JUMP JUMPDEST PUSH1 0x0 PUSH20 0x0 PUSH4 0x4F160423 PUSH1 0x8B PUSH1 0x0 PUSH2 0x2217 PUSH2 0x3DC6 JUMP JUMPDEST PUSH1 0x1 PUSH1 0x1 PUSH1 0xA0 SHL SUB AND PUSH1 0x1 PUSH1 0x1 PUSH1 0xA0 SHL SUB AND DUP2 MSTORE PUSH1 0x20 ADD SWAP1 DUP2 MSTORE PUSH1 0x20 ADD PUSH1 0x0 KECCAK256 DUP5 PUSH1 0x7E PUSH1 0x40 MLOAD DUP5 PUSH4 0xFFFFFFFF AND PUSH1 0xE0 SHL DUP2 MSTORE PUSH1 0x4 ADD PUSH2 0x2258 SWAP4 SWAP3 SWAP2 SWAP1 PUSH2 0x4895 JUMP JUMPDEST PUSH1 0x20 PUSH1 0x40 MLOAD DUP1 DUP4 SUB DUP2 DUP7 DUP1 EXTCODESIZE ISZERO DUP1 ISZERO PUSH2 0x2270 JUMPI PUSH1 0x0 DUP1 REVERT JUMPDEST POP GAS DELEGATECALL ISZERO DUP1 ISZERO PUSH2 0x2284 JUMPI RETURNDATASIZE PUSH1 0x0 DUP1 RETURNDATACOPY RETURNDATASIZE PUSH1 0x0 REVERT JUMPDEST POP POP POP POP PUSH1 0x40 MLOAD RETURNDATASIZE PUSH1 0x1F NOT PUSH1 0x1F DUP3 ADD AND DUP3 ADD DUP1 PUSH1 0x40 MSTORE POP DUP2 ADD SWAP1 PUSH2 0x22A8 SWAP2 SWAP1 PUSH2 0x4630 JUMP JUMPDEST SWAP1 POP PUSH1 0x0 DUP1 PUSH20 0x0 PUSH4 0xF7AC9CBA PUSH1 0x8B PUSH1 0x0 PUSH2 0x22D3 PUSH2 0x3DC6 JUMP JUMPDEST PUSH1 0x1 PUSH1 0x1 PUSH1 0xA0 SHL SUB AND PUSH1 0x1 PUSH1 0x1 PUSH1 0xA0 SHL SUB AND DUP2 MSTORE PUSH1 0x20 ADD SWAP1 DUP2 MSTORE PUSH1 0x20 ADD PUSH1 0x0 KECCAK256 DUP7 PUSH1 0x7E PUSH1 0x88 PUSH1 0x40 MLOAD DUP6 PUSH4 0xFFFFFFFF AND PUSH1 0xE0 SHL DUP2 MSTORE PUSH1 0x4 ADD PUSH2 0x2317 SWAP5 SWAP4 SWAP3 SWAP2 SWAP1 PUSH2 0x48AB JUMP JUMPDEST PUSH1 0x40 DUP1 MLOAD DUP1 DUP4 SUB DUP2 DUP7 DUP1 EXTCODESIZE ISZERO DUP1 ISZERO PUSH2 0x232E JUMPI PUSH1 0x0 DUP1 REVERT JUMPDEST POP GAS DELEGATECALL ISZERO DUP1 ISZERO PUSH2 0x2342 JUMPI RETURNDATASIZE PUSH1 0x0 DUP1 RETURNDATACOPY RETURNDATASIZE PUSH1 0x0 REVERT JUMPDEST POP POP POP POP PUSH1 0x40 MLOAD RETURNDATASIZE PUSH1 0x1F NOT PUSH1 0x1F DUP3 ADD AND DUP3 ADD DUP1 PUSH1 0x40 MSTORE POP DUP2 ADD SWAP1 PUSH2 0x2366 SWAP2 SWAP1 PUSH2 0x46BA JUMP JUMPDEST SWAP1 SWAP3 POP SWAP1 POP PUSH1 0x0 PUSH2 0x2377 DUP5 DUP5 PUSH2 0x5177 JUMP JUMPDEST PUSH1 0x7B SLOAD SWAP1 SWAP2 POP PUSH1 0x1 PUSH1 0xC0 SHL SWAP1 DIV PUSH1 0xFF AND ISZERO PUSH2 0x27E2 JUMPI PUSH1 0x6F SLOAD ISZERO PUSH2 0x251E JUMPI DUP2 ISZERO PUSH2 0x251E JUMPI PUSH20 0x0 PUSH4 0x93AAEAF9 PUSH1 0x8B PUSH1 0x0 PUSH2 0x23C0 PUSH2 0x3DC6 JUMP JUMPDEST PUSH1 0x1 PUSH1 0x1 PUSH1 0xA0 SHL SUB AND PUSH1 0x1 PUSH1 0x1 PUSH1 0xA0 SHL SUB AND DUP2 MSTORE PUSH1 0x20 ADD SWAP1 DUP2 MSTORE PUSH1 0x20 ADD PUSH1 0x0 KECCAK256 DUP8 PUSH1 0x40 MLOAD DUP4 PUSH4 0xFFFFFFFF AND PUSH1 0xE0 SHL DUP2 MSTORE PUSH1 0x4 ADD PUSH2 0x23FE SWAP3 SWAP2 SWAP1 PUSH2 0x4887 JUMP JUMPDEST PUSH1 0x0 PUSH1 0x40 MLOAD DUP1 DUP4 SUB DUP2 DUP7 DUP1 EXTCODESIZE ISZERO DUP1 ISZERO PUSH2 0x2416 JUMPI PUSH1 0x0 DUP1 REVERT JUMPDEST POP GAS DELEGATECALL ISZERO DUP1 ISZERO PUSH2 0x242A JUMPI RETURNDATASIZE PUSH1 0x0 DUP1 RETURNDATACOPY RETURNDATASIZE PUSH1 0x0 REVERT JUMPDEST POP POP PUSH1 0x8E SLOAD PUSH1 0x1 PUSH1 0x1 PUSH1 0xA0 SHL SUB AND SWAP2 POP PUSH4 0xA9059CBB SWAP1 POP PUSH2 0x2449 PUSH2 0x3DC6 JUMP JUMPDEST DUP5 PUSH1 0x40 MLOAD DUP4 PUSH4 0xFFFFFFFF AND PUSH1 0xE0 SHL DUP2 MSTORE PUSH1 0x4 ADD PUSH2 0x2467 SWAP3 SWAP2 SWAP1 PUSH2 0x47FC JUMP JUMPDEST PUSH1 0x20 PUSH1 0x40 MLOAD DUP1 DUP4 SUB DUP2 PUSH1 0x0 DUP8 DUP1 EXTCODESIZE ISZERO DUP1 ISZERO PUSH2 0x2481 JUMPI PUSH1 0x0 DUP1 REVERT JUMPDEST POP GAS CALL ISZERO DUP1 ISZERO PUSH2 0x2495 JUMPI RETURNDATASIZE PUSH1 0x0 DUP1 RETURNDATACOPY RETURNDATASIZE PUSH1 0x0 REVERT JUMPDEST POP POP POP POP PUSH1 0x40 MLOAD RETURNDATASIZE PUSH1 0x1F NOT PUSH1 0x1F DUP3 ADD AND DUP3 ADD DUP1 PUSH1 0x40 MSTORE POP DUP2 ADD SWAP1 PUSH2 0x24B9 SWAP2 SWAP1 PUSH2 0x45FC JUMP JUMPDEST PUSH2 0x24D5 JUMPI PUSH1 0x40 MLOAD PUSH3 0x461BCD PUSH1 0xE5 SHL DUP2 MSTORE PUSH1 0x4 ADD PUSH2 0x9B6 SWAP1 PUSH2 0x506F JUMP JUMPDEST PUSH2 0x24DD PUSH2 0x3DC6 JUMP JUMPDEST PUSH1 0x1 PUSH1 0x1 PUSH1 0xA0 SHL SUB AND PUSH32 0xD93FC6D1E8779271F55CDB0D5F7B6B05BE64A2226A1AD050D3036F5609C1CDCF DUP4 PUSH1 0x40 MLOAD PUSH2 0x2515 SWAP2 SWAP1 PUSH2 0x487E JUMP JUMPDEST PUSH1 0x40 MLOAD DUP1 SWAP2 SUB SWAP1 LOG2 JUMPDEST DUP3 ISZERO PUSH2 0x25B9 JUMPI PUSH20 0x0 PUSH4 0x93AAEAF9 PUSH1 0x8B PUSH1 0x0 PUSH2 0x254A PUSH2 0x3DC6 JUMP JUMPDEST PUSH1 0x1 PUSH1 0x1 PUSH1 0xA0 SHL SUB AND PUSH1 0x1 PUSH1 0x1 PUSH1 0xA0 SHL SUB AND DUP2 MSTORE PUSH1 0x20 ADD SWAP1 DUP2 MSTORE PUSH1 0x20 ADD PUSH1 0x0 KECCAK256 DUP8 PUSH1 0x40 MLOAD DUP4 PUSH4 0xFFFFFFFF AND PUSH1 0xE0 SHL DUP2 MSTORE PUSH1 0x4 ADD PUSH2 0x2588 SWAP3 SWAP2 SWAP1 PUSH2 0x4887 JUMP JUMPDEST PUSH1 0x0 PUSH1 0x40 MLOAD DUP1 DUP4 SUB DUP2 DUP7 DUP1 EXTCODESIZE ISZERO DUP1 ISZERO PUSH2 0x25A0 JUMPI PUSH1 0x0 DUP1 REVERT JUMPDEST POP GAS DELEGATECALL ISZERO DUP1 ISZERO PUSH2 0x25B4 JUMPI RETURNDATASIZE PUSH1 0x0 DUP1 RETURNDATACOPY RETURNDATASIZE PUSH1 0x0 REVERT JUMPDEST POP POP POP POP JUMPDEST PUSH1 0x0 PUSH20 0x0 PUSH4 0x5EAC7AF3 PUSH1 0x8B PUSH1 0x0 PUSH2 0x25E1 PUSH2 0x3DC6 JUMP JUMPDEST PUSH1 0x1 PUSH1 0x1 PUSH1 0xA0 SHL SUB AND PUSH1 0x1 PUSH1 0x1 PUSH1 0xA0 SHL SUB AND DUP2 MSTORE PUSH1 0x20 ADD SWAP1 DUP2 MSTORE PUSH1 0x20 ADD PUSH1 0x0 KECCAK256 DUP9 PUSH1 0x40 MLOAD DUP4 PUSH4 0xFFFFFFFF AND PUSH1 0xE0 SHL DUP2 MSTORE PUSH1 0x4 ADD PUSH2 0x261F SWAP3 SWAP2 SWAP1 PUSH2 0x4887 JUMP JUMPDEST PUSH1 0x20 PUSH1 0x40 MLOAD DUP1 DUP4 SUB DUP2 DUP7 DUP1 EXTCODESIZE ISZERO DUP1 ISZERO PUSH2 0x2637 JUMPI PUSH1 0x0 DUP1 REVERT JUMPDEST POP GAS DELEGATECALL ISZERO DUP1 ISZERO PUSH2 0x264B JUMPI RETURNDATASIZE PUSH1 0x0 DUP1 RETURNDATACOPY RETURNDATASIZE PUSH1 0x0 REVERT JUMPDEST POP POP POP POP PUSH1 0x40 MLOAD RETURNDATASIZE PUSH1 0x1F NOT PUSH1 0x1F DUP3 ADD AND DUP3 ADD DUP1 PUSH1 0x40 MSTORE POP DUP2 ADD SWAP1 PUSH2 0x266F SWAP2 SWAP1 PUSH2 0x4630 JUMP JUMPDEST SWAP1 POP DUP1 ISZERO PUSH2 0x27E0 JUMPI PUSH20 0x0 PUSH4 0xEC8ECC02 PUSH1 0x8B PUSH1 0x0 PUSH2 0x269D PUSH2 0x3DC6 JUMP JUMPDEST PUSH1 0x1 PUSH1 0x1 PUSH1 0xA0 SHL SUB AND PUSH1 0x1 PUSH1 0x1 PUSH1 0xA0 SHL SUB AND DUP2 MSTORE PUSH1 0x20 ADD SWAP1 DUP2 MSTORE PUSH1 0x20 ADD PUSH1 0x0 KECCAK256 DUP9 PUSH1 0x40 MLOAD DUP4 PUSH4 0xFFFFFFFF AND PUSH1 0xE0 SHL DUP2 MSTORE PUSH1 0x4 ADD PUSH2 0x26DB SWAP3 SWAP2 SWAP1 PUSH2 0x4887 JUMP JUMPDEST PUSH1 0x0 PUSH1 0x40 MLOAD DUP1 DUP4 SUB DUP2 DUP7 DUP1 EXTCODESIZE ISZERO DUP1 ISZERO PUSH2 0x26F3 JUMPI PUSH1 0x0 DUP1 REVERT JUMPDEST POP GAS DELEGATECALL ISZERO DUP1 ISZERO PUSH2 0x2707 JUMPI RETURNDATASIZE PUSH1 0x0 DUP1 RETURNDATACOPY RETURNDATASIZE PUSH1 0x0 REVERT JUMPDEST POP POP PUSH1 0x8C SLOAD PUSH1 0x1 PUSH1 0x1 PUSH1 0xA0 SHL SUB AND SWAP2 POP PUSH4 0xA9059CBB SWAP1 POP PUSH2 0x2726 PUSH2 0x3DC6 JUMP JUMPDEST DUP4 PUSH1 0x40 MLOAD DUP4 PUSH4 0xFFFFFFFF AND PUSH1 0xE0 SHL DUP2 MSTORE PUSH1 0x4 ADD PUSH2 0x2744 SWAP3 SWAP2 SWAP1 PUSH2 0x47FC JUMP JUMPDEST PUSH1 0x20 PUSH1 0x40 MLOAD DUP1 DUP4 SUB DUP2 PUSH1 0x0 DUP8 DUP1 EXTCODESIZE ISZERO DUP1 ISZERO PUSH2 0x275E JUMPI PUSH1 0x0 DUP1 REVERT JUMPDEST POP GAS CALL ISZERO DUP1 ISZERO PUSH2 0x2772 JUMPI RETURNDATASIZE PUSH1 0x0 DUP1 RETURNDATACOPY RETURNDATASIZE PUSH1 0x0 REVERT JUMPDEST POP POP POP POP PUSH1 0x40 MLOAD RETURNDATASIZE PUSH1 0x1F NOT PUSH1 0x1F DUP3 ADD AND DUP3 ADD DUP1 PUSH1 0x40 MSTORE POP DUP2 ADD SWAP1 PUSH2 0x2796 SWAP2 SWAP1 PUSH2 0x45FC JUMP JUMPDEST POP PUSH2 0x279F PUSH2 0x3DC6 JUMP JUMPDEST PUSH1 0x1 PUSH1 0x1 PUSH1 0xA0 SHL SUB AND PUSH32 0x85082129D87B2FE11527CB1B3B7A520AEB5AA6913F88A3D8757FE40D1DB02FDD DUP3 PUSH1 0x40 MLOAD PUSH2 0x27D7 SWAP2 SWAP1 PUSH2 0x487E JUMP JUMPDEST PUSH1 0x40 MLOAD DUP1 SWAP2 SUB SWAP1 LOG2 JUMPDEST POP JUMPDEST DUP1 ISZERO PUSH2 0x14CE JUMPI PUSH1 0x8C SLOAD PUSH1 0x8D SLOAD PUSH1 0x40 MLOAD PUSH4 0x70A08231 PUSH1 0xE0 SHL DUP2 MSTORE DUP4 SWAP3 PUSH1 0x1 PUSH1 0x1 PUSH1 0xA0 SHL SUB SWAP1 DUP2 AND SWAP3 PUSH4 0x70A08231 SWAP3 PUSH2 0x281F SWAP3 SWAP1 SWAP2 AND SWAP1 PUSH1 0x4 ADD PUSH2 0x47C4 JUMP JUMPDEST PUSH1 0x20 PUSH1 0x40 MLOAD DUP1 DUP4 SUB DUP2 DUP7 DUP1 EXTCODESIZE ISZERO DUP1 ISZERO PUSH2 0x2837 JUMPI PUSH1 0x0 DUP1 REVERT JUMPDEST POP GAS STATICCALL ISZERO DUP1 ISZERO PUSH2 0x284B JUMPI RETURNDATASIZE PUSH1 0x0 DUP1 RETURNDATACOPY RETURNDATASIZE PUSH1 0x0 REVERT JUMPDEST POP POP POP POP PUSH1 0x40 MLOAD RETURNDATASIZE PUSH1 0x1F NOT PUSH1 0x1F DUP3 ADD AND DUP3 ADD DUP1 PUSH1 0x40 MSTORE POP DUP2 ADD SWAP1 PUSH2 0x286F SWAP2 SWAP1 PUSH2 0x4630 JUMP JUMPDEST LT ISZERO PUSH2 0x288D JUMPI PUSH1 0x40 MLOAD PUSH3 0x461BCD PUSH1 0xE5 SHL DUP2 MSTORE PUSH1 0x4 ADD PUSH2 0x9B6 SWAP1 PUSH2 0x4C23 JUMP JUMPDEST PUSH20 0x0 PUSH4 0xEAFF3050 PUSH1 0x8B PUSH1 0x0 PUSH2 0x28B3 PUSH2 0x3DC6 JUMP JUMPDEST PUSH1 0x1 PUSH1 0x1 PUSH1 0xA0 SHL SUB AND PUSH1 0x1 PUSH1 0x1 PUSH1 0xA0 SHL SUB AND DUP2 MSTORE PUSH1 0x20 ADD SWAP1 DUP2 MSTORE PUSH1 0x20 ADD PUSH1 0x0 KECCAK256 DUP8 PUSH1 0x7E PUSH1 0x40 MLOAD DUP5 PUSH4 0xFFFFFFFF AND PUSH1 0xE0 SHL DUP2 MSTORE PUSH1 0x4 ADD PUSH2 0x28F4 SWAP4 SWAP3 SWAP2 SWAP1 PUSH2 0x4895 JUMP JUMPDEST PUSH1 0x0 PUSH1 0x40 MLOAD DUP1 DUP4 SUB DUP2 DUP7 DUP1 EXTCODESIZE ISZERO DUP1 ISZERO PUSH2 0x290C JUMPI PUSH1 0x0 DUP1 REVERT JUMPDEST POP GAS DELEGATECALL ISZERO DUP1 ISZERO PUSH2 0x2920 JUMPI RETURNDATASIZE PUSH1 0x0 DUP1 RETURNDATACOPY RETURNDATASIZE PUSH1 0x0 REVERT JUMPDEST POP POP PUSH1 0x8D SLOAD PUSH1 0x1 PUSH1 0x1 PUSH1 0xA0 SHL SUB AND SWAP2 POP PUSH4 0xE4E103DC SWAP1 POP PUSH2 0x293F PUSH2 0x3DC6 JUMP JUMPDEST DUP4 PUSH1 0x40 MLOAD DUP4 PUSH4 0xFFFFFFFF AND PUSH1 0xE0 SHL DUP2 MSTORE PUSH1 0x4 ADD PUSH2 0x295D SWAP3 SWAP2 SWAP1 PUSH2 0x47FC JUMP JUMPDEST PUSH1 0x0 PUSH1 0x40 MLOAD DUP1 DUP4 SUB DUP2 PUSH1 0x0 DUP8 DUP1 EXTCODESIZE ISZERO DUP1 ISZERO PUSH2 0x2977 JUMPI PUSH1 0x0 DUP1 REVERT JUMPDEST POP GAS CALL ISZERO DUP1 ISZERO PUSH2 0x298B JUMPI RETURNDATASIZE PUSH1 0x0 DUP1 RETURNDATACOPY RETURNDATASIZE PUSH1 0x0 REVERT JUMPDEST POP POP POP POP PUSH2 0x2997 PUSH2 0x3DC6 JUMP JUMPDEST PUSH1 0x1 PUSH1 0x1 PUSH1 0xA0 SHL SUB AND PUSH32 0x115E2FE760F98D4FD0828D7741AE2070E7DB700F892EFBFE98448B53AC583886 DUP6 PUSH1 0x40 MLOAD PUSH2 0x29CF SWAP2 SWAP1 PUSH2 0x487E JUMP JUMPDEST PUSH1 0x40 MLOAD DUP1 SWAP2 SUB SWAP1 LOG2 PUSH2 0x29DF PUSH2 0x3DC6 JUMP JUMPDEST PUSH1 0x1 PUSH1 0x1 PUSH1 0xA0 SHL SUB AND PUSH32 0x723B06F6C3A94DC82019852E6AA01C0241FBA5F84410B9003DDC3440AD499E59 DUP5 PUSH1 0x40 MLOAD PUSH2 0x2A17 SWAP2 SWAP1 PUSH2 0x487E JUMP JUMPDEST PUSH1 0x40 MLOAD DUP1 SWAP2 SUB SWAP1 LOG2 POP POP POP POP POP JUMP JUMPDEST PUSH1 0x7D DUP1 SLOAD PUSH2 0x8EC SWAP1 PUSH2 0x51E5 JUMP JUMPDEST PUSH1 0x1 PUSH1 0x1 PUSH1 0xA0 SHL SUB DUP3 AND PUSH1 0x0 SWAP1 DUP2 MSTORE PUSH1 0x8B PUSH1 0x20 MSTORE PUSH1 0x40 DUP1 DUP3 KECCAK256 SWAP1 MLOAD PUSH4 0x7BD64E5D PUSH1 0xE1 SHL DUP2 MSTORE DUP3 SWAP2 DUP3 SWAP2 DUP3 SWAP2 PUSH20 0x0 SWAP2 PUSH4 0xF7AC9CBA SWAP2 PUSH2 0x2A8E SWAP2 DUP10 SWAP1 PUSH1 0x7E SWAP1 PUSH1 0x88 SWAP1 PUSH1 0x4 ADD PUSH2 0x48AB JUMP JUMPDEST PUSH1 0x40 DUP1 MLOAD DUP1 DUP4 SUB DUP2 DUP7 DUP1 EXTCODESIZE ISZERO DUP1 ISZERO PUSH2 0x2AA5 JUMPI PUSH1 0x0 DUP1 REVERT JUMPDEST POP GAS DELEGATECALL ISZERO DUP1 ISZERO PUSH2 0x2AB9 JUMPI RETURNDATASIZE PUSH1 0x0 DUP1 RETURNDATACOPY RETURNDATASIZE PUSH1 0x0 REVERT JUMPDEST POP POP POP POP PUSH1 0x40 MLOAD RETURNDATASIZE PUSH1 0x1F NOT PUSH1 0x1F DUP3 ADD AND DUP3 ADD DUP1 PUSH1 0x40 MSTORE POP DUP2 ADD SWAP1 PUSH2 0x2ADD SWAP2 SWAP1 PUSH2 0x46BA JUMP JUMPDEST SWAP1 SWAP8 SWAP1 SWAP7 POP SWAP5 POP POP POP POP POP JUMP JUMPDEST PUSH1 0x0 PUSH20 0x0 PUSH4 0xD4675770 PUSH1 0x8B PUSH1 0x0 PUSH2 0x2B12 PUSH2 0x3DC6 JUMP JUMPDEST PUSH1 0x1 PUSH1 0x1 PUSH1 0xA0 SHL SUB AND PUSH1 0x1 PUSH1 0x1 PUSH1 0xA0 SHL SUB AND DUP2 MSTORE PUSH1 0x20 ADD SWAP1 DUP2 MSTORE PUSH1 0x20 ADD PUSH1 0x0 KECCAK256 PUSH1 0x7E PUSH1 0x40 MLOAD DUP4 PUSH4 0xFFFFFFFF AND PUSH1 0xE0 SHL DUP2 MSTORE PUSH1 0x4 ADD PUSH2 0x2B51 SWAP3 SWAP2 SWAP1 PUSH2 0x4887 JUMP JUMPDEST PUSH1 0x20 PUSH1 0x40 MLOAD DUP1 DUP4 SUB DUP2 DUP7 DUP1 EXTCODESIZE ISZERO DUP1 ISZERO PUSH2 0x2B69 JUMPI PUSH1 0x0 DUP1 REVERT JUMPDEST POP GAS DELEGATECALL ISZERO DUP1 ISZERO PUSH2 0x2B7D JUMPI RETURNDATASIZE PUSH1 0x0 DUP1 RETURNDATACOPY RETURNDATASIZE PUSH1 0x0 REVERT JUMPDEST POP POP POP POP PUSH1 0x40 MLOAD RETURNDATASIZE PUSH1 0x1F NOT PUSH1 0x1F DUP3 ADD AND DUP3 ADD DUP1 PUSH1 0x40 MSTORE POP DUP2 ADD SWAP1 PUSH2 0x2BA1 SWAP2 SWAP1 PUSH2 0x4630 JUMP JUMPDEST SWAP1 POP PUSH1 0x0 DUP1 PUSH20 0x0 PUSH4 0x32A1B321 PUSH1 0x8B PUSH1 0x0 PUSH2 0x2BCC PUSH2 0x3DC6 JUMP JUMPDEST PUSH1 0x1 PUSH1 0x1 PUSH1 0xA0 SHL SUB AND PUSH1 0x1 PUSH1 0x1 PUSH1 0xA0 SHL SUB AND DUP2 MSTORE PUSH1 0x20 ADD SWAP1 DUP2 MSTORE PUSH1 0x20 ADD PUSH1 0x0 KECCAK256 PUSH1 0x7E PUSH1 0x88 PUSH1 0x40 MLOAD DUP5 PUSH4 0xFFFFFFFF AND PUSH1 0xE0 SHL DUP2 MSTORE PUSH1 0x4 ADD PUSH2 0x2C0E SWAP4 SWAP3 SWAP2 SWAP1 PUSH2 0x4895 JUMP JUMPDEST PUSH1 0x40 DUP1 MLOAD DUP1 DUP4 SUB DUP2 DUP7 DUP1 EXTCODESIZE ISZERO DUP1 ISZERO PUSH2 0x2C25 JUMPI PUSH1 0x0 DUP1 REVERT JUMPDEST POP GAS DELEGATECALL ISZERO DUP1 ISZERO PUSH2 0x2C39 JUMPI RETURNDATASIZE PUSH1 0x0 DUP1 RETURNDATACOPY RETURNDATASIZE PUSH1 0x0 REVERT JUMPDEST POP POP POP POP PUSH1 0x40 MLOAD RETURNDATASIZE PUSH1 0x1F NOT PUSH1 0x1F DUP3 ADD AND DUP3 ADD DUP1 PUSH1 0x40 MSTORE POP DUP2 ADD SWAP1 PUSH2 0x2C5D SWAP2 SWAP1 PUSH2 0x46BA JUMP JUMPDEST SWAP1 SWAP3 POP SWAP1 POP PUSH1 0x0 PUSH2 0x2C6E DUP5 DUP5 PUSH2 0x5177 JUMP JUMPDEST PUSH1 0x7B SLOAD SWAP1 SWAP2 POP PUSH1 0x1 PUSH1 0xC0 SHL SWAP1 DIV PUSH1 0xFF AND ISZERO PUSH2 0x30D1 JUMPI PUSH1 0x6F SLOAD ISZERO PUSH2 0x2E13 JUMPI DUP2 ISZERO PUSH2 0x2E13 JUMPI PUSH20 0x0 PUSH4 0x47DC9EEE PUSH1 0x8B PUSH1 0x0 PUSH2 0x2CB7 PUSH2 0x3DC6 JUMP JUMPDEST PUSH1 0x1 PUSH1 0x1 PUSH1 0xA0 SHL SUB AND PUSH1 0x1 PUSH1 0x1 PUSH1 0xA0 SHL SUB AND DUP2 MSTORE PUSH1 0x20 ADD SWAP1 DUP2 MSTORE PUSH1 0x20 ADD PUSH1 0x0 KECCAK256 PUSH1 0x40 MLOAD DUP3 PUSH4 0xFFFFFFFF AND PUSH1 0xE0 SHL DUP2 MSTORE PUSH1 0x4 ADD PUSH2 0x2CF3 SWAP2 SWAP1 PUSH2 0x487E JUMP JUMPDEST PUSH1 0x0 PUSH1 0x40 MLOAD DUP1 DUP4 SUB DUP2 DUP7 DUP1 EXTCODESIZE ISZERO DUP1 ISZERO PUSH2 0x2D0B JUMPI PUSH1 0x0 DUP1 REVERT JUMPDEST POP GAS DELEGATECALL ISZERO DUP1 ISZERO PUSH2 0x2D1F JUMPI RETURNDATASIZE PUSH1 0x0 DUP1 RETURNDATACOPY RETURNDATASIZE PUSH1 0x0 REVERT JUMPDEST POP POP PUSH1 0x8E SLOAD PUSH1 0x1 PUSH1 0x1 PUSH1 0xA0 SHL SUB AND SWAP2 POP PUSH4 0xA9059CBB SWAP1 POP PUSH2 0x2D3E PUSH2 0x3DC6 JUMP JUMPDEST DUP5 PUSH1 0x40 MLOAD DUP4 PUSH4 0xFFFFFFFF AND PUSH1 0xE0 SHL DUP2 MSTORE PUSH1 0x4 ADD PUSH2 0x2D5C SWAP3 SWAP2 SWAP1 PUSH2 0x47FC JUMP JUMPDEST PUSH1 0x20 PUSH1 0x40 MLOAD DUP1 DUP4 SUB DUP2 PUSH1 0x0 DUP8 DUP1 EXTCODESIZE ISZERO DUP1 ISZERO PUSH2 0x2D76 JUMPI PUSH1 0x0 DUP1 REVERT JUMPDEST POP GAS CALL ISZERO DUP1 ISZERO PUSH2 0x2D8A JUMPI RETURNDATASIZE PUSH1 0x0 DUP1 RETURNDATACOPY RETURNDATASIZE PUSH1 0x0 REVERT JUMPDEST POP POP POP POP PUSH1 0x40 MLOAD RETURNDATASIZE PUSH1 0x1F NOT PUSH1 0x1F DUP3 ADD AND DUP3 ADD DUP1 PUSH1 0x40 MSTORE POP DUP2 ADD SWAP1 PUSH2 0x2DAE SWAP2 SWAP1 PUSH2 0x45FC JUMP JUMPDEST PUSH2 0x2DCA JUMPI PUSH1 0x40 MLOAD PUSH3 0x461BCD PUSH1 0xE5 SHL DUP2 MSTORE PUSH1 0x4 ADD PUSH2 0x9B6 SWAP1 PUSH2 0x4BC3 JUMP JUMPDEST PUSH2 0x2DD2 PUSH2 0x3DC6 JUMP JUMPDEST PUSH1 0x1 PUSH1 0x1 PUSH1 0xA0 SHL SUB AND PUSH32 0xD93FC6D1E8779271F55CDB0D5F7B6B05BE64A2226A1AD050D3036F5609C1CDCF DUP4 PUSH1 0x40 MLOAD PUSH2 0x2E0A SWAP2 SWAP1 PUSH2 0x487E JUMP JUMPDEST PUSH1 0x40 MLOAD DUP1 SWAP2 SUB SWAP1 LOG2 JUMPDEST DUP3 ISZERO PUSH2 0x2EAC JUMPI PUSH20 0x0 PUSH4 0x47DC9EEE PUSH1 0x8B PUSH1 0x0 PUSH2 0x2E3F PUSH2 0x3DC6 JUMP JUMPDEST PUSH1 0x1 PUSH1 0x1 PUSH1 0xA0 SHL SUB AND PUSH1 0x1 PUSH1 0x1 PUSH1 0xA0 SHL SUB AND DUP2 MSTORE PUSH1 0x20 ADD SWAP1 DUP2 MSTORE PUSH1 0x20 ADD PUSH1 0x0 KECCAK256 PUSH1 0x40 MLOAD DUP3 PUSH4 0xFFFFFFFF AND PUSH1 0xE0 SHL DUP2 MSTORE PUSH1 0x4 ADD PUSH2 0x2E7B SWAP2 SWAP1 PUSH2 0x487E JUMP JUMPDEST PUSH1 0x0 PUSH1 0x40 MLOAD DUP1 DUP4 SUB DUP2 DUP7 DUP1 EXTCODESIZE ISZERO DUP1 ISZERO PUSH2 0x2E93 JUMPI PUSH1 0x0 DUP1 REVERT JUMPDEST POP GAS DELEGATECALL ISZERO DUP1 ISZERO PUSH2 0x2EA7 JUMPI RETURNDATASIZE PUSH1 0x0 DUP1 RETURNDATACOPY RETURNDATASIZE PUSH1 0x0 REVERT JUMPDEST POP POP POP POP JUMPDEST PUSH1 0x0 PUSH20 0x0 PUSH4 0x66F1DEE PUSH1 0x8B PUSH1 0x0 PUSH2 0x2ED4 PUSH2 0x3DC6 JUMP JUMPDEST PUSH1 0x1 PUSH1 0x1 PUSH1 0xA0 SHL SUB AND PUSH1 0x1 PUSH1 0x1 PUSH1 0xA0 SHL SUB AND DUP2 MSTORE PUSH1 0x20 ADD SWAP1 DUP2 MSTORE PUSH1 0x20 ADD PUSH1 0x0 KECCAK256 PUSH1 0x40 MLOAD DUP3 PUSH4 0xFFFFFFFF AND PUSH1 0xE0 SHL DUP2 MSTORE PUSH1 0x4 ADD PUSH2 0x2F10 SWAP2 SWAP1 PUSH2 0x487E JUMP JUMPDEST PUSH1 0x20 PUSH1 0x40 MLOAD DUP1 DUP4 SUB DUP2 DUP7 DUP1 EXTCODESIZE ISZERO DUP1 ISZERO PUSH2 0x2F28 JUMPI PUSH1 0x0 DUP1 REVERT JUMPDEST POP GAS DELEGATECALL ISZERO DUP1 ISZERO PUSH2 0x2F3C JUMPI RETURNDATASIZE PUSH1 0x0 DUP1 RETURNDATACOPY RETURNDATASIZE PUSH1 0x0 REVERT JUMPDEST POP POP POP POP PUSH1 0x40 MLOAD RETURNDATASIZE PUSH1 0x1F NOT PUSH1 0x1F DUP3 ADD AND DUP3 ADD DUP1 PUSH1 0x40 MSTORE POP DUP2 ADD SWAP1 PUSH2 0x2F60 SWAP2 SWAP1 PUSH2 0x4630 JUMP JUMPDEST SWAP1 POP DUP1 ISZERO PUSH2 0x30CF JUMPI PUSH20 0x0 PUSH4 0xF66D9A4D PUSH1 0x8B PUSH1 0x0 PUSH2 0x2F8E PUSH2 0x3DC6 JUMP JUMPDEST PUSH1 0x1 PUSH1 0x1 PUSH1 0xA0 SHL SUB AND PUSH1 0x1 PUSH1 0x1 PUSH1 0xA0 SHL SUB AND DUP2 MSTORE PUSH1 0x20 ADD SWAP1 DUP2 MSTORE PUSH1 0x20 ADD PUSH1 0x0 KECCAK256 PUSH1 0x40 MLOAD DUP3 PUSH4 0xFFFFFFFF AND PUSH1 0xE0 SHL DUP2 MSTORE PUSH1 0x4 ADD PUSH2 0x2FCA SWAP2 SWAP1 PUSH2 0x487E JUMP JUMPDEST PUSH1 0x0 PUSH1 0x40 MLOAD DUP1 DUP4 SUB DUP2 DUP7 DUP1 EXTCODESIZE ISZERO DUP1 ISZERO PUSH2 0x2FE2 JUMPI PUSH1 0x0 DUP1 REVERT JUMPDEST POP GAS DELEGATECALL ISZERO DUP1 ISZERO PUSH2 0x2FF6 JUMPI RETURNDATASIZE PUSH1 0x0 DUP1 RETURNDATACOPY RETURNDATASIZE PUSH1 0x0 REVERT JUMPDEST POP POP PUSH1 0x8C SLOAD PUSH1 0x1 PUSH1 0x1 PUSH1 0xA0 SHL SUB AND SWAP2 POP PUSH4 0xA9059CBB SWAP1 POP PUSH2 0x3015 PUSH2 0x3DC6 JUMP JUMPDEST DUP4 PUSH1 0x40 MLOAD DUP4 PUSH4 0xFFFFFFFF AND PUSH1 0xE0 SHL DUP2 MSTORE PUSH1 0x4 ADD PUSH2 0x3033 SWAP3 SWAP2 SWAP1 PUSH2 0x47FC JUMP JUMPDEST PUSH1 0x20 PUSH1 0x40 MLOAD DUP1 DUP4 SUB DUP2 PUSH1 0x0 DUP8 DUP1 EXTCODESIZE ISZERO DUP1 ISZERO PUSH2 0x304D JUMPI PUSH1 0x0 DUP1 REVERT JUMPDEST POP GAS CALL ISZERO DUP1 ISZERO PUSH2 0x3061 JUMPI RETURNDATASIZE PUSH1 0x0 DUP1 RETURNDATACOPY RETURNDATASIZE PUSH1 0x0 REVERT JUMPDEST POP POP POP POP PUSH1 0x40 MLOAD RETURNDATASIZE PUSH1 0x1F NOT PUSH1 0x1F DUP3 ADD AND DUP3 ADD DUP1 PUSH1 0x40 MSTORE POP DUP2 ADD SWAP1 PUSH2 0x3085 SWAP2 SWAP1 PUSH2 0x45FC JUMP JUMPDEST POP PUSH2 0x308E PUSH2 0x3DC6 JUMP JUMPDEST PUSH1 0x1 PUSH1 0x1 PUSH1 0xA0 SHL SUB AND PUSH32 0x85082129D87B2FE11527CB1B3B7A520AEB5AA6913F88A3D8757FE40D1DB02FDD DUP3 PUSH1 0x40 MLOAD PUSH2 0x30C6 SWAP2 SWAP1 PUSH2 0x487E JUMP JUMPDEST PUSH1 0x40 MLOAD DUP1 SWAP2 SUB SWAP1 LOG2 JUMPDEST POP JUMPDEST DUP1 ISZERO PUSH2 0x215C JUMPI PUSH1 0x8C SLOAD PUSH1 0x8D SLOAD PUSH1 0x40 MLOAD PUSH4 0x70A08231 PUSH1 0xE0 SHL DUP2 MSTORE DUP4 SWAP3 PUSH1 0x1 PUSH1 0x1 PUSH1 0xA0 SHL SUB SWAP1 DUP2 AND SWAP3 PUSH4 0x70A08231 SWAP3 PUSH2 0x310E SWAP3 SWAP1 SWAP2 AND SWAP1 PUSH1 0x4 ADD PUSH2 0x47C4 JUMP JUMPDEST PUSH1 0x20 PUSH1 0x40 MLOAD DUP1 DUP4 SUB DUP2 DUP7 DUP1 EXTCODESIZE ISZERO DUP1 ISZERO PUSH2 0x3126 JUMPI PUSH1 0x0 DUP1 REVERT JUMPDEST POP GAS STATICCALL ISZERO DUP1 ISZERO PUSH2 0x313A JUMPI RETURNDATASIZE PUSH1 0x0 DUP1 RETURNDATACOPY RETURNDATASIZE PUSH1 0x0 REVERT JUMPDEST POP POP POP POP PUSH1 0x40 MLOAD RETURNDATASIZE PUSH1 0x1F NOT PUSH1 0x1F DUP3 ADD AND DUP3 ADD DUP1 PUSH1 0x40 MSTORE POP DUP2 ADD SWAP1 PUSH2 0x315E SWAP2 SWAP1 PUSH2 0x4630 JUMP JUMPDEST LT ISZERO PUSH2 0x317C JUMPI PUSH1 0x40 MLOAD PUSH3 0x461BCD PUSH1 0xE5 SHL DUP2 MSTORE PUSH1 0x4 ADD PUSH2 0x9B6 SWAP1 PUSH2 0x4C23 JUMP JUMPDEST PUSH20 0x0 PUSH4 0x4142C652 PUSH1 0x8B PUSH1 0x0 PUSH2 0x31A2 PUSH2 0x3DC6 JUMP JUMPDEST PUSH1 0x1 PUSH1 0x1 PUSH1 0xA0 SHL SUB AND PUSH1 0x1 PUSH1 0x1 PUSH1 0xA0 SHL SUB AND DUP2 MSTORE PUSH1 0x20 ADD SWAP1 DUP2 MSTORE PUSH1 0x20 ADD PUSH1 0x0 KECCAK256 PUSH1 0x7E PUSH1 0x40 MLOAD DUP4 PUSH4 0xFFFFFFFF AND PUSH1 0xE0 SHL DUP2 MSTORE PUSH1 0x4 ADD PUSH2 0x31E1 SWAP3 SWAP2 SWAP1 PUSH2 0x4887 JUMP JUMPDEST PUSH1 0x0 PUSH1 0x40 MLOAD DUP1 DUP4 SUB DUP2 DUP7 DUP1 EXTCODESIZE ISZERO DUP1 ISZERO PUSH2 0x31F9 JUMPI PUSH1 0x0 DUP1 REVERT JUMPDEST POP GAS DELEGATECALL ISZERO DUP1 ISZERO PUSH2 0x320D JUMPI RETURNDATASIZE PUSH1 0x0 DUP1 RETURNDATACOPY RETURNDATASIZE PUSH1 0x0 REVERT JUMPDEST POP POP PUSH1 0x8D SLOAD PUSH1 0x1 PUSH1 0x1 PUSH1 0xA0 SHL SUB AND SWAP2 POP PUSH4 0xE4E103DC SWAP1 POP PUSH2 0x322C PUSH2 0x3DC6 JUMP JUMPDEST DUP4 PUSH1 0x40 MLOAD DUP4 PUSH4 0xFFFFFFFF AND PUSH1 0xE0 SHL DUP2 MSTORE PUSH1 0x4 ADD PUSH2 0x324A SWAP3 SWAP2 SWAP1 PUSH2 0x47FC JUMP JUMPDEST PUSH1 0x0 PUSH1 0x40 MLOAD DUP1 DUP4 SUB DUP2 PUSH1 0x0 DUP8 DUP1 EXTCODESIZE ISZERO DUP1 ISZERO PUSH2 0x3264 JUMPI PUSH1 0x0 DUP1 REVERT JUMPDEST POP GAS CALL ISZERO DUP1 ISZERO PUSH2 0x3278 JUMPI RETURNDATASIZE PUSH1 0x0 DUP1 RETURNDATACOPY RETURNDATASIZE PUSH1 0x0 REVERT JUMPDEST POP POP POP POP PUSH2 0x3284 PUSH2 0x3DC6 JUMP JUMPDEST PUSH1 0x1 PUSH1 0x1 PUSH1 0xA0 SHL SUB AND PUSH32 0x115E2FE760F98D4FD0828D7741AE2070E7DB700F892EFBFE98448B53AC583886 DUP6 PUSH1 0x40 MLOAD PUSH2 0x32BC SWAP2 SWAP1 PUSH2 0x487E JUMP JUMPDEST PUSH1 0x40 MLOAD DUP1 SWAP2 SUB SWAP1 LOG2 PUSH2 0x32CC PUSH2 0x3DC6 JUMP JUMPDEST PUSH1 0x1 PUSH1 0x1 PUSH1 0xA0 SHL SUB AND PUSH32 0x723B06F6C3A94DC82019852E6AA01C0241FBA5F84410B9003DDC3440AD499E59 DUP5 PUSH1 0x40 MLOAD PUSH2 0x3304 SWAP2 SWAP1 PUSH2 0x487E JUMP JUMPDEST PUSH1 0x40 MLOAD DUP1 SWAP2 SUB SWAP1 LOG2 POP POP POP POP JUMP JUMPDEST PUSH1 0x7B SLOAD PUSH1 0x1 PUSH1 0x1 PUSH1 0xA0 SHL SUB AND DUP2 JUMP JUMPDEST PUSH1 0x65 SLOAD PUSH1 0x40 MLOAD PUSH4 0x70A08231 PUSH1 0xE0 SHL DUP2 MSTORE PUSH1 0x0 SWAP2 PUSH1 0x1 PUSH1 0x1 PUSH1 0xA0 SHL SUB AND SWAP1 PUSH4 0x70A08231 SWAP1 PUSH2 0x3352 SWAP1 ADDRESS SWAP1 PUSH1 0x4 ADD PUSH2 0x47C4 JUMP JUMPDEST PUSH1 0x20 PUSH1 0x40 MLOAD DUP1 DUP4 SUB DUP2 DUP7 DUP1 EXTCODESIZE ISZERO DUP1 ISZERO PUSH2 0x336A JUMPI PUSH1 0x0 DUP1 REVERT JUMPDEST POP GAS STATICCALL ISZERO DUP1 ISZERO PUSH2 0x337E JUMPI RETURNDATASIZE PUSH1 0x0 DUP1 RETURNDATACOPY RETURNDATASIZE PUSH1 0x0 REVERT JUMPDEST POP POP POP POP PUSH1 0x40 MLOAD RETURNDATASIZE PUSH1 0x1F NOT PUSH1 0x1F DUP3 ADD AND DUP3 ADD DUP1 PUSH1 0x40 MSTORE POP DUP2 ADD SWAP1 PUSH2 0x33A2 SWAP2 SWAP1 PUSH2 0x4630 JUMP JUMPDEST SWAP1 POP SWAP1 JUMP JUMPDEST PUSH1 0x7A SLOAD PUSH1 0x1 PUSH1 0x1 PUSH1 0xA0 SHL SUB AND DUP2 JUMP JUMPDEST PUSH1 0x0 PUSH2 0x33C1 DUP3 PUSH2 0x416E JUMP JUMPDEST PUSH1 0xFF AND SWAP3 SWAP2 POP POP JUMP JUMPDEST PUSH1 0x73 SLOAD DUP2 JUMP JUMPDEST PUSH1 0x7B SLOAD PUSH1 0x1 PUSH1 0xB0 SHL SWAP1 DIV PUSH1 0xFF AND DUP1 ISZERO PUSH2 0x33EA JUMPI POP PUSH1 0x69 SLOAD TIMESTAMP GT JUMPDEST PUSH2 0x3406 JUMPI PUSH1 0x40 MLOAD PUSH3 0x461BCD PUSH1 0xE5 SHL DUP2 MSTORE PUSH1 0x4 ADD PUSH2 0x9B6 SWAP1 PUSH2 0x4EB9 JUMP JUMPDEST PUSH1 0x6A SLOAD PUSH1 0x69 SLOAD PUSH2 0x3416 SWAP2 SWAP1 PUSH2 0x5177 JUMP JUMPDEST TIMESTAMP LT PUSH2 0x3434 JUMPI PUSH1 0x40 MLOAD PUSH3 0x461BCD PUSH1 0xE5 SHL DUP2 MSTORE PUSH1 0x4 ADD PUSH2 0x9B6 SWAP1 PUSH2 0x49C5 JUMP JUMPDEST PUSH1 0x7B SLOAD PUSH1 0x1 PUSH1 0xB8 SHL SWAP1 DIV PUSH1 0xFF AND ISZERO PUSH2 0x345E JUMPI PUSH1 0x40 MLOAD PUSH3 0x461BCD PUSH1 0xE5 SHL DUP2 MSTORE PUSH1 0x4 ADD PUSH2 0x9B6 SWAP1 PUSH2 0x4998 JUMP JUMPDEST DUP3 DUP2 EQ PUSH2 0x347D JUMPI PUSH1 0x40 MLOAD PUSH3 0x461BCD PUSH1 0xE5 SHL DUP2 MSTORE PUSH1 0x4 ADD PUSH2 0x9B6 SWAP1 PUSH2 0x4A07 JUMP JUMPDEST PUSH1 0x0 DUP1 JUMPDEST DUP5 DUP2 LT ISZERO PUSH2 0x351E JUMPI PUSH1 0x71 SLOAD DUP7 DUP7 DUP4 DUP2 DUP2 LT PUSH2 0x34AC JUMPI PUSH4 0x4E487B71 PUSH1 0xE0 SHL PUSH1 0x0 MSTORE PUSH1 0x32 PUSH1 0x4 MSTORE PUSH1 0x24 PUSH1 0x0 REVERT JUMPDEST SWAP1 POP PUSH1 0x20 MUL ADD CALLDATALOAD LT ISZERO PUSH2 0x34D1 JUMPI PUSH1 0x40 MLOAD PUSH3 0x461BCD PUSH1 0xE5 SHL DUP2 MSTORE PUSH1 0x4 ADD PUSH2 0x9B6 SWAP1 PUSH2 0x4EF0 JUMP JUMPDEST PUSH2 0x350A DUP7 DUP7 DUP4 DUP2 DUP2 LT PUSH2 0x34F4 JUMPI PUSH4 0x4E487B71 PUSH1 0xE0 SHL PUSH1 0x0 MSTORE PUSH1 0x32 PUSH1 0x4 MSTORE PUSH1 0x24 PUSH1 0x0 REVERT JUMPDEST SWAP1 POP PUSH1 0x20 MUL ADD CALLDATALOAD DUP4 PUSH2 0x3E2C SWAP1 SWAP2 SWAP1 PUSH4 0xFFFFFFFF AND JUMP JUMPDEST SWAP2 POP DUP1 PUSH2 0x3516 DUP2 PUSH2 0x5220 JUMP JUMPDEST SWAP2 POP POP PUSH2 0x3481 JUMP JUMPDEST POP PUSH1 0x71 SLOAD PUSH1 0x8C SLOAD PUSH1 0x40 DUP1 MLOAD PUSH4 0x771A3A1D PUSH1 0xE0 SHL DUP2 MSTORE SWAP1 MLOAD PUSH1 0x0 SWAP3 PUSH1 0x1 PUSH1 0x1 PUSH1 0xA0 SHL SUB AND SWAP2 PUSH4 0x771A3A1D SWAP2 PUSH1 0x4 DUP1 DUP4 ADD SWAP3 PUSH1 0x20 SWAP3 SWAP2 SWAP1 DUP3 SWAP1 SUB ADD DUP2 DUP8 DUP8 DUP1 EXTCODESIZE ISZERO DUP1 ISZERO PUSH2 0x3568 JUMPI PUSH1 0x0 DUP1 REVERT JUMPDEST POP GAS CALL ISZERO DUP1 ISZERO PUSH2 0x357C JUMPI RETURNDATASIZE PUSH1 0x0 DUP1 RETURNDATACOPY RETURNDATASIZE PUSH1 0x0 REVERT JUMPDEST POP POP POP POP PUSH1 0x40 MLOAD RETURNDATASIZE PUSH1 0x1F NOT PUSH1 0x1F DUP3 ADD AND DUP3 ADD DUP1 PUSH1 0x40 MSTORE POP DUP2 ADD SWAP1 PUSH2 0x35A0 SWAP2 SWAP1 PUSH2 0x4630 JUMP JUMPDEST PUSH1 0x8C SLOAD SWAP1 SWAP2 POP PUSH1 0x0 SWAP1 PUSH1 0x1 PUSH1 0x1 PUSH1 0xA0 SHL SUB AND PUSH4 0xD1ECFC68 PUSH2 0x35BF PUSH2 0x3DC6 JUMP JUMPDEST PUSH1 0x40 MLOAD DUP3 PUSH4 0xFFFFFFFF AND PUSH1 0xE0 SHL DUP2 MSTORE PUSH1 0x4 ADD PUSH2 0x35DB SWAP2 SWAP1 PUSH2 0x47C4 JUMP JUMPDEST PUSH1 0x20 PUSH1 0x40 MLOAD DUP1 DUP4 SUB DUP2 PUSH1 0x0 DUP8 DUP1 EXTCODESIZE ISZERO DUP1 ISZERO PUSH2 0x35F5 JUMPI PUSH1 0x0 DUP1 REVERT JUMPDEST POP GAS CALL ISZERO DUP1 ISZERO PUSH2 0x3609 JUMPI RETURNDATASIZE PUSH1 0x0 DUP1 RETURNDATACOPY RETURNDATASIZE PUSH1 0x0 REVERT JUMPDEST POP POP POP POP PUSH1 0x40 MLOAD RETURNDATASIZE PUSH1 0x1F NOT PUSH1 0x1F DUP3 ADD AND DUP3 ADD DUP1 PUSH1 0x40 MSTORE POP DUP2 ADD SWAP1 PUSH2 0x362D SWAP2 SWAP1 PUSH2 0x45FC JUMP JUMPDEST PUSH2 0x3640 JUMPI PUSH2 0x363B DUP5 DUP4 PUSH2 0x3E14 JUMP JUMPDEST PUSH2 0x3643 JUMP JUMPDEST PUSH1 0x0 JUMPDEST PUSH1 0x6C SLOAD SWAP1 SWAP2 POP PUSH2 0x3653 SWAP1 DUP5 PUSH2 0x3E2C JUMP JUMPDEST PUSH2 0x366C DUP3 PUSH2 0x13AC DUP8 PUSH1 0x72 SLOAD PUSH2 0x3E2C SWAP1 SWAP2 SWAP1 PUSH4 0xFFFFFFFF AND JUMP JUMPDEST GT ISZERO PUSH2 0x368A JUMPI PUSH1 0x40 MLOAD PUSH3 0x461BCD PUSH1 0xE5 SHL DUP2 MSTORE PUSH1 0x4 ADD PUSH2 0x9B6 SWAP1 PUSH2 0x4C67 JUMP JUMPDEST PUSH1 0x0 PUSH2 0x3696 DUP6 DUP5 PUSH2 0xBED JUMP JUMPDEST PUSH1 0x8C SLOAD SWAP1 SWAP7 POP SWAP1 SWAP2 POP PUSH1 0x1 PUSH1 0x1 PUSH1 0xA0 SHL SUB AND PUSH4 0x23B872DD PUSH2 0x36B5 PUSH2 0x3DC6 JUMP JUMPDEST ADDRESS PUSH2 0x36C0 DUP6 DUP11 PUSH2 0x5177 JUMP JUMPDEST PUSH1 0x40 MLOAD DUP5 PUSH4 0xFFFFFFFF AND PUSH1 0xE0 SHL DUP2 MSTORE PUSH1 0x4 ADD PUSH2 0x36DE SWAP4 SWAP3 SWAP2 SWAP1 PUSH2 0x47D8 JUMP JUMPDEST PUSH1 0x20 PUSH1 0x40 MLOAD DUP1 DUP4 SUB DUP2 PUSH1 0x0 DUP8 DUP1 EXTCODESIZE ISZERO DUP1 ISZERO PUSH2 0x36F8 JUMPI PUSH1 0x0 DUP1 REVERT JUMPDEST POP GAS CALL ISZERO DUP1 ISZERO PUSH2 0x370C JUMPI RETURNDATASIZE PUSH1 0x0 DUP1 RETURNDATACOPY RETURNDATASIZE PUSH1 0x0 REVERT JUMPDEST POP POP POP POP PUSH1 0x40 MLOAD RETURNDATASIZE PUSH1 0x1F NOT PUSH1 0x1F DUP3 ADD AND DUP3 ADD DUP1 PUSH1 0x40 MSTORE POP DUP2 ADD SWAP1 PUSH2 0x3730 SWAP2 SWAP1 PUSH2 0x45FC JUMP JUMPDEST POP PUSH2 0x373B DUP6 DUP4 PUSH2 0x3E08 JUMP JUMPDEST SWAP5 POP DUP1 ISZERO PUSH2 0x383C JUMPI PUSH1 0x8C SLOAD PUSH1 0x40 DUP1 MLOAD PUSH4 0x4A5DB0A9 PUSH1 0xE0 SHL DUP2 MSTORE SWAP1 MLOAD PUSH1 0x1 PUSH1 0x1 PUSH1 0xA0 SHL SUB SWAP1 SWAP3 AND SWAP2 PUSH4 0xA9059CBB SWAP2 DUP4 SWAP2 PUSH4 0x4A5DB0A9 SWAP2 PUSH1 0x4 DUP1 DUP3 ADD SWAP3 PUSH1 0x20 SWAP3 SWAP1 SWAP2 SWAP1 DUP3 SWAP1 SUB ADD DUP2 PUSH1 0x0 DUP8 DUP1 EXTCODESIZE ISZERO DUP1 ISZERO PUSH2 0x3792 JUMPI PUSH1 0x0 DUP1 REVERT JUMPDEST POP GAS CALL ISZERO DUP1 ISZERO PUSH2 0x37A6 JUMPI RETURNDATASIZE PUSH1 0x0 DUP1 RETURNDATACOPY RETURNDATASIZE PUSH1 0x0 REVERT JUMPDEST POP POP POP POP PUSH1 0x40 MLOAD RETURNDATASIZE PUSH1 0x1F NOT PUSH1 0x1F DUP3 ADD AND DUP3 ADD DUP1 PUSH1 0x40 MSTORE POP DUP2 ADD SWAP1 PUSH2 0x37CA SWAP2 SWAP1 PUSH2 0x43C0 JUMP JUMPDEST DUP4 PUSH1 0x40 MLOAD DUP4 PUSH4 0xFFFFFFFF AND PUSH1 0xE0 SHL DUP2 MSTORE PUSH1 0x4 ADD PUSH2 0x37E8 SWAP3 SWAP2 SWAP1 PUSH2 0x47FC JUMP JUMPDEST PUSH1 0x20 PUSH1 0x40 MLOAD DUP1 DUP4 SUB DUP2 PUSH1 0x0 DUP8 DUP1 EXTCODESIZE ISZERO DUP1 ISZERO PUSH2 0x3802 JUMPI PUSH1 0x0 DUP1 REVERT JUMPDEST POP GAS CALL ISZERO DUP1 ISZERO PUSH2 0x3816 JUMPI RETURNDATASIZE PUSH1 0x0 DUP1 RETURNDATACOPY RETURNDATASIZE PUSH1 0x0 REVERT JUMPDEST POP POP POP POP PUSH1 0x40 MLOAD RETURNDATASIZE PUSH1 0x1F NOT PUSH1 0x1F DUP3 ADD AND DUP3 ADD DUP1 PUSH1 0x40 MSTORE POP DUP2 ADD SWAP1 PUSH2 0x383A SWAP2 SWAP1 PUSH2 0x45FC JUMP JUMPDEST POP JUMPDEST PUSH1 0x0 PUSH1 0x8B PUSH1 0x0 PUSH2 0x384A PUSH2 0x3DC6 JUMP JUMPDEST PUSH1 0x1 PUSH1 0x1 PUSH1 0xA0 SHL SUB AND DUP2 MSTORE PUSH1 0x20 DUP2 ADD SWAP2 SWAP1 SWAP2 MSTORE PUSH1 0x40 ADD PUSH1 0x0 SWAP1 DUP2 KECCAK256 SLOAD SWAP2 POP JUMPDEST DUP10 DUP2 LT ISZERO PUSH2 0x39B5 JUMPI PUSH1 0x0 DUP12 DUP12 DUP4 DUP2 DUP2 LT PUSH2 0x3893 JUMPI PUSH4 0x4E487B71 PUSH1 0xE0 SHL PUSH1 0x0 MSTORE PUSH1 0x32 PUSH1 0x4 MSTORE PUSH1 0x24 PUSH1 0x0 REVERT JUMPDEST PUSH1 0x8C SLOAD PUSH1 0x20 SWAP1 SWAP2 MUL SWAP3 SWAP1 SWAP3 ADD CALLDATALOAD SWAP3 POP POP PUSH1 0x1 PUSH1 0x1 PUSH1 0xA0 SHL SUB AND PUSH4 0xD1ECFC68 PUSH2 0x38B9 PUSH2 0x3DC6 JUMP JUMPDEST PUSH1 0x40 MLOAD DUP3 PUSH4 0xFFFFFFFF AND PUSH1 0xE0 SHL DUP2 MSTORE PUSH1 0x4 ADD PUSH2 0x38D5 SWAP2 SWAP1 PUSH2 0x47C4 JUMP JUMPDEST PUSH1 0x20 PUSH1 0x40 MLOAD DUP1 DUP4 SUB DUP2 PUSH1 0x0 DUP8 DUP1 EXTCODESIZE ISZERO DUP1 ISZERO PUSH2 0x38EF JUMPI PUSH1 0x0 DUP1 REVERT JUMPDEST POP GAS CALL ISZERO DUP1 ISZERO PUSH2 0x3903 JUMPI RETURNDATASIZE PUSH1 0x0 DUP1 RETURNDATACOPY RETURNDATASIZE PUSH1 0x0 REVERT JUMPDEST POP POP POP POP PUSH1 0x40 MLOAD RETURNDATASIZE PUSH1 0x1F NOT PUSH1 0x1F DUP3 ADD AND DUP3 ADD DUP1 PUSH1 0x40 MSTORE POP DUP2 ADD SWAP1 PUSH2 0x3927 SWAP2 SWAP1 PUSH2 0x45FC JUMP JUMPDEST PUSH2 0x393A JUMPI PUSH2 0x3935 DUP2 DUP8 PUSH2 0x3E14 JUMP JUMPDEST PUSH2 0x393D JUMP JUMPDEST PUSH1 0x0 JUMPDEST SWAP5 POP PUSH2 0x3949 DUP2 DUP8 PUSH2 0xBED JUMP JUMPDEST SWAP1 SWAP5 POP SWAP1 POP PUSH2 0x3958 DUP2 DUP7 PUSH2 0x3E08 JUMP JUMPDEST SWAP1 POP PUSH2 0x3992 PUSH2 0x3965 PUSH2 0x3DC6 JUMP JUMPDEST DUP3 DUP13 DUP13 DUP7 DUP2 DUP2 LT PUSH2 0x3986 JUMPI PUSH4 0x4E487B71 PUSH1 0xE0 SHL PUSH1 0x0 MSTORE PUSH1 0x32 PUSH1 0x4 MSTORE PUSH1 0x24 PUSH1 0x0 REVERT JUMPDEST SWAP1 POP PUSH1 0x20 MUL ADD CALLDATALOAD PUSH2 0x3FFA JUMP JUMPDEST PUSH1 0x72 SLOAD PUSH2 0x399F SWAP1 DUP3 PUSH2 0x3E2C JUMP JUMPDEST PUSH1 0x72 SSTORE POP DUP1 PUSH2 0x39AD DUP2 PUSH2 0x5220 JUMP JUMPDEST SWAP2 POP POP PUSH2 0x3869 JUMP JUMPDEST POP PUSH1 0x0 PUSH1 0x1 PUSH1 0x8B PUSH1 0x0 PUSH2 0x39C6 PUSH2 0x3DC6 JUMP JUMPDEST PUSH1 0x1 PUSH1 0x1 PUSH1 0xA0 SHL SUB AND DUP2 MSTORE PUSH1 0x20 DUP2 ADD SWAP2 SWAP1 SWAP2 MSTORE PUSH1 0x40 ADD PUSH1 0x0 KECCAK256 SLOAD PUSH2 0x39EA SWAP2 SWAP1 PUSH2 0x51CE JUMP JUMPDEST SWAP1 POP PUSH1 0x6C SLOAD PUSH1 0x72 SLOAD LT PUSH2 0x39FF JUMPI PUSH2 0x39FF PUSH2 0x3DCA JUMP JUMPDEST PUSH2 0x3A07 PUSH2 0x3DC6 JUMP JUMPDEST PUSH1 0x1 PUSH1 0x1 PUSH1 0xA0 SHL SUB AND PUSH32 0x852FE7A2AD7B2C8C0A0E9B927734FEB1ACC3E8BC608B8921D4C4768C6193C33B DUP13 DUP13 DUP13 DUP13 DUP8 DUP8 PUSH1 0x40 MLOAD PUSH2 0x3A49 SWAP7 SWAP6 SWAP5 SWAP4 SWAP3 SWAP2 SWAP1 PUSH2 0x48C6 JUMP JUMPDEST PUSH1 0x40 MLOAD DUP1 SWAP2 SUB SWAP1 LOG2 POP POP POP POP POP POP POP POP POP POP POP JUMP JUMPDEST PUSH1 0x7B SLOAD PUSH1 0x1 PUSH1 0xC8 SHL SWAP1 DIV PUSH1 0xFF AND DUP2 JUMP JUMPDEST PUSH1 0x8A DUP2 DUP2 SLOAD DUP2 LT PUSH2 0x3A7E JUMPI PUSH1 0x0 DUP1 REVERT JUMPDEST PUSH1 0x0 SWAP2 DUP3 MSTORE PUSH1 0x20 SWAP1 SWAP2 KECCAK256 PUSH1 0x2 SWAP1 SWAP2 MUL ADD DUP1 SLOAD PUSH1 0x1 SWAP1 SWAP2 ADD SLOAD PUSH1 0x1 PUSH1 0x1 PUSH1 0xA0 SHL SUB SWAP1 SWAP2 AND SWAP2 POP DUP3 JUMP JUMPDEST PUSH1 0x7A SLOAD PUSH1 0x1 PUSH1 0x1 PUSH1 0xA0 SHL SUB AND PUSH2 0x3ABA PUSH2 0x3DC6 JUMP JUMPDEST PUSH1 0x1 PUSH1 0x1 PUSH1 0xA0 SHL SUB AND EQ PUSH2 0x3AE0 JUMPI PUSH1 0x40 MLOAD PUSH3 0x461BCD PUSH1 0xE5 SHL DUP2 MSTORE PUSH1 0x4 ADD PUSH2 0x9B6 SWAP1 PUSH2 0x4DF8 JUMP JUMPDEST PUSH1 0x7B DUP1 SLOAD PUSH1 0x1 PUSH1 0x1 PUSH1 0xA0 SHL SUB NOT AND SWAP1 SSTORE JUMP JUMPDEST PUSH1 0x7E SLOAD PUSH1 0x7F SLOAD PUSH1 0x80 SLOAD PUSH1 0x81 SLOAD PUSH1 0x82 SLOAD PUSH1 0x83 SLOAD PUSH1 0x84 SLOAD PUSH1 0x85 SLOAD PUSH1 0x86 SLOAD PUSH1 0x87 SLOAD PUSH1 0xFF DUP1 DUP3 AND SWAP2 PUSH2 0x100 SWAP1 DIV AND DUP12 JUMP JUMPDEST PUSH1 0x7A SLOAD PUSH1 0x1 PUSH1 0x1 PUSH1 0xA0 SHL SUB AND PUSH2 0x3B33 PUSH2 0x3DC6 JUMP JUMPDEST PUSH1 0x1 PUSH1 0x1 PUSH1 0xA0 SHL SUB AND EQ PUSH2 0x3B59 JUMPI PUSH1 0x40 MLOAD PUSH3 0x461BCD PUSH1 0xE5 SHL DUP2 MSTORE PUSH1 0x4 ADD PUSH2 0x9B6 SWAP1 PUSH2 0x4DF8 JUMP JUMPDEST PUSH1 0x6B SLOAD PUSH1 0x6A SLOAD PUSH1 0x69 SLOAD PUSH2 0x3B6C SWAP2 SWAP1 PUSH2 0x5177 JUMP JUMPDEST PUSH2 0x3B76 SWAP2 SWAP1 PUSH2 0x5177 JUMP JUMPDEST TIMESTAMP LT ISZERO PUSH2 0x3B95 JUMPI PUSH1 0x40 MLOAD PUSH3 0x461BCD PUSH1 0xE5 SHL DUP2 MSTORE PUSH1 0x4 ADD PUSH2 0x9B6 SWAP1 PUSH2 0x5019 JUMP JUMPDEST DUP4 ISZERO PUSH2 0x3BEA JUMPI PUSH1 0x7B SLOAD PUSH1 0x1 PUSH1 0x1 PUSH1 0xA0 SHL SUB AND ISZERO PUSH2 0x3BD4 JUMPI PUSH1 0x7B SLOAD PUSH2 0x3BC1 SWAP1 PUSH1 0x1 PUSH1 0x1 PUSH1 0xA0 SHL SUB AND PUSH2 0x41EF JUMP JUMPDEST PUSH1 0x73 DUP2 SWAP1 SSTORE PUSH1 0x81 SSTORE PUSH1 0x77 SLOAD PUSH1 0x86 SSTORE PUSH2 0x3BE5 JUMP JUMPDEST PUSH1 0x73 DUP6 SWAP1 SSTORE PUSH1 0x81 DUP6 SWAP1 SSTORE PUSH1 0x77 SLOAD PUSH1 0x86 SSTORE JUMPDEST PUSH2 0x14CE JUMP JUMPDEST PUSH1 0x7B SLOAD PUSH1 0x1 PUSH1 0x1 PUSH1 0xA0 SHL SUB AND ISZERO PUSH2 0x3C69 JUMPI PUSH1 0x1 PUSH1 0x1 PUSH1 0xA0 SHL SUB DUP3 AND ISZERO PUSH2 0x3C42 JUMPI PUSH1 0x7B SLOAD PUSH2 0x3C1F SWAP1 PUSH1 0x1 PUSH1 0x1 PUSH1 0xA0 SHL SUB AND PUSH2 0x41EF JUMP JUMPDEST PUSH1 0x73 SSTORE PUSH2 0x3C2B DUP3 PUSH2 0x41EF JUMP JUMPDEST PUSH1 0x81 SSTORE PUSH2 0x3C37 DUP3 PUSH2 0x416E JUMP JUMPDEST PUSH1 0xFF AND PUSH1 0x86 SSTORE PUSH2 0x3BE5 JUMP JUMPDEST PUSH1 0x7B SLOAD PUSH2 0x3C57 SWAP1 PUSH1 0x1 PUSH1 0x1 PUSH1 0xA0 SHL SUB AND PUSH2 0x41EF JUMP JUMPDEST PUSH1 0x73 SSTORE PUSH1 0x81 DUP4 SWAP1 SSTORE PUSH1 0x86 DUP2 SWAP1 SSTORE PUSH2 0x14CE JUMP JUMPDEST PUSH1 0x1 PUSH1 0x1 PUSH1 0xA0 SHL SUB DUP3 AND ISZERO PUSH2 0x3C9D JUMPI PUSH1 0x73 DUP6 SWAP1 SSTORE PUSH2 0x3C86 DUP3 PUSH2 0x41EF JUMP JUMPDEST PUSH1 0x81 SSTORE PUSH2 0x3C92 DUP3 PUSH2 0x416E JUMP JUMPDEST PUSH1 0xFF AND PUSH1 0x86 SSTORE PUSH2 0x14CE JUMP JUMPDEST PUSH1 0x73 SWAP5 SWAP1 SWAP5 SSTORE POP PUSH1 0x81 SSTORE POP PUSH1 0x86 SSTORE JUMP JUMPDEST PUSH1 0x74 SLOAD DUP2 JUMP JUMPDEST PUSH1 0x77 SLOAD DUP2 JUMP JUMPDEST PUSH1 0x8C SLOAD PUSH1 0x1 PUSH1 0x1 PUSH1 0xA0 SHL SUB AND DUP2 JUMP JUMPDEST PUSH1 0x75 SLOAD DUP2 JUMP JUMPDEST PUSH1 0x88 DUP2 DUP2 SLOAD DUP2 LT PUSH2 0x3CDE JUMPI PUSH1 0x0 DUP1 REVERT JUMPDEST PUSH1 0x0 SWAP2 DUP3 MSTORE PUSH1 0x20 SWAP1 SWAP2 KECCAK256 PUSH1 0x2 SWAP1 SWAP2 MUL ADD DUP1 SLOAD PUSH1 0x1 SWAP1 SWAP2 ADD SLOAD SWAP1 SWAP2 POP DUP3 JUMP JUMPDEST PUSH2 0x3D04 PUSH2 0x3DC6 JUMP JUMPDEST PUSH1 0x1 PUSH1 0x1 PUSH1 0xA0 SHL SUB AND PUSH2 0x3D15 PUSH2 0x1EC5 JUMP JUMPDEST PUSH1 0x1 PUSH1 0x1 PUSH1 0xA0 SHL SUB AND EQ PUSH2 0x3D3B JUMPI PUSH1 0x40 MLOAD PUSH3 0x461BCD PUSH1 0xE5 SHL DUP2 MSTORE PUSH1 0x4 ADD PUSH2 0x9B6 SWAP1 PUSH2 0x4E39 JUMP JUMPDEST PUSH1 0x1 PUSH1 0x1 PUSH1 0xA0 SHL SUB DUP2 AND PUSH2 0x3D61 JUMPI PUSH1 0x40 MLOAD PUSH3 0x461BCD PUSH1 0xE5 SHL DUP2 MSTORE PUSH1 0x4 ADD PUSH2 0x9B6 SWAP1 PUSH2 0x4A9C JUMP JUMPDEST PUSH2 0x1E3A DUP2 PUSH2 0x3FA8 JUMP JUMPDEST PUSH1 0x76 SLOAD DUP2 JUMP JUMPDEST PUSH1 0x65 SLOAD PUSH1 0x1 PUSH1 0x1 PUSH1 0xA0 SHL SUB AND SWAP1 JUMP JUMPDEST PUSH1 0x8E SLOAD PUSH1 0x40 MLOAD PUSH4 0x70A08231 PUSH1 0xE0 SHL DUP2 MSTORE PUSH1 0x0 SWAP2 PUSH1 0x1 PUSH1 0x1 PUSH1 0xA0 SHL SUB AND SWAP1 PUSH4 0x70A08231 SWAP1 PUSH2 0x3352 SWAP1 ADDRESS SWAP1 PUSH1 0x4 ADD PUSH2 0x47C4 JUMP JUMPDEST PUSH1 0x69 SLOAD DUP2 JUMP JUMPDEST PUSH1 0x89 DUP2 DUP2 SLOAD DUP2 LT PUSH2 0x3A7E JUMPI PUSH1 0x0 DUP1 REVERT JUMPDEST CALLER SWAP1 JUMP JUMPDEST PUSH1 0x7B DUP1 SLOAD PUSH1 0xFF PUSH1 0xB8 SHL NOT AND PUSH1 0x1 PUSH1 0xB8 SHL OR SWAP1 SSTORE PUSH1 0x40 MLOAD PUSH32 0x2E136745550967F28B779CE8C395CA060A2F844EDFB5B06631FE677F66F9E305 SWAP1 PUSH1 0x0 SWAP1 LOG1 JUMP JUMPDEST PUSH1 0x0 PUSH2 0x16E3 DUP3 DUP5 PUSH2 0x51CE JUMP JUMPDEST PUSH1 0x0 PUSH2 0x16E3 PUSH2 0x2710 PUSH2 0x3E26 DUP6 DUP6 PUSH2 0x427E JUMP JUMPDEST SWAP1 PUSH2 0x428A JUMP JUMPDEST PUSH1 0x0 PUSH2 0x16E3 DUP3 DUP5 PUSH2 0x5177 JUMP JUMPDEST PUSH1 0x65 SLOAD PUSH1 0x40 MLOAD PUSH4 0x95EA7B3 PUSH1 0xE0 SHL DUP2 MSTORE PUSH1 0x1 PUSH1 0x1 PUSH1 0xA0 SHL SUB SWAP1 SWAP2 AND SWAP1 PUSH4 0x95EA7B3 SWAP1 PUSH2 0x3E6A SWAP1 DUP6 SWAP1 DUP6 SWAP1 PUSH1 0x4 ADD PUSH2 0x47FC JUMP JUMPDEST PUSH1 0x20 PUSH1 0x40 MLOAD DUP1 DUP4 SUB DUP2 PUSH1 0x0 DUP8 DUP1 EXTCODESIZE ISZERO DUP1 ISZERO PUSH2 0x3E84 JUMPI PUSH1 0x0 DUP1 REVERT JUMPDEST POP GAS CALL ISZERO DUP1 ISZERO PUSH2 0x3E98 JUMPI RETURNDATASIZE PUSH1 0x0 DUP1 RETURNDATACOPY RETURNDATASIZE PUSH1 0x0 REVERT JUMPDEST POP POP POP POP PUSH1 0x40 MLOAD RETURNDATASIZE PUSH1 0x1F NOT PUSH1 0x1F DUP3 ADD AND DUP3 ADD DUP1 PUSH1 0x40 MSTORE POP DUP2 ADD SWAP1 PUSH2 0x3EBC SWAP2 SWAP1 PUSH2 0x45FC JUMP JUMPDEST POP DUP2 PUSH1 0x1 PUSH1 0x1 PUSH1 0xA0 SHL SUB AND PUSH32 0xD77DF63D9076D067D9FD7AF16C3D67DB48B84064C3314F5900AE919922D364A1 DUP3 PUSH1 0x40 MLOAD PUSH2 0x3EF6 SWAP2 SWAP1 PUSH2 0x487E JUMP JUMPDEST PUSH1 0x40 MLOAD DUP1 SWAP2 SUB SWAP1 LOG2 POP POP JUMP JUMPDEST PUSH1 0x1 PUSH1 0x1 PUSH1 0xA0 SHL SUB DUP5 AND PUSH2 0x3F15 JUMPI PUSH1 0x0 DUP1 REVERT JUMPDEST PUSH1 0x66 SLOAD PUSH1 0x1 PUSH1 0x1 PUSH1 0xA0 SHL SUB AND PUSH4 0x38ED1739 DUP5 DUP5 PUSH2 0x3F30 PUSH2 0x1FEE JUMP JUMPDEST DUP9 DUP7 PUSH1 0x40 MLOAD DUP7 PUSH4 0xFFFFFFFF AND PUSH1 0xE0 SHL DUP2 MSTORE PUSH1 0x4 ADD PUSH2 0x3F52 SWAP6 SWAP5 SWAP4 SWAP3 SWAP2 SWAP1 PUSH2 0x50A6 JUMP JUMPDEST PUSH1 0x0 PUSH1 0x40 MLOAD DUP1 DUP4 SUB DUP2 PUSH1 0x0 DUP8 DUP1 EXTCODESIZE ISZERO DUP1 ISZERO PUSH2 0x3F6C JUMPI PUSH1 0x0 DUP1 REVERT JUMPDEST POP GAS CALL ISZERO DUP1 ISZERO PUSH2 0x3F80 JUMPI RETURNDATASIZE PUSH1 0x0 DUP1 RETURNDATACOPY RETURNDATASIZE PUSH1 0x0 REVERT JUMPDEST POP POP POP POP PUSH1 0x40 MLOAD RETURNDATASIZE PUSH1 0x0 DUP3 RETURNDATACOPY PUSH1 0x1F RETURNDATASIZE SWAP1 DUP2 ADD PUSH1 0x1F NOT AND DUP3 ADD PUSH1 0x40 MSTORE PUSH2 0x14CE SWAP2 SWAP1 DUP2 ADD SWAP1 PUSH2 0x4526 JUMP JUMPDEST PUSH1 0x33 DUP1 SLOAD PUSH1 0x1 PUSH1 0x1 PUSH1 0xA0 SHL SUB DUP4 DUP2 AND PUSH1 0x1 PUSH1 0x1 PUSH1 0xA0 SHL SUB NOT DUP4 AND DUP2 OR SWAP1 SWAP4 SSTORE PUSH1 0x40 MLOAD SWAP2 AND SWAP2 SWAP1 DUP3 SWAP1 PUSH32 0x8BE0079C531659141344CD1FD0A4F28419497F9722A3DAAFE3B4186F6B6457E0 SWAP1 PUSH1 0x0 SWAP1 LOG3 POP POP JUMP JUMPDEST PUSH1 0x40 DUP1 MLOAD DUP1 DUP3 ADD DUP3 MSTORE PUSH1 0x1 PUSH1 0x1 PUSH1 0xA0 SHL SUB DUP1 DUP7 AND DUP1 DUP4 MSTORE PUSH1 0x0 SWAP1 DUP2 MSTORE PUSH1 0x8B PUSH1 0x20 DUP2 DUP2 MSTORE DUP6 DUP4 KECCAK256 DUP1 SLOAD DUP3 DUP8 ADD SWAP1 DUP2 MSTORE PUSH1 0x89 DUP1 SLOAD PUSH1 0x1 DUP2 DUP2 ADD DUP4 SSTORE SWAP2 DUP8 MSTORE SWAP8 MLOAD PUSH1 0x2 SWAP9 DUP10 MUL PUSH32 0x5BFA74C743914028161AE645D300D90BBDC659F169CA1469EC86B4960F7266CB DUP2 ADD DUP1 SLOAD SWAP3 SWAP1 SWAP10 AND PUSH1 0x1 PUSH1 0x1 PUSH1 0xA0 SHL SUB NOT SWAP1 SWAP3 AND SWAP2 SWAP1 SWAP2 OR SWAP1 SWAP8 SSTORE SWAP1 MLOAD PUSH32 0x5BFA74C743914028161AE645D300D90BBDC659F169CA1469EC86B4960F7266CC SWAP1 SWAP7 ADD SWAP6 SWAP1 SWAP6 SSTORE SWAP2 DUP2 MSTORE DUP6 MLOAD PUSH2 0x120 DUP2 ADD DUP8 MSTORE DUP9 DUP2 MSTORE TIMESTAMP DUP2 DUP4 ADD DUP2 DUP2 MSTORE SWAP8 DUP3 ADD DUP6 DUP2 MSTORE PUSH1 0x60 DUP4 ADD SWAP2 DUP3 MSTORE PUSH1 0x80 DUP4 ADD DUP11 DUP2 MSTORE PUSH1 0x0 NOT PUSH1 0xA0 DUP6 ADD DUP2 DUP2 MSTORE PUSH1 0xC0 DUP7 ADD SWAP2 DUP3 MSTORE PUSH1 0xE0 DUP7 ADD DUP10 DUP2 MSTORE PUSH2 0x100 DUP8 DUP2 ADD DUP12 DUP2 MSTORE DUP11 SLOAD DUP1 DUP15 ADD DUP13 SSTORE SWAP11 DUP13 MSTORE SWAP9 SWAP1 SWAP11 KECCAK256 SWAP7 MLOAD PUSH1 0x8 SWAP1 SWAP10 MUL SWAP1 SWAP7 ADD SWAP8 DUP9 SSTORE SWAP11 MLOAD SWAP9 DUP8 ADD SWAP9 SWAP1 SWAP9 SSTORE SWAP1 MLOAD SWAP8 DUP6 ADD SWAP8 SWAP1 SWAP8 SSTORE MLOAD PUSH1 0x3 DUP5 ADD SSTORE SWAP5 MLOAD PUSH1 0x4 DUP4 ADD SSTORE SWAP5 MLOAD PUSH1 0x5 DUP3 ADD SSTORE SWAP2 MLOAD PUSH1 0x6 DUP4 ADD SSTORE SWAP2 MLOAD PUSH1 0x7 SWAP1 SWAP2 ADD DUP1 SLOAD SWAP4 MLOAD ISZERO ISZERO SWAP1 SWAP3 MUL PUSH2 0xFF00 NOT SWAP2 ISZERO ISZERO PUSH1 0xFF NOT SWAP5 SWAP1 SWAP5 AND SWAP4 SWAP1 SWAP4 OR AND SWAP2 SWAP1 SWAP2 OR SWAP1 SSTORE PUSH2 0x4169 DUP2 DUP4 PUSH2 0x4296 JUMP JUMPDEST POP POP POP JUMP JUMPDEST PUSH1 0x0 DUP1 DUP3 SWAP1 POP PUSH1 0x0 DUP2 PUSH1 0x1 PUSH1 0x1 PUSH1 0xA0 SHL SUB AND PUSH4 0x313CE567 PUSH1 0x40 MLOAD DUP2 PUSH4 0xFFFFFFFF AND PUSH1 0xE0 SHL DUP2 MSTORE PUSH1 0x4 ADD PUSH1 0x20 PUSH1 0x40 MLOAD DUP1 DUP4 SUB DUP2 DUP7 DUP1 EXTCODESIZE ISZERO DUP1 ISZERO PUSH2 0x41AF JUMPI PUSH1 0x0 DUP1 REVERT JUMPDEST POP GAS STATICCALL ISZERO DUP1 ISZERO PUSH2 0x41C3 JUMPI RETURNDATASIZE PUSH1 0x0 DUP1 RETURNDATACOPY RETURNDATASIZE PUSH1 0x0 REVERT JUMPDEST POP POP POP POP PUSH1 0x40 MLOAD RETURNDATASIZE PUSH1 0x1F NOT PUSH1 0x1F DUP3 ADD AND DUP3 ADD DUP1 PUSH1 0x40 MSTORE POP DUP2 ADD SWAP1 PUSH2 0x41E7 SWAP2 SWAP1 PUSH2 0x472C JUMP JUMPDEST SWAP5 SWAP4 POP POP POP POP JUMP JUMPDEST PUSH1 0x0 DUP1 DUP3 SWAP1 POP PUSH1 0x0 DUP2 PUSH1 0x1 PUSH1 0x1 PUSH1 0xA0 SHL SUB AND PUSH4 0xFEAF968C PUSH1 0x40 MLOAD DUP2 PUSH4 0xFFFFFFFF AND PUSH1 0xE0 SHL DUP2 MSTORE PUSH1 0x4 ADD PUSH1 0xA0 PUSH1 0x40 MLOAD DUP1 DUP4 SUB DUP2 DUP7 DUP1 EXTCODESIZE ISZERO DUP1 ISZERO PUSH2 0x4230 JUMPI PUSH1 0x0 DUP1 REVERT JUMPDEST POP GAS STATICCALL ISZERO DUP1 ISZERO PUSH2 0x4244 JUMPI RETURNDATASIZE PUSH1 0x0 DUP1 RETURNDATACOPY RETURNDATASIZE PUSH1 0x0 REVERT JUMPDEST POP POP POP POP PUSH1 0x40 MLOAD RETURNDATASIZE PUSH1 0x1F NOT PUSH1 0x1F DUP3 ADD AND DUP3 ADD DUP1 PUSH1 0x40 MSTORE POP DUP2 ADD SWAP1 PUSH2 0x4268 SWAP2 SWAP1 PUSH2 0x46DD JUMP JUMPDEST POP POP POP SWAP2 POP POP PUSH1 0x0 DUP2 SLT ISZERO PUSH2 0x16E3 JUMPI PUSH1 0x0 PUSH2 0x41E7 JUMP JUMPDEST PUSH1 0x0 PUSH2 0x16E3 DUP3 DUP5 PUSH2 0x51AF JUMP JUMPDEST PUSH1 0x0 PUSH2 0x16E3 DUP3 DUP5 PUSH2 0x518F JUMP JUMPDEST PUSH1 0x89 SLOAD PUSH1 0x0 SWAP1 PUSH2 0x42A8 SWAP1 PUSH1 0x1 SWAP1 PUSH2 0x51CE JUMP JUMPDEST SWAP1 POP DUP1 PUSH2 0x42B5 JUMPI PUSH1 0x78 DUP4 SWAP1 SSTORE JUMPDEST PUSH1 0x72 SLOAD PUSH2 0x42E8 SWAP1 PUSH2 0x42C6 SWAP1 DUP5 PUSH2 0x3E2C JUMP JUMPDEST PUSH2 0x3E26 PUSH2 0x42D3 DUP7 DUP7 PUSH2 0x427E JUMP JUMPDEST PUSH1 0x72 SLOAD PUSH1 0x78 SLOAD PUSH2 0x42E2 SWAP2 PUSH2 0x427E JUMP JUMPDEST SWAP1 PUSH2 0x3E2C JUMP JUMPDEST PUSH1 0x78 SSTORE POP POP POP JUMP JUMPDEST POP DUP1 SLOAD PUSH1 0x0 DUP3 SSTORE PUSH1 0x2 MUL SWAP1 PUSH1 0x0 MSTORE PUSH1 0x20 PUSH1 0x0 KECCAK256 SWAP1 DUP2 ADD SWAP1 PUSH2 0x1E3A SWAP2 SWAP1 JUMPDEST DUP1 DUP3 GT ISZERO PUSH2 0x4332 JUMPI DUP1 SLOAD PUSH1 0x1 PUSH1 0x1 PUSH1 0xA0 SHL SUB NOT AND DUP2 SSTORE PUSH1 0x0 PUSH1 0x1 DUP3 ADD SSTORE PUSH1 0x2 ADD PUSH2 0x430D JUMP JUMPDEST POP SWAP1 JUMP JUMPDEST DUP1 PUSH2 0x320 DUP2 ADD DUP4 LT ISZERO PUSH2 0x8D9 JUMPI PUSH1 0x0 DUP1 REVERT JUMPDEST PUSH1 0x0 DUP1 DUP4 PUSH1 0x1F DUP5 ADD SLT PUSH2 0x4359 JUMPI DUP2 DUP3 REVERT JUMPDEST POP DUP2 CALLDATALOAD PUSH8 0xFFFFFFFFFFFFFFFF DUP2 GT ISZERO PUSH2 0x4370 JUMPI DUP2 DUP3 REVERT JUMPDEST PUSH1 0x20 DUP4 ADD SWAP2 POP DUP4 PUSH1 0x20 DUP1 DUP4 MUL DUP6 ADD ADD GT ISZERO PUSH2 0xC47 JUMPI PUSH1 0x0 DUP1 REVERT JUMPDEST DUP1 MLOAD PUSH10 0xFFFFFFFFFFFFFFFFFFFF DUP2 AND DUP2 EQ PUSH2 0xD0D JUMPI PUSH1 0x0 DUP1 REVERT JUMPDEST PUSH1 0x0 PUSH1 0x20 DUP3 DUP5 SUB SLT ISZERO PUSH2 0x43B5 JUMPI DUP1 DUP2 REVERT JUMPDEST DUP2 CALLDATALOAD PUSH2 0x16E3 DUP2 PUSH2 0x5267 JUMP JUMPDEST PUSH1 0x0 PUSH1 0x20 DUP3 DUP5 SUB SLT ISZERO PUSH2 0x43D1 JUMPI DUP1 DUP2 REVERT JUMPDEST DUP2 MLOAD PUSH2 0x16E3 DUP2 PUSH2 0x5267 JUMP JUMPDEST PUSH1 0x0 DUP1 PUSH1 0x0 PUSH1 0x60 DUP5 DUP7 SUB SLT ISZERO PUSH2 0x43F0 JUMPI DUP2 DUP3 REVERT JUMPDEST DUP4 CALLDATALOAD PUSH2 0x43FB DUP2 PUSH2 0x5267 JUMP JUMPDEST SWAP3 POP PUSH1 0x20 DUP5 ADD CALLDATALOAD PUSH2 0x440B DUP2 PUSH2 0x5267 JUMP JUMPDEST SWAP2 POP PUSH1 0x40 DUP5 ADD CALLDATALOAD PUSH2 0x441B DUP2 PUSH2 0x5267 JUMP JUMPDEST DUP1 SWAP2 POP POP SWAP3 POP SWAP3 POP SWAP3 JUMP JUMPDEST PUSH1 0x0 DUP1 PUSH1 0x40 DUP4 DUP6 SUB SLT ISZERO PUSH2 0x4438 JUMPI DUP2 DUP3 REVERT JUMPDEST DUP3 CALLDATALOAD PUSH2 0x4443 DUP2 PUSH2 0x5267 JUMP JUMPDEST SWAP5 PUSH1 0x20 SWAP4 SWAP1 SWAP4 ADD CALLDATALOAD SWAP4 POP POP POP JUMP JUMPDEST PUSH1 0x0 DUP1 PUSH1 0x0 PUSH1 0x60 DUP5 DUP7 SUB SLT ISZERO PUSH2 0x4465 JUMPI DUP3 DUP4 REVERT JUMPDEST DUP4 CALLDATALOAD PUSH2 0x4470 DUP2 PUSH2 0x5267 JUMP JUMPDEST SWAP3 POP PUSH1 0x20 DUP5 ADD CALLDATALOAD SWAP2 POP PUSH1 0x40 DUP5 ADD CALLDATALOAD PUSH2 0x441B DUP2 PUSH2 0x5267 JUMP JUMPDEST PUSH1 0x0 DUP1 PUSH2 0x640 DUP4 DUP6 SUB SLT ISZERO PUSH2 0x449A JUMPI DUP2 DUP3 REVERT JUMPDEST PUSH2 0x44A4 DUP5 DUP5 PUSH2 0x4336 JUMP JUMPDEST SWAP2 POP PUSH2 0x44B4 DUP5 PUSH2 0x320 DUP6 ADD PUSH2 0x4336 JUMP JUMPDEST SWAP1 POP SWAP3 POP SWAP3 SWAP1 POP JUMP JUMPDEST PUSH1 0x0 DUP1 PUSH1 0x0 DUP1 PUSH1 0x40 DUP6 DUP8 SUB SLT ISZERO PUSH2 0x44D2 JUMPI DUP1 DUP2 REVERT JUMPDEST DUP5 CALLDATALOAD PUSH8 0xFFFFFFFFFFFFFFFF DUP1 DUP3 GT ISZERO PUSH2 0x44E9 JUMPI DUP3 DUP4 REVERT JUMPDEST PUSH2 0x44F5 DUP9 DUP4 DUP10 ADD PUSH2 0x4348 JUMP JUMPDEST SWAP1 SWAP7 POP SWAP5 POP PUSH1 0x20 DUP8 ADD CALLDATALOAD SWAP2 POP DUP1 DUP3 GT ISZERO PUSH2 0x450D JUMPI DUP3 DUP4 REVERT JUMPDEST POP PUSH2 0x451A DUP8 DUP3 DUP9 ADD PUSH2 0x4348 JUMP JUMPDEST SWAP6 SWAP9 SWAP5 SWAP8 POP SWAP6 POP POP POP POP JUMP JUMPDEST PUSH1 0x0 PUSH1 0x20 DUP1 DUP4 DUP6 SUB SLT ISZERO PUSH2 0x4538 JUMPI DUP2 DUP3 REVERT JUMPDEST DUP3 MLOAD PUSH8 0xFFFFFFFFFFFFFFFF DUP1 DUP3 GT ISZERO PUSH2 0x454F JUMPI DUP4 DUP5 REVERT JUMPDEST DUP2 DUP6 ADD SWAP2 POP DUP6 PUSH1 0x1F DUP4 ADD SLT PUSH2 0x4562 JUMPI DUP4 DUP5 REVERT JUMPDEST DUP2 MLOAD DUP2 DUP2 GT ISZERO PUSH2 0x4574 JUMPI PUSH2 0x4574 PUSH2 0x5251 JUMP JUMPDEST DUP4 DUP2 MUL PUSH1 0x40 MLOAD DUP6 DUP3 DUP3 ADD ADD DUP2 DUP2 LT DUP6 DUP3 GT OR ISZERO PUSH2 0x4593 JUMPI PUSH2 0x4593 PUSH2 0x5251 JUMP JUMPDEST PUSH1 0x40 MSTORE DUP3 DUP2 MSTORE DUP6 DUP2 ADD SWAP4 POP DUP5 DUP7 ADD DUP3 DUP7 ADD DUP8 ADD DUP11 LT ISZERO PUSH2 0x45B1 JUMPI DUP8 DUP9 REVERT JUMPDEST DUP8 SWAP6 POP JUMPDEST DUP4 DUP7 LT ISZERO PUSH2 0x45D3 JUMPI DUP1 MLOAD DUP6 MSTORE PUSH1 0x1 SWAP6 SWAP1 SWAP6 ADD SWAP5 SWAP4 DUP7 ADD SWAP4 DUP7 ADD PUSH2 0x45B5 JUMP JUMPDEST POP SWAP9 SWAP8 POP POP POP POP POP POP POP POP JUMP JUMPDEST PUSH1 0x0 PUSH1 0x20 DUP3 DUP5 SUB SLT ISZERO PUSH2 0x45F1 JUMPI DUP1 DUP2 REVERT JUMPDEST DUP2 CALLDATALOAD PUSH2 0x16E3 DUP2 PUSH2 0x527C JUMP JUMPDEST PUSH1 0x0 PUSH1 0x20 DUP3 DUP5 SUB SLT ISZERO PUSH2 0x460D JUMPI DUP1 DUP2 REVERT JUMPDEST DUP2 MLOAD PUSH2 0x16E3 DUP2 PUSH2 0x527C JUMP JUMPDEST PUSH1 0x0 PUSH1 0x20 DUP3 DUP5 SUB SLT ISZERO PUSH2 0x4629 JUMPI DUP1 DUP2 REVERT JUMPDEST POP CALLDATALOAD SWAP2 SWAP1 POP JUMP JUMPDEST PUSH1 0x0 PUSH1 0x20 DUP3 DUP5 SUB SLT ISZERO PUSH2 0x4641 JUMPI DUP1 DUP2 REVERT JUMPDEST POP MLOAD SWAP2 SWAP1 POP JUMP JUMPDEST PUSH1 0x0 DUP1 PUSH1 0x0 DUP1 PUSH1 0x0 PUSH1 0xA0 DUP7 DUP9 SUB SLT ISZERO PUSH2 0x465F JUMPI DUP3 DUP4 REVERT JUMPDEST DUP6 CALLDATALOAD SWAP5 POP PUSH1 0x20 DUP7 ADD CALLDATALOAD PUSH2 0x4671 DUP2 PUSH2 0x527C JUMP JUMPDEST SWAP4 POP PUSH1 0x40 DUP7 ADD CALLDATALOAD SWAP3 POP PUSH1 0x60 DUP7 ADD CALLDATALOAD PUSH2 0x4688 DUP2 PUSH2 0x5267 JUMP JUMPDEST SWAP5 SWAP8 SWAP4 SWAP7 POP SWAP2 SWAP5 PUSH1 0x80 ADD CALLDATALOAD SWAP3 SWAP2 POP POP JUMP JUMPDEST PUSH1 0x0 DUP1 PUSH1 0x40 DUP4 DUP6 SUB SLT ISZERO PUSH2 0x46AB JUMPI DUP2 DUP3 REVERT JUMPDEST POP POP DUP1 CALLDATALOAD SWAP3 PUSH1 0x20 SWAP1 SWAP2 ADD CALLDATALOAD SWAP2 POP JUMP JUMPDEST PUSH1 0x0 DUP1 PUSH1 0x40 DUP4 DUP6 SUB SLT ISZERO PUSH2 0x46CC JUMPI DUP2 DUP3 REVERT JUMPDEST POP POP DUP1 MLOAD PUSH1 0x20 SWAP1 SWAP2 ADD MLOAD SWAP1 SWAP3 SWAP1 SWAP2 POP JUMP JUMPDEST PUSH1 0x0 DUP1 PUSH1 0x0 DUP1 PUSH1 0x0 PUSH1 0xA0 DUP7 DUP9 SUB SLT ISZERO PUSH2 0x46F4 JUMPI DUP3 DUP4 REVERT JUMPDEST PUSH2 0x46FD DUP7 PUSH2 0x438A JUMP JUMPDEST SWAP5 POP PUSH1 0x20 DUP7 ADD MLOAD SWAP4 POP PUSH1 0x40 DUP7 ADD MLOAD SWAP3 POP PUSH1 0x60 DUP7 ADD MLOAD SWAP2 POP PUSH2 0x4720 PUSH1 0x80 DUP8 ADD PUSH2 0x438A JUMP JUMPDEST SWAP1 POP SWAP3 SWAP6 POP SWAP3 SWAP6 SWAP1 SWAP4 POP JUMP JUMPDEST PUSH1 0x0 PUSH1 0x20 DUP3 DUP5 SUB SLT ISZERO PUSH2 0x473D JUMPI DUP1 DUP2 REVERT JUMPDEST DUP2 MLOAD PUSH1 0xFF DUP2 AND DUP2 EQ PUSH2 0x16E3 JUMPI DUP2 DUP3 REVERT JUMPDEST PUSH1 0x0 DUP2 MLOAD DUP1 DUP5 MSTORE PUSH1 0x20 DUP1 DUP6 ADD SWAP5 POP DUP1 DUP5 ADD DUP4 JUMPDEST DUP4 DUP2 LT ISZERO PUSH2 0x4785 JUMPI DUP2 MLOAD PUSH1 0x1 PUSH1 0x1 PUSH1 0xA0 SHL SUB AND DUP8 MSTORE SWAP6 DUP3 ADD SWAP6 SWAP1 DUP3 ADD SWAP1 PUSH1 0x1 ADD PUSH2 0x4760 JUMP JUMPDEST POP SWAP5 SWAP6 SWAP5 POP POP POP POP POP JUMP JUMPDEST DUP2 DUP4 MSTORE PUSH1 0x0 PUSH1 0x1 PUSH1 0x1 PUSH1 0xFB SHL SUB DUP4 GT ISZERO PUSH2 0x47A8 JUMPI DUP1 DUP2 REVERT JUMPDEST PUSH1 0x20 DUP4 MUL DUP1 DUP4 PUSH1 0x20 DUP8 ADD CALLDATACOPY SWAP4 SWAP1 SWAP4 ADD PUSH1 0x20 ADD SWAP3 DUP4 MSTORE POP SWAP1 SWAP2 SWAP1 POP JUMP JUMPDEST PUSH1 0x1 PUSH1 0x1 PUSH1 0xA0 SHL SUB SWAP2 SWAP1 SWAP2 AND DUP2 MSTORE PUSH1 0x20 ADD SWAP1 JUMP JUMPDEST PUSH1 0x1 PUSH1 0x1 PUSH1 0xA0 SHL SUB SWAP4 DUP5 AND DUP2 MSTORE SWAP2 SWAP1 SWAP3 AND PUSH1 0x20 DUP3 ADD MSTORE PUSH1 0x40 DUP2 ADD SWAP2 SWAP1 SWAP2 MSTORE PUSH1 0x60 ADD SWAP1 JUMP JUMPDEST PUSH1 0x1 PUSH1 0x1 PUSH1 0xA0 SHL SUB SWAP3 SWAP1 SWAP3 AND DUP3 MSTORE PUSH1 0x20 DUP3 ADD MSTORE PUSH1 0x40 ADD SWAP1 JUMP JUMPDEST PUSH1 0x0 PUSH1 0x20 DUP3 MSTORE PUSH2 0x16E3 PUSH1 0x20 DUP4 ADD DUP5 PUSH2 0x474D JUMP JUMPDEST PUSH1 0x0 PUSH1 0x40 DUP3 MSTORE PUSH2 0x483B PUSH1 0x40 DUP4 ADD DUP6 PUSH2 0x474D JUMP JUMPDEST DUP3 DUP2 SUB PUSH1 0x20 DUP5 DUP2 ADD SWAP2 SWAP1 SWAP2 MSTORE DUP5 MLOAD DUP1 DUP4 MSTORE DUP6 DUP3 ADD SWAP3 DUP3 ADD SWAP1 DUP5 JUMPDEST DUP2 DUP2 LT ISZERO PUSH2 0x4871 JUMPI DUP5 MLOAD DUP4 MSTORE SWAP4 DUP4 ADD SWAP4 SWAP2 DUP4 ADD SWAP2 PUSH1 0x1 ADD PUSH2 0x4855 JUMP JUMPDEST POP SWAP1 SWAP8 SWAP7 POP POP POP POP POP POP POP JUMP JUMPDEST SWAP1 DUP2 MSTORE PUSH1 0x20 ADD SWAP1 JUMP JUMPDEST SWAP2 DUP3 MSTORE PUSH1 0x20 DUP3 ADD MSTORE PUSH1 0x40 ADD SWAP1 JUMP JUMPDEST SWAP3 DUP4 MSTORE PUSH1 0x20 DUP4 ADD SWAP2 SWAP1 SWAP2 MSTORE PUSH1 0x40 DUP3 ADD MSTORE PUSH1 0x60 ADD SWAP1 JUMP JUMPDEST SWAP4 DUP5 MSTORE PUSH1 0x20 DUP5 ADD SWAP3 SWAP1 SWAP3 MSTORE PUSH1 0x40 DUP4 ADD MSTORE PUSH1 0x60 DUP3 ADD MSTORE PUSH1 0x80 ADD SWAP1 JUMP JUMPDEST PUSH1 0x0 PUSH1 0x80 DUP3 MSTORE PUSH2 0x48DA PUSH1 0x80 DUP4 ADD DUP9 DUP11 PUSH2 0x4790 JUMP JUMPDEST DUP3 DUP2 SUB PUSH1 0x20 DUP5 ADD MSTORE PUSH2 0x48ED DUP2 DUP8 DUP10 PUSH2 0x4790 JUMP JUMPDEST PUSH1 0x40 DUP5 ADD SWAP6 SWAP1 SWAP6 MSTORE POP POP PUSH1 0x60 ADD MSTORE SWAP5 SWAP4 POP POP POP POP JUMP JUMPDEST SWAP1 ISZERO ISZERO DUP2 MSTORE PUSH1 0x20 ADD SWAP1 JUMP JUMPDEST PUSH1 0x0 PUSH1 0x20 DUP1 DUP4 MSTORE DUP4 MLOAD DUP1 DUP3 DUP6 ADD MSTORE DUP3 JUMPDEST DUP2 DUP2 LT ISZERO PUSH2 0x493A JUMPI DUP6 DUP2 ADD DUP4 ADD MLOAD DUP6 DUP3 ADD PUSH1 0x40 ADD MSTORE DUP3 ADD PUSH2 0x491E JUMP JUMPDEST DUP2 DUP2 GT ISZERO PUSH2 0x494B JUMPI DUP4 PUSH1 0x40 DUP4 DUP8 ADD ADD MSTORE JUMPDEST POP PUSH1 0x1F ADD PUSH1 0x1F NOT AND SWAP3 SWAP1 SWAP3 ADD PUSH1 0x40 ADD SWAP4 SWAP3 POP POP POP JUMP JUMPDEST PUSH1 0x20 DUP1 DUP3 MSTORE PUSH1 0x17 SWAP1 DUP3 ADD MSTORE PUSH32 0x30333831207468697320696E6465782065786365656473000000000000000000 PUSH1 0x40 DUP3 ADD MSTORE PUSH1 0x60 ADD SWAP1 JUMP JUMPDEST PUSH1 0x20 DUP1 DUP3 MSTORE PUSH1 0x13 SWAP1 DUP3 ADD MSTORE PUSH19 0xC0CCC4C08141BDBDB081A5CC81B1BD8DAD959 PUSH1 0x6A SHL PUSH1 0x40 DUP3 ADD MSTORE PUSH1 0x60 ADD SWAP1 JUMP JUMPDEST PUSH1 0x20 DUP1 DUP3 MSTORE PUSH1 0x22 SWAP1 DUP3 ADD MSTORE PUSH32 0x303331362043616E206E6F74207374616B65206166746572206C6F636B206461 PUSH1 0x40 DUP3 ADD MSTORE PUSH2 0x7465 PUSH1 0xF0 SHL PUSH1 0x60 DUP3 ADD MSTORE PUSH1 0x80 ADD SWAP1 JUMP JUMPDEST PUSH1 0x20 DUP1 DUP3 MSTORE PUSH1 0x32 SWAP1 DUP3 ADD MSTORE PUSH32 0x30333135207374616B696E67416D6F756E7420616E642070726564696374696F PUSH1 0x40 DUP3 ADD MSTORE PUSH18 0xDCE640D8CADCCEE8D040DAD2E6DAC2E8C6D PUSH1 0x73 SHL PUSH1 0x60 DUP3 ADD MSTORE PUSH1 0x80 ADD SWAP1 JUMP JUMPDEST PUSH1 0x20 DUP1 DUP3 MSTORE PUSH1 0x23 SWAP1 DUP3 ADD MSTORE PUSH32 0x303334302054686520706F6F6C206973206F6E6C7920544F544D207265776172 PUSH1 0x40 DUP3 ADD MSTORE PUSH3 0x3232B9 PUSH1 0xE9 SHL PUSH1 0x60 DUP3 ADD MSTORE PUSH1 0x80 ADD SWAP1 JUMP JUMPDEST PUSH1 0x20 DUP1 DUP3 MSTORE PUSH1 0x26 SWAP1 DUP3 ADD MSTORE PUSH32 0x4F776E61626C653A206E6577206F776E657220697320746865207A65726F2061 PUSH1 0x40 DUP3 ADD MSTORE PUSH6 0x646472657373 PUSH1 0xD0 SHL PUSH1 0x60 DUP3 ADD MSTORE PUSH1 0x80 ADD SWAP1 JUMP JUMPDEST PUSH1 0x20 DUP1 DUP3 MSTORE PUSH1 0x2C SWAP1 DUP3 ADD MSTORE PUSH32 0x303336302043616E277420656E6420706F6F6C206265666F726520746865206D PUSH1 0x40 DUP3 ADD MSTORE PUSH12 0x617475726974792074696D65 PUSH1 0xA0 SHL PUSH1 0x60 DUP3 ADD MSTORE PUSH1 0x80 ADD SWAP1 JUMP JUMPDEST PUSH1 0x20 DUP1 DUP3 MSTORE PUSH1 0x16 SWAP1 DUP3 ADD MSTORE PUSH22 0xC0CCD8C88199A5C9CDD081CDA1BDD5B19081CDBDC9D PUSH1 0x52 SHL PUSH1 0x40 DUP3 ADD MSTORE PUSH1 0x60 ADD SWAP1 JUMP JUMPDEST PUSH1 0x20 DUP1 DUP3 MSTORE PUSH1 0x14 SWAP1 DUP3 ADD MSTORE PUSH20 0x3033343220446561646C696E65206973206C6F77 PUSH1 0x60 SHL PUSH1 0x40 DUP3 ADD MSTORE PUSH1 0x60 ADD SWAP1 JUMP JUMPDEST PUSH1 0x20 DUP1 DUP3 MSTORE PUSH1 0x1D SWAP1 DUP3 ADD MSTORE PUSH32 0x5573657220646F6573206E6F74206861766520616E79207374616B6573000000 PUSH1 0x40 DUP3 ADD MSTORE PUSH1 0x60 ADD SWAP1 JUMP JUMPDEST PUSH1 0x20 DUP1 DUP3 MSTORE PUSH1 0x4 SWAP1 DUP3 ADD MSTORE PUSH4 0x3033323 PUSH1 0xE4 SHL PUSH1 0x40 DUP3 ADD MSTORE PUSH1 0x60 ADD SWAP1 JUMP JUMPDEST PUSH1 0x20 DUP1 DUP3 MSTORE PUSH1 0x22 SWAP1 DUP3 ADD MSTORE PUSH32 0x4E6F74206368616E67696E67207468652061637469766174696F6E2073746174 PUSH1 0x40 DUP3 ADD MSTORE PUSH2 0x7573 PUSH1 0xF0 SHL PUSH1 0x60 DUP3 ADD MSTORE PUSH1 0x80 ADD SWAP1 JUMP JUMPDEST PUSH1 0x20 DUP1 DUP3 MSTORE PUSH1 0x24 SWAP1 DUP3 ADD MSTORE PUSH32 0x4E6F7420656E6F7567682062616C616E636520696E20726577617264206D616E PUSH1 0x40 DUP3 ADD MSTORE PUSH4 0x30B3B2B9 PUSH1 0xE1 SHL PUSH1 0x60 DUP3 ADD MSTORE PUSH1 0x80 ADD SWAP1 JUMP JUMPDEST PUSH1 0x20 DUP1 DUP3 MSTORE PUSH1 0x26 SWAP1 DUP3 ADD MSTORE PUSH32 0x303331322043616E2774207374616B652061626F76652073697A6520616C6C6F PUSH1 0x40 DUP3 ADD MSTORE PUSH6 0x31B0BA34B7B7 PUSH1 0xD1 SHL PUSH1 0x60 DUP3 ADD MSTORE PUSH1 0x80 ADD SWAP1 JUMP JUMPDEST PUSH1 0x20 DUP1 DUP3 MSTORE PUSH1 0x21 SWAP1 DUP3 ADD MSTORE PUSH32 0x3033373020746F74656D732063616E206E6F74206265207472616E7366657265 PUSH1 0x40 DUP3 ADD MSTORE PUSH1 0x19 PUSH1 0xFA SHL PUSH1 0x60 DUP3 ADD MSTORE PUSH1 0x80 ADD SWAP1 JUMP JUMPDEST PUSH1 0x20 DUP1 DUP3 MSTORE PUSH1 0x19 SWAP1 DUP3 ADD MSTORE PUSH32 0x3033343120416D6F756E742063616E2774206265207A65726F00000000000000 PUSH1 0x40 DUP3 ADD MSTORE PUSH1 0x60 ADD SWAP1 JUMP JUMPDEST PUSH1 0x20 DUP1 DUP3 MSTORE PUSH1 0x15 SWAP1 DUP3 ADD MSTORE PUSH21 0x69742773206E6F7420616E20656D657267656E6379 PUSH1 0x58 SHL PUSH1 0x40 DUP3 ADD MSTORE PUSH1 0x60 ADD SWAP1 JUMP JUMPDEST PUSH1 0x20 DUP1 DUP3 MSTORE PUSH1 0x36 SWAP1 DUP3 ADD MSTORE PUSH32 0x303339302043616E27742073657420736F72746564207374616B657273206265 PUSH1 0x40 DUP3 ADD MSTORE PUSH22 0x666F726520746865206D617475726974792074696D65 PUSH1 0x50 SHL PUSH1 0x60 DUP3 ADD MSTORE PUSH1 0x80 ADD SWAP1 JUMP JUMPDEST PUSH1 0x20 DUP1 DUP3 MSTORE PUSH1 0x2E SWAP1 DUP3 ADD MSTORE PUSH32 0x496E697469616C697A61626C653A20636F6E747261637420697320616C726561 PUSH1 0x40 DUP3 ADD MSTORE PUSH14 0x191E481A5B9A5D1A585B1A5E9959 PUSH1 0x92 SHL PUSH1 0x60 DUP3 ADD MSTORE PUSH1 0x80 ADD SWAP1 JUMP JUMPDEST PUSH1 0x20 DUP1 DUP3 MSTORE PUSH1 0x21 SWAP1 DUP3 ADD MSTORE PUSH32 0x303330302063616C6C6572206973206E6F74206120706F6F6C2063726561746F PUSH1 0x40 DUP3 ADD MSTORE PUSH1 0x39 PUSH1 0xF9 SHL PUSH1 0x60 DUP3 ADD MSTORE PUSH1 0x80 ADD SWAP1 JUMP JUMPDEST PUSH1 0x20 DUP1 DUP3 MSTORE DUP2 DUP2 ADD MSTORE PUSH32 0x4F776E61626C653A2063616C6C6572206973206E6F7420746865206F776E6572 PUSH1 0x40 DUP3 ADD MSTORE PUSH1 0x60 ADD SWAP1 JUMP JUMPDEST PUSH1 0x20 DUP1 DUP3 MSTORE PUSH1 0x2B SWAP1 DUP3 ADD MSTORE PUSH32 0x3033383020746869732061646472657373206469646E2774207374616B652069 PUSH1 0x40 DUP3 ADD MSTORE PUSH11 0x1B881D1A1A5CC81C1BDBDB PUSH1 0xAA SHL PUSH1 0x60 DUP3 ADD MSTORE PUSH1 0x80 ADD SWAP1 JUMP JUMPDEST PUSH1 0x20 DUP1 DUP3 MSTORE PUSH1 0x17 SWAP1 DUP3 ADD MSTORE PUSH32 0x3033313320706F6F6C206973206E6F7420616374697665000000000000000000 PUSH1 0x40 DUP3 ADD MSTORE PUSH1 0x60 ADD SWAP1 JUMP JUMPDEST PUSH1 0x20 DUP1 DUP3 MSTORE PUSH1 0x2A SWAP1 DUP3 ADD MSTORE PUSH32 0x3033313120416D6F756E742063616E2774206265206C657373207468616E2074 PUSH1 0x40 DUP3 ADD MSTORE PUSH10 0x6865206D696E696D756D PUSH1 0xB0 SHL PUSH1 0x60 DUP3 ADD MSTORE PUSH1 0x80 ADD SWAP1 JUMP JUMPDEST PUSH1 0x20 DUP1 DUP3 MSTORE PUSH1 0x44 SWAP1 DUP3 ADD MSTORE PUSH32 0x6E756D626572206F6620736F72746564207374616B657273206D757374206265 PUSH1 0x40 DUP3 ADD MSTORE PUSH32 0x206C657373207468616E206F7220657175616C20746F20746865206C61737420 PUSH1 0x60 DUP3 ADD MSTORE PUSH4 0x72616E6B PUSH1 0xE0 SHL PUSH1 0x80 DUP3 ADD MSTORE PUSH1 0xA0 ADD SWAP1 JUMP JUMPDEST PUSH1 0x20 DUP1 DUP3 MSTORE PUSH1 0x27 SWAP1 DUP3 ADD MSTORE PUSH32 0x303336312057726170706564546F6B656E2052657761726473206E6F74206176 PUSH1 0x40 DUP3 ADD MSTORE PUSH7 0x61696C61626C65 PUSH1 0xC8 SHL PUSH1 0x60 DUP3 ADD MSTORE PUSH1 0x80 ADD SWAP1 JUMP JUMPDEST PUSH1 0x20 DUP1 DUP3 MSTORE PUSH1 0x14 SWAP1 DUP3 ADD MSTORE PUSH20 0x125B99195E08191BD95CC81B9BDD08195E1A5CDD PUSH1 0x62 SHL PUSH1 0x40 DUP3 ADD MSTORE PUSH1 0x60 ADD SWAP1 JUMP JUMPDEST PUSH1 0x20 DUP1 DUP3 MSTORE PUSH1 0x36 SWAP1 DUP3 ADD MSTORE PUSH32 0x303335302043616E277420736574206D61747572696E67207072696365206265 PUSH1 0x40 DUP3 ADD MSTORE PUSH22 0x666F726520746865206D617475726974792074696D65 PUSH1 0x50 SHL PUSH1 0x60 DUP3 ADD MSTORE PUSH1 0x80 ADD SWAP1 JUMP JUMPDEST PUSH1 0x20 DUP1 DUP3 MSTORE PUSH1 0x4 SWAP1 DUP3 ADD MSTORE PUSH4 0x3033333 PUSH1 0xE4 SHL PUSH1 0x40 DUP3 ADD MSTORE PUSH1 0x60 ADD SWAP1 JUMP JUMPDEST PUSH1 0x0 DUP4 DUP3 MSTORE PUSH1 0x40 PUSH1 0x20 DUP4 ADD MSTORE PUSH2 0x41E7 PUSH1 0x40 DUP4 ADD DUP5 PUSH2 0x474D JUMP JUMPDEST PUSH1 0x0 DUP7 DUP3 MSTORE DUP6 PUSH1 0x20 DUP4 ADD MSTORE PUSH1 0xA0 PUSH1 0x40 DUP4 ADD MSTORE PUSH2 0x50C5 PUSH1 0xA0 DUP4 ADD DUP7 PUSH2 0x474D JUMP JUMPDEST PUSH1 0x1 PUSH1 0x1 PUSH1 0xA0 SHL SUB SWAP5 SWAP1 SWAP5 AND PUSH1 0x60 DUP4 ADD MSTORE POP PUSH1 0x80 ADD MSTORE SWAP4 SWAP3 POP POP POP JUMP JUMPDEST SWAP9 DUP10 MSTORE PUSH1 0x20 DUP10 ADD SWAP8 SWAP1 SWAP8 MSTORE PUSH1 0x40 DUP9 ADD SWAP6 SWAP1 SWAP6 MSTORE PUSH1 0x60 DUP8 ADD SWAP4 SWAP1 SWAP4 MSTORE PUSH1 0x80 DUP7 ADD SWAP2 SWAP1 SWAP2 MSTORE PUSH1 0xA0 DUP6 ADD MSTORE PUSH1 0xC0 DUP5 ADD MSTORE ISZERO ISZERO PUSH1 0xE0 DUP4 ADD MSTORE ISZERO ISZERO PUSH2 0x100 DUP3 ADD MSTORE PUSH2 0x120 ADD SWAP1 JUMP JUMPDEST SWAP11 DUP12 MSTORE PUSH1 0x20 DUP12 ADD SWAP10 SWAP1 SWAP10 MSTORE PUSH1 0x40 DUP11 ADD SWAP8 SWAP1 SWAP8 MSTORE PUSH1 0x60 DUP10 ADD SWAP6 SWAP1 SWAP6 MSTORE PUSH1 0x80 DUP9 ADD SWAP4 SWAP1 SWAP4 MSTORE PUSH1 0xA0 DUP8 ADD SWAP2 SWAP1 SWAP2 MSTORE PUSH1 0xC0 DUP7 ADD MSTORE PUSH1 0xE0 DUP6 ADD MSTORE PUSH2 0x100 DUP5 ADD MSTORE ISZERO ISZERO PUSH2 0x120 DUP4 ADD MSTORE ISZERO ISZERO PUSH2 0x140 DUP3 ADD MSTORE PUSH2 0x160 ADD SWAP1 JUMP JUMPDEST PUSH1 0x0 DUP3 NOT DUP3 GT ISZERO PUSH2 0x518A JUMPI PUSH2 0x518A PUSH2 0x523B JUMP JUMPDEST POP ADD SWAP1 JUMP JUMPDEST PUSH1 0x0 DUP3 PUSH2 0x51AA JUMPI PUSH4 0x4E487B71 PUSH1 0xE0 SHL DUP2 MSTORE PUSH1 0x12 PUSH1 0x4 MSTORE PUSH1 0x24 DUP2 REVERT JUMPDEST POP DIV SWAP1 JUMP JUMPDEST PUSH1 0x0 DUP2 PUSH1 0x0 NOT DIV DUP4 GT DUP3 ISZERO ISZERO AND ISZERO PUSH2 0x51C9 JUMPI PUSH2 0x51C9 PUSH2 0x523B JUMP JUMPDEST POP MUL SWAP1 JUMP JUMPDEST PUSH1 0x0 DUP3 DUP3 LT ISZERO PUSH2 0x51E0 JUMPI PUSH2 0x51E0 PUSH2 0x523B JUMP JUMPDEST POP SUB SWAP1 JUMP JUMPDEST PUSH1 0x2 DUP2 DIV PUSH1 0x1 DUP3 AND DUP1 PUSH2 0x51F9 JUMPI PUSH1 0x7F DUP3 AND SWAP2 POP JUMPDEST PUSH1 0x20 DUP3 LT DUP2 EQ ISZERO PUSH2 0x521A JUMPI PUSH4 0x4E487B71 PUSH1 0xE0 SHL PUSH1 0x0 MSTORE PUSH1 0x22 PUSH1 0x4 MSTORE PUSH1 0x24 PUSH1 0x0 REVERT JUMPDEST POP SWAP2 SWAP1 POP JUMP JUMPDEST PUSH1 0x0 PUSH1 0x0 NOT DUP3 EQ ISZERO PUSH2 0x5234 JUMPI PUSH2 0x5234 PUSH2 0x523B JUMP JUMPDEST POP PUSH1 0x1 ADD SWAP1 JUMP JUMPDEST PUSH4 0x4E487B71 PUSH1 0xE0 SHL PUSH1 0x0 MSTORE PUSH1 0x11 PUSH1 0x4 MSTORE PUSH1 0x24 PUSH1 0x0 REVERT JUMPDEST PUSH4 0x4E487B71 PUSH1 0xE0 SHL PUSH1 0x0 MSTORE PUSH1 0x41 PUSH1 0x4 MSTORE PUSH1 0x24 PUSH1 0x0 REVERT JUMPDEST PUSH1 0x1 PUSH1 0x1 PUSH1 0xA0 SHL SUB DUP2 AND DUP2 EQ PUSH2 0x1E3A JUMPI PUSH1 0x0 DUP1 REVERT JUMPDEST DUP1 ISZERO ISZERO DUP2 EQ PUSH2 0x1E3A JUMPI PUSH1 0x0 DUP1 REVERT INVALID LOG2 PUSH5 0x6970667358 0x22 SLT KECCAK256 PUSH4 0x735CDC0F LOG2 CALLVALUE XOR DUP5 DUP9 SWAP11 0xB1 0xED SWAP5 0xEA PUSH2 0xC8D2 0xE5 NOT 0xAF RETURNDATASIZE DELEGATECALL PUSH6 0x9CC1B6A77736 PUSH18 0x2964736F6C63430008000033000000000000 "
		},
		"gasEstimates": {
			"creation": {
				"codeDepositCost": "4236800",
				"executionCost": "4878",
				"totalCost": "4241678"
			},
			"external": {
				"__WrappedTokenDistributor_initialize(address,address,address)": "infinite",
				"averagePricePrediction()": "1184",
				"batchStake(uint256[],uint256[])": "infinite",
				"claimReward()": "infinite",
				"collaborativeRange()": "1117",
				"collaborativeReward()": "1094",
				"declareEmergency()": "43650",
				"deletePool()": "22766",
				"emergentWithdraw()": "infinite",
				"endPool()": "infinite",
				"getDifference(uint256,uint256)": "infinite",
				"getEstimatedWrappedTokenForUSD(uint256)": "infinite",
				"getIndexedPrize(address,uint256)": "infinite",
				"getIndexedStakingReward(address,uint256)": "infinite",
				"getLPS()": "1987",
				"getPathForUSDToWrappedToken()": "infinite",
				"getPrize(address)": "infinite",
				"getPrizeTokenDecimals(address)": "infinite",
				"getStakers()": "infinite",
				"getStakingReward(address)": "infinite",
				"getStakingTax(uint256,uint256)": "infinite",
				"getSwapRouter()": "1182",
				"getUSDBalance()": "infinite",
				"getUSDToken()": "1158",
				"getWrappedTokenBalance()": "infinite",
				"hasUnStaked(address,uint256)": "infinite",
				"indexedClaimReward(uint256)": "infinite",
				"isActive()": "1171",
				"isAnEmergency()": "1125",
				"isDeleted()": "1169",
				"isEnhancedEnabled()": "1169",
				"isLocked()": "1191",
				"isMatured()": "1191",
				"launchDate()": "1160",
				"lockPool()": "22770",
				"lockTime()": "1098",
				"lps()": "8610",
				"maturingPrice()": "1096",
				"maturityTime()": "1097",
				"minimumStakeAmount()": "1096",
				"oracleContract()": "1159",
				"oracleDecimals()": "1183",
				"owner()": "1139",
				"poolCreator()": "1203",
				"poolType()": "infinite",
				"potentialCollabReward()": "1161",
				"predictions(address,uint256)": "8180",
				"prizeAmount()": "1096",
				"prizeRewardRates(uint256)": "2957",
				"purchaseWrappedToken(uint256,uint256)": "infinite",
				"renounceOwnership()": "23597",
				"rewardManager()": "1162",
				"setActivationStatus(bool)": "infinite",
				"setOracleToZero()": "21926",
				"setSortedStakers(address[25],uint256[25])": "infinite",
				"sizeAllocation()": "1119",
				"sizeLimitRangeRate()": "319",
				"sortedStakers(uint256)": "3025",
				"stake(uint256,uint256)": "infinite",
				"stakeApr()": "1096",
				"stakeTaxRate()": "1163",
				"stakers(uint256)": "3045",
				"stakingPoolImplementation()": "1161",
				"totalStaked()": "1095",
				"totemToken()": "1137",
				"transferOwnership(address)": "infinite",
				"updateMaturingPrice(uint256,bool,uint256,address,uint256)": "infinite",
				"upgradeEnabled()": "1212",
				"usdPrizeAmount()": "1162",
				"withdrawStuckTokens(address,uint256,address)": "infinite",
				"wrappedToken()": "1183",
				"wrappedTokenSymbol()": "infinite"
			},
			"internal": {
				"_getAveragePricePrediction(uint256,uint256)": "infinite",
				"_lockPool()": "21622",
				"_stake(address,uint256,uint256)": "infinite"
			}
		},
		"methodIdentifiers": {
			"__WrappedTokenDistributor_initialize(address,address,address)": "a8f7b346",
			"averagePricePrediction()": "785df1f8",
			"batchStake(uint256[],uint256[])": "d49fab8a",
			"claimReward()": "b88a802f",
			"collaborativeRange()": "eb850ae1",
			"collaborativeReward()": "f3d9dc0d",
			"declareEmergency()": "31e244e5",
			"deletePool()": "8bfbbcbe",
			"emergentWithdraw()": "8a9920b7",
			"endPool()": "2d42cf7d",
			"getDifference(uint256,uint256)": "4c7c77fc",
			"getEstimatedWrappedTokenForUSD(uint256)": "3fcdd82c",
			"getIndexedPrize(address,uint256)": "b7b30170",
			"getIndexedStakingReward(address,uint256)": "2342e480",
			"getLPS()": "9e3dd80f",
			"getPathForUSDToWrappedToken()": "a35ef3a7",
			"getPrize(address)": "2d5cd1d6",
			"getPrizeTokenDecimals(address)": "cee0c889",
			"getStakers()": "43352d61",
			"getStakingReward(address)": "78f4d413",
			"getStakingTax(uint256,uint256)": "395b3dac",
			"getSwapRouter()": "725c9c49",
			"getUSDBalance()": "c1201054",
			"getUSDToken()": "f5e96fc9",
			"getWrappedTokenBalance()": "f8e829c3",
			"hasUnStaked(address,uint256)": "45e91319",
			"indexedClaimReward(uint256)": "b1b1e1c0",
			"isActive()": "22f3e2d4",
			"isAnEmergency()": "a08b2c79",
			"isDeleted()": "d7efb6b7",
			"isEnhancedEnabled()": "4bc4eeb2",
			"isLocked()": "a4e2d634",
			"isMatured()": "7f2b6a0d",
			"launchDate()": "f8eeed62",
			"lockPool()": "4026478e",
			"lockTime()": "0d668087",
			"lps()": "e0818669",
			"maturingPrice()": "d025188b",
			"maturityTime()": "4e8bfdaa",
			"minimumStakeAmount()": "6b036f45",
			"oracleContract()": "bece7532",
			"oracleDecimals()": "e68b52e7",
			"owner()": "8da5cb5b",
			"poolCreator()": "c6c1decd",
			"poolType()": "b1dd61b6",
			"potentialCollabReward()": "e425df8c",
			"predictions(address,uint256)": "850fa7cb",
			"prizeAmount()": "785fa627",
			"prizeRewardRates(uint256)": "f1b17a8b",
			"purchaseWrappedToken(uint256,uint256)": "4ddc1bdc",
			"renounceOwnership()": "715018a6",
			"rewardManager()": "0f4ef8a6",
			"setActivationStatus(bool)": "a118c9a7",
			"setOracleToZero()": "df7f92e0",
			"setSortedStakers(address[25],uint256[25])": "444a4902",
			"sizeAllocation()": "51eacbf0",
			"sizeLimitRangeRate()": "95c2ba47",
			"sortedStakers(uint256)": "de09ee20",
			"stake(uint256,uint256)": "7b0472f0",
			"stakeApr()": "aa7bcb57",
			"stakeTaxRate()": "6847d0c5",
			"stakers(uint256)": "fd5e6dd1",
			"stakingPoolImplementation()": "2aa8195e",
			"totalStaked()": "817b1cd2",
			"totemToken()": "e8153c93",
			"transferOwnership(address)": "f2fde38b",
			"updateMaturingPrice(uint256,bool,uint256,address,uint256)": "e113af51",
			"upgradeEnabled()": "8cf0e21e",
			"usdPrizeAmount()": "73f31703",
			"withdrawStuckTokens(address,uint256,address)": "5d2631e2",
			"wrappedToken()": "996c6cc3",
			"wrappedTokenSymbol()": "238a6c74"
		}
	},
	"abi": [
		{
			"anonymous": false,
			"inputs": [
				{
					"indexed": true,
					"internalType": "address",
					"name": "to",
					"type": "address"
				},
				{
					"indexed": false,
					"internalType": "uint256",
					"name": "amount",
					"type": "uint256"
				}
			],
			"name": "ApproveTokens",
			"type": "event"
		},
		{
			"anonymous": false,
			"inputs": [
				{
					"indexed": true,
					"internalType": "address",
					"name": "user",
					"type": "address"
				},
				{
					"indexed": false,
					"internalType": "uint256[]",
					"name": "stakeAmounts",
					"type": "uint256[]"
				},
				{
					"indexed": false,
					"internalType": "uint256[]",
					"name": "predictions",
					"type": "uint256[]"
				},
				{
					"indexed": false,
					"internalType": "uint256",
					"name": "indexOfFirstStake",
					"type": "uint256"
				},
				{
					"indexed": false,
					"internalType": "uint256",
					"name": "indexOfLastStake",
					"type": "uint256"
				}
			],
			"name": "BatchStake",
			"type": "event"
		},
		{
			"anonymous": false,
			"inputs": [
				{
					"indexed": true,
					"internalType": "address",
					"name": "to",
					"type": "address"
				},
				{
					"indexed": false,
					"internalType": "uint256",
					"name": "amount",
					"type": "uint256"
				}
			],
			"name": "DistributedBTC",
			"type": "event"
		},
		{
			"anonymous": false,
			"inputs": [
				{
					"indexed": true,
					"internalType": "address",
					"name": "previousOwner",
					"type": "address"
				},
				{
					"indexed": true,
					"internalType": "address",
					"name": "newOwner",
					"type": "address"
				}
			],
			"name": "OwnershipTransferred",
			"type": "event"
		},
		{
			"anonymous": false,
			"inputs": [],
			"name": "PoolActivated",
			"type": "event"
		},
		{
			"anonymous": false,
			"inputs": [],
			"name": "PoolDeactivated",
			"type": "event"
		},
		{
			"anonymous": false,
			"inputs": [],
			"name": "PoolDeleted",
			"type": "event"
		},
		{
			"anonymous": false,
			"inputs": [],
			"name": "PoolLocked",
			"type": "event"
		},
		{
			"anonymous": false,
			"inputs": [],
			"name": "PoolMatured",
			"type": "event"
		},
		{
			"anonymous": false,
			"inputs": [],
			"name": "PoolSorted",
			"type": "event"
		},
		{
			"anonymous": false,
			"inputs": [
				{
					"indexed": true,
					"internalType": "address",
					"name": "from",
					"type": "address"
				},
				{
					"indexed": false,
					"internalType": "uint256",
					"name": "amount",
					"type": "uint256"
				}
			],
			"name": "ReceivedTokens",
			"type": "event"
		},
		{
			"anonymous": false,
			"inputs": [
				{
					"indexed": true,
					"internalType": "address",
					"name": "user",
					"type": "address"
				},
				{
					"indexed": false,
					"internalType": "uint256",
					"name": "amount",
					"type": "uint256"
				},
				{
					"indexed": false,
					"internalType": "uint256",
					"name": "pricePrediction",
					"type": "uint256"
				},
				{
					"indexed": false,
					"internalType": "uint256",
					"name": "indexOfStake",
					"type": "uint256"
				}
			],
			"name": "Stake",
			"type": "event"
		},
		{
			"anonymous": false,
			"inputs": [
				{
					"indexed": true,
					"internalType": "address",
					"name": "to",
					"type": "address"
				},
				{
					"indexed": false,
					"internalType": "uint256",
					"name": "amount",
					"type": "uint256"
				}
			],
			"name": "TransferTokens",
			"type": "event"
		},
		{
			"anonymous": false,
			"inputs": [
				{
					"indexed": true,
					"internalType": "address",
					"name": "user",
					"type": "address"
				},
				{
					"indexed": false,
					"internalType": "uint256",
					"name": "amount",
					"type": "uint256"
				}
			],
			"name": "Unstake",
			"type": "event"
		},
		{
			"anonymous": false,
			"inputs": [
				{
					"indexed": true,
					"internalType": "address",
					"name": "user",
					"type": "address"
				},
				{
					"indexed": false,
					"internalType": "uint256",
					"name": "stakingReturn",
					"type": "uint256"
				}
			],
			"name": "WithdrawStakingReturn",
			"type": "event"
		},
		{
			"anonymous": false,
			"inputs": [
				{
					"indexed": true,
					"internalType": "address",
					"name": "user",
					"type": "address"
				},
				{
					"indexed": false,
					"internalType": "uint256",
					"name": "totemPrize",
					"type": "uint256"
				}
			],
			"name": "WithdrawTotemPrize",
			"type": "event"
		},
		{
			"anonymous": false,
			"inputs": [
				{
					"indexed": true,
					"internalType": "address",
					"name": "user",
					"type": "address"
				},
				{
					"indexed": false,
					"internalType": "uint256",
					"name": "wrappedTokenPrize",
					"type": "uint256"
				}
			],
			"name": "WithdrawWrappedTokenPrize",
			"type": "event"
		},
		{
			"inputs": [
				{
					"internalType": "address",
					"name": "swapRouterAddress",
					"type": "address"
				},
				{
					"internalType": "address",
					"name": "BUSDContractAddress",
					"type": "address"
				},
				{
					"internalType": "address",
					"name": "WrappedTokenContractAddress",
					"type": "address"
				}
			],
			"name": "__WrappedTokenDistributor_initialize",
			"outputs": [],
			"stateMutability": "nonpayable",
			"type": "function"
		},
		{
			"inputs": [],
			"name": "averagePricePrediction",
			"outputs": [
				{
					"internalType": "uint256",
					"name": "",
					"type": "uint256"
				}
			],
			"stateMutability": "view",
			"type": "function"
		},
		{
			"inputs": [
				{
					"internalType": "uint256[]",
					"name": "_stakingAmounts",
					"type": "uint256[]"
				},
				{
					"internalType": "uint256[]",
					"name": "_predictions",
					"type": "uint256[]"
				}
			],
			"name": "batchStake",
			"outputs": [],
			"stateMutability": "nonpayable",
			"type": "function"
		},
		{
			"inputs": [],
			"name": "claimReward",
			"outputs": [],
			"stateMutability": "nonpayable",
			"type": "function"
		},
		{
			"inputs": [],
			"name": "collaborativeRange",
			"outputs": [
				{
					"internalType": "uint256",
					"name": "",
					"type": "uint256"
				}
			],
			"stateMutability": "view",
			"type": "function"
		},
		{
			"inputs": [],
			"name": "collaborativeReward",
			"outputs": [
				{
					"internalType": "uint256",
					"name": "",
					"type": "uint256"
				}
			],
			"stateMutability": "view",
			"type": "function"
		},
		{
			"inputs": [],
			"name": "declareEmergency",
			"outputs": [],
			"stateMutability": "nonpayable",
			"type": "function"
		},
		{
			"inputs": [],
			"name": "deletePool",
			"outputs": [],
			"stateMutability": "nonpayable",
			"type": "function"
		},
		{
			"inputs": [],
			"name": "emergentWithdraw",
			"outputs": [],
			"stateMutability": "nonpayable",
			"type": "function"
		},
		{
			"inputs": [],
			"name": "endPool",
			"outputs": [],
			"stateMutability": "nonpayable",
			"type": "function"
		},
		{
			"inputs": [
				{
					"internalType": "uint256",
					"name": "prediction",
					"type": "uint256"
				},
				{
					"internalType": "uint256",
					"name": "_range",
					"type": "uint256"
				}
			],
			"name": "getDifference",
			"outputs": [
				{
					"internalType": "uint256",
					"name": "",
					"type": "uint256"
				}
			],
			"stateMutability": "view",
			"type": "function"
		},
		{
			"inputs": [
				{
					"internalType": "uint256",
					"name": "_amount",
					"type": "uint256"
				}
			],
			"name": "getEstimatedWrappedTokenForUSD",
			"outputs": [
				{
					"internalType": "uint256",
					"name": "",
					"type": "uint256"
				}
			],
			"stateMutability": "view",
			"type": "function"
		},
		{
			"inputs": [
				{
					"internalType": "address",
					"name": "_staker",
					"type": "address"
				},
				{
					"internalType": "uint256",
					"name": "_stakeIndex",
					"type": "uint256"
				}
			],
			"name": "getIndexedPrize",
			"outputs": [
				{
					"internalType": "uint256",
					"name": "",
					"type": "uint256"
				},
				{
					"internalType": "uint256",
					"name": "",
					"type": "uint256"
				}
			],
			"stateMutability": "view",
			"type": "function"
		},
		{
			"inputs": [
				{
					"internalType": "address",
					"name": "_staker",
					"type": "address"
				},
				{
					"internalType": "uint256",
					"name": "_stakeIndex",
					"type": "uint256"
				}
			],
			"name": "getIndexedStakingReward",
			"outputs": [
				{
					"internalType": "uint256",
					"name": "",
					"type": "uint256"
				}
			],
			"stateMutability": "view",
			"type": "function"
		},
		{
			"inputs": [],
			"name": "getLPS",
			"outputs": [
				{
					"internalType": "uint256",
					"name": "",
					"type": "uint256"
				},
				{
					"internalType": "uint256",
					"name": "",
					"type": "uint256"
				}
			],
			"stateMutability": "view",
			"type": "function"
		},
		{
			"inputs": [],
			"name": "getPathForUSDToWrappedToken",
			"outputs": [
				{
					"internalType": "address[]",
					"name": "",
					"type": "address[]"
				}
			],
			"stateMutability": "view",
			"type": "function"
		},
		{
			"inputs": [
				{
					"internalType": "address",
					"name": "_staker",
					"type": "address"
				}
			],
			"name": "getPrize",
			"outputs": [
				{
					"internalType": "uint256",
					"name": "",
					"type": "uint256"
				},
				{
					"internalType": "uint256",
					"name": "",
					"type": "uint256"
				}
			],
			"stateMutability": "view",
			"type": "function"
		},
		{
			"inputs": [
				{
					"internalType": "address",
					"name": "_oracleContract",
					"type": "address"
				}
			],
			"name": "getPrizeTokenDecimals",
			"outputs": [
				{
					"internalType": "uint256",
					"name": "",
					"type": "uint256"
				}
			],
			"stateMutability": "view",
			"type": "function"
		},
		{
			"inputs": [],
			"name": "getStakers",
			"outputs": [
				{
					"internalType": "address[]",
					"name": "",
					"type": "address[]"
				},
				{
					"internalType": "uint256[]",
					"name": "",
					"type": "uint256[]"
				}
			],
			"stateMutability": "view",
			"type": "function"
		},
		{
			"inputs": [
				{
					"internalType": "address",
					"name": "_staker",
					"type": "address"
				}
			],
			"name": "getStakingReward",
			"outputs": [
				{
					"internalType": "uint256",
					"name": "",
					"type": "uint256"
				}
			],
			"stateMutability": "view",
			"type": "function"
		},
		{
			"inputs": [
				{
					"internalType": "uint256",
					"name": "amount",
					"type": "uint256"
				},
				{
					"internalType": "uint256",
					"name": "tokenTaxRate",
					"type": "uint256"
				}
			],
			"name": "getStakingTax",
			"outputs": [
				{
					"internalType": "uint256",
					"name": "",
					"type": "uint256"
				},
				{
					"internalType": "uint256",
					"name": "",
					"type": "uint256"
				}
			],
			"stateMutability": "view",
			"type": "function"
		},
		{
			"inputs": [],
			"name": "getSwapRouter",
			"outputs": [
				{
					"internalType": "address",
					"name": "",
					"type": "address"
				}
			],
			"stateMutability": "view",
			"type": "function"
		},
		{
			"inputs": [],
			"name": "getUSDBalance",
			"outputs": [
				{
					"internalType": "uint256",
					"name": "",
					"type": "uint256"
				}
			],
			"stateMutability": "view",
			"type": "function"
		},
		{
			"inputs": [],
			"name": "getUSDToken",
			"outputs": [
				{
					"internalType": "address",
					"name": "",
					"type": "address"
				}
			],
			"stateMutability": "view",
			"type": "function"
		},
		{
			"inputs": [],
			"name": "getWrappedTokenBalance",
			"outputs": [
				{
					"internalType": "uint256",
					"name": "",
					"type": "uint256"
				}
			],
			"stateMutability": "view",
			"type": "function"
		},
		{
			"inputs": [
				{
					"internalType": "address",
					"name": "staker",
					"type": "address"
				},
				{
					"internalType": "uint256",
					"name": "stakeIndex",
					"type": "uint256"
				}
			],
			"name": "hasUnStaked",
			"outputs": [
				{
					"internalType": "bool",
					"name": "",
					"type": "bool"
				}
			],
			"stateMutability": "view",
			"type": "function"
		},
		{
			"inputs": [
				{
					"internalType": "uint256",
					"name": "stakeIndex",
					"type": "uint256"
				}
			],
			"name": "indexedClaimReward",
			"outputs": [],
			"stateMutability": "nonpayable",
			"type": "function"
		},
		{
			"inputs": [],
			"name": "isActive",
			"outputs": [
				{
					"internalType": "bool",
					"name": "",
					"type": "bool"
				}
			],
			"stateMutability": "view",
			"type": "function"
		},
		{
			"inputs": [],
			"name": "isAnEmergency",
			"outputs": [
				{
					"internalType": "bool",
					"name": "",
					"type": "bool"
				}
			],
			"stateMutability": "view",
			"type": "function"
		},
		{
			"inputs": [],
			"name": "isDeleted",
			"outputs": [
				{
					"internalType": "bool",
					"name": "",
					"type": "bool"
				}
			],
			"stateMutability": "view",
			"type": "function"
		},
		{
			"inputs": [],
			"name": "isEnhancedEnabled",
			"outputs": [
				{
					"internalType": "bool",
					"name": "",
					"type": "bool"
				}
			],
			"stateMutability": "view",
			"type": "function"
		},
		{
			"inputs": [],
			"name": "isLocked",
			"outputs": [
				{
					"internalType": "bool",
					"name": "",
					"type": "bool"
				}
			],
			"stateMutability": "view",
			"type": "function"
		},
		{
			"inputs": [],
			"name": "isMatured",
			"outputs": [
				{
					"internalType": "bool",
					"name": "",
					"type": "bool"
				}
			],
			"stateMutability": "view",
			"type": "function"
		},
		{
			"inputs": [],
			"name": "launchDate",
			"outputs": [
				{
					"internalType": "uint256",
					"name": "",
					"type": "uint256"
				}
			],
			"stateMutability": "view",
			"type": "function"
		},
		{
			"inputs": [],
			"name": "lockPool",
			"outputs": [],
			"stateMutability": "nonpayable",
			"type": "function"
		},
		{
			"inputs": [],
			"name": "lockTime",
			"outputs": [
				{
					"internalType": "uint256",
					"name": "",
					"type": "uint256"
				}
			],
			"stateMutability": "view",
			"type": "function"
		},
		{
			"inputs": [],
			"name": "lps",
			"outputs": [
				{
					"internalType": "uint256",
					"name": "launchDate",
					"type": "uint256"
				},
				{
					"internalType": "uint256",
					"name": "lockTime",
					"type": "uint256"
				},
				{
					"internalType": "uint256",
					"name": "maturityTime",
					"type": "uint256"
				},
				{
					"internalType": "uint256",
					"name": "maturingPrice",
					"type": "uint256"
				},
				{
					"internalType": "uint256",
					"name": "usdPrizeAmount",
					"type": "uint256"
				},
				{
					"internalType": "uint256",
					"name": "prizeAmount",
					"type": "uint256"
				},
				{
					"internalType": "uint256",
					"name": "stakeApr",
					"type": "uint256"
				},
				{
					"internalType": "uint256",
					"name": "collaborativeReward",
					"type": "uint256"
				},
				{
					"internalType": "uint256",
					"name": "oracleDecimals",
					"type": "uint256"
				},
				{
					"internalType": "bool",
					"name": "isEnhancedEnabled",
					"type": "bool"
				},
				{
					"internalType": "bool",
					"name": "isMatured",
					"type": "bool"
				}
			],
			"stateMutability": "view",
			"type": "function"
		},
		{
			"inputs": [],
			"name": "maturingPrice",
			"outputs": [
				{
					"internalType": "uint256",
					"name": "",
					"type": "uint256"
				}
			],
			"stateMutability": "view",
			"type": "function"
		},
		{
			"inputs": [],
			"name": "maturityTime",
			"outputs": [
				{
					"internalType": "uint256",
					"name": "",
					"type": "uint256"
				}
			],
			"stateMutability": "view",
			"type": "function"
		},
		{
			"inputs": [],
			"name": "minimumStakeAmount",
			"outputs": [
				{
					"internalType": "uint256",
					"name": "",
					"type": "uint256"
				}
			],
			"stateMutability": "view",
			"type": "function"
		},
		{
			"inputs": [],
			"name": "oracleContract",
			"outputs": [
				{
					"internalType": "address",
					"name": "",
					"type": "address"
				}
			],
			"stateMutability": "view",
			"type": "function"
		},
		{
			"inputs": [],
			"name": "oracleDecimals",
			"outputs": [
				{
					"internalType": "uint256",
					"name": "",
					"type": "uint256"
				}
			],
			"stateMutability": "view",
			"type": "function"
		},
		{
			"inputs": [],
			"name": "owner",
			"outputs": [
				{
					"internalType": "address",
					"name": "",
					"type": "address"
				}
			],
			"stateMutability": "view",
			"type": "function"
		},
		{
			"inputs": [],
			"name": "poolCreator",
			"outputs": [
				{
					"internalType": "address",
					"name": "",
					"type": "address"
				}
			],
			"stateMutability": "view",
			"type": "function"
		},
		{
			"inputs": [],
			"name": "poolType",
			"outputs": [
				{
					"internalType": "string",
					"name": "",
					"type": "string"
				}
			],
			"stateMutability": "view",
			"type": "function"
		},
		{
			"inputs": [],
			"name": "potentialCollabReward",
			"outputs": [
				{
					"internalType": "uint256",
					"name": "",
					"type": "uint256"
				}
			],
			"stateMutability": "view",
			"type": "function"
		},
		{
			"inputs": [
				{
					"internalType": "address",
					"name": "",
					"type": "address"
				},
				{
					"internalType": "uint256",
					"name": "",
					"type": "uint256"
				}
			],
			"name": "predictions",
			"outputs": [
				{
					"internalType": "uint256",
					"name": "stakedBalance",
					"type": "uint256"
				},
				{
					"internalType": "uint256",
					"name": "stakedTime",
					"type": "uint256"
				},
				{
					"internalType": "uint256",
					"name": "amountWithdrawn",
					"type": "uint256"
				},
				{
					"internalType": "uint256",
					"name": "lastWithdrawalTime",
					"type": "uint256"
				},
				{
					"internalType": "uint256",
					"name": "pricePrediction",
					"type": "uint256"
				},
				{
					"internalType": "uint256",
					"name": "difference",
					"type": "uint256"
				},
				{
					"internalType": "uint256",
					"name": "rank",
					"type": "uint256"
				},
				{
					"internalType": "bool",
					"name": "prizeRewardWithdrawn",
					"type": "bool"
				},
				{
					"internalType": "bool",
					"name": "didUnstake",
					"type": "bool"
				}
			],
			"stateMutability": "view",
			"type": "function"
		},
		{
			"inputs": [],
			"name": "prizeAmount",
			"outputs": [
				{
					"internalType": "uint256",
					"name": "",
					"type": "uint256"
				}
			],
			"stateMutability": "view",
			"type": "function"
		},
		{
			"inputs": [
				{
					"internalType": "uint256",
					"name": "",
					"type": "uint256"
				}
			],
			"name": "prizeRewardRates",
			"outputs": [
				{
					"internalType": "uint256",
					"name": "rank",
					"type": "uint256"
				},
				{
					"internalType": "uint256",
					"name": "percentage",
					"type": "uint256"
				}
			],
			"stateMutability": "view",
			"type": "function"
		},
		{
			"inputs": [
				{
					"internalType": "uint256",
					"name": "usdAmount",
					"type": "uint256"
				},
				{
					"internalType": "uint256",
					"name": "deadline",
					"type": "uint256"
				}
			],
			"name": "purchaseWrappedToken",
			"outputs": [],
			"stateMutability": "nonpayable",
			"type": "function"
		},
		{
			"inputs": [],
			"name": "renounceOwnership",
			"outputs": [],
			"stateMutability": "nonpayable",
			"type": "function"
		},
		{
			"inputs": [],
			"name": "rewardManager",
			"outputs": [
				{
					"internalType": "contract IRewardManager",
					"name": "",
					"type": "address"
				}
			],
			"stateMutability": "view",
			"type": "function"
		},
		{
			"inputs": [
				{
					"internalType": "bool",
					"name": "_activationStatus",
					"type": "bool"
				}
			],
			"name": "setActivationStatus",
			"outputs": [],
			"stateMutability": "nonpayable",
			"type": "function"
		},
		{
			"inputs": [],
			"name": "setOracleToZero",
			"outputs": [],
			"stateMutability": "nonpayable",
			"type": "function"
		},
		{
			"inputs": [
				{
					"internalType": "address[25]",
					"name": "addrArray",
					"type": "address[25]"
				},
				{
					"internalType": "uint256[25]",
					"name": "indexArray",
					"type": "uint256[25]"
				}
			],
			"name": "setSortedStakers",
			"outputs": [],
			"stateMutability": "nonpayable",
			"type": "function"
		},
		{
			"inputs": [],
			"name": "sizeAllocation",
			"outputs": [
				{
					"internalType": "uint256",
					"name": "",
					"type": "uint256"
				}
			],
			"stateMutability": "view",
			"type": "function"
		},
		{
			"inputs": [],
			"name": "sizeLimitRangeRate",
			"outputs": [
				{
					"internalType": "uint256",
					"name": "",
					"type": "uint256"
				}
			],
			"stateMutability": "view",
			"type": "function"
		},
		{
			"inputs": [
				{
					"internalType": "uint256",
					"name": "",
					"type": "uint256"
				}
			],
			"name": "sortedStakers",
			"outputs": [
				{
					"internalType": "address",
					"name": "stakerAddress",
					"type": "address"
				},
				{
					"internalType": "uint256",
					"name": "index",
					"type": "uint256"
				}
			],
			"stateMutability": "view",
			"type": "function"
		},
		{
			"inputs": [
				{
					"internalType": "uint256",
					"name": "_amount",
					"type": "uint256"
				},
				{
					"internalType": "uint256",
					"name": "_pricePrediction",
					"type": "uint256"
				}
			],
			"name": "stake",
			"outputs": [],
			"stateMutability": "nonpayable",
			"type": "function"
		},
		{
			"inputs": [],
			"name": "stakeApr",
			"outputs": [
				{
					"internalType": "uint256",
					"name": "",
					"type": "uint256"
				}
			],
			"stateMutability": "view",
			"type": "function"
		},
		{
			"inputs": [],
			"name": "stakeTaxRate",
			"outputs": [
				{
					"internalType": "uint256",
					"name": "",
					"type": "uint256"
				}
			],
			"stateMutability": "view",
			"type": "function"
		},
		{
			"inputs": [
				{
					"internalType": "uint256",
					"name": "",
					"type": "uint256"
				}
			],
			"name": "stakers",
			"outputs": [
				{
					"internalType": "address",
					"name": "stakerAddress",
					"type": "address"
				},
				{
					"internalType": "uint256",
					"name": "index",
					"type": "uint256"
				}
			],
			"stateMutability": "view",
			"type": "function"
		},
		{
			"inputs": [],
			"name": "stakingPoolImplementation",
			"outputs": [
				{
					"internalType": "address",
					"name": "",
					"type": "address"
				}
			],
			"stateMutability": "view",
			"type": "function"
		},
		{
			"inputs": [],
			"name": "totalStaked",
			"outputs": [
				{
					"internalType": "uint256",
					"name": "",
					"type": "uint256"
				}
			],
			"stateMutability": "view",
			"type": "function"
		},
		{
			"inputs": [],
			"name": "totemToken",
			"outputs": [
				{
					"internalType": "contract ITotemToken",
					"name": "",
					"type": "address"
				}
			],
			"stateMutability": "view",
			"type": "function"
		},
		{
			"inputs": [
				{
					"internalType": "address",
					"name": "newOwner",
					"type": "address"
				}
			],
			"name": "transferOwnership",
			"outputs": [],
			"stateMutability": "nonpayable",
			"type": "function"
		},
		{
			"inputs": [
				{
					"internalType": "uint256",
					"name": "_predictionPrice",
					"type": "uint256"
				},
				{
					"internalType": "bool",
					"name": "_samePredictionPrizeToken",
					"type": "bool"
				},
				{
					"internalType": "uint256",
					"name": "_prizePrice",
					"type": "uint256"
				},
				{
					"internalType": "address",
					"name": "_oracleContract",
					"type": "address"
				},
				{
					"internalType": "uint256",
					"name": "_oracleDecimals",
					"type": "uint256"
				}
			],
			"name": "updateMaturingPrice",
			"outputs": [],
			"stateMutability": "nonpayable",
			"type": "function"
		},
		{
			"inputs": [],
			"name": "upgradeEnabled",
			"outputs": [
				{
					"internalType": "bool",
					"name": "",
					"type": "bool"
				}
			],
			"stateMutability": "view",
			"type": "function"
		},
		{
			"inputs": [],
			"name": "usdPrizeAmount",
			"outputs": [
				{
					"internalType": "uint256",
					"name": "",
					"type": "uint256"
				}
			],
			"stateMutability": "view",
			"type": "function"
		},
		{
			"inputs": [
				{
					"internalType": "address",
					"name": "_stuckToken",
					"type": "address"
				},
				{
					"internalType": "uint256",
					"name": "amount",
					"type": "uint256"
				},
				{
					"internalType": "address",
					"name": "receiver",
					"type": "address"
				}
			],
			"name": "withdrawStuckTokens",
			"outputs": [],
			"stateMutability": "nonpayable",
			"type": "function"
		},
		{
			"inputs": [],
			"name": "wrappedToken",
			"outputs": [
				{
					"internalType": "contract IERC20",
					"name": "",
					"type": "address"
				}
			],
			"stateMutability": "view",
			"type": "function"
		},
		{
			"inputs": [],
			"name": "wrappedTokenSymbol",
			"outputs": [
				{
					"internalType": "string",
					"name": "",
					"type": "string"
				}
			],
			"stateMutability": "view",
			"type": "function"
		}
	]
}