{
  "address": "0xe59930296DB36f4659850c5d5504B4A571a5669E",
  "abi": [
    {
      "inputs": [
        {
          "internalType": "contract TotemToken",
          "name": "_totemToken",
          "type": "address"
        }
      ],
      "stateMutability": "nonpayable",
      "type": "constructor"
    },
    {
      "anonymous": false,
      "inputs": [
        {
          "indexed": true,
          "internalType": "address",
          "name": "account",
          "type": "address"
        }
      ],
      "name": "OperatorAdded",
      "type": "event"
    },
    {
      "anonymous": false,
      "inputs": [
        {
          "indexed": true,
          "internalType": "address",
          "name": "account",
          "type": "address"
        }
      ],
      "name": "OperatorRemoved",
      "type": "event"
    },
    {
      "anonymous": false,
      "inputs": [
        {
          "indexed": true,
          "internalType": "address",
          "name": "previousOwner",
          "type": "address"
        },
        {
          "indexed": true,
          "internalType": "address",
          "name": "newOwner",
          "type": "address"
        }
      ],
      "name": "OwnershipTransferred",
      "type": "event"
    },
    {
      "anonymous": false,
      "inputs": [
        {
          "indexed": true,
          "internalType": "address",
          "name": "account",
          "type": "address"
        }
      ],
      "name": "RewarderAdded",
      "type": "event"
    },
    {
      "anonymous": false,
      "inputs": [
        {
          "indexed": true,
          "internalType": "address",
          "name": "account",
          "type": "address"
        }
      ],
      "name": "RewarderRemoved",
      "type": "event"
    },
    {
      "anonymous": false,
      "inputs": [
        {
          "indexed": false,
          "internalType": "address",
          "name": "operator",
          "type": "address"
        }
      ],
      "name": "SetOperator",
      "type": "event"
    },
    {
      "anonymous": false,
      "inputs": [
        {
          "indexed": false,
          "internalType": "address",
          "name": "rewarder",
          "type": "address"
        }
      ],
      "name": "SetRewarder",
      "type": "event"
    },
    {
      "inputs": [
        {
          "internalType": "address",
          "name": "account",
          "type": "address"
        }
      ],
      "name": "addOperator",
      "outputs": [],
      "stateMutability": "nonpayable",
      "type": "function"
    },
    {
      "inputs": [
        {
          "internalType": "address",
          "name": "_poolAddress",
          "type": "address"
        }
      ],
      "name": "addPool",
      "outputs": [],
      "stateMutability": "nonpayable",
      "type": "function"
    },
    {
      "inputs": [
        {
          "internalType": "address",
          "name": "account",
          "type": "address"
        }
      ],
      "name": "addRewarder",
      "outputs": [],
      "stateMutability": "nonpayable",
      "type": "function"
    },
    {
      "inputs": [
        {
          "internalType": "address",
          "name": "account",
          "type": "address"
        }
      ],
      "name": "isOperator",
      "outputs": [
        {
          "internalType": "bool",
          "name": "",
          "type": "bool"
        }
      ],
      "stateMutability": "view",
      "type": "function"
    },
    {
      "inputs": [
        {
          "internalType": "address",
          "name": "account",
          "type": "address"
        }
      ],
      "name": "isRewarder",
      "outputs": [
        {
          "internalType": "bool",
          "name": "",
          "type": "bool"
        }
      ],
      "stateMutability": "view",
      "type": "function"
    },
    {
      "inputs": [],
      "name": "owner",
      "outputs": [
        {
          "internalType": "address",
          "name": "",
          "type": "address"
        }
      ],
      "stateMutability": "view",
      "type": "function"
    },
    {
      "inputs": [],
      "name": "renounceOperator",
      "outputs": [],
      "stateMutability": "nonpayable",
      "type": "function"
    },
    {
      "inputs": [],
      "name": "renounceOwnership",
      "outputs": [],
      "stateMutability": "nonpayable",
      "type": "function"
    },
    {
      "inputs": [],
      "name": "renounceRewarder",
      "outputs": [],
      "stateMutability": "nonpayable",
      "type": "function"
    },
    {
      "inputs": [
        {
          "internalType": "address",
          "name": "_user",
          "type": "address"
        },
        {
          "internalType": "uint256",
          "name": "_amount",
          "type": "uint256"
        }
      ],
      "name": "rewardUser",
      "outputs": [],
      "stateMutability": "nonpayable",
      "type": "function"
    },
    {
      "inputs": [
        {
          "internalType": "address",
          "name": "_newOperator",
          "type": "address"
        }
      ],
      "name": "setOperator",
      "outputs": [],
      "stateMutability": "nonpayable",
      "type": "function"
    },
    {
      "inputs": [
        {
          "internalType": "address",
          "name": "newOwner",
          "type": "address"
        }
      ],
      "name": "transferOwnership",
      "outputs": [],
      "stateMutability": "nonpayable",
      "type": "function"
    }
  ],
  "transactionHash": "0xe9acb8842d042449a78758c1df34716c5171c223cbfed4ce69d01f13557fed57",
  "args": [
    "0x6FF1BFa14A57594a5874B37ff6AC5efbD9F9599A"
  ],
  "solcInputHash": "faa4720f9fa8b5eca47ef6909fc04dce",
  "bytecode": "0x60806040523480156200001157600080fd5b5060405162000eec38038062000eec833981810160405260208110156200003757600080fd5b50516000620000456200010f565b600080546001600160a01b0319166001600160a01b0383169081178255604051929350917f8be0079c531659141344cd1fd0a4f28419497f9722a3daafe3b4186f6b6457e0908290a350620000a36200009d6200010f565b62000113565b620000bc57620000bc620000b66200010f565b62000136565b620000d0620000ca6200010f565b62000188565b620000e957620000e9620000e36200010f565b620001a5565b600380546001600160a01b0319166001600160a01b0392909216919091179055620002e4565b3390565b600062000130826001620001f760201b620007fd1790919060201c565b92915050565b620001518160016200026060201b620008641790919060201c565b6040516001600160a01b038216907fac6fa858e9350a46cec16539926e0fde25b7629f84b5a72bffaae4df888ae86d90600090a250565b600062000130826002620001f760201b620007fd1790919060201c565b620001c08160026200026060201b620008641790919060201c565b6040516001600160a01b038216907f9dfd431959d2d3358e3eb909555ad574123ea5881ff0e05a80f66d4984710c1b90600090a250565b60006001600160a01b038216620002405760405162461bcd60e51b815260040180806020018281038252602281526020018062000eca6022913960400191505060405180910390fd5b506001600160a01b03166000908152602091909152604090205460ff1690565b6200026c8282620001f7565b15620002bf576040805162461bcd60e51b815260206004820152601f60248201527f526f6c65733a206163636f756e7420616c72656164792068617320726f6c6500604482015290519081900360640190fd5b6001600160a01b0316600090815260209190915260409020805460ff19166001179055565b610bd680620002f46000396000f3fe608060405234801561001057600080fd5b50600436106100b45760003560e01c80638e478cab116100715780638e478cab146101575780639870d7fe1461017d578063b3ab15fb146101a3578063d914cd4b146101c9578063e4e103dc146101ef578063f2fde38b1461021b576100b4565b80632ab6f8db146100b957806340cc8518146100c357806356d3590b146100cb5780636d70f7ae146100f1578063715018a61461012b5780638da5cb5b14610133575b600080fd5b6100c1610241565b005b6100c1610253565b6100c1600480360360208110156100e157600080fd5b50356001600160a01b0316610263565b6101176004803603602081101561010757600080fd5b50356001600160a01b03166102ba565b604080519115158252519081900360200190f35b6100c16102cd565b61013b61038b565b604080516001600160a01b039092168252519081900360200190f35b6101176004803603602081101561016d57600080fd5b50356001600160a01b031661039a565b6100c16004803603602081101561019357600080fd5b50356001600160a01b03166103a7565b6100c1600480360360208110156101b957600080fd5b50356001600160a01b03166103fb565b6100c1600480360360208110156101df57600080fd5b50356001600160a01b03166104fc565b6100c16004803603604081101561020557600080fd5b506001600160a01b0381351690602001356105cf565b6100c16004803603602081101561023157600080fd5b50356001600160a01b03166106e9565b61025161024c6108e5565b6108e9565b565b61025161025e6108e5565b61092b565b61027361026e6108e5565b61039a565b6102ae5760405162461bcd60e51b8152600401808060200182810382526034815260200180610b6d6034913960400191505060405180910390fd5b6102b78161096d565b50565b60006102c76001836107fd565b92915050565b6102d56108e5565b6001600160a01b03166102e661038b565b6001600160a01b031614610341576040805162461bcd60e51b815260206004820181905260248201527f4f776e61626c653a2063616c6c6572206973206e6f7420746865206f776e6572604482015290519081900360640190fd5b600080546040516001600160a01b03909116907f8be0079c531659141344cd1fd0a4f28419497f9722a3daafe3b4186f6b6457e0908390a3600080546001600160a01b0319169055565b6000546001600160a01b031690565b60006102c76002836107fd565b6103b76103b26108e5565b6102ba565b6103f25760405162461bcd60e51b8152600401808060200182810382526034815260200180610ad16034913960400191505060405180910390fd5b6102b7816109af565b6104036108e5565b6001600160a01b031661041461038b565b6001600160a01b03161461046f576040805162461bcd60e51b815260206004820181905260248201527f4f776e61626c653a2063616c6c6572206973206e6f7420746865206f776e6572604482015290519081900360640190fd5b6001600160a01b0381166104b45760405162461bcd60e51b815260040180806020018281038252602d815260200180610aa4602d913960400191505060405180910390fd5b6104bd816103a7565b604080516001600160a01b038316815290517fdbebfba65bd6398fb722063efc10c99f624f9cd8ba657201056af918a676d5ee9181900360200190a150565b6105076103b26108e5565b6105425760405162461bcd60e51b8152600401808060200182810382526034815260200180610ad16034913960400191505060405180910390fd5b6001600160a01b0381166105875760405162461bcd60e51b8152600401808060200182810382526025815260200180610b056025913960400191505060405180910390fd5b61059081610263565b604080516001600160a01b038316815290517fcf0aff36caea97f7ad632b334936cb196014c193ac1a790b578f12a70d9836db9181900360200190a150565b6105da61026e6108e5565b6106155760405162461bcd60e51b8152600401808060200182810382526034815260200180610b6d6034913960400191505060405180910390fd5b6001600160a01b03821661065a5760405162461bcd60e51b8152600401808060200182810382526025815260200180610a7f6025913960400191505060405180910390fd5b6003546040805163a9059cbb60e01b81526001600160a01b038581166004830152602482018590529151919092169163a9059cbb9160448083019260209291908290030181600087803b1580156106b057600080fd5b505af11580156106c4573d6000803e3d6000fd5b505050506040513d60208110156106da57600080fd5b50516106e557600080fd5b5050565b6106f16108e5565b6001600160a01b031661070261038b565b6001600160a01b03161461075d576040805162461bcd60e51b815260206004820181905260248201527f4f776e61626c653a2063616c6c6572206973206e6f7420746865206f776e6572604482015290519081900360640190fd5b6001600160a01b0381166107a25760405162461bcd60e51b8152600401808060200182810382526026815260200180610a596026913960400191505060405180910390fd5b600080546040516001600160a01b03808516939216917f8be0079c531659141344cd1fd0a4f28419497f9722a3daafe3b4186f6b6457e091a3600080546001600160a01b0319166001600160a01b0392909216919091179055565b60006001600160a01b0382166108445760405162461bcd60e51b8152600401808060200182810382526022815260200180610b4b6022913960400191505060405180910390fd5b506001600160a01b03166000908152602091909152604090205460ff1690565b61086e82826107fd565b156108c0576040805162461bcd60e51b815260206004820152601f60248201527f526f6c65733a206163636f756e7420616c72656164792068617320726f6c6500604482015290519081900360640190fd5b6001600160a01b0316600090815260209190915260409020805460ff19166001179055565b3390565b6108f46001826109f1565b6040516001600160a01b038216907f80c0b871b97b595b16a7741c1b06fed0c6f6f558639f18ccbce50724325dc40d90600090a250565b6109366002826109f1565b6040516001600160a01b038216907fce699c579f0b70ea4ccd6a4b38be26726a2c248b89c7102ccbc5d0f3060ef6d090600090a250565b610978600282610864565b6040516001600160a01b038216907f9dfd431959d2d3358e3eb909555ad574123ea5881ff0e05a80f66d4984710c1b90600090a250565b6109ba600182610864565b6040516001600160a01b038216907fac6fa858e9350a46cec16539926e0fde25b7629f84b5a72bffaae4df888ae86d90600090a250565b6109fb82826107fd565b610a365760405162461bcd60e51b8152600401808060200182810382526021815260200180610b2a6021913960400191505060405180910390fd5b6001600160a01b0316600090815260209190915260409020805460ff1916905556fe4f776e61626c653a206e6577206f776e657220697320746865207a65726f2061646472657373526577617264733a205573657220616464726573732063616e6e6f74206265207a65726f2e526577617264733a204e6577204f70657261746f7220616464726573732063616e6e6f74206265207a65726f2e4f70657261746f72526f6c653a2063616c6c657220646f6573206e6f74206861766520746865204f70657261746f7220726f6c65526577617264733a20506f6f6c20616464726573732063616e6e6f74206265207a65726f2e526f6c65733a206163636f756e7420646f6573206e6f74206861766520726f6c65526f6c65733a206163636f756e7420697320746865207a65726f20616464726573735265776172646572526f6c653a2063616c6c657220646f6573206e6f7420686176652074686520526577617264657220726f6c65a2646970667358221220d04132a35125cc4e08f7497e8c1ee7e50acc2a493fad72249b2caeb70eb3dbdf64736f6c63430007060033526f6c65733a206163636f756e7420697320746865207a65726f2061646472657373",
  "devdoc": {
    "kind": "dev",
    "methods": {
      "owner()": {
        "details": "Returns the address of the current owner."
      },
      "renounceOwnership()": {
        "details": "Leaves the contract without owner. It will not be possible to call `onlyOwner` functions anymore. Can only be called by the current owner. NOTE: Renouncing ownership will leave the contract without an owner, thereby removing any functionality that is only available to the owner."
      },
      "transferOwnership(address)": {
        "details": "Transfers ownership of the contract to a new account (`newOwner`). Can only be called by the current owner."
      }
    },
    "version": 1
  },
  "userdoc": {
    "kind": "user",
    "methods": {},
    "version": 1
  },
  "storageLayout": {
    "storage": [
      {
        "astId": 53,
        "contract": "contracts/Staking/RewardManager.sol:RewardManager",
        "label": "_owner",
        "offset": 0,
        "slot": "0",
        "type": "t_address"
      },
      {
        "astId": 1373,
        "contract": "contracts/Staking/RewardManager.sol:RewardManager",
        "label": "_operators",
        "offset": 0,
        "slot": "1",
        "type": "t_struct(Role)1704_storage"
      },
      {
        "astId": 1601,
        "contract": "contracts/Staking/RewardManager.sol:RewardManager",
        "label": "_rewarders",
        "offset": 0,
        "slot": "2",
        "type": "t_struct(Role)1704_storage"
      },
      {
        "astId": 1799,
        "contract": "contracts/Staking/RewardManager.sol:RewardManager",
        "label": "totemToken",
        "offset": 0,
        "slot": "3",
        "type": "t_contract(TotemToken)3962"
      },
      {
        "astId": 1801,
        "contract": "contracts/Staking/RewardManager.sol:RewardManager",
        "label": "operator",
        "offset": 0,
        "slot": "4",
        "type": "t_address"
      }
    ],
    "types": {
      "t_address": {
        "encoding": "inplace",
        "label": "address",
        "numberOfBytes": "20"
      },
      "t_bool": {
        "encoding": "inplace",
        "label": "bool",
        "numberOfBytes": "1"
      },
      "t_contract(TotemToken)3962": {
        "encoding": "inplace",
        "label": "contract TotemToken",
        "numberOfBytes": "20"
      },
      "t_mapping(t_address,t_bool)": {
        "encoding": "mapping",
        "key": "t_address",
        "label": "mapping(address => bool)",
        "numberOfBytes": "32",
        "value": "t_bool"
      },
      "t_struct(Role)1704_storage": {
        "encoding": "inplace",
        "label": "struct Roles.Role",
        "members": [
          {
            "astId": 1703,
            "contract": "contracts/Staking/RewardManager.sol:RewardManager",
            "label": "bearer",
            "offset": 0,
            "slot": "0",
            "type": "t_mapping(t_address,t_bool)"
          }
        ],
        "numberOfBytes": "32"
      }
    }
  }
}