{
  "address": "0x3b751ca2664A131154213cD1DFa67575d05A9724",
  "abi": [
    {
      "inputs": [
        {
          "internalType": "contract TotemToken",
          "name": "_totemToken",
          "type": "address"
        }
      ],
      "stateMutability": "nonpayable",
      "type": "constructor"
    },
    {
      "anonymous": false,
      "inputs": [
        {
          "indexed": true,
          "internalType": "address",
          "name": "account",
          "type": "address"
        }
      ],
      "name": "ManagerAdded",
      "type": "event"
    },
    {
      "anonymous": false,
      "inputs": [
        {
          "indexed": true,
          "internalType": "address",
          "name": "account",
          "type": "address"
        }
      ],
      "name": "ManagerRemoved",
      "type": "event"
    },
    {
      "anonymous": false,
      "inputs": [
        {
          "indexed": true,
          "internalType": "address",
          "name": "previousOwner",
          "type": "address"
        },
        {
          "indexed": true,
          "internalType": "address",
          "name": "newOwner",
          "type": "address"
        }
      ],
      "name": "OwnershipTransferred",
      "type": "event"
    },
    {
      "inputs": [
        {
          "internalType": "address",
          "name": "account",
          "type": "address"
        }
      ],
      "name": "addManager",
      "outputs": [],
      "stateMutability": "nonpayable",
      "type": "function"
    },
    {
      "inputs": [],
      "name": "distributeTokens",
      "outputs": [],
      "stateMutability": "nonpayable",
      "type": "function"
    },
    {
      "inputs": [
        {
          "internalType": "address",
          "name": "account",
          "type": "address"
        }
      ],
      "name": "isManager",
      "outputs": [
        {
          "internalType": "bool",
          "name": "",
          "type": "bool"
        }
      ],
      "stateMutability": "view",
      "type": "function"
    },
    {
      "inputs": [],
      "name": "owner",
      "outputs": [
        {
          "internalType": "address",
          "name": "",
          "type": "address"
        }
      ],
      "stateMutability": "view",
      "type": "function"
    },
    {
      "inputs": [
        {
          "internalType": "address",
          "name": "account",
          "type": "address"
        }
      ],
      "name": "removeManager",
      "outputs": [],
      "stateMutability": "nonpayable",
      "type": "function"
    },
    {
      "inputs": [],
      "name": "renounceManager",
      "outputs": [],
      "stateMutability": "nonpayable",
      "type": "function"
    },
    {
      "inputs": [],
      "name": "renounceOwnership",
      "outputs": [],
      "stateMutability": "nonpayable",
      "type": "function"
    },
    {
      "inputs": [
        {
          "internalType": "address",
          "name": "_CommunityDevelopmentAddr",
          "type": "address"
        },
        {
          "internalType": "address",
          "name": "_StakingRewardsAddr",
          "type": "address"
        },
        {
          "internalType": "address",
          "name": "_LiquidityPoolAddr",
          "type": "address"
        },
        {
          "internalType": "address",
          "name": "_PublicSaleAddr",
          "type": "address"
        },
        {
          "internalType": "address",
          "name": "_AdvisorsAddr",
          "type": "address"
        },
        {
          "internalType": "address",
          "name": "_SeedInvestmentAddr",
          "type": "address"
        },
        {
          "internalType": "address",
          "name": "_PrivateSaleAddr",
          "type": "address"
        },
        {
          "internalType": "address",
          "name": "_TeamAllocationAddr",
          "type": "address"
        },
        {
          "internalType": "address",
          "name": "_StrategicRoundAddr",
          "type": "address"
        }
      ],
      "name": "setDistributionTeamsAddresses",
      "outputs": [],
      "stateMutability": "nonpayable",
      "type": "function"
    },
    {
      "inputs": [
        {
          "internalType": "address",
          "name": "_locker",
          "type": "address"
        }
      ],
      "name": "setLocker",
      "outputs": [],
      "stateMutability": "nonpayable",
      "type": "function"
    },
    {
      "inputs": [
        {
          "internalType": "address",
          "name": "account",
          "type": "address"
        },
        {
          "internalType": "bool",
          "name": "status",
          "type": "bool"
        }
      ],
      "name": "setTaxExemptStatus",
      "outputs": [],
      "stateMutability": "nonpayable",
      "type": "function"
    },
    {
      "inputs": [
        {
          "internalType": "uint256",
          "name": "newTaxRate",
          "type": "uint256"
        }
      ],
      "name": "setTaxRate",
      "outputs": [],
      "stateMutability": "nonpayable",
      "type": "function"
    },
    {
      "inputs": [
        {
          "internalType": "address",
          "name": "newTaxationWallet",
          "type": "address"
        }
      ],
      "name": "setTaxationWallet",
      "outputs": [],
      "stateMutability": "nonpayable",
      "type": "function"
    },
    {
      "inputs": [
        {
          "internalType": "address",
          "name": "newOwner",
          "type": "address"
        }
      ],
      "name": "totemTokenTransferOwnership",
      "outputs": [],
      "stateMutability": "nonpayable",
      "type": "function"
    },
    {
      "inputs": [
        {
          "internalType": "address",
          "name": "newOwner",
          "type": "address"
        }
      ],
      "name": "transferOwnership",
      "outputs": [],
      "stateMutability": "nonpayable",
      "type": "function"
    }
  ],
  "transactionHash": "0x50369b59fc15b3f405a68bc9e9fe37b1f44a5bffeb520185922b7c1ebfa29ebe",
  "args": [
    "0x6FF1BFa14A57594a5874B37ff6AC5efbD9F9599A"
  ],
  "solcInputHash": "16065098d390b813c73eb47e61975614",
  "bytecode": "0x60806040523480156200001157600080fd5b506040516200102338038062001023833981810160405260208110156200003757600080fd5b5051600062000045620000e2565b600080546001600160a01b0319166001600160a01b0383169081178255604051929350917f8be0079c531659141344cd1fd0a4f28419497f9722a3daafe3b4186f6b6457e0908290a350620000a36200009d620000e2565b620000e6565b620000bc57620000bc620000b6620000e2565b62000109565b600180546001600160a01b0319166001600160a01b039290921691909117905562000248565b3390565b6000620001038260026200015b60201b62000ae91790919060201c565b92915050565b62000124816002620001c460201b62000b501790919060201c565b6040516001600160a01b038216907f3b4a40cccf2058c593542587329dd385be4f0b588db5471fbd9598e56dd7093a90600090a250565b60006001600160a01b038216620001a45760405162461bcd60e51b8152600401808060200182810382526022815260200180620010016022913960400191505060405180910390fd5b506001600160a01b03166000908152602091909152604090205460ff1690565b620001d082826200015b565b1562000223576040805162461bcd60e51b815260206004820152601f60248201527f526f6c65733a206163636f756e7420616c72656164792068617320726f6c6500604482015290519081900360640190fd5b6001600160a01b0316600090815260209190915260409020805460ff19166001179055565b610da980620002586000396000f3fe608060405234801561001057600080fd5b50600436106100ea5760003560e01c8063abd7b03f1161008c578063c6d69a3011610066578063c6d69a301461027b578063f2fde38b14610298578063f3ae2415146102be578063f8b91abe146102f8576100ea565b8063abd7b03f14610201578063ac18de4314610227578063c125c8611461024d576100ea565b8063715018a6116100c8578063715018a6146101635780638da5cb5b1461016b5780639ab1b4841461018f578063a8d61e9c14610197576100ea565b8063171060ec146100ef57806328e2f997146101175780632d06177a1461013d575b600080fd5b6101156004803603602081101561010557600080fd5b50356001600160a01b0316610300565b005b6101156004803603602081101561012d57600080fd5b50356001600160a01b03166103cb565b6101156004803603602081101561015357600080fd5b50356001600160a01b031661047b565b6101156104e9565b61017361054d565b604080516001600160a01b039092168252519081900360200190f35b61011561055c565b61011560048036036101208110156101ae57600080fd5b506001600160a01b038135811691602081013582169160408201358116916060810135821691608082013581169160a081013582169160c082013581169160e08101358216916101009091013516610628565b6101156004803603602081101561021757600080fd5b50356001600160a01b031661073d565b6101156004803603602081101561023d57600080fd5b50356001600160a01b03166107ed565b6101156004803603604081101561026357600080fd5b506001600160a01b0381351690602001351515610858565b6101156004803603602081101561029157600080fd5b5035610915565b610115600480360360208110156102ae57600080fd5b50356001600160a01b03166109c4565b6102e4600480360360208110156102d457600080fd5b50356001600160a01b0316610ac6565b604080519115158252519081900360200190f35b610115610ad9565b610308610bd1565b6001600160a01b031661031961054d565b6001600160a01b031614610362576040805162461bcd60e51b81526020600482018190526024820152600080516020610d32833981519152604482015290519081900360640190fd5b600154604080516305c4183b60e21b81526001600160a01b0384811660048301529151919092169163171060ec91602480830192600092919082900301818387803b1580156103b057600080fd5b505af11580156103c4573d6000803e3d6000fd5b5050505050565b6103d3610bd1565b6001600160a01b03166103e461054d565b6001600160a01b03161461042d576040805162461bcd60e51b81526020600482018190526024820152600080516020610d32833981519152604482015290519081900360640190fd5b600154604080516328e2f99760e01b81526001600160a01b038481166004830152915191909216916328e2f99791602480830192600092919082900301818387803b1580156103b057600080fd5b610483610bd1565b6001600160a01b031661049461054d565b6001600160a01b0316146104dd576040805162461bcd60e51b81526020600482018190526024820152600080516020610d32833981519152604482015290519081900360640190fd5b6104e681610bd5565b50565b6104f1610bd1565b6001600160a01b031661050261054d565b6001600160a01b03161461054b576040805162461bcd60e51b81526020600482018190526024820152600080516020610d32833981519152604482015290519081900360640190fd5b565b6000546001600160a01b031690565b610564610bd1565b6001600160a01b031661057561054d565b6001600160a01b0316146105be576040805162461bcd60e51b81526020600482018190526024820152600080516020610d32833981519152604482015290519081900360640190fd5b600160009054906101000a90046001600160a01b03166001600160a01b0316639ab1b4846040518163ffffffff1660e01b8152600401600060405180830381600087803b15801561060e57600080fd5b505af1158015610622573d6000803e3d6000fd5b50505050565b610630610bd1565b6001600160a01b031661064161054d565b6001600160a01b03161461068a576040805162461bcd60e51b81526020600482018190526024820152600080516020610d32833981519152604482015290519081900360640190fd5b60015460408051632a3587a760e21b81526001600160a01b038c811660048301528b811660248301528a811660448301528981166064830152888116608483015287811660a483015286811660c483015285811660e48301528481166101048301529151919092169163a8d61e9c9161012480830192600092919082900301818387803b15801561071a57600080fd5b505af115801561072e573d6000803e3d6000fd5b50505050505050505050505050565b610745610bd1565b6001600160a01b031661075661054d565b6001600160a01b03161461079f576040805162461bcd60e51b81526020600482018190526024820152600080516020610d32833981519152604482015290519081900360640190fd5b6001546040805163f2fde38b60e01b81526001600160a01b0384811660048301529151919092169163f2fde38b91602480830192600092919082900301818387803b1580156103b057600080fd5b6107f5610bd1565b6001600160a01b031661080661054d565b6001600160a01b03161461084f576040805162461bcd60e51b81526020600482018190526024820152600080516020610d32833981519152604482015290519081900360640190fd5b6104e681610c17565b610868610863610bd1565b610ac6565b6108a35760405162461bcd60e51b815260040180806020018281038252602a815260200180610ce7602a913960400191505060405180910390fd5b6001546040805163c125c86160e01b81526001600160a01b03858116600483015284151560248301529151919092169163c125c86191604480830192600092919082900301818387803b1580156108f957600080fd5b505af115801561090d573d6000803e3d6000fd5b505050505050565b61091d610bd1565b6001600160a01b031661092e61054d565b6001600160a01b031614610977576040805162461bcd60e51b81526020600482018190526024820152600080516020610d32833981519152604482015290519081900360640190fd5b60015460408051630c6d69a360e41b81526004810184905290516001600160a01b039092169163c6d69a309160248082019260009290919082900301818387803b1580156103b057600080fd5b6109cc610bd1565b6001600160a01b03166109dd61054d565b6001600160a01b031614610a26576040805162461bcd60e51b81526020600482018190526024820152600080516020610d32833981519152604482015290519081900360640190fd5b6001600160a01b038116610a6b5760405162461bcd60e51b8152600401808060200182810382526026815260200180610cc16026913960400191505060405180910390fd5b600080546040516001600160a01b03808516939216917f8be0079c531659141344cd1fd0a4f28419497f9722a3daafe3b4186f6b6457e091a3600080546001600160a01b0319166001600160a01b0392909216919091179055565b6000610ad3600283610ae9565b92915050565b61054b610ae4610bd1565b610c17565b60006001600160a01b038216610b305760405162461bcd60e51b8152600401808060200182810382526022815260200180610d526022913960400191505060405180910390fd5b506001600160a01b03166000908152602091909152604090205460ff1690565b610b5a8282610ae9565b15610bac576040805162461bcd60e51b815260206004820152601f60248201527f526f6c65733a206163636f756e7420616c72656164792068617320726f6c6500604482015290519081900360640190fd5b6001600160a01b0316600090815260209190915260409020805460ff19166001179055565b3390565b610be0600282610b50565b6040516001600160a01b038216907f3b4a40cccf2058c593542587329dd385be4f0b588db5471fbd9598e56dd7093a90600090a250565b610c22600282610c59565b6040516001600160a01b038216907fef69f7d97228658c92417be1b16b19058315de71fecb435d07b7d23728b6bd3190600090a250565b610c638282610ae9565b610c9e5760405162461bcd60e51b8152600401808060200182810382526021815260200180610d116021913960400191505060405180910390fd5b6001600160a01b0316600090815260209190915260409020805460ff1916905556fe4f776e61626c653a206e6577206f776e657220697320746865207a65726f2061646472657373303130302063616c6c657220646f6573206e6f74206861766520746865204d616e6167657220726f6c65526f6c65733a206163636f756e7420646f6573206e6f74206861766520726f6c654f776e61626c653a2063616c6c6572206973206e6f7420746865206f776e6572526f6c65733a206163636f756e7420697320746865207a65726f2061646472657373a26469706673582212200b343303b548ffffb2fe43fedb5944d46dd42e194367fa3a03ca0a75074821c264736f6c63430007060033526f6c65733a206163636f756e7420697320746865207a65726f2061646472657373",
  "devdoc": {
    "kind": "dev",
    "methods": {
      "owner()": {
        "details": "Returns the address of the current owner."
      },
      "renounceOwnership()": {
        "details": "Leaves the contract without owner. It will not be possible to call `onlyOwner` functions anymore. Can only be called by the current owner. NOTE: Renouncing ownership will leave the contract without an owner, thereby removing any functionality that is only available to the owner."
      },
      "transferOwnership(address)": {
        "details": "Transfers ownership of the contract to a new account (`newOwner`). Can only be called by the current owner."
      }
    },
    "version": 1
  },
  "userdoc": {
    "kind": "user",
    "methods": {},
    "version": 1
  },
  "storageLayout": {
    "storage": [
      {
        "astId": 53,
        "contract": "contracts/TotemTokenManager.sol:TotemTokenManager",
        "label": "_owner",
        "offset": 0,
        "slot": "0",
        "type": "t_address"
      },
      {
        "astId": 6304,
        "contract": "contracts/TotemTokenManager.sol:TotemTokenManager",
        "label": "totemToken",
        "offset": 0,
        "slot": "1",
        "type": "t_contract(TotemToken)6294"
      },
      {
        "astId": 6309,
        "contract": "contracts/TotemTokenManager.sol:TotemTokenManager",
        "label": "_managers",
        "offset": 0,
        "slot": "2",
        "type": "t_struct(Role)2284_storage"
      }
    ],
    "types": {
      "t_address": {
        "encoding": "inplace",
        "label": "address",
        "numberOfBytes": "20"
      },
      "t_bool": {
        "encoding": "inplace",
        "label": "bool",
        "numberOfBytes": "1"
      },
      "t_contract(TotemToken)6294": {
        "encoding": "inplace",
        "label": "contract TotemToken",
        "numberOfBytes": "20"
      },
      "t_mapping(t_address,t_bool)": {
        "encoding": "mapping",
        "key": "t_address",
        "label": "mapping(address => bool)",
        "numberOfBytes": "32",
        "value": "t_bool"
      },
      "t_struct(Role)2284_storage": {
        "encoding": "inplace",
        "label": "struct Roles.Role",
        "members": [
          {
            "astId": 2283,
            "contract": "contracts/TotemTokenManager.sol:TotemTokenManager",
            "label": "bearer",
            "offset": 0,
            "slot": "0",
            "type": "t_mapping(t_address,t_bool)"
          }
        ],
        "numberOfBytes": "32"
      }
    }
  }
}