{
  "address": "0x43874AE000690840ecD79aA3599aA9A6f4b07285",
  "abi": [
    {
      "inputs": [
        {
          "internalType": "contract TotemToken",
          "name": "_totemToken",
          "type": "address"
        }
      ],
      "stateMutability": "nonpayable",
      "type": "constructor"
    },
    {
      "anonymous": false,
      "inputs": [
        {
          "indexed": true,
          "internalType": "address",
          "name": "previousOwner",
          "type": "address"
        },
        {
          "indexed": true,
          "internalType": "address",
          "name": "newOwner",
          "type": "address"
        }
      ],
      "name": "OwnershipTransferred",
      "type": "event"
    },
    {
      "anonymous": false,
      "inputs": [
        {
          "indexed": false,
          "internalType": "uint256",
          "name": "startTime",
          "type": "uint256"
        }
      ],
      "name": "StartTimeSet",
      "type": "event"
    },
    {
      "anonymous": false,
      "inputs": [
        {
          "indexed": false,
          "internalType": "address",
          "name": "registeredAddress",
          "type": "address"
        },
        {
          "indexed": false,
          "internalType": "uint256",
          "name": "totalAmount",
          "type": "uint256"
        }
      ],
      "name": "VestingScheduleRegistered",
      "type": "event"
    },
    {
      "anonymous": false,
      "inputs": [
        {
          "indexed": false,
          "internalType": "address",
          "name": "registeredAddress",
          "type": "address"
        },
        {
          "indexed": false,
          "internalType": "uint256",
          "name": "amountWithdrawn",
          "type": "uint256"
        }
      ],
      "name": "Withdraw",
      "type": "event"
    },
    {
      "inputs": [],
      "name": "LOCK_PERIODS",
      "outputs": [
        {
          "internalType": "uint256",
          "name": "",
          "type": "uint256"
        }
      ],
      "stateMutability": "view",
      "type": "function"
    },
    {
      "inputs": [],
      "name": "RELEASE_PERIODS",
      "outputs": [
        {
          "internalType": "uint256",
          "name": "",
          "type": "uint256"
        }
      ],
      "stateMutability": "view",
      "type": "function"
    },
    {
      "inputs": [],
      "name": "TOTAL_AMOUNT",
      "outputs": [
        {
          "internalType": "uint256",
          "name": "",
          "type": "uint256"
        }
      ],
      "stateMutability": "view",
      "type": "function"
    },
    {
      "inputs": [],
      "name": "WITHDRAW_INTERVAL",
      "outputs": [
        {
          "internalType": "uint256",
          "name": "",
          "type": "uint256"
        }
      ],
      "stateMutability": "view",
      "type": "function"
    },
    {
      "inputs": [
        {
          "internalType": "address",
          "name": "_newRecipient",
          "type": "address"
        },
        {
          "internalType": "uint256",
          "name": "_totalAmount",
          "type": "uint256"
        }
      ],
      "name": "addRecipient",
      "outputs": [],
      "stateMutability": "nonpayable",
      "type": "function"
    },
    {
      "inputs": [],
      "name": "isStartTimeSet",
      "outputs": [
        {
          "internalType": "bool",
          "name": "",
          "type": "bool"
        }
      ],
      "stateMutability": "view",
      "type": "function"
    },
    {
      "inputs": [],
      "name": "lockPeriods",
      "outputs": [
        {
          "internalType": "uint256",
          "name": "",
          "type": "uint256"
        }
      ],
      "stateMutability": "view",
      "type": "function"
    },
    {
      "inputs": [],
      "name": "owner",
      "outputs": [
        {
          "internalType": "address",
          "name": "",
          "type": "address"
        }
      ],
      "stateMutability": "view",
      "type": "function"
    },
    {
      "inputs": [
        {
          "internalType": "address",
          "name": "",
          "type": "address"
        }
      ],
      "name": "recipients",
      "outputs": [
        {
          "internalType": "uint256",
          "name": "totalAmount",
          "type": "uint256"
        },
        {
          "internalType": "uint256",
          "name": "amountWithdrawn",
          "type": "uint256"
        }
      ],
      "stateMutability": "view",
      "type": "function"
    },
    {
      "inputs": [],
      "name": "releasePeriods",
      "outputs": [
        {
          "internalType": "uint256",
          "name": "",
          "type": "uint256"
        }
      ],
      "stateMutability": "view",
      "type": "function"
    },
    {
      "inputs": [],
      "name": "renounceOwnership",
      "outputs": [],
      "stateMutability": "nonpayable",
      "type": "function"
    },
    {
      "inputs": [
        {
          "internalType": "uint256",
          "name": "_newStartTime",
          "type": "uint256"
        }
      ],
      "name": "setStartTime",
      "outputs": [],
      "stateMutability": "nonpayable",
      "type": "function"
    },
    {
      "inputs": [],
      "name": "startTime",
      "outputs": [
        {
          "internalType": "uint256",
          "name": "",
          "type": "uint256"
        }
      ],
      "stateMutability": "view",
      "type": "function"
    },
    {
      "inputs": [],
      "name": "totalAmount",
      "outputs": [
        {
          "internalType": "uint256",
          "name": "",
          "type": "uint256"
        }
      ],
      "stateMutability": "view",
      "type": "function"
    },
    {
      "inputs": [],
      "name": "totemToken",
      "outputs": [
        {
          "internalType": "contract TotemToken",
          "name": "",
          "type": "address"
        }
      ],
      "stateMutability": "view",
      "type": "function"
    },
    {
      "inputs": [
        {
          "internalType": "address",
          "name": "newOwner",
          "type": "address"
        }
      ],
      "name": "transferOwnership",
      "outputs": [],
      "stateMutability": "nonpayable",
      "type": "function"
    },
    {
      "inputs": [],
      "name": "unallocatedAmount",
      "outputs": [
        {
          "internalType": "uint256",
          "name": "",
          "type": "uint256"
        }
      ],
      "stateMutability": "view",
      "type": "function"
    },
    {
      "inputs": [
        {
          "internalType": "address",
          "name": "beneficiary",
          "type": "address"
        }
      ],
      "name": "vested",
      "outputs": [
        {
          "internalType": "uint256",
          "name": "_amountVested",
          "type": "uint256"
        }
      ],
      "stateMutability": "view",
      "type": "function"
    },
    {
      "inputs": [],
      "name": "withdraw",
      "outputs": [],
      "stateMutability": "nonpayable",
      "type": "function"
    },
    {
      "inputs": [],
      "name": "withdrawInterval",
      "outputs": [
        {
          "internalType": "uint256",
          "name": "",
          "type": "uint256"
        }
      ],
      "stateMutability": "view",
      "type": "function"
    },
    {
      "inputs": [
        {
          "internalType": "address",
          "name": "beneficiary",
          "type": "address"
        }
      ],
      "name": "withdrawable",
      "outputs": [
        {
          "internalType": "uint256",
          "name": "amount",
          "type": "uint256"
        }
      ],
      "stateMutability": "view",
      "type": "function"
    }
  ],
  "transactionHash": "0xca7515d937eb081e92fcdbcc7185e08c299f77e4d58de2c728ff1ba2c105dad8",
  "args": [
    "0x6FF1BFa14A57594a5874B37ff6AC5efbD9F9599A"
  ],
  "solcInputHash": "16065098d390b813c73eb47e61975614",
  "bytecode": "0x608060405234801561001057600080fd5b50604051610dc8380380610dc88339818101604052602081101561003357600080fd5b50518069d3c21bcecceda100000062278d006024600080610052610108565b600080546001600160a01b0319166001600160a01b0383169081178255604051929350917f8be0079c531659141344cd1fd0a4f28419497f9722a3daafe3b4186f6b6457e0908290a350600084116100a957600080fd5b600083116100b657600080fd5b600082116100c357600080fd5b600980546001600160a01b0319166001600160a01b0396909616959095179094556007839055600892909255600455600555600655506003805460ff1916905561010c565b3390565b610cad8061011b6000396000f3fe608060405234801561001057600080fd5b50600436106101365760003560e01c8063715018a6116100b8578063e8153c931161007c578063e8153c9314610234578063eb8203121461023c578063f2fde38b1461027b578063f361c59b146102a1578063f57c8cdf146102bd578063f7982243146102c557610136565b8063715018a6146101d257806378e97925146101da5780638da5cb5b146101e2578063a2d7f5e314610206578063ce513b6f1461020e57610136565b80633ccfd60b116100ff5780633ccfd60b146101755780633e0a322d1461017f578063494051a01461019c5780634afe5bf3146101a45780637102b728146101ac57610136565b8062ad3a231461013b578063162075d8146101555780631a39d8ef1461015d5780632509e0861461016557806330c6b5eb1461016d575b600080fd5b6101436102f1565b60408051918252519081900360200190f35b6101436102f6565b6101436102fc565b610143610302565b610143610308565b61017d61030f565b005b61017d6004803603602081101561019557600080fd5b5035610460565b610143610532565b610143610537565b610143600480360360208110156101c257600080fd5b50356001600160a01b031661053d565b61017d6106d1565b61014361077d565b6101ea610783565b604080516001600160a01b039092168252519081900360200190f35b610143610792565b6101436004803603602081101561022457600080fd5b50356001600160a01b03166107a0565b6101ea6107d5565b6102626004803603602081101561025257600080fd5b50356001600160a01b03166107e4565b6040805192835260208301919091528051918290030190f35b61017d6004803603602081101561029157600080fd5b50356001600160a01b03166107fd565b6102a96108ff565b604080519115158252519081900360200190f35b610143610908565b61017d600480360360408110156102db57600080fd5b506001600160a01b03813516906020013561090e565b602481565b60045481565b60075481565b60065481565b62278d0081565b60006001600061031d610a8e565b6001600160a01b0316815260208101919091526040016000208054909150610345575061045e565b6000610357610352610a8e565b61053d565b9050600061036b610366610a8e565b6107a0565b600184018390559050801561045a576009546001600160a01b031663a9059cbb610393610a8e565b836040518363ffffffff1660e01b815260040180836001600160a01b0316815260200182815260200192505050602060405180830381600087803b1580156103da57600080fd5b505af11580156103ee573d6000803e3d6000fd5b505050506040513d602081101561040457600080fd5b505161040f57600080fd5b7f884edad9ce6fa2440d8a54cc123490eb96d2768479d49ff9c7366125a9424364610438610a8e565b604080516001600160a01b039092168252602082018490528051918290030190a15b5050505b565b610468610a8e565b6001600160a01b0316610479610783565b6001600160a01b0316146104c2576040805162461bcd60e51b81526020600482018190526024820152600080516020610c58833981519152604482015290519081900360640190fd5b60035460ff1615806104d5575042600254115b6104de57600080fd5b4281116104ea57600080fd5b60028190556003805460ff191660011790556040805182815290517faad53c4362ef2fe5a5390cc046e71fd8423a0a8dceebc156ac9bbcd15997eec29181900360200190a150565b600081565b60085481565b6001600160a01b0381166000908152600160208181526040808420815180830190925280548252909201549082015260035460ff16158061057d57508051155b8061059357506006541580156105935750600554155b8061059f575060025442105b156105ae5760009150506106cc565b60006105c7600654600454610a9290919063ffffffff16565b6002549091506105d79082610af2565b4210156105e9576000925050506106cc565b600061060e610605600554600654610af290919063ffffffff16565b60045490610a92565b60025490915061061e9082610af2565b421061062e5750505190506106cc565b600061065160045461064b60025442610b4c90919063ffffffff16565b90610ba9565b6001019050600654811161066c5760009450505050506106cc565b60055460065461067b91610af2565b811061068e575050905191506106cc9050565b60055484516000916106a09190610ba9565b905060006106c3826106bd60065486610b4c90919063ffffffff16565b90610a92565b96505050505050505b919050565b6106d9610a8e565b6001600160a01b03166106ea610783565b6001600160a01b031614610733576040805162461bcd60e51b81526020600482018190526024820152600080516020610c58833981519152604482015290519081900360640190fd5b600080546040516001600160a01b03909116907f8be0079c531659141344cd1fd0a4f28419497f9722a3daafe3b4186f6b6457e0908390a3600080546001600160a01b0319169055565b60025481565b6000546001600160a01b031690565b69d3c21bcecceda100000081565b6001600160a01b0381166000908152600160208190526040822001546107cf906107c98461053d565b90610b4c565b92915050565b6009546001600160a01b031681565b6001602081905260009182526040909120805491015482565b610805610a8e565b6001600160a01b0316610816610783565b6001600160a01b03161461085f576040805162461bcd60e51b81526020600482018190526024820152600080516020610c58833981519152604482015290519081900360640190fd5b6001600160a01b0381166108a45760405162461bcd60e51b8152600401808060200182810382526026815260200180610c116026913960400191505060405180910390fd5b600080546040516001600160a01b03808516939216917f8be0079c531659141344cd1fd0a4f28419497f9722a3daafe3b4186f6b6457e091a3600080546001600160a01b0319166001600160a01b0392909216919091179055565b60035460ff1681565b60055481565b610916610a8e565b6001600160a01b0316610927610783565b6001600160a01b031614610970576040805162461bcd60e51b81526020600482018190526024820152600080516020610c58833981519152604482015290519081900360640190fd5b60035460ff161580610983575042600254115b61098c57600080fd5b6001600160a01b03821661099f57600080fd5b6001600160a01b038216600090815260016020526040902054156109e6576001600160a01b0382166000908152600160205260409020546008546109e291610af2565b6008555b6000811180156109f857506008548111155b610a0157600080fd5b604080518082018252828152600060208083018281526001600160a01b038716835260019182905293909120915182559151910155600854610a439082610b4c565b600855604080516001600160a01b03841681526020810183905281517f16e42921daee38136dc17f8420c371163ec8299e5299fb480d7aeff85cfac3eb929181900390910190a15050565b3390565b600082610aa1575060006107cf565b82820282848281610aae57fe5b0414610aeb5760405162461bcd60e51b8152600401808060200182810382526021815260200180610c376021913960400191505060405180910390fd5b9392505050565b600082820183811015610aeb576040805162461bcd60e51b815260206004820152601b60248201527f536166654d6174683a206164646974696f6e206f766572666c6f770000000000604482015290519081900360640190fd5b600082821115610ba3576040805162461bcd60e51b815260206004820152601e60248201527f536166654d6174683a207375627472616374696f6e206f766572666c6f770000604482015290519081900360640190fd5b50900390565b6000808211610bff576040805162461bcd60e51b815260206004820152601a60248201527f536166654d6174683a206469766973696f6e206279207a65726f000000000000604482015290519081900360640190fd5b818381610c0857fe5b04939250505056fe4f776e61626c653a206e6577206f776e657220697320746865207a65726f2061646472657373536166654d6174683a206d756c7469706c69636174696f6e206f766572666c6f774f776e61626c653a2063616c6c6572206973206e6f7420746865206f776e6572a2646970667358221220cb8dae1ccd545beaf9aefc1ea98d7f9ed06ea7eb0ef1176d3223b44157124c6364736f6c63430007060033",
  "devdoc": {
    "kind": "dev",
    "methods": {
      "owner()": {
        "details": "Returns the address of the current owner."
      },
      "renounceOwnership()": {
        "details": "Leaves the contract without owner. It will not be possible to call `onlyOwner` functions anymore. Can only be called by the current owner. NOTE: Renouncing ownership will leave the contract without an owner, thereby removing any functionality that is only available to the owner."
      },
      "transferOwnership(address)": {
        "details": "Transfers ownership of the contract to a new account (`newOwner`). Can only be called by the current owner."
      }
    },
    "version": 1
  },
  "userdoc": {
    "kind": "user",
    "methods": {},
    "version": 1
  },
  "storageLayout": {
    "storage": [
      {
        "astId": 53,
        "contract": "contracts/TotemVesting/CommunityVesting.sol:CommunityVesting",
        "label": "_owner",
        "offset": 0,
        "slot": "0",
        "type": "t_address"
      },
      {
        "astId": 6968,
        "contract": "contracts/TotemVesting/CommunityVesting.sol:CommunityVesting",
        "label": "recipients",
        "offset": 0,
        "slot": "1",
        "type": "t_mapping(t_address,t_struct(VestingSchedule)6964_storage)"
      },
      {
        "astId": 6970,
        "contract": "contracts/TotemVesting/CommunityVesting.sol:CommunityVesting",
        "label": "startTime",
        "offset": 0,
        "slot": "2",
        "type": "t_uint256"
      },
      {
        "astId": 6972,
        "contract": "contracts/TotemVesting/CommunityVesting.sol:CommunityVesting",
        "label": "isStartTimeSet",
        "offset": 0,
        "slot": "3",
        "type": "t_bool"
      },
      {
        "astId": 6974,
        "contract": "contracts/TotemVesting/CommunityVesting.sol:CommunityVesting",
        "label": "withdrawInterval",
        "offset": 0,
        "slot": "4",
        "type": "t_uint256"
      },
      {
        "astId": 6976,
        "contract": "contracts/TotemVesting/CommunityVesting.sol:CommunityVesting",
        "label": "releasePeriods",
        "offset": 0,
        "slot": "5",
        "type": "t_uint256"
      },
      {
        "astId": 6978,
        "contract": "contracts/TotemVesting/CommunityVesting.sol:CommunityVesting",
        "label": "lockPeriods",
        "offset": 0,
        "slot": "6",
        "type": "t_uint256"
      },
      {
        "astId": 6980,
        "contract": "contracts/TotemVesting/CommunityVesting.sol:CommunityVesting",
        "label": "totalAmount",
        "offset": 0,
        "slot": "7",
        "type": "t_uint256"
      },
      {
        "astId": 6982,
        "contract": "contracts/TotemVesting/CommunityVesting.sol:CommunityVesting",
        "label": "unallocatedAmount",
        "offset": 0,
        "slot": "8",
        "type": "t_uint256"
      },
      {
        "astId": 6984,
        "contract": "contracts/TotemVesting/CommunityVesting.sol:CommunityVesting",
        "label": "totemToken",
        "offset": 0,
        "slot": "9",
        "type": "t_contract(TotemToken)6294"
      }
    ],
    "types": {
      "t_address": {
        "encoding": "inplace",
        "label": "address",
        "numberOfBytes": "20"
      },
      "t_bool": {
        "encoding": "inplace",
        "label": "bool",
        "numberOfBytes": "1"
      },
      "t_contract(TotemToken)6294": {
        "encoding": "inplace",
        "label": "contract TotemToken",
        "numberOfBytes": "20"
      },
      "t_mapping(t_address,t_struct(VestingSchedule)6964_storage)": {
        "encoding": "mapping",
        "key": "t_address",
        "label": "mapping(address => struct TotemVesting.VestingSchedule)",
        "numberOfBytes": "32",
        "value": "t_struct(VestingSchedule)6964_storage"
      },
      "t_struct(VestingSchedule)6964_storage": {
        "encoding": "inplace",
        "label": "struct TotemVesting.VestingSchedule",
        "members": [
          {
            "astId": 6961,
            "contract": "contracts/TotemVesting/CommunityVesting.sol:CommunityVesting",
            "label": "totalAmount",
            "offset": 0,
            "slot": "0",
            "type": "t_uint256"
          },
          {
            "astId": 6963,
            "contract": "contracts/TotemVesting/CommunityVesting.sol:CommunityVesting",
            "label": "amountWithdrawn",
            "offset": 0,
            "slot": "1",
            "type": "t_uint256"
          }
        ],
        "numberOfBytes": "64"
      },
      "t_uint256": {
        "encoding": "inplace",
        "label": "uint256",
        "numberOfBytes": "32"
      }
    }
  }
}