{
  "address": "0x0D7646d015a5576F7fEf090fAC0F7F5bb88B8EfF",
  "abi": [
    {
      "inputs": [
        {
          "internalType": "contract TotemToken",
          "name": "_totemToken",
          "type": "address"
        },
        {
          "internalType": "contract RewardManager",
          "name": "_rewardManager",
          "type": "address"
        },
        {
          "internalType": "address",
          "name": "_swapRouter",
          "type": "address"
        },
        {
          "internalType": "address",
          "name": "_usdToken",
          "type": "address"
        }
      ],
      "stateMutability": "nonpayable",
      "type": "constructor"
    },
    {
      "anonymous": false,
      "inputs": [
        {
          "indexed": true,
          "internalType": "address",
          "name": "pool",
          "type": "address"
        },
        {
          "indexed": false,
          "internalType": "uint256[10]",
          "name": "variables",
          "type": "uint256[10]"
        },
        {
          "indexed": false,
          "internalType": "bool",
          "name": "isEnhancedEnabled",
          "type": "bool"
        }
      ],
      "name": "PoolCreated",
      "type": "event"
    },
    {
      "anonymous": false,
      "inputs": [
        {
          "indexed": true,
          "internalType": "address",
          "name": "account",
          "type": "address"
        }
      ],
      "name": "PoolCreatorAdded",
      "type": "event"
    },
    {
      "anonymous": false,
      "inputs": [
        {
          "indexed": true,
          "internalType": "address",
          "name": "account",
          "type": "address"
        }
      ],
      "name": "PoolCreatorRemoved",
      "type": "event"
    },
    {
      "inputs": [
        {
          "internalType": "address",
          "name": "account",
          "type": "address"
        }
      ],
      "name": "addPoolCreator",
      "outputs": [],
      "stateMutability": "nonpayable",
      "type": "function"
    },
    {
      "inputs": [
        {
          "internalType": "address",
          "name": "_oracleContract",
          "type": "address"
        },
        {
          "internalType": "address",
          "name": "_wrappedTokenContract",
          "type": "address"
        },
        {
          "internalType": "string",
          "name": "_wrappedTokenSymbole",
          "type": "string"
        },
        {
          "internalType": "string",
          "name": "_poolType",
          "type": "string"
        },
        {
          "internalType": "uint256[10]",
          "name": "_variables",
          "type": "uint256[10]"
        },
        {
          "internalType": "bool",
          "name": "isEnhancedEnabled",
          "type": "bool"
        }
      ],
      "name": "create",
      "outputs": [
        {
          "internalType": "address",
          "name": "",
          "type": "address"
        }
      ],
      "stateMutability": "nonpayable",
      "type": "function"
    },
    {
      "inputs": [
        {
          "internalType": "address",
          "name": "account",
          "type": "address"
        }
      ],
      "name": "isPoolCreator",
      "outputs": [
        {
          "internalType": "bool",
          "name": "",
          "type": "bool"
        }
      ],
      "stateMutability": "view",
      "type": "function"
    },
    {
      "inputs": [],
      "name": "minimumStakeAmount",
      "outputs": [
        {
          "internalType": "uint256",
          "name": "",
          "type": "uint256"
        }
      ],
      "stateMutability": "view",
      "type": "function"
    },
    {
      "inputs": [],
      "name": "renouncePoolCreator",
      "outputs": [],
      "stateMutability": "nonpayable",
      "type": "function"
    },
    {
      "inputs": [],
      "name": "rewardManager",
      "outputs": [
        {
          "internalType": "contract RewardManager",
          "name": "",
          "type": "address"
        }
      ],
      "stateMutability": "view",
      "type": "function"
    },
    {
      "inputs": [
        {
          "internalType": "uint256",
          "name": "newStakingPoolTaxRate",
          "type": "uint256"
        }
      ],
      "name": "setDefaultTaxRate",
      "outputs": [],
      "stateMutability": "nonpayable",
      "type": "function"
    },
    {
      "inputs": [
        {
          "internalType": "uint256",
          "name": "newMinimumStakeAmount",
          "type": "uint256"
        }
      ],
      "name": "setMinimuntToStake",
      "outputs": [],
      "stateMutability": "nonpayable",
      "type": "function"
    },
    {
      "inputs": [
        {
          "internalType": "address",
          "name": "_swapRouter",
          "type": "address"
        }
      ],
      "name": "setSwapRouter",
      "outputs": [],
      "stateMutability": "nonpayable",
      "type": "function"
    },
    {
      "inputs": [],
      "name": "stakingPoolTaxRate",
      "outputs": [
        {
          "internalType": "uint256",
          "name": "",
          "type": "uint256"
        }
      ],
      "stateMutability": "view",
      "type": "function"
    },
    {
      "inputs": [],
      "name": "swapRouter",
      "outputs": [
        {
          "internalType": "address",
          "name": "",
          "type": "address"
        }
      ],
      "stateMutability": "view",
      "type": "function"
    },
    {
      "inputs": [],
      "name": "totemToken",
      "outputs": [
        {
          "internalType": "contract TotemToken",
          "name": "",
          "type": "address"
        }
      ],
      "stateMutability": "view",
      "type": "function"
    }
  ],
  "transactionHash": "0xc0e0ff8a28ce926b7b0f99bdf58c58994541c24aef9e60426b1cb962b1c72864",
  "args": [
    "0xaaB1f1390186eC3D33e7c73F6ADdcf23c3026A8A",
    "0x0ab07A727F145D07eEBc28d3750A299422E00FF9",
    "0x10ED43C718714eb63d5aA57B78B54704E256024E",
    "0xe9e7cea3dedca5984780bafc599bd69add087d56"
  ],
  "solcInputHash": "f93e12afe44b3baf8f0c15c58e5dc92d",
  "bytecode": "0x60e06040523480156200001157600080fd5b506040516200618138038062006181833981016040819052620000349162000224565b6200004862000042620000be565b620000c2565b6200006157620000616200005b620000be565b620000e5565b606093841b6001600160601b031990811660805292841b831660a052600180546001600160a01b0319166001600160a01b03939093169290921790915590911b1660c05261012c600255680d8d726b7177a80000600355620002a4565b3390565b6000620000df8260006200013760201b620004941790919060201c565b92915050565b62000100816000620001a060201b620004fd1790919060201c565b6040516001600160a01b038216907fac89bb7b3d0c5a763a97f31bc75f8faee00426e7b235f02ca76897d55caf7b6190600090a250565b60006001600160a01b038216620001805760405162461bcd60e51b81526004018080602001828103825260228152602001806200615f6022913960400191505060405180910390fd5b506001600160a01b03166000908152602091909152604090205460ff1690565b620001ac828262000137565b15620001ff576040805162461bcd60e51b815260206004820152601f60248201527f526f6c65733a206163636f756e7420616c72656164792068617320726f6c6500604482015290519081900360640190fd5b6001600160a01b0316600090815260209190915260409020805460ff19166001179055565b600080600080608085870312156200023a578384fd5b845162000247816200028b565b60208601519094506200025a816200028b565b60408601519093506200026d816200028b565b606086015190925062000280816200028b565b939692955090935050565b6001600160a01b0381168114620002a157600080fd5b50565b60805160601c60a05160601c60c05160601c615e76620002e9600039806105ef5250806101c952806105ad52806106b1525080610472528061058c5250615e766000f3fe60806040523480156200001157600080fd5b5060043610620000c45760003560e01c80638c2d741c116200007b5780638c2d741c14620001555780639a94775d146200016c578063c31c9c071462000192578063d53b245b146200019c578063e281cc7e14620001b3578063e8153c9314620001bd57620000c4565b80630f4ef8a614620000c9578063233d107d14620000eb57806337e77675146200010257806341273657146200011b578063441f5c6514620001325780636b036f45146200014b575b600080fd5b620000d3620001c7565b604051620000e2919062000a6f565b60405180910390f35b620000d3620000fc366004620008e0565b620001eb565b6200011962000113366004620009dd565b6200026d565b005b620001196200012c366004620008bc565b620002bd565b6200013c6200035c565b604051620000e2919062000bad565b6200013c62000362565b6200011962000166366004620008bc565b62000368565b620001836200017d366004620008bc565b620003c1565b604051620000e2919062000aa4565b620000d3620003d7565b62000119620001ad366004620009dd565b620003e6565b620001196200045a565b620000d362000470565b7f000000000000000000000000000000000000000000000000000000000000000081565b6000620001fb6200017d62000581565b620002385760405162461bcd60e51b815260040180806020018281038252603a81526020018062005dc4603a913960400191505060405180910390fd5b610100830151806200024e576002546101008501525b60006200026089898989898962000585565b9998505050505050505050565b6200027b6200017d62000581565b620002b85760405162461bcd60e51b815260040180806020018281038252603a81526020018062005dc4603a913960400191505060405180910390fd5b600355565b620002cb6200017d62000581565b620003085760405162461bcd60e51b815260040180806020018281038252603a81526020018062005dc4603a913960400191505060405180910390fd5b6001600160a01b0381166200033a5760405162461bcd60e51b8152600401620003319062000b8f565b60405180910390fd5b600180546001600160a01b0319166001600160a01b0392909216919091179055565b60025481565b60035481565b620003766200017d62000581565b620003b35760405162461bcd60e51b815260040180806020018281038252603a81526020018062005dc4603a913960400191505060405180910390fd5b620003be8162000728565b50565b6000620003cf818362000494565b90505b919050565b6001546001600160a01b031681565b620003f46200017d62000581565b620004315760405162461bcd60e51b815260040180806020018281038252603a81526020018062005dc4603a913960400191505060405180910390fd5b6127108110620004555760405162461bcd60e51b8152600401620003319062000b48565b600255565b6200046e6200046862000581565b6200076c565b565b7f000000000000000000000000000000000000000000000000000000000000000081565b60006001600160a01b038216620004dd5760405162461bcd60e51b815260040180806020018281038252602281526020018062005e1f6022913960400191505060405180910390fd5b506001600160a01b03166000908152602091909152604090205460ff1690565b62000509828262000494565b156200055c576040805162461bcd60e51b815260206004820152601f60248201527f526f6c65733a206163636f756e7420616c72656164792068617320726f6c6500604482015290519081900360640190fd5b6001600160a01b0316600090815260209190915260409020805460ff19166001179055565b3390565b60008085857f00000000000000000000000000000000000000000000000000000000000000007f0000000000000000000000000000000000000000000000000000000000000000620005d662000581565b600160009054906101000a90046001600160a01b03168d7f00000000000000000000000000000000000000000000000000000000000000008e8c8c6040516200061f906200081b565b620006359b9a9998979695949392919062000aaf565b604051809103906000f08015801562000652573d6000803e3d6000fd5b509050806001600160a01b03167fd387ed1066dd2e6ea58f024e0522514c6392ebaf5f72100aef55c04311f8e33285856040516200069292919062000a83565b60405180910390a260405163d914cd4b60e01b81526001600160a01b037f0000000000000000000000000000000000000000000000000000000000000000169063d914cd4b90620006e890849060040162000a6f565b600060405180830381600087803b1580156200070357600080fd5b505af115801562000718573d6000803e3d6000fd5b50929a9950505050505050505050565b62000735600082620004fd565b6040516001600160a01b038216907fac89bb7b3d0c5a763a97f31bc75f8faee00426e7b235f02ca76897d55caf7b6190600090a250565b62000779600082620007b0565b6040516001600160a01b038216907f2bc71cc60b543df5fdd80ef5a45e1cdb344843769b649e9d901de3be24aeb24e90600090a250565b620007bc828262000494565b620007f95760405162461bcd60e51b815260040180806020018281038252602181526020018062005dfe6021913960400191505060405180910390fd5b6001600160a01b0316600090815260209190915260409020805460ff19169055565b6151e88062000bdc83390190565b80356001600160a01b0381168114620003d257600080fd5b80358015158114620003d257600080fd5b600082601f83011262000863578081fd5b813567ffffffffffffffff8111156200087857fe5b6200088d601f8201601f191660200162000bb6565b818152846020838601011115620008a2578283fd5b816020850160208301379081016020019190915292915050565b600060208284031215620008ce578081fd5b620008d98262000829565b9392505050565b6000806000806000806101e08789031215620008fa578182fd5b620009058762000829565b955060206200091681890162000829565b9550604088013567ffffffffffffffff8082111562000933578485fd5b620009418b838c0162000852565b965060608a013591508082111562000957578485fd5b50620009668a828b0162000852565b94505088609f89011262000978578283fd5b6200098561014062000bb6565b8060808a016101c08b018c8111156200099c578687fd5b865b600a811015620009bd578235855293850193918501916001016200099e565b50829650620009cc8162000841565b955050505050509295509295509295565b600060208284031215620009ef578081fd5b5035919050565b8060005b600a81101562000a1b578151845260209384019390910190600101620009fa565b50505050565b60008151808452815b8181101562000a485760208185018101518683018201520162000a2a565b8181111562000a5a5782602083870101525b50601f01601f19169290920160200192915050565b6001600160a01b0391909116815260200190565b610160810162000a948285620009f6565b8215156101408301529392505050565b901515815260200190565b600061028080835262000ac58184018f62000a21565b9050828103602084015262000adb818e62000a21565b6001600160a01b038d811660408601528c811660608601528b811660808601528a811660a086015289811660c086015288811660e08601528716610100850152915062000b2f9050610120830185620009f6565b8215156102608301529c9b505050505050505050505050565b60208082526027908201527f303432302054617820636f6e6e6f74206265206f7665722031303025202831306040820152663030302042502960c81b606082015260800190565b6020808252600490820152630303431360e41b604082015260600190565b90815260200190565b60405181810167ffffffffffffffff8111828210171562000bd357fe5b60405291905056fe6102606040523480156200001257600080fd5b50604051620051e8380380620051e883398181016040526102808110156200003957600080fd5b81019080805160405193929190846401000000008211156200005a57600080fd5b9083019060208201858111156200007057600080fd5b82516401000000008111828201881017156200008b57600080fd5b82525081516020918201929091019080838360005b83811015620000ba578181015183820152602001620000a0565b50505050905090810190601f168015620000e85780820380516001836020036101000a031916815260200191505b50604052602001805160405193929190846401000000008211156200010c57600080fd5b9083019060208201858111156200012257600080fd5b82516401000000008111828201881017156200013d57600080fd5b82525081516020918201929091019080838360005b838110156200016c57818101518382015260200162000152565b50505050905090810190601f1680156200019a5780820380516001836020036101000a031916815260200191505b5060409081526020820151908201516060830151608084015160a085015160c086015160e0870151610240880151969950949750929591949093916101000190858484876000620001ea620004bb565b600080546001600160a01b0319166001600160a01b0383169081178255604051929350917f8be0079c531659141344cd1fd0a4f28419497f9722a3daafe3b4186f6b6457e0908290a350600180546001600160a01b03199081166001600160a01b039384161790915560038054821695831695909517909455600480548516938216939093179092556005805490931691161790558a51620002949060069060208e0190620004e1565b508951620002aa9060079060208d0190620004e1565b506001600160601b031960608a811b821660805289901b1660a052600f80546001600160a01b038781166001600160a01b031992831617909255600e8054928a16929091169190911790556200030084620004bf565b606092831b6001600160601b03191660c09081524260e0908152835161012090815260208086015161010090815260408088015161014052978701516101605260808701516101805260a08701516101a05293860151610200529185015161022052918401516101c0529201516101e052151560f81b61024052815180830183526001808252610ea6828401908152601080548084018255600082815294517f1b6847dc741a1b0cd08d278845f9d819d87b734759afb55fe2de5cb82a9ae67260029283028181019290925593517f1b6847dc741a1b0cd08d278845f9d819d87b734759afb55fe2de5cb82a9ae67391820155875180890189528281526107d081890190815284548088018655858952915191840280870192909255519082015587518089018952600381526103e881890190815284548088018655858952915191840280870192909255519082015587518089018952600a815260fa81890190815284548088018655858952915191840280870192909255519082015587518089019098526019885260649688019687528254948501835591909452945191909202918201559051910155506200058d9650505050505050565b3390565b600280546001600160a01b0319166001600160a01b0392909216919091179055565b828054600181600116156101000203166002900490600052602060002090601f01602090048101928262000519576000855562000564565b82601f106200053457805160ff191683800117855562000564565b8280016001018555821562000564579182015b828111156200056457825182559160200191906001019062000547565b506200057292915062000576565b5090565b5b8082111562000572576000815560010162000577565b60805160601c60a05160601c60c05160601c60e05161010051610120516101405161016051610180516101a0516101c0516101e05161020051610220516102405160f81c614abb6200072d6000398061136c52806145a5525080610d2852806131d5525080610cf25280610d52528061318d52508061180b5280611a4b5250806117e75280613ac25280613af2525080610c3452806113eb52806118ed52806128445280612cc85280613e5452806144dc525080611a275280613ed6528061452552508061268e528061393f52508061155d5280611b095280611c7f5280612088525080610b91528061153952806125c352806138f2525080610a475280610bb252806125e452806138d052806145f8525080610a235280610bd3528061260552806138af52806145d752508061247c52806128705280612cf45280613400525080610a6b52806126fb528061278a5280612b805280612c0f5250806116f15280611b3b5280611bcc5280611d1a5280611ddd5280611e0c528061221d52806126cc52806129805280612b515280612dfd52806131b15250614abb6000f3fe608060405234801561001057600080fd5b50600436106103f15760003560e01c80639234a39a11610215578063d025188b11610125578063eee39403116100b8578063f3d9dc0d11610087578063f3d9dc0d146109e4578063f5e96fc9146109ec578063f8e829c3146109f4578063fd5e6dd1146109fc578063fd8fd47f14610a19576103f1565b8063eee3940314610966578063f0141d8414610983578063f1b17a8b146109a1578063f2fde38b146109be576103f1565b8063e425df8c116100f4578063e425df8c14610946578063e8153c931461094e578063eb850ae114610956578063eda2d4241461095e576103f1565b8063d025188b146108d9578063d7efb6b7146108e1578063d83db49f146108e9578063de09ee2014610906576103f1565b8063a7a48681116101a8578063b88a802f11610177578063b88a802f146108b1578063bece7532146108b9578063bf852196146108c1578063c1201054146108c9578063c6c1decd146108d1576103f1565b8063a7a4868114610867578063aa7bcb5714610884578063b1b1e1c01461088c578063b1dd61b6146108a9576103f1565b8063a08b2c79116101e4578063a08b2c79146107f7578063a150194b146107ff578063a35ef3a714610807578063a4e2d6341461085f576103f1565b80639234a39a146107c257806395c2ba47146107ca578063996c6cc3146107d25780639d9a62df146107da576103f1565b80635b9f4f90116103105780637b0472f0116102a3578063850fa7cb11610272578063850fa7cb1461072b5780638a9920b7146107a25780638bfbbcbe146107aa5780638da5cb5b146107b25780638e15f473146107ba576103f1565b80637b0472f0146106d75780637d1fcbfa146106fa5780637f2b6a0d1461071b578063817b1cd214610723576103f1565b8063715018a6116102df578063715018a61461069357806373f317031461069b578063765e14d8146106a3578063785fa627146106cf576103f1565b80635b9f4f90146106275780635d2631e21461064d5780636847d0c5146106835780636b036f451461068b576103f1565b80633fcdd82c116103885780634bc4eeb2116103575780634bc4eeb2146105d85780634ddc1bdc146105f45780634e8bfdaa1461061757806351eacbf01461061f576103f1565b80633fcdd82c146104f05780634026478e1461050d57806343352d6114610515578063444a4902146105b6576103f1565b8063238a6c74116103c4578063238a6c74146104595780632d42cf7d146104d65780632e577d07146104e057806331e244e5146104e8576103f1565b80630b97bc86146103f65780630d668087146104105780630f4ef8a6146104185780631898a1a71461043c575b600080fd5b6103fe610a21565b60408051918252519081900360200190f35b6103fe610a45565b610420610a69565b604080516001600160a01b039092168252519081900360200190f35b6103fe6004803603602081101561045257600080fd5b5035610a8d565b610461610aa8565b6040805160208082528351818301528351919283929083019185019080838360005b8381101561049b578181015183820152602001610483565b50505050905090810190601f1680156104c85780820380516001836020036101000a031916815260200191505b509250505060405180910390f35b6104de610b36565b005b610420610e6f565b6104de610e7f565b6103fe6004803603602081101561050657600080fd5b5035610eed565b6104de61106d565b61051d6110d0565b604051808060200180602001838103835285818151815260200191508051906020019060200280838360005b83811015610561578181015183820152602001610549565b50505050905001838103825284818151815260200191508051906020019060200280838360005b838110156105a0578181015183820152602001610588565b5050505090500194505050505060405180910390f35b6104de60048036036106408110156105cd57600080fd5b506103208101611215565b6105e061136a565b604080519115158252519081900360200190f35b6104de6004803603604081101561060a57600080fd5b508035906020013561138e565b6103fe611537565b6103fe61155b565b6103fe6004803603602081101561063d57600080fd5b50356001600160a01b031661157f565b6104de6004803603606081101561066357600080fd5b506001600160a01b03813581169160208101359160409091013516611696565b6103fe6117e5565b6103fe611809565b6104de61182d565b6103fe6118eb565b6103fe600480360360408110156106b957600080fd5b506001600160a01b03813516906020013561190f565b6103fe611a25565b6104de600480360360408110156106ed57600080fd5b5080359060200135611a49565b61070261210c565b6040805192835260208301919091528051918290030190f35b6105e0612127565b6103fe612137565b6107576004803603604081101561074157600080fd5b506001600160a01b03813516906020013561213d565b60408051998a5260208a0198909852888801969096526060880194909452608087019290925260a086015260c0850152151560e0840152151561010083015251908190036101200190f35b6104de6121ab565b6104de612322565b6104206123b9565b6103fe6123c8565b610702612462565b6103fe612475565b61042061247a565b610702600480360360208110156107f057600080fd5b503561249e565b6105e06124bc565b6103fe6124cc565b61080f6124d1565b60408051602080825283518183015283519192839290830191858101910280838360005b8381101561084b578181015183820152602001610833565b505050509050019250505060405180910390f35b6105e0612558565b6104de6004803603602081101561087d57600080fd5b5035612568565b6103fe61268c565b6104de600480360360208110156108a257600080fd5b50356126b0565b610461612ada565b6104de612b35565b610420612f50565b6103fe612f5f565b6103fe61309f565b61042061311b565b6103fe61312a565b6105e0613130565b6103fe600480360360208110156108ff57600080fd5b5035613140565b6109236004803603602081101561091c57600080fd5b5035613153565b604080516001600160a01b03909316835260208301919091528051918290030190f35b6103fe61318b565b6104206131af565b6103fe6131d3565b6103fe6131f7565b6107026004803603602081101561097c57600080fd5b503561320e565b61098b613222565b6040805160ff9092168252519081900360200190f35b610702600480360360208110156109b757600080fd5b50356132a5565b6104de600480360360208110156109d457600080fd5b50356001600160a01b03166132d3565b6103fe6133e7565b6104206133ed565b6103fe6133fc565b61092360048036036020811015610a1257600080fd5b503561346b565b6103fe61347b565b7f000000000000000000000000000000000000000000000000000000000000000081565b7f000000000000000000000000000000000000000000000000000000000000000081565b7f000000000000000000000000000000000000000000000000000000000000000081565b6000610aa0610a9a613484565b8361190f565b90505b919050565b6006805460408051602060026001851615610100026000190190941693909304601f81018490048402820184019092528181529291830182828015610b2e5780601f10610b0357610100808354040283529160200191610b2e565b820191906000526020600020905b815481529060010190602001808311610b1157829003601f168201915b505050505081565b600e546001600160a01b0316610b4a613484565b6001600160a01b031614610b8f5760405162461bcd60e51b81526004018080602001828103825260218152602001806149bd6021913960400191505060405180910390fd5b7f00000000000000000000000000000000000000000000000000000000000000007f00000000000000000000000000000000000000000000000000000000000000007f00000000000000000000000000000000000000000000000000000000000000000101421015610c325760405162461bcd60e51b815260040180806020018281038252602c81526020018061494a602c913960400191505060405180910390fd5b7f000000000000000000000000000000000000000000000000000000000000000015610c9b57610c606133fc565b610c9b5760405162461bcd60e51b8152600401808060200182810382526027815260200180614a296027913960400191505060405180910390fd5b60095415610cf057600a54610cf0576040805162461bcd60e51b81526020600482015260166024820152750c0ccd8c88199a5c9cdd081cda1bdd5b19081cdbdc9d60521b604482015290519081900360640190fd5b7f000000000000000000000000000000000000000000000000000000000000000015610d77576000610d20612f5f565b9050610d4c817f0000000000000000000000000000000000000000000000000000000000000000613488565b610d75577f0000000000000000000000000000000000000000000000000000000000000000600d555b505b600a54600090601910610d8c57600a54610d8f565b60195b905060005b81811015610e20578060010160086000600a8481548110610db157fe5b600091825260208083206002909202909101546001600160a01b031683528201929092526040019020600a805484908110610de857fe5b90600052602060002090600202016001015481548110610e0457fe5b6000918252602090912060066008909202010155600101610d94565b50600f805460ff60a81b1960ff60a01b19909116600160a01b1716600160a81b1790556040517fe8ef7a17c92d025d9c1ead1c6b3ca3b44d3283d0ee954f615c5c476911f629a590600090a150565b6003546001600160a01b03165b90565b600e546001600160a01b0316610e93613484565b6001600160a01b031614610ed85760405162461bcd60e51b81526004018080602001828103825260218152602001806149bd6021913960400191505060405180910390fd5b600f805460ff60b81b1916600160b81b179055565b60035460009081906001600160a01b031663d06ca61f84610f0c6124d1565b6040518363ffffffff1660e01b81526004018083815260200180602001828103825283818151815260200191508051906020019060200280838360005b83811015610f61578181015183820152602001610f49565b50505050905001935050505060006040518083038186803b158015610f8557600080fd5b505afa158015610f99573d6000803e3d6000fd5b505050506040513d6000823e601f3d908101601f191682016040526020811015610fc257600080fd5b8101908080516040519392919084640100000000821115610fe257600080fd5b908301906020820185811115610ff757600080fd5b825186602082028301116401000000008211171561101457600080fd5b82525081516020918201928201910280838360005b83811015611041578181015183820152602001611029565b5050505090500160405250505090508060018151811061105d57fe5b6020026020010151915050919050565b600e546001600160a01b0316611081613484565b6001600160a01b0316146110c65760405162461bcd60e51b81526004018080602001828103825260218152602001806149bd6021913960400191505060405180910390fd5b6110ce6134f6565b565b606080600060098054905067ffffffffffffffff811180156110f157600080fd5b5060405190808252806020026020018201604052801561111b578160200160208202803683370190505b5060095490915060009067ffffffffffffffff8111801561113b57600080fd5b50604051908082528060200260200182016040528015611165578160200160208202803683370190505b50905060005b60095481101561120b576009818154811061118257fe5b600091825260209091206002909102015483516001600160a01b03909116908490839081106111ad57fe5b60200260200101906001600160a01b031690816001600160a01b031681525050600981815481106111da57fe5b9060005260206000209060020201600101548282815181106111f857fe5b602090810291909101015260010161116b565b5090925090509091565b600e546001600160a01b0316611229613484565b6001600160a01b03161461126e5760405162461bcd60e51b81526004018080602001828103825260218152602001806149bd6021913960400191505060405180910390fd5b60005b601981101561133c57600083826019811061128857fe5b60200201356001600160a01b03166001600160a01b031614156112aa5761133c565b600a60405180604001604052808584601981106112c357fe5b60200201356001600160a01b03166001600160a01b031681526020018484601981106112eb57fe5b60209081029190910135909152825460018082018555600094855293829020835160029092020180546001600160a01b0319166001600160a01b039092169190911781559101519082015501611271565b506040517f5c243cc6e4f210bf2dd86b8eca0ca891d3f8ad2eb09fbf91735eb348bc199c7e90600090a15050565b7f000000000000000000000000000000000000000000000000000000000000000081565b600e546001600160a01b03166113a2613484565b6001600160a01b0316146113e75760405162461bcd60e51b81526004018080602001828103825260218152602001806149bd6021913960400191505060405180910390fd5b60007f0000000000000000000000000000000000000000000000000000000000000000116114465760405162461bcd60e51b81526004018080602001828103825260238152602001806149016023913960400191505060405180910390fd5b6000821161149b576040805162461bcd60e51b815260206004820152601960248201527f3033343120416d6f756e742063616e2774206265207a65726f00000000000000604482015290519081900360640190fd5b428110156114e7576040805162461bcd60e51b81526020600482015260146024820152733033343220446561646c696e65206973206c6f7760601b604482015290519081900360640190fd5b60006114f1610e6f565b90506114fd8184613534565b600061150884610eed565b9050600061152261151b8361012c6135f9565b8390613612565b90506115303086838761366f565b5050505050565b7f000000000000000000000000000000000000000000000000000000000000000081565b7f000000000000000000000000000000000000000000000000000000000000000081565b6001600160a01b038116600090815260086020908152604080832080548251818502810185019093528083528493849084015b8282101561164457600084815260209081902060408051610120810182526008860290920180548352600180820154848601526002820154928401929092526003810154606084015260048101546080840152600581015460a0840152600681015460c08401526007015460ff808216151560e0850152610100918290041615159083015290835290920191016115b2565b50505050905080516000141561165e576000915050610aa3565b6000805b825181101561168e5760006116778683613808565b905061168383826139a0565b925050600101611662565b509392505050565b600e546001600160a01b03166116aa613484565b6001600160a01b0316146116ef5760405162461bcd60e51b81526004018080602001828103825260218152602001806149bd6021913960400191505060405180910390fd5b7f00000000000000000000000000000000000000000000000000000000000000006001600160a01b0316836001600160a01b031614156117605760405162461bcd60e51b815260040180806020018281038252602181526020018061499c6021913960400191505060405180910390fd5b6040805163a9059cbb60e01b81526001600160a01b038381166004830152602482018590529151859283169163a9059cbb9160448083019260209291908290030181600087803b1580156117b357600080fd5b505af11580156117c7573d6000803e3d6000fd5b505050506040513d60208110156117dd57600080fd5b505050505050565b7f000000000000000000000000000000000000000000000000000000000000000081565b7f000000000000000000000000000000000000000000000000000000000000000081565b611835613484565b6001600160a01b03166118466123b9565b6001600160a01b0316146118a1576040805162461bcd60e51b815260206004820181905260248201527f4f776e61626c653a2063616c6c6572206973206e6f7420746865206f776e6572604482015290519081900360640190fd5b600080546040516001600160a01b03909116907f8be0079c531659141344cd1fd0a4f28419497f9722a3daafe3b4186f6b6457e0908390a3600080546001600160a01b0319169055565b7f000000000000000000000000000000000000000000000000000000000000000081565b6001600160a01b038216600090815260086020908152604080832080548251818502810185019093528083528493849084015b828210156119d457600084815260209081902060408051610120810182526008860290920180548352600180820154848601526002820154928401929092526003810154606084015260048101546080840152600581015460a0840152600681015460c08401526007015460ff808216151560e085015261010091829004161515908301529083529092019101611942565b5050505090508051600014156119ee576000915050611a1f565b80518310611a00576000915050611a1f565b600080611a0d8686613808565b9050611a1982826139a0565b93505050505b92915050565b7f000000000000000000000000000000000000000000000000000000000000000081565b7f0000000000000000000000000000000000000000000000000000000000000000821015611aa85760405162461bcd60e51b815260040180806020018281038252602a8152602001806149ff602a913960400191505060405180910390fd5b600f54600160a01b900460ff1615611afd576040805162461bcd60e51b81526020600482015260136024820152720c0ccc4c08141bdbdb081a5cc81b1bd8dad959606a1b604482015290519081900360640190fd5b6000611b356064611b2f7f000000000000000000000000000000000000000000000000000000000000000060056139fa565b90613a53565b905060007f00000000000000000000000000000000000000000000000000000000000000006001600160a01b031663771a3a1d6040518163ffffffff1660e01b815260040160206040518083038186803b158015611b9257600080fd5b505afa158015611ba6573d6000803e3d6000fd5b505050506040513d6020811015611bbc57600080fd5b5051905060006001600160a01b037f00000000000000000000000000000000000000000000000000000000000000001663d1ecfc68611bf9613484565b6040518263ffffffff1660e01b815260040180826001600160a01b0316815260200191505060206040518083038186803b158015611c3657600080fd5b505afa158015611c4a573d6000803e3d6000fd5b505050506040513d6020811015611c6057600080fd5b5051611c7557611c7085836135f9565b611c78565b60005b9050611ca47f0000000000000000000000000000000000000000000000000000000000000000846139a0565b611cc382611cbd88600b546139a090919063ffffffff16565b90613612565b1115611d005760405162461bcd60e51b81526004018080602001828103825260268152602001806149766026913960400191505060405180910390fd5b6000611d0c8684613aba565b965090506001600160a01b037f0000000000000000000000000000000000000000000000000000000000000000166323b872dd611d47613484565b604080516001600160e01b031960e085901b1681526001600160a01b03909216600483015230602483015289850160448301525160648083019260209291908290030181600087803b158015611d9c57600080fd5b505af1158015611db0573d6000803e3d6000fd5b505050506040513d6020811015611dc657600080fd5b50611dd390508683613612565b95508015611f0a577f00000000000000000000000000000000000000000000000000000000000000006001600160a01b031663a9059cbb7f00000000000000000000000000000000000000000000000000000000000000006001600160a01b0316634a5db0a96040518163ffffffff1660e01b815260040160206040518083038186803b158015611e6357600080fd5b505afa158015611e77573d6000803e3d6000fd5b505050506040513d6020811015611e8d57600080fd5b5051604080516001600160e01b031960e085901b1681526001600160a01b039092166004830152602482018590525160448083019260209291908290030181600087803b158015611edd57600080fd5b505af1158015611ef1573d6000803e3d6000fd5b505050506040513d6020811015611f0757600080fd5b50505b600b54611f1790876139a0565b600b8190555060096040518060400160405280611f32613484565b6001600160a01b0316815260200160086000611f4c613484565b6001600160a01b0390811682526020808301939093526040909101600090812054909352845460018082018755958452828420855160029092020180546001600160a01b031916919092161781559201519190920155600890611fad613484565b6001600160a01b03168152602080820192909252604090810160009081208251610120810184528a81524281860181815294820184815260608301918252608083018c815260001960a0850181815260c0860191825260e086018881526101008088018a8152895460018082018c559a8c529c909a2097516008909c029097019a8b559851968a01969096559151600289015591516003880155905160048701559151600586015590516006850155915160079093018054915160ff19929092169315159390931761ff001916901515909102179055600b547f0000000000000000000000000000000000000000000000000000000000000000116120b4576120b46134f6565b6120bc613484565b6001600160a01b03167f5af417134f72a9d41143ace85b0a26dce6f550f894f2cbc1eeee8810603d91b68787604051808381526020018281526020019250505060405180910390a2505050505050565b60008061211f61211a613484565b613b56565b915091509091565b600f54600160a81b900460ff1681565b600b5481565b6008602052816000526040600020818154811061215957600080fd5b6000918252602090912060089091020180546001820154600283015460038401546004850154600586015460068701546007909701549598509396509194909391929160ff8082169161010090041689565b600f54600160b81b900460ff16612201576040805162461bcd60e51b815260206004820152601560248201527469742773206e6f7420616e20656d657267656e637960581b604482015290519081900360640190fd5b600061221361220e613484565b613b8d565b9050801561231f577f00000000000000000000000000000000000000000000000000000000000000006001600160a01b031663a9059cbb612252613484565b836040518363ffffffff1660e01b815260040180836001600160a01b0316815260200182815260200192505050602060405180830381600087803b15801561229957600080fd5b505af11580156122ad573d6000803e3d6000fd5b505050506040513d60208110156122c357600080fd5b506122d690506122d1613484565b613ccb565b6122de613484565b6001600160a01b03167f85082129d87b2fe11527cb1b3b7a520aeb5aa6913f88a3d8757fe40d1db02fdd826040518082815260200191505060405180910390a25b50565b600e546001600160a01b0316612336613484565b6001600160a01b03161461237b5760405162461bcd60e51b81526004018080602001828103825260218152602001806149bd6021913960400191505060405180910390fd5b600f805460ff60b01b1916600160b01b1790556040517f9331b2a38c658c57a39ea19b2709d928c28a12cc8fbb838d12b85148550f937d90600090a1565b6000546001600160a01b031690565b600080600160009054906101000a90046001600160a01b03166001600160a01b031663feaf968c6040518163ffffffff1660e01b815260040160a06040518083038186803b15801561241957600080fd5b505afa15801561242d573d6000803e3d6000fd5b505050506040513d60a081101561244357600080fd5b50602001519050600081121561245a57600061245c565b805b91505090565b60008061211f612470613484565b613d3f565b600581565b7f000000000000000000000000000000000000000000000000000000000000000081565b6000806124b26124ac613484565b84613f5a565b915091505b915091565b600f54600160b81b900460ff1681565b600881565b60408051600280825260608083018452926000929190602083019080368337505060045482519293506001600160a01b03169183915060009061251057fe5b6001600160a01b03928316602091820292909201015260055482519116908290600190811061253b57fe5b6001600160a01b0390921660209283029190910190910152905090565b600f54600160a01b900460ff1681565b600e546001600160a01b031661257c613484565b6001600160a01b0316146125c15760405162461bcd60e51b81526004018080602001828103825260218152602001806149bd6021913960400191505060405180910390fd5b7f00000000000000000000000000000000000000000000000000000000000000007f00000000000000000000000000000000000000000000000000000000000000007f000000000000000000000000000000000000000000000000000000000000000001014210156126645760405162461bcd60e51b8152600401808060200182810382526036815260200180614a506036913960400191505060405180910390fd5b600f546001600160a01b031661267e57600c81905561231f565b6126866123c8565b600c5550565b7f000000000000000000000000000000000000000000000000000000000000000081565b6000806126be6124ac613484565b9092509050811561281f57817f00000000000000000000000000000000000000000000000000000000000000006001600160a01b03166370a082317f00000000000000000000000000000000000000000000000000000000000000006040518263ffffffff1660e01b815260040180826001600160a01b0316815260200191505060206040518083038186803b15801561275757600080fd5b505afa15801561276b573d6000803e3d6000fd5b505050506040513d602081101561278157600080fd5b50511061281f577f00000000000000000000000000000000000000000000000000000000000000006001600160a01b031663e4e103dc6127bf613484565b846040518363ffffffff1660e01b815260040180836001600160a01b0316815260200182815260200192505050600060405180830381600087803b15801561280657600080fd5b505af115801561281a573d6000803e3d6000fd5b505050505b61283061282a613484565b84613f94565b600f54600160a81b900460ff1615612a85577f000000000000000000000000000000000000000000000000000000000000000015612963578015612952577f00000000000000000000000000000000000000000000000000000000000000006001600160a01b031663a9059cbb6128a5613484565b836040518363ffffffff1660e01b815260040180836001600160a01b0316815260200182815260200192505050602060405180830381600087803b1580156128ec57600080fd5b505af1158015612900573d6000803e3d6000fd5b505050506040513d602081101561291657600080fd5b5051612952576040805162461bcd60e51b815260206004808301919091526024820152630303333360e41b604482015290519081900360640190fd5b61296361295d613484565b8461404e565b6000612976612970613484565b856140d5565b90508015612a83577f00000000000000000000000000000000000000000000000000000000000000006001600160a01b031663a9059cbb6129b5613484565b836040518363ffffffff1660e01b815260040180836001600160a01b0316815260200182815260200192505050602060405180830381600087803b1580156129fc57600080fd5b505af1158015612a10573d6000803e3d6000fd5b505050506040513d6020811015612a2657600080fd5b50612a3a9050612a34613484565b8561421a565b612a42613484565b6001600160a01b03167f85082129d87b2fe11527cb1b3b7a520aeb5aa6913f88a3d8757fe40d1db02fdd826040518082815260200191505060405180910390a25b505b612a8d613484565b6001600160a01b03167ff279e6a1f5e320cca91135676d9cb6e44ca8a08c0b88342bcdb1144f6511b5688383604051808381526020018281526020019250505060405180910390a2505050565b6007805460408051602060026001851615610100026000190190941693909304601f81018490048402820184019092528181529291830182828015610b2e5780601f10610b0357610100808354040283529160200191610b2e565b600080612b4361211a613484565b90925090508115612ca457817f00000000000000000000000000000000000000000000000000000000000000006001600160a01b03166370a082317f00000000000000000000000000000000000000000000000000000000000000006040518263ffffffff1660e01b815260040180826001600160a01b0316815260200191505060206040518083038186803b158015612bdc57600080fd5b505afa158015612bf0573d6000803e3d6000fd5b505050506040513d6020811015612c0657600080fd5b505110612ca4577f00000000000000000000000000000000000000000000000000000000000000006001600160a01b031663e4e103dc612c44613484565b846040518363ffffffff1660e01b815260040180836001600160a01b0316815260200182815260200192505050600060405180830381600087803b158015612c8b57600080fd5b505af1158015612c9f573d6000803e3d6000fd5b505050505b612cb4612caf613484565b614287565b600f54600160a81b900460ff1615612efc577f000000000000000000000000000000000000000000000000000000000000000015612de6578015612dd6577f00000000000000000000000000000000000000000000000000000000000000006001600160a01b031663a9059cbb612d29613484565b836040518363ffffffff1660e01b815260040180836001600160a01b0316815260200182815260200192505050602060405180830381600087803b158015612d7057600080fd5b505af1158015612d84573d6000803e3d6000fd5b505050506040513d6020811015612d9a57600080fd5b5051612dd6576040805162461bcd60e51b815260206004808301919091526024820152630303332360e41b604482015290519081900360640190fd5b612de6612de1613484565b614320565b6000612df361220e613484565b90508015612efa577f00000000000000000000000000000000000000000000000000000000000000006001600160a01b031663a9059cbb612e32613484565b836040518363ffffffff1660e01b815260040180836001600160a01b0316815260200182815260200192505050602060405180830381600087803b158015612e7957600080fd5b505af1158015612e8d573d6000803e3d6000fd5b505050506040513d6020811015612ea357600080fd5b50612eb190506122d1613484565b612eb9613484565b6001600160a01b03167f85082129d87b2fe11527cb1b3b7a520aeb5aa6913f88a3d8757fe40d1db02fdd826040518082815260200191505060405180910390a25b505b612f04613484565b6001600160a01b03167ff279e6a1f5e320cca91135676d9cb6e44ca8a08c0b88342bcdb1144f6511b5688383604051808381526020018281526020019250505060405180910390a25050565b600f546001600160a01b031681565b6000600b5460001415612f7457506000610e7c565b6000805b6009548110156130905760006008600060098481548110612f9557fe5b600091825260208083206002909202909101546001600160a01b0316835282019290925260400190206009805484908110612fcc57fe5b90600052602060002090600202016001015481548110612fe857fe5b600091825260209182902060408051610120810182526008909302909101805480845260018201549484019490945260028101549183019190915260038101546060830152600481015460808301819052600582015460a0840152600682015460c084015260079091015460ff808216151560e085015261010091829004161515908301529092506130859161307e91906139fa565b84906139a0565b925050600101612f78565b50600b5461245c908290613a53565b600254604080516370a0823160e01b815230600482015290516000926001600160a01b0316916370a08231916024808301926020929190829003018186803b1580156130ea57600080fd5b505afa1580156130fe573d6000803e3d6000fd5b505050506040513d602081101561311457600080fd5b5051905090565b600e546001600160a01b031681565b600c5481565b600f54600160b01b900460ff1681565b6000610aa061314d613484565b836140d5565b600a818154811061316357600080fd5b6000918252602090912060029091020180546001909101546001600160a01b03909116915082565b7f000000000000000000000000000000000000000000000000000000000000000081565b7f000000000000000000000000000000000000000000000000000000000000000081565b7f000000000000000000000000000000000000000000000000000000000000000081565b6000613209613204613484565b61157f565b905090565b6000806124b261321c613484565b84614388565b600080600160009054906101000a90046001600160a01b03166001600160a01b031663313ce5676040518163ffffffff1660e01b815260040160206040518083038186803b15801561327357600080fd5b505afa158015613287573d6000803e3d6000fd5b505050506040513d602081101561329d57600080fd5b505191505090565b601081815481106132b557600080fd5b60009182526020909120600290910201805460019091015490915082565b6132db613484565b6001600160a01b03166132ec6123b9565b6001600160a01b031614613347576040805162461bcd60e51b815260206004820181905260248201527f4f776e61626c653a2063616c6c6572206973206e6f7420746865206f776e6572604482015290519081900360640190fd5b6001600160a01b03811661338c5760405162461bcd60e51b81526004018080602001828103825260268152602001806149246026913960400191505060405180910390fd5b600080546040516001600160a01b03808516939216917f8be0079c531659141344cd1fd0a4f28419497f9722a3daafe3b4186f6b6457e091a3600080546001600160a01b0319166001600160a01b0392909216919091179055565b600d5481565b6002546001600160a01b031690565b60007f00000000000000000000000000000000000000000000000000000000000000006001600160a01b03166370a08231306040518263ffffffff1660e01b815260040180826001600160a01b0316815260200191505060206040518083038186803b1580156130ea57600080fd5b6009818154811061316357600080fd5b600061320961220e5b3390565b6000600c548311156134c657600c546134a18484613612565b116134ae57506000611a1f565b600c546134bf90611cbd8585613612565b9050611a1f565b600c546134d384846139a0565b106134e057506000611a1f565b6134bf6134ed84846139a0565b600c5490613612565b600f805460ff60a01b1916600160a01b1790556040517f2e136745550967f28b779ce8c395ca060a2f844edfb5b06631fe677f66f9e30590600090a1565b6002546040805163095ea7b360e01b81526001600160a01b038581166004830152602482018590529151919092169163095ea7b39160448083019260209291908290030181600087803b15801561358a57600080fd5b505af115801561359e573d6000803e3d6000fd5b505050506040513d60208110156135b457600080fd5b50506040805182815290516001600160a01b038416917fd77df63d9076d067d9fd7af16c3d67db48b84064c3314f5900ae919922d364a1919081900360200190a25050565b600061360b612710611b2f85856139fa565b9392505050565b600082821115613669576040805162461bcd60e51b815260206004820152601e60248201527f536166654d6174683a207375627472616374696f6e206f766572666c6f770000604482015290519081900360640190fd5b50900390565b6001600160a01b03841661368257600080fd5b6003546001600160a01b03166338ed1739848461369d6124d1565b88866040518663ffffffff1660e01b81526004018086815260200185815260200180602001846001600160a01b03168152602001838152602001828103825285818151815260200191508051906020019060200280838360005b8381101561370f5781810151838201526020016136f7565b505050509050019650505050505050600060405180830381600087803b15801561373857600080fd5b505af115801561374c573d6000803e3d6000fd5b505050506040513d6000823e601f3d908101601f19168201604052602081101561377557600080fd5b810190808051604051939291908464010000000082111561379557600080fd5b9083019060208201858111156137aa57600080fd5b82518660208202830111640100000000821117156137c757600080fd5b82525081516020918201928201910280838360005b838110156137f45781810151838201526020016137dc565b505050509050016040525050505050505050565b6001600160a01b038216600090815260086020526040812080548291908490811061382f57fe5b6000918252602080832060408051610120810182526008909402909101805484526001810154928401929092526002820154908301526003810154606083015260048101546080830152600581015460a0830152600681015460c08301526007015460ff808216151560e0840152610100918290041615159082015291507f00000000000000000000000000000000000000000000000000000000000000007f0000000000000000000000000000000000000000000000000000000000000000017f000000000000000000000000000000000000000000000000000000000000000001904282106139205742613922565b815b9050600061393384602001516145a1565b9050600061397b6139647f0000000000000000000000000000000000000000000000000000000000000000846139a0565b6020870151613974908690613612565b87516146a8565b905061399485604001518261361290919063ffffffff16565b98975050505050505050565b60008282018381101561360b576040805162461bcd60e51b815260206004820152601b60248201527f536166654d6174683a206164646974696f6e206f766572666c6f770000000000604482015290519081900360640190fd5b600082613a0957506000611a1f565b82820282848281613a1657fe5b041461360b5760405162461bcd60e51b81526004018080602001828103825260218152602001806149de6021913960400191505060405180910390fd5b6000808211613aa9576040805162461bcd60e51b815260206004820152601a60248201527f536166654d6174683a206469766973696f6e206279207a65726f000000000000604482015290519081900360640190fd5b818381613ab257fe5b049392505050565b6000806000837f000000000000000000000000000000000000000000000000000000000000000011613aed576000613b17565b613b177f000000000000000000000000000000000000000000000000000000000000000085613612565b905080613b2b576000859250925050613b4f565b613b3585826135f9565b613b49613b4287846135f9565b8790613612565b92509250505b9250929050565b6000806000806000613b678661157f565b9050613b7286613d3f565b9093509150613b8181846139a0565b94509092505050915091565b6001600160a01b038116600090815260086020908152604080832080548251818502810185019093528083528493849084015b82821015613c5257600084815260209081902060408051610120810182526008860290920180548352600180820154848601526002820154928401929092526003810154606084015260048101546080840152600581015460a0840152600681015460c08401526007015460ff808216151560e085015261010091829004161515908301529083529092019101613bc0565b505050509050805160001415613c6c576000915050610aa3565b6000805b825181101561168e57828181518110613c8557fe5b60200260200101516101000151613cc357613cc0838281518110613ca557fe5b602002602001015160000151836139a090919063ffffffff16565b91505b600101613c70565b6001600160a01b03811660009081526008602052604090208054613cef575061231f565b60005b8154811015613d3a576001828281548110613d0957fe5b6000918252602090912060076008909202010180549115156101000261ff0019909216919091179055600101613cf2565b505050565b600f546000908190600160a81b900460ff16613d60575060009050806124b7565b6001600160a01b038316600090815260086020908152604080832080548251818502810185019093528083529192909190849084015b82821015613e2857600084815260209081902060408051610120810182526008860290920180548352600180820154848601526002820154928401929092526003810154606084015260048101546080840152600581015460a0840152600681015460c08401526007015460ff808216151560e085015261010091829004161515908301529083529092019101613d96565b505050509050805160001415613e455760008092509250506124b7565b600c54600090613e7d90611b2f7f00000000000000000000000000000000000000000000000000000000000000006305f5e1006139fa565b905060008060005b8451811015613f1d57848181518110613e9a57fe5b602002602001015160e00151613f15576000613ecc868381518110613ebb57fe5b602002602001015160c001516147b1565b9050613f02613efb7f0000000000000000000000000000000000000000000000000000000000000000836135f9565b85906139a0565b9350613f1161307e86836135f9565b9250505b600101613e85565b50600d5415613f4e57600d54613f349083906148d8565b9150613f4b600d54826148d890919063ffffffff16565b90505b90945092505050915091565b6000806000806000613f6c878761190f565b9050613f788787614388565b9093509150613f8781846139a0565b9791965090945050505050565b6001600160a01b03821660009081526008602052604090208054613fb8575061404a565b80548210613fc6575061404a565b6000613fd28484613808565b905042828481548110613fe157fe5b9060005260206000209060080201600301819055506140268183858154811061400657fe5b9060005260206000209060080201600201546139a090919063ffffffff16565b82848154811061403257fe5b90600052602060002090600802016002018190555050505b5050565b6001600160a01b03821660009081526008602052604090208054614072575061404a565b80828154811061407e57fe5b600091825260209091206007600890920201015460ff16156140a0575061404a565b60018183815481106140ae57fe5b60009182526020909120600890910201600701805460ff1916911515919091179055505050565b6001600160a01b038216600090815260086020908152604080832080548251818502810185019093528083528493849084015b8282101561419a57600084815260209081902060408051610120810182526008860290920180548352600180820154848601526002820154928401929092526003810154606084015260048101546080840152600581015460a0840152600681015460c08401526007015460ff808216151560e085015261010091829004161515908301529083529092019101614108565b5050505090508051600014156141b4576000915050611a1f565b805183106141c6576000915050611a1f565b60008184815181106141d457fe5b602002602001015161010001516142125761420f8285815181106141f457fe5b602002602001015160000151826139a090919063ffffffff16565b90505b949350505050565b6001600160a01b0382166000908152600860205260409020805461423e575061404a565b8054821061424c575061404a565b600181838154811061425a57fe5b906000526020600020906008020160070160016101000a81548160ff021916908315150217905550505050565b6001600160a01b038116600090815260086020526040902080546142ab575061231f565b60005b8154811015613d3a5760006142c38483613808565b9050428383815481106142d257fe5b9060005260206000209060080201600301819055506142f78184848154811061400657fe5b83838154811061430357fe5b6000918252602090912060026008909202010155506001016142ae565b6001600160a01b03811660009081526008602052604090208054614344575061231f565b60005b8154811015613d3a57600182828154811061435e57fe5b60009182526020909120600890910201600701805460ff1916911515919091179055600101614347565b600f546000908190600160a81b900460ff166143a957506000905080613b4f565b6001600160a01b038416600090815260086020908152604080832080548251818502810185019093528083529192909190849084015b8282101561447157600084815260209081902060408051610120810182526008860290920180548352600180820154848601526002820154928401929092526003810154606084015260048101546080840152600581015460a0840152600681015460c08401526007015460ff808216151560e0850152610100918290041615159083015290835290920191016143df565b50505050905080516000141561448e576000809250925050613b4f565b805184106144a3576000809250925050613b4f565b8084815181106144af57fe5b602002602001015160e00151156144cd576000809250925050613b4f565b600c5460009061450590611b2f7f00000000000000000000000000000000000000000000000000000000000000006305f5e1006139fa565b9050600080600061451b858981518110613ebb57fe5b905061454a61307e7f0000000000000000000000000000000000000000000000000000000000000000836135f9565b925061456061455985836135f9565b83906139a0565b600d549092501561459357600d546145799084906148d8565b9250614590600d54836148d890919063ffffffff16565b91505b509097909650945050505050565b60007f00000000000000000000000000000000000000000000000000000000000000006145d057506000610aa3565b600061461c7f00000000000000000000000000000000000000000000000000000000000000007f00000000000000000000000000000000000000000000000000000000000000006139a0565b9050600061462a8285613612565b90506202a30081101561464257600092505050610aa3565b6203f48081101561465857606492505050610aa3565b6205460081101561466e5760c892505050610aa3565b620697808110156146855761012c92505050610aa3565b6207e90081101561469c5761019092505050610aa3565b6101f492505050610aa3565b60006301e13380816146c566038882915c40006305f5e1006139fa565b905060006146e16113886146db85818a8c6139fa565b906139fa565b905060006146f86113886146db8a6002880a6139fa565b905060006147116006611b2f6002808c0a908d0a6139fa565b905060006147346002611b2f886146db60028f0a8e6139fa90919063ffffffff16565b9050600061474d6003611b2f6002808f0a908b0a6139fa565b905060006147678261476186818b8b6139a0565b906139a0565b905061477783611cbd8388613612565b90506147878b6146db838f6139fa565b90506147a164e8d4a51000611b2f60038b0a81858f6139fa565b9c9b505050505050505050505050565b600060106000815481106147c157fe5b90600052602060002090600202016000015482116148005760106000815481106147e757fe5b9060005260206000209060020201600101549050610aa3565b601060018154811061480e57fe5b90600052602060002090600202016000015482116148345760106001815481106147e757fe5b601060028154811061484257fe5b90600052602060002090600202016000015482116148685760106002815481106147e757fe5b601060038154811061487657fe5b906000526020600020906002020160000154821161489c5760106003815481106147e757fe5b60106004815481106148aa57fe5b90600052602060002090600202016000015482116148d05760106004815481106147e757fe5b506000610aa3565b6000826148e757506000611a1f565b816148f3575081611a1f565b61360b61307e84846135f956fe303334302054686520706f6f6c206973206f6e6c7920544f544d2072657761726465724f776e61626c653a206e6577206f776e657220697320746865207a65726f2061646472657373303336302043616e277420656e6420706f6f6c206265666f726520746865206d617475726974792074696d65303331322043616e2774207374616b652061626f76652073697a6520616c6c6f636174696f6e3033373020746f74656d732063616e206e6f74206265207472616e736665726564303330302063616c6c6572206973206e6f74206120706f6f6c2063726561746f72536166654d6174683a206d756c7469706c69636174696f6e206f766572666c6f773033313120416d6f756e742063616e2774206265206c657373207468616e20746865206d696e696d756d303336312057726170706564546f6b656e2052657761726473206e6f7420617661696c61626c65303335302043616e277420736574206d61747572696e67207072696365206265666f726520746865206d617475726974792074696d65a26469706673582212209823c8e49a73be01b1b7897a7e9c07a0fc701e606163e025384ed5c6850c159064736f6c63430007060033506f6f6c43726561746f72526f6c653a2063616c6c657220646f6573206e6f7420686176652074686520506f6f6c43726561746f7220726f6c65526f6c65733a206163636f756e7420646f6573206e6f74206861766520726f6c65526f6c65733a206163636f756e7420697320746865207a65726f2061646472657373a2646970667358221220b4305d45a2e88cee3e6d89a1f8463fac45df06aa4b8e10d49a1b487c74294e1364736f6c63430007060033526f6c65733a206163636f756e7420697320746865207a65726f2061646472657373",
  "devdoc": {
    "kind": "dev",
    "methods": {},
    "version": 1
  },
  "userdoc": {
    "kind": "user",
    "methods": {},
    "version": 1
  },
  "storageLayout": {
    "storage": [
      {
        "astId": 2058,
        "contract": "contracts/Staking/StakingPoolFactory.sol:StakingPoolFactory",
        "label": "_poolCreators",
        "offset": 0,
        "slot": "0",
        "type": "t_struct(Role)2275_storage"
      },
      {
        "astId": 5290,
        "contract": "contracts/Staking/StakingPoolFactory.sol:StakingPoolFactory",
        "label": "swapRouter",
        "offset": 0,
        "slot": "1",
        "type": "t_address"
      },
      {
        "astId": 5294,
        "contract": "contracts/Staking/StakingPoolFactory.sol:StakingPoolFactory",
        "label": "stakingPoolTaxRate",
        "offset": 0,
        "slot": "2",
        "type": "t_uint256"
      },
      {
        "astId": 5296,
        "contract": "contracts/Staking/StakingPoolFactory.sol:StakingPoolFactory",
        "label": "minimumStakeAmount",
        "offset": 0,
        "slot": "3",
        "type": "t_uint256"
      }
    ],
    "types": {
      "t_address": {
        "encoding": "inplace",
        "label": "address",
        "numberOfBytes": "20"
      },
      "t_bool": {
        "encoding": "inplace",
        "label": "bool",
        "numberOfBytes": "1"
      },
      "t_mapping(t_address,t_bool)": {
        "encoding": "mapping",
        "key": "t_address",
        "label": "mapping(address => bool)",
        "numberOfBytes": "32",
        "value": "t_bool"
      },
      "t_struct(Role)2275_storage": {
        "encoding": "inplace",
        "label": "struct Roles.Role",
        "members": [
          {
            "astId": 2274,
            "contract": "contracts/Staking/StakingPoolFactory.sol:StakingPoolFactory",
            "label": "bearer",
            "offset": 0,
            "slot": "0",
            "type": "t_mapping(t_address,t_bool)"
          }
        ],
        "numberOfBytes": "32"
      },
      "t_uint256": {
        "encoding": "inplace",
        "label": "uint256",
        "numberOfBytes": "32"
      }
    }
  }
}