{
  "address": "0x4DEf37321EF1594D1a9C63b6977E624d9D9A2A84",
  "abi": [
    {
      "inputs": [
        {
          "internalType": "contract TotemToken",
          "name": "_totemToken",
          "type": "address"
        }
      ],
      "stateMutability": "nonpayable",
      "type": "constructor"
    },
    {
      "anonymous": false,
      "inputs": [
        {
          "indexed": true,
          "internalType": "address",
          "name": "previousOwner",
          "type": "address"
        },
        {
          "indexed": true,
          "internalType": "address",
          "name": "newOwner",
          "type": "address"
        }
      ],
      "name": "OwnershipTransferred",
      "type": "event"
    },
    {
      "anonymous": false,
      "inputs": [
        {
          "indexed": false,
          "internalType": "uint256",
          "name": "startTime",
          "type": "uint256"
        }
      ],
      "name": "StartTimeSet",
      "type": "event"
    },
    {
      "anonymous": false,
      "inputs": [
        {
          "indexed": false,
          "internalType": "address",
          "name": "registeredAddress",
          "type": "address"
        },
        {
          "indexed": false,
          "internalType": "uint256",
          "name": "totalAmount",
          "type": "uint256"
        }
      ],
      "name": "VestingScheduleRegistered",
      "type": "event"
    },
    {
      "anonymous": false,
      "inputs": [
        {
          "indexed": false,
          "internalType": "address",
          "name": "registeredAddress",
          "type": "address"
        },
        {
          "indexed": false,
          "internalType": "uint256",
          "name": "amountWithdrawn",
          "type": "uint256"
        }
      ],
      "name": "Withdraw",
      "type": "event"
    },
    {
      "inputs": [],
      "name": "INITIAL_UNLOCK",
      "outputs": [
        {
          "internalType": "uint256",
          "name": "",
          "type": "uint256"
        }
      ],
      "stateMutability": "view",
      "type": "function"
    },
    {
      "inputs": [],
      "name": "LOCK_PERIODS",
      "outputs": [
        {
          "internalType": "uint256",
          "name": "",
          "type": "uint256"
        }
      ],
      "stateMutability": "view",
      "type": "function"
    },
    {
      "inputs": [],
      "name": "RELEASE_PERIODS",
      "outputs": [
        {
          "internalType": "uint256",
          "name": "",
          "type": "uint256"
        }
      ],
      "stateMutability": "view",
      "type": "function"
    },
    {
      "inputs": [],
      "name": "TOTAL_AMOUNT",
      "outputs": [
        {
          "internalType": "uint256",
          "name": "",
          "type": "uint256"
        }
      ],
      "stateMutability": "view",
      "type": "function"
    },
    {
      "inputs": [],
      "name": "WITHDRAW_INTERVAL",
      "outputs": [
        {
          "internalType": "uint256",
          "name": "",
          "type": "uint256"
        }
      ],
      "stateMutability": "view",
      "type": "function"
    },
    {
      "inputs": [
        {
          "internalType": "address",
          "name": "_newRecipient",
          "type": "address"
        },
        {
          "internalType": "uint256",
          "name": "_totalAmount",
          "type": "uint256"
        }
      ],
      "name": "addRecipient",
      "outputs": [],
      "stateMutability": "nonpayable",
      "type": "function"
    },
    {
      "inputs": [],
      "name": "isStartTimeSet",
      "outputs": [
        {
          "internalType": "bool",
          "name": "",
          "type": "bool"
        }
      ],
      "stateMutability": "view",
      "type": "function"
    },
    {
      "inputs": [],
      "name": "lockPeriods",
      "outputs": [
        {
          "internalType": "uint256",
          "name": "",
          "type": "uint256"
        }
      ],
      "stateMutability": "view",
      "type": "function"
    },
    {
      "inputs": [],
      "name": "owner",
      "outputs": [
        {
          "internalType": "address",
          "name": "",
          "type": "address"
        }
      ],
      "stateMutability": "view",
      "type": "function"
    },
    {
      "inputs": [
        {
          "internalType": "address",
          "name": "",
          "type": "address"
        }
      ],
      "name": "recipients",
      "outputs": [
        {
          "internalType": "uint256",
          "name": "totalAmount",
          "type": "uint256"
        },
        {
          "internalType": "uint256",
          "name": "amountWithdrawn",
          "type": "uint256"
        }
      ],
      "stateMutability": "view",
      "type": "function"
    },
    {
      "inputs": [],
      "name": "releasePeriods",
      "outputs": [
        {
          "internalType": "uint256",
          "name": "",
          "type": "uint256"
        }
      ],
      "stateMutability": "view",
      "type": "function"
    },
    {
      "inputs": [],
      "name": "renounceOwnership",
      "outputs": [],
      "stateMutability": "nonpayable",
      "type": "function"
    },
    {
      "inputs": [
        {
          "internalType": "uint256",
          "name": "_newStartTime",
          "type": "uint256"
        }
      ],
      "name": "setStartTime",
      "outputs": [],
      "stateMutability": "nonpayable",
      "type": "function"
    },
    {
      "inputs": [],
      "name": "startTime",
      "outputs": [
        {
          "internalType": "uint256",
          "name": "",
          "type": "uint256"
        }
      ],
      "stateMutability": "view",
      "type": "function"
    },
    {
      "inputs": [],
      "name": "totalAmount",
      "outputs": [
        {
          "internalType": "uint256",
          "name": "",
          "type": "uint256"
        }
      ],
      "stateMutability": "view",
      "type": "function"
    },
    {
      "inputs": [],
      "name": "totemToken",
      "outputs": [
        {
          "internalType": "contract TotemToken",
          "name": "",
          "type": "address"
        }
      ],
      "stateMutability": "view",
      "type": "function"
    },
    {
      "inputs": [
        {
          "internalType": "address",
          "name": "newOwner",
          "type": "address"
        }
      ],
      "name": "transferOwnership",
      "outputs": [],
      "stateMutability": "nonpayable",
      "type": "function"
    },
    {
      "inputs": [],
      "name": "unallocatedAmount",
      "outputs": [
        {
          "internalType": "uint256",
          "name": "",
          "type": "uint256"
        }
      ],
      "stateMutability": "view",
      "type": "function"
    },
    {
      "inputs": [
        {
          "internalType": "address",
          "name": "beneficiary",
          "type": "address"
        }
      ],
      "name": "vested",
      "outputs": [
        {
          "internalType": "uint256",
          "name": "_amountVested",
          "type": "uint256"
        }
      ],
      "stateMutability": "view",
      "type": "function"
    },
    {
      "inputs": [],
      "name": "withdraw",
      "outputs": [],
      "stateMutability": "nonpayable",
      "type": "function"
    },
    {
      "inputs": [],
      "name": "withdrawInterval",
      "outputs": [
        {
          "internalType": "uint256",
          "name": "",
          "type": "uint256"
        }
      ],
      "stateMutability": "view",
      "type": "function"
    },
    {
      "inputs": [
        {
          "internalType": "address",
          "name": "beneficiary",
          "type": "address"
        }
      ],
      "name": "withdrawable",
      "outputs": [
        {
          "internalType": "uint256",
          "name": "amount",
          "type": "uint256"
        }
      ],
      "stateMutability": "view",
      "type": "function"
    }
  ],
  "transactionHash": "0x0b8b4db29ca8844e17e054188362894ea97aaacdde9f960d041ed0a5a0a8db5b",
  "args": [
    "0xf2cf56fBE1Ae8E40f0e0D8672305c3bB115625A2"
  ],
  "solcInputHash": "9ec8b1e7bf1193bf1e041e388e7e6a6a",
  "bytecode": "0x608060405234801561001057600080fd5b50604051610e41380380610e418339818101604052602081101561003357600080fd5b5051806a01a784379d99db4200000062278d006005600080610053610109565b600080546001600160a01b0319166001600160a01b0383169081178255604051929350917f8be0079c531659141344cd1fd0a4f28419497f9722a3daafe3b4186f6b6457e0908290a350600084116100aa57600080fd5b600083116100b757600080fd5b600082116100c457600080fd5b600980546001600160a01b0319166001600160a01b0396909616959095179094556007839055600892909255600455600555600655506003805460ff1916905561010d565b3390565b610d258061011c6000396000f3fe608060405234801561001057600080fd5b50600436106101415760003560e01c8063715018a6116100b8578063e8153c931161007c578063e8153c9314610247578063eb8203121461024f578063f2fde38b1461028e578063f361c59b146102b4578063f57c8cdf146102d0578063f7982243146102d857610141565b8063715018a6146101e557806378e97925146101ed5780638da5cb5b146101f5578063a2d7f5e314610219578063ce513b6f1461022157610141565b80633ccfd60b1161010a5780633ccfd60b146101805780633e0a322d1461018a578063494051a0146101a75780634afe5bf3146101af5780634b3a5fa8146101b75780637102b728146101bf57610141565b8062ad3a2314610146578063162075d8146101605780631a39d8ef146101685780632509e0861461017057806330c6b5eb14610178575b600080fd5b61014e610304565b60408051918252519081900360200190f35b61014e610309565b61014e61030f565b61014e610315565b61014e61031b565b610188610322565b005b610188600480360360208110156101a057600080fd5b5035610465565b61014e610537565b61014e61053c565b61014e610542565b61014e600480360360208110156101d557600080fd5b50356001600160a01b0316610548565b610188610736565b61014e6107e2565b6101fd6107e8565b604080516001600160a01b039092168252519081900360200190f35b61014e6107f7565b61014e6004803603602081101561023757600080fd5b50356001600160a01b0316610806565b6101fd61083b565b6102756004803603602081101561026557600080fd5b50356001600160a01b031661084a565b6040805192835260208301919091528051918290030190f35b610188600480360360208110156102a457600080fd5b50356001600160a01b0316610863565b6102bc610965565b604080519115158252519081900360200190f35b61014e61096e565b610188600480360360408110156102ee57600080fd5b506001600160a01b038135169060200135610974565b600581565b60045481565b60075481565b60065481565b62278d0081565b600060016000610330610af4565b6001600160a01b03168152602081019190915260400160002080549091506103585750610463565b600061036333610548565b9050600061037033610806565b600184018390559050801561045f576009546001600160a01b031663a9059cbb610398610af4565b836040518363ffffffff1660e01b815260040180836001600160a01b0316815260200182815260200192505050602060405180830381600087803b1580156103df57600080fd5b505af11580156103f3573d6000803e3d6000fd5b505050506040513d602081101561040957600080fd5b505161041457600080fd5b7f884edad9ce6fa2440d8a54cc123490eb96d2768479d49ff9c7366125a942436461043d610af4565b604080516001600160a01b039092168252602082018490528051918290030190a15b5050505b565b61046d610af4565b6001600160a01b031661047e6107e8565b6001600160a01b0316146104c7576040805162461bcd60e51b81526020600482018190526024820152600080516020610cd0833981519152604482015290519081900360640190fd5b60035460ff1615806104da575042600254115b6104e357600080fd5b4281116104ef57600080fd5b60028190556003805460ff191660011790556040805182815290517faad53c4362ef2fe5a5390cc046e71fd8423a0a8dceebc156ac9bbcd15997eec29181900360200190a150565b600081565b60085481565b6108ca81565b6001600160a01b0381166000908152600160208181526040808420815180830190925280548252909201549082015260035460ff16158061058857508051155b8061059e575060065415801561059e5750600554155b806105aa575060025442105b156105b9576000915050610731565b60006105d2600654600454610af890919063ffffffff16565b6002549091506105e29082610b58565b4210156105f457600092505050610731565b6000610619610610600554600654610b5890919063ffffffff16565b60045490610af8565b6002549091506106299082610b58565b4210610639575050519050610731565b600061065c60045461065660025442610bb290919063ffffffff16565b90610c0f565b60010190506006548111610677576000945050505050610731565b60055460065461068691610b58565b8110610699575050905191506107319050565b83516000906106aa906108ca610c76565b90506106c160065483610bb290919063ffffffff16565b600114156106d55794506107319350505050565b60006106f7600160055403610656848960000151610bb290919063ffffffff16565b90506000610727836107218461071b60065460010189610bb290919063ffffffff16565b90610af8565b90610b58565b9750505050505050505b919050565b61073e610af4565b6001600160a01b031661074f6107e8565b6001600160a01b031614610798576040805162461bcd60e51b81526020600482018190526024820152600080516020610cd0833981519152604482015290519081900360640190fd5b600080546040516001600160a01b03909116907f8be0079c531659141344cd1fd0a4f28419497f9722a3daafe3b4186f6b6457e0908390a3600080546001600160a01b0319169055565b60025481565b6000546001600160a01b031690565b6a01a784379d99db4200000081565b6001600160a01b0381166000908152600160208190526040822001546108359061082f84610548565b90610bb2565b92915050565b6009546001600160a01b031681565b6001602081905260009182526040909120805491015482565b61086b610af4565b6001600160a01b031661087c6107e8565b6001600160a01b0316146108c5576040805162461bcd60e51b81526020600482018190526024820152600080516020610cd0833981519152604482015290519081900360640190fd5b6001600160a01b03811661090a5760405162461bcd60e51b8152600401808060200182810382526026815260200180610c896026913960400191505060405180910390fd5b600080546040516001600160a01b03808516939216917f8be0079c531659141344cd1fd0a4f28419497f9722a3daafe3b4186f6b6457e091a3600080546001600160a01b0319166001600160a01b0392909216919091179055565b60035460ff1681565b60055481565b61097c610af4565b6001600160a01b031661098d6107e8565b6001600160a01b0316146109d6576040805162461bcd60e51b81526020600482018190526024820152600080516020610cd0833981519152604482015290519081900360640190fd5b60035460ff1615806109e9575042600254115b6109f257600080fd5b6001600160a01b038216610a0557600080fd5b6001600160a01b03821660009081526001602052604090205415610a4c576001600160a01b038216600090815260016020526040902054600854610a4891610b58565b6008555b600081118015610a5e57506008548111155b610a6757600080fd5b604080518082018252828152600060208083018281526001600160a01b038716835260019182905293909120915182559151910155600854610aa99082610bb2565b600855604080516001600160a01b03841681526020810183905281517f16e42921daee38136dc17f8420c371163ec8299e5299fb480d7aeff85cfac3eb929181900390910190a15050565b3390565b600082610b0757506000610835565b82820282848281610b1457fe5b0414610b515760405162461bcd60e51b8152600401808060200182810382526021815260200180610caf6021913960400191505060405180910390fd5b9392505050565b600082820183811015610b51576040805162461bcd60e51b815260206004820152601b60248201527f536166654d6174683a206164646974696f6e206f766572666c6f770000000000604482015290519081900360640190fd5b600082821115610c09576040805162461bcd60e51b815260206004820152601e60248201527f536166654d6174683a207375627472616374696f6e206f766572666c6f770000604482015290519081900360640190fd5b50900390565b6000808211610c65576040805162461bcd60e51b815260206004820152601a60248201527f536166654d6174683a206469766973696f6e206279207a65726f000000000000604482015290519081900360640190fd5b818381610c6e57fe5b049392505050565b6000610b516127106106568585610af856fe4f776e61626c653a206e6577206f776e657220697320746865207a65726f2061646472657373536166654d6174683a206d756c7469706c69636174696f6e206f766572666c6f774f776e61626c653a2063616c6c6572206973206e6f7420746865206f776e6572a26469706673582212206636f80b4f28ecf07cc8ea5791eb727c2bb6fc8b49e2cdcf4513847f4997d4d864736f6c63430007060033",
  "devdoc": {
    "kind": "dev",
    "methods": {
      "owner()": {
        "details": "Returns the address of the current owner."
      },
      "renounceOwnership()": {
        "details": "Leaves the contract without owner. It will not be possible to call `onlyOwner` functions anymore. Can only be called by the current owner. NOTE: Renouncing ownership will leave the contract without an owner, thereby removing any functionality that is only available to the owner."
      },
      "transferOwnership(address)": {
        "details": "Transfers ownership of the contract to a new account (`newOwner`). Can only be called by the current owner."
      }
    },
    "version": 1
  },
  "userdoc": {
    "kind": "user",
    "methods": {},
    "version": 1
  },
  "storageLayout": {
    "storage": [
      {
        "astId": 53,
        "contract": "contracts/TotemVesting/PrivateSaleVesting.sol:PrivateSaleVesting",
        "label": "_owner",
        "offset": 0,
        "slot": "0",
        "type": "t_address"
      },
      {
        "astId": 5837,
        "contract": "contracts/TotemVesting/PrivateSaleVesting.sol:PrivateSaleVesting",
        "label": "recipients",
        "offset": 0,
        "slot": "1",
        "type": "t_mapping(t_address,t_struct(VestingSchedule)5833_storage)"
      },
      {
        "astId": 5839,
        "contract": "contracts/TotemVesting/PrivateSaleVesting.sol:PrivateSaleVesting",
        "label": "startTime",
        "offset": 0,
        "slot": "2",
        "type": "t_uint256"
      },
      {
        "astId": 5841,
        "contract": "contracts/TotemVesting/PrivateSaleVesting.sol:PrivateSaleVesting",
        "label": "isStartTimeSet",
        "offset": 0,
        "slot": "3",
        "type": "t_bool"
      },
      {
        "astId": 5843,
        "contract": "contracts/TotemVesting/PrivateSaleVesting.sol:PrivateSaleVesting",
        "label": "withdrawInterval",
        "offset": 0,
        "slot": "4",
        "type": "t_uint256"
      },
      {
        "astId": 5845,
        "contract": "contracts/TotemVesting/PrivateSaleVesting.sol:PrivateSaleVesting",
        "label": "releasePeriods",
        "offset": 0,
        "slot": "5",
        "type": "t_uint256"
      },
      {
        "astId": 5847,
        "contract": "contracts/TotemVesting/PrivateSaleVesting.sol:PrivateSaleVesting",
        "label": "lockPeriods",
        "offset": 0,
        "slot": "6",
        "type": "t_uint256"
      },
      {
        "astId": 5849,
        "contract": "contracts/TotemVesting/PrivateSaleVesting.sol:PrivateSaleVesting",
        "label": "totalAmount",
        "offset": 0,
        "slot": "7",
        "type": "t_uint256"
      },
      {
        "astId": 5851,
        "contract": "contracts/TotemVesting/PrivateSaleVesting.sol:PrivateSaleVesting",
        "label": "unallocatedAmount",
        "offset": 0,
        "slot": "8",
        "type": "t_uint256"
      },
      {
        "astId": 5853,
        "contract": "contracts/TotemVesting/PrivateSaleVesting.sol:PrivateSaleVesting",
        "label": "totemToken",
        "offset": 0,
        "slot": "9",
        "type": "t_contract(TotemToken)5428"
      }
    ],
    "types": {
      "t_address": {
        "encoding": "inplace",
        "label": "address",
        "numberOfBytes": "20"
      },
      "t_bool": {
        "encoding": "inplace",
        "label": "bool",
        "numberOfBytes": "1"
      },
      "t_contract(TotemToken)5428": {
        "encoding": "inplace",
        "label": "contract TotemToken",
        "numberOfBytes": "20"
      },
      "t_mapping(t_address,t_struct(VestingSchedule)5833_storage)": {
        "encoding": "mapping",
        "key": "t_address",
        "label": "mapping(address => struct TotemVesting.VestingSchedule)",
        "numberOfBytes": "32",
        "value": "t_struct(VestingSchedule)5833_storage"
      },
      "t_struct(VestingSchedule)5833_storage": {
        "encoding": "inplace",
        "label": "struct TotemVesting.VestingSchedule",
        "members": [
          {
            "astId": 5830,
            "contract": "contracts/TotemVesting/PrivateSaleVesting.sol:PrivateSaleVesting",
            "label": "totalAmount",
            "offset": 0,
            "slot": "0",
            "type": "t_uint256"
          },
          {
            "astId": 5832,
            "contract": "contracts/TotemVesting/PrivateSaleVesting.sol:PrivateSaleVesting",
            "label": "amountWithdrawn",
            "offset": 0,
            "slot": "1",
            "type": "t_uint256"
          }
        ],
        "numberOfBytes": "64"
      },
      "t_uint256": {
        "encoding": "inplace",
        "label": "uint256",
        "numberOfBytes": "32"
      }
    }
  }
}